:100000000C9433030C9455030C9455030C94550332
:100010000C9455030C9455030C9455030C94550300
:100020000C9455030C9455030C9455030C945503F0
:100030000C9455030C9455030C9455030C945503E0
:100040000C9455030C9455030C9455030C945503D0
:100050000C9455030C9455030C9455030C945503C0
:100060000C9455030C948A310C9489320C945503EA
:100070000C9455030C9455030C9455030C945503A0
:100080000C94992C0C9455030C9455030C94550323
:100090000C9461310C9460320C9455030C94870BD2
:1000A0000C9455030C9455030C9455030C94550370
:1000B0000C9455030C9455030C9455030C94550360
:1000C0000C9455030C9455030C9455030C9438313F
:1000D0000C9437320C9455030C940F310C940E325F
:1000E0000C945503E50B9E0B9E0B9E0B9E0B9E0BDB
:1000F0009E0B9E0BE50B9E0B9E0B9E0B9E0B9E0B71
:100100009E0B9E0BE70B9E0B9E0B9E0B9E0B9E0B5E
:100110009E0B9E0B1F0C9E0B9E0B9E0B9E0B9E0B15
:100120009E0B9E0BE70B9E0B9E0B9E0B9E0B9E0B3E
:100130009E0B9E0B1F0C9E0B9E0B9E0B9E0B9E0BF5
:100140009E0B9E0B270C9E0B9E0B9E0B9E0B9E0BDD
:100150009E0B9E0B570C9E0B9E0B9E0B9E0B9E0B9D
:100160009E0B9E0B9E0B9E0B9E0B9E0B9E0B9E0B47
:100170009E0B9E0BCD0B9E0B9E0B9E0B9E0B9E0B08
:100180009E0B9E0B0E0C9E0B9E0B9E0B9E0B9E0BB6
:100190009E0B9E0B540C9E0B9E0B9E0B9E0B9E0B60
:1001A0009E0B9E0B540C9E0B9E0B9E0B9E0B9E0B50
:1001B0009E0B9E0B3F0C9E0B9E0B9E0B9E0B9E0B55
:1001C0009E0B9E0B3F0C9E0B9E0B9E0B9E0B9E0B45
:1001D0009E0B9E0BB80B9E0B9E0B9E0B9E0B9E0BBD
:1001E0009E0B9E0BE10B9E0B9E0B9E0B9E0B9E0B84
:1001F0009E0B9E0BB80B9E0B9E0B9E0B9E0B9E0B9D
:100200009E0B9E0BE10B9E0B9E0B9E0B9E0B9E0B63
:100210009E0B9E0B2B0C9E0B9E0B9E0B9E0B9E0B08
:100220009E0B9E0BFC0B9E0B9E0B9E0B9E0B9E0B28
:100230009E0B9E0BFC0B9E0B9E0B9E0B9E0B9E0B18
:100240009E0B9E0BFE0B9E0B9E0B9E0B9E0B9E0B06
:100250009E0B9E0B310C9E0B9E0B9E0B9E0B9E0BC2
:100260009E0B9E0BC90B0D0A0A54656D7065726179
:10027000747572653A2025640D0A006E616E00691E
:100280006E660000407A10F35A00A0724E18090002
:1002900010A5D4E80000E87648170000E40B5402EB
:1002A0000000CA9A3B000000E1F505000080969826
:1002B00000000040420F000000A086010000001076
:1002C0002700000000E803000000006400000000B8
:1002D000000A00000000000100000000002C76D899
:1002E00088DC674F0823DFC1DFAE59E1B1B796E57F
:1002F000E3E453C63AE651997696E8E6C28426EBE3
:10030000898C9B62ED407C6FFCEFBC9C9F40F2BAF5
:10031000A56FA5F490055A2AF75C936B6CF9676D8D
:10032000C11BFCE0E40D47FEF520E6B500D0ED90E2
:100330002E0300943577050080841E080000204EAF
:100340000A000000C80C333333330F986E12831148
:1003500041EF8D2114893BE65516CFFEE6DB18D11F
:10036000844B381BF77C1D901DA4BBE424203284F1
:10037000725E228100C9F124ECA1E53D2700A0E0D6
:10038000B0E0E5ECF1E00C943136E9E0CE2EAA24A1
:10039000A39488248A94982C7724739405C00F9092
:1003A0000FBEBB2009F05FC08091B502882309F41D
:1003B00080C08091AA028F5F8093AA02B090FA0257
:1003C0000FB6F8940F928091AA0281508093AA02EE
:1003D0008091AA02882319F78091A4028823F9F258
:1003E0008091F102882371F1E091F602F091F70219
:1003F000C681D781CE010C960E94DE2E8E010E5F43
:100400001F4FC8010E94DE2E9E898091A502891788
:1004100018F49093A5029E899C9DC00111248954D3
:100420009D4FB8010E948D2EE091A202F091A3028F
:100430009E8986899817A0F2A092A6028091F10267
:10044000882391F68091B302882309F04DC08091F2
:10045000A602813009F0A3CF0E949C2C0F900FBE02
:10046000BB2009F4A1CF0FB6F8940F92E091FF02E0
:10047000F091000306811781C80102960E94DE2ECA
:100480008091A40281508093A4028091B502815092
:100490008093B5020F900FBEF8018789908D0E945E
:1004A000082DC8010E94082D8091B502882309F00B
:1004B00080CF8091B702823008F476CF0E949C2CC6
:1004C00073CF8091B3028F5F8093B302DD2480915C
:1004D000A602882309F095C0DD2009F092C0809122
:1004E000B30281508093B3028091B302882309F450
:1004F000AECF8091AA02882321F78091A702909124
:10050000A80201969093A8028093A702E090A70208
:10051000F090A802E114F10409F52091ED02309168
:10052000EE028091EF029091F0029093EE028093A0
:10053000ED023093F0022093EF028091A9028F5FC9
:100540008093A902E091ED02F091EE028081882370
:1005500009F073C09092440280924302809143025A
:1005600090914402E816F90608F44EC0DD24E091AB
:10057000ED02F091EE0280818823F1F1E091ED022D
:10058000F091EE020580F681E02DC681D7818A8147
:100590009B81E816F90608F461C08E010E5F1F4FBB
:1005A000C8010E94DE2E8C899D89892B21F0CE0105
:1005B0000C960E94DE2E9E898091A502891718F460
:1005C0009093A5029E899C9DC001112489549D4F42
:1005D000B8010E948D2EE091A202F091A3029E89A3
:1005E0008689981720F2DD24D394E091ED02F091F2
:1005F000EE028081882311F6909244028092430299
:1006000004C07092A6026BCFDD24E091A202F091AB
:10061000A302868990E0FC01EE0FFF1FEE0FFF1F83
:10062000EE0FFF1FE80FF91FE954FD4F8081823064
:1006300008F44DCFDD24D3944ACFE091ED02F09140
:10064000EE020580F681E02D0680F781E02D8281A3
:100650009381909344028093430280CF909344020D
:1006600080934302D2CF11241FBECFEFD1E2DEBF71
:10067000CDBF00E00CBF12E0A0E0B2E0EEEFFCE680
:1006800000E00BBF02C007900D92A438B107D9F764
:100690001BBE15E1A4E8B2E001C01D92A63CB10763
:1006A000E1F70E947F0A0C947D360C9400008F9332
:1006B0008FB78F93F89480914E158F5F80934E156E
:1006C00080914F158F4F80934F15809150158F4F0C
:1006D00080935015809151158F4F809351158F91B4
:1006E0008FBF8F910895A1E1B0E0E9E7F3E00C94AA
:1006F0002C363C017F876E876A01FC0117821682C7
:10070000838181FD03C06FEF7FEF71C39E012F5F77
:100710003F4F398B288BF3012381EE85FF8523FD25
:10072000859123FF8191FF87EE87882309F45CC3BD
:10073000853251F4EE85FF8523FD859123FF81915C
:10074000FF87EE87853229F490E0B3010E94030809
:10075000E2CF982F10E0882499241032B0F49B3215
:1007600069F09C3228F4903251F0933271F40BC04E
:100770009D3239F0903349F4116028C01260146042
:1007800025C0186023C0106121C017FD2AC0892F21
:1007900080538A3078F416FF06C0FAE09F9E902CB2
:1007A0001124980E13C03AE0839E802C1124880EE9
:1007B00010620CC09E3221F416FD16C3106406C0F0
:1007C0009C3611F4106802C0983659F4EE85FF8506
:1007D00023FD959123FF9191FF87EE87992309F0DF
:1007E000BCCF892F8554833020F4812F8061905EA7
:1007F00007C0892F8556833008F0A1C1812F8F7ED5
:1008000086FD02C076E0972E6FE3F62EF82295362D
:1008100019F4F0E4FF2A07C0963619F420E8F22A0A
:1008200002C091109A94F7FE0BC03BE3391520F4F7
:1008300027E05CE3B52E0EC0B92CB39427E00AC0C4
:1008400047E0491528F427E0BB2447E0942E02C076
:10085000292DBB24C60104969D878C87F6016081F3
:10086000718182819381AE014F5F5F4F0B2D0E949A
:10087000FC066C010981202E332400FF04C003FD17
:1008800002C01DE209C0F1FE02C01BE205C0F2FC7D
:1008900002C010E001C010E2C1018C709070892B81
:1008A000B9F1112311F483E001C084E0881510F040
:1008B00088240AC0881AF3FC07C080E290E0B301E4
:1008C0000E9403088A94C9F7112329F0812F90E030
:1008D000B3010E94030823FE03C00BE712E00EC021
:1008E0000FE712E00BC0E114F10409F0805290E030
:1008F000B3010E9403080F5F1F4F05C0EF2CFF24B8
:10090000F0E1EF22FF24F8018491882361F714C1FC
:10091000F7FE12C0BC0C24FE04C08A81813309F4A6
:10092000BA941B141CF0BB24B3942DC0F8E0FB1543
:1009300050F538E0B32E27C0F6FC25C0892D90E095
:100940008C159D054CF02CEFC2162FEFD20624F02B
:1009500030E8F32A01C09A94992049F0E2E0F0E0EF
:10096000EC0FFD1FE90DF11D80818033A1F3F7FE2F
:100970000AC0B92CB394892D90E0C816D90614F09A
:10098000992401C09C18F7FC03C025E030E009C0A1
:100990001C141D041CF021E030E003C096012F5F01
:1009A0003F4F112311F02F5F3F4F992029F0892DE0
:1009B00090E00196280F391F882D90E028173907FD
:1009C00014F0882401C0821A4F2C5524C20189706A
:1009D0009070892B39F008C080E290E0B3010E944A
:1009E00003088A948820C1F7112329F0812F90E011
:1009F000B3010E94030843FE07C008C080E390E0F3
:100A0000B3010E9403088A948820C1F7F7FE46C00C
:100A10008601D7FE02C000E010E076010894E11CD8
:100A2000F11CE01AF10A41E050E04C0F5D1FE40EAA
:100A3000F51E26014B185108892D90E0AA24BB24ED
:100A4000A81AB90A5FEF0F3F150729F48EE290E06C
:100A5000B3010E940308C016D10634F040165106B7
:100A60001CF4F701808101C080E30150104008941C
:100A7000E11CF11C0A151B052CF090E0B3010E944B
:100A80000308E0CF0C151D0539F49A81963318F44C
:100A9000953311F424FE81E390E04BC08A818133C9
:100AA00009F00F7E90E0B3010E9403089920A1F0A5
:100AB0008EE290E0B3010E94030812E0E1E0F0E072
:100AC000EC0FFD1FE10FF11D1F5F808190E0B3016E
:100AD0000E9403089A9491F744FC03C085E690E0D5
:100AE00002C085E490E0B3010E940308D7FC05C072
:100AF000C114D10441F404FF06C0D094C194D108BC
:100B0000D3948DE201C08BE290E0B3010E94030810
:100B100080E305C08F5F26EF3FEFC20ED31E3AE0A1
:100B2000C316D104BCF790E0B3010E940308C601CC
:100B3000C096B3010E940308CC84DD8452C1933671
:100B400031F0933799F0933509F059C023C0F6017D
:100B5000808189835E010894A11CB11C22E030E0F1
:100B6000C20ED31E21E0E22EF12C12C0F601A080AD
:100B7000B18016FD03C06FEF7FEF02C0692D70E0FA
:100B800022E030E0C20ED31EC5010E94F8077C01AE
:100B90001F7713C0F601A080B18016FD03C06FEF70
:100BA0007FEF02C0692D70E022E030E0C20ED31E5C
:100BB000C5010E94DD077C01106813FF07C01BC040
:100BC00080E290E0B3010E9403088A94882D90E0AF
:100BD000E816F906A8F30FC0F50117FD859117FF78
:100BE00081915F0190E0B3010E94030881108A9413
:100BF0000894E108F108E114F10471F7F2C09436A9
:100C000011F0993689F517FF08C0F601208131816E
:100C10004281538184E090E00AC0F6018081918195
:100C20009C01442737FD4095542F82E090E0C80E88
:100C3000D91E9FE6F92EF12257FF09C05095409525
:100C4000309521953F4F4F4F5F4F90E8F92ACA01E9
:100C5000B901AE014F5F5F4F2AE030E00E94A70864
:100C6000E82EE889EE1A41C0953721F41F7E2AE06C
:100C700030E01CC0197F9F3661F0903720F4983522
:100C800009F0B2C00FC0903739F0983709F0ACC006
:100C900004C028E030E00AC0106114FD146020E1B7
:100CA00030E004C014FD166020E132E017FF08C0F8
:100CB000F601608171818281938144E050E008C037
:100CC000F60180819181BC0180E090E042E050E03B
:100CD000C40ED51EAE014F5F5F4F0E94A708E82EDD
:100CE0005889E51A8FE7F82EF122F6FE0BC08EEF39
:100CF000F822E91438F4F4FE07C0F2FC05C09FEEB8
:100D0000F92202C01E2D01C0192DF4FE0DC0FE01F6
:100D1000EE0DF11D8081803319F4E9EEFE2208C04A
:100D20001F5FF2FE05C003C08F2D867809F01F5F9C
:100D30000F2DF3FC14C0F0FE0FC0181510F09E2C00
:100D40000BC09E2C980C911A182D06C080E290E0E2
:100D5000B3010E9403081F5F1815C0F304C01815E3
:100D600010F4811A01C0882404FF0FC080E390E0D2
:100D7000B3010E94030802FF1DC001FD03C088E704
:100D800090E00EC088E590E00BC0802F867891F04F
:100D900001FF02C08BE201C080E2F7FC8DE290E02F
:100DA000B3010E94030806C080E390E0B3010E94F3
:100DB00003089A94E914C0F3EA94E1E0F0E0EC0F40
:100DC000FD1FEE0DF11D808190E0B3010E9403082C
:100DD000EE2091F706C080E290E0B3010E94030884
:100DE0008A948820C1F797CCF30166817781CB0183
:100DF0006196E2E10C944836283008F027E033276A
:100E0000DA01990F311D87FD91600096610571052A
:100E100039F432602E5F3D9330E32A95E1F708956F
:100E20009F3F30F080387105610509F03C5F3C5F01
:100E30003D93913008F08068911DDF93CF931F930D
:100E40000F93FF92EF92192F987F9695E92F969521
:100E50009695E90FFF27E352FD4F99273327EE249C
:100E6000FF24A701E70105900894079428F4360FA2
:100E7000E71EF81E491F511D660F771F881F991F17
:100E80000694A1F70590079428F4E70EF81E491F71
:100E9000561FC11D770F881F991F661F0694A1F763
:100EA0000590079428F4F80E491F561FC71FD11D3F
:100EB000880F991F661F771F0694A1F70590079466
:100EC00020F4490F561FC71FD81F990F661F771FA1
:100ED000881F0694A9F784911095177041F0D69554
:100EE000C79557954795F794E7941A95C1F7E3E8A6
:100EF000F2E0689415901591359165919591059062
:100F00007FE27395E118F10A430B560BC90BD00928
:100F1000C0F7E10CF11E431F561FC91FD01D7EF400
:100F2000703311F48A95E6CFE894015030F0080F41
:100F30000AF40027021708F4202F2395022F7A3392
:100F400028F079E37D932A95E9F710C07D932A95DF
:100F500089F6069497956795379517951794E11834
:100F6000F10A430B560BC90BD00998F023957E91DB
:100F700073957A3308F070E37C932013B8F77E9171
:100F800070617D9330F0839571E37D9370E32A95D2
:100F9000E1F71124EF90FF900F911F91CF91DF9116
:100FA000992787FD90950895FC0105900020E9F7A9
:100FB000809590958E0F9F1F0895FC0105906150BC
:100FC00070400110D8F7809590958E0F9F1F08955F
:100FD000FB01DC0102C001900D9241505040D8F756
:100FE0000895DC0101C06D9341505040E0F7089531
:100FF000FC016150704001900110D8F780959095E8
:101000008E0F9F1F08950F931F93CF93DF938C0133
:10101000EB018B8181FF1BC082FF0DC02E813F81C0
:101020008C819D812817390764F4E881F981019347
:10103000F983E88306C0E885F985802F1995892B07
:1010400031F48E819F8101969F838E8302C00FEFC2
:101050001FEFC801DF91CF911F910F910895AEE06E
:10106000B0E0E5E3F8E00C943A360E891F8986E09B
:101070008C831A8309838FEF9FE79E838D839E0164
:10108000265E3F4FCE010196688D798DA9010E94A1
:1010900073032F813885020F131FF80110822E96DB
:1010A000E4E00C945636AEE0B0E0E9E5F8E00C94EC
:1010B0003A368C0177FF02C060E070E86150704002
:1010C0007E836D831A83098386E08C83CE0101962B
:1010D000BA01A9010E9473032D813E8137FD09C029
:1010E000EF81F8852E173F070CF4F901E00FF11F8F
:1010F00010822E96E4E00C945636AEE0B0E0E3E8C1
:10110000F8E00C943A368C0177FF02C060E070E89A
:10111000615070407E836D831A8309838EE08C83D7
:10112000CE010196BA01A9010E9473032D813E816F
:1011300037FD09C0EF81F8852E173F070CF4F90140
:10114000E00FF11F10822E96E4E00C945636FA015F
:10115000AA27283051F1203181F1E8946F936E7FF6
:101160006E5F7F4F8F4F9F4FAF4FB1E03ED0B4E0E7
:101170003CD0670F781F891F9A1FA11D680F791F28
:101180008A1F911DA11D6A0F711D811D911DA11D39
:1011900020D009F468943F912AE0269F1124301949
:1011A000305D3193DEF6CF010895462F4770405DE4
:1011B0004193B3E00FD0C9F7F6CF462F4F70405D93
:1011C0004A3318F0495D31FD4052419302D0A9F7EE
:1011D000EACFB4E0A6959795879577956795BA95E8
:1011E000C9F700976105710508959B01AC010A2EAE
:1011F00006945795479537952795BA95C9F7620F85
:10120000731F841F951FA01D0895A2E0B0E0EBE0BE
:10121000F9E00C94343681E090E040E855E260E07B
:1012200070E02FEF30E000E410E00E94323581E002
:1012300090E06EEF0E94182F81E090E061E00E9444
:10124000182F7E010894E11CF11CD701E0E0F2E0C8
:1012500083E001900D928150E1F7F70101900020A9
:10126000E9F7CF0100D000D0ADB7BEB71196019716
:10127000EDB7FEB79283818393E0A92E92E0B92E59
:101280001396BC92AE92129780913B1514968C9354
:10129000149715961C920E942F08F70101900020C8
:1012A000E9F7319780E290E0918380838DB79EB714
:1012B00006960FB6F8949EBF0FBE8DBF81E090E0FA
:1012C000B7010E94CF33D701E6E0F2E083E001905E
:1012D0000D928150E1F705E010E089E0C82E82E030
:1012E000D82E2BC0F70101900020E9F7CF0100D0E4
:1012F00000D0ADB7BEB711960197EDB7FEB7928398
:1013000081831396DC92CE921297F801E85CFA4E34
:10131000808114968C93149715961C920E942F0826
:101320008DB79EB706960FB6F8949EBF0FBE8DBFC1
:101330000231110554F50E5F1F4F0530110591F66E
:10134000F70101900020E9F7CF0100D000D0ADB740
:10135000BEB711960197EDB7FEB7928381831396BE
:10136000BC92AE92129780913D1514968C9314976F
:1013700015961C920E942F088DB79EB706960FB641
:10138000F8949EBF0FBE8DBFD6CF81E090E0B7012D
:101390000E94CF332296EAE00C945036A4E1B0E0EC
:1013A000E4EDF9E00C94363683E0C82ED12CCC0E57
:1013B000DD1ED601E1E7F2E082E101900D9281505D
:1013C000E1F781ED898381E08A8300E010E07E010E
:1013D0000894E11CF11CC601800F911F62E070E0CF
:1013E0000E940C0BC70162E070E00E940C0BC80168
:1013F000865C9A4E62E070E00E94570B20913D158A
:1014000080913B1590E0820F911D20913F15820F36
:10141000911D20914115820F911D20914315820F3E
:10142000911D20914515820F911D20914715820F26
:10143000911D20914915820F911D20914B15820F0E
:10144000911D69E070E00E94F7359B0170931A15B9
:10145000609319150E5F1F4F0231110509F0BBCFC4
:101460006E31710554F12E5130402A30310598F01B
:101470006D986B9880910101886080930101739A47
:10148000759A80910201877F809302016496E8E05B
:101490000C94523633C080910101877F8093010103
:1014A0006B9A759A8091020188608093020173980B
:1014B0006496E8E00C94523621C000D00F9286E684
:1014C00092E0EDB7FEB792838183748363830E94B9
:1014D000D13480910101877F809301016D9A739AC5
:1014E0008091020188608093020175980F900F909F
:1014F0000F900F906496E8E00C945236FFCFAF92B5
:10150000BF92CF92DF92EF92FF920F931F9380E0F2
:1015100090E040E855E260E070E02FEF30E000E45A
:1015200010E00E94323590934D1580934C1589EB55
:101530009AE060E070E040E051E020E030E003E05D
:10154000EE24FF24CC24DD24AA24BB240E941C29E1
:1015500080EC90E00E94600C0E94212A80E090E0E4
:101560001F910F91FF90EF90DF90CF90BF90AF90C1
:101570000895A2E0B0E0EFEBFAE00C943A360E9456
:10158000C1129A8389838E010F5F1F4F80E00E94F2
:10159000CE09C80162E370E00E94112780E00E943A
:1015A0000509F4CF8091BC0080FDFCCF109286022B
:1015B00088EF8093420285EC8093BC00089580916F
:1015C000BC0080FDFCCF1092860288EF809342021F
:1015D00085EE8093BC000895AC018091BC0080FD35
:1015E000FCCF6093A102662371F020E030E0F901A6
:1015F000E757FD4FDA01A20FB31F8C9180832F5F55
:101600003F4F2617A0F31092860288EF8093420284
:1016100085EC8093BC000895FC018091BC0080FDA6
:10162000FCCF6093A102808180938902808180FD3C
:1016300011C0623078F0DF01EAE8F2E0625070E059
:1016400065577D4F11968C91119781931196E617EE
:10165000F707C1F71092860288EF8093420285EA6D
:101660008093BC000895AC018091BC0080FDFCCF4C
:101670002091860220FF19C0662381F020E030E02F
:10168000FA01E20FF31FD901A757BD4F8C91808358
:101690002F5F3F4F2617A0F320918602822F8D7F68
:1016A00080938602822F8170089580E00895AC01B6
:1016B0008091BC0080FDFCCF80918602282F217094
:1016C00080FF13C0662389F020E030E0FA01E20FCA
:1016D000F31FD901A757BD4F8C9180832F5F3F4FD8
:1016E0002617A0F3209186022170822F0895809101
:1016F0008702882319F089B189B1FDCF81E008956F
:101700008091BC0080FDFCCF8091420208951F9221
:101710000F920FB60F920BB60F9211242F933F9397
:101720008F939F93AF93BF93EF93FF938091B900F3
:1017300090E0FC013897E13CF105B0F08091B900F0
:101740008093420285ED8093BC00FF91EF91BF91A1
:10175000AF919F918F913F912F910F900BBE0F9062
:101760000FBE0F901F901895EE58FF4F0C946336E4
:10177000809188029091BB00E82FF0E0E757FD4F81
:1017800090838F5F8093880280918602816080932E
:10179000860285EC8093BC00D8CF2091880280918E
:1017A000BB00E22FF0E0E757FD4F80832F5F2093CF
:1017B000880230E08091A10290E001972817390754
:1017C00044F385E88093BC00C0CF109288029091CA
:1017D00088028091A102981708F05DC0E92FF0E01F
:1017E000E757FD4F80818093BB009F5F90938802F5
:1017F00085E88093BC00A9CF10928802909188025E
:10180000E92FF0E0E757FD4F80818093BB009F5F99
:101810009093880285EC8093BC0097CF8091BB00A9
:10182000E0918802F0E0E757FD4F808380918602C7
:1018300081608093860284ED8093BC0086CF809186
:10184000B9008093420285EE8093BC007ECF85EE86
:101850008093BC007ACF84E0809387028093BC00A1
:1018600074CF909188028091A102981719F180910C
:10187000B9008093420284E08093BC0066CF8091DF
:10188000860284608260809386021092880285ECD2
:101890008093BC005ACF809186028160809386023B
:1018A00084E98093BC0051CF80918602EBCF2091D8
:1018B00088027FCF80918602816080938602DBCF91
:1018C0001F93182F8091840290918502892BA9F093
:1018D0008AB18C7F8AB98BB183608BB91092B900C1
:1018E0008CE28093B8001093BA008FEF8093BB0016
:1018F00084E08093BC001F91089581E060E043E0A4
:101900000E944D129093850280938402009701F308
:1019100060E070E040E050E020E00E94BA0FD8CFD5
:101920001F93182F8091840290918502892B69F072
:101930008AB18C7F8AB91093BA008FEF8093BB0075
:1019400084E08093BC001F91089581E060E043E053
:101950000E944D129093850280938402009741F378
:1019600060E070E040E050E020E00E94BA0FE0CF7D
:101970000FB6F8940F92FC01828D0F900FBE089560
:10198000FC010FB6F8940F92928D0F900FBE838DCD
:10199000891B0895FC01828D0895FC01878D0895AF
:1019A000FC01678F0895FC0180A10895FC01828DE0
:1019B00090E0882309F491E0892F0895FC01928D2D
:1019C00020E0838D981711F0822F089521E0822F57
:1019D0000895CF93DF93EC0188819981009711F0EE
:1019E0000E94082DCE010E94082DDF91CF9108950D
:1019F0000F931F93CF93DF93562FE72FEC018A8D20
:101A00008823F1F00E811F8168817981611571054C
:101A1000A1F04C8D9801240F311D3F832E838A81C4
:101A20009B812817390710F07F836E836E817F8139
:101A3000852F9E2F50E00E94E8071F830E8381E0D0
:101A4000DF91CF911F910F9108950F931F93CF9323
:101A5000DF93FB018A01EC018A8D882319F16881EB
:101A6000798161157105A1F04C8D8E819F81840F64
:101A7000911D9F838E832A813B818217930710F0EB
:101A80007F836E836E817F81CF0150E00E94E807E3
:101A90008A8D81508A8F8D8D8F3F49F08D8D8F5F1C
:101AA0008D8F81E0DF91CF911F910F9108958885EF
:101AB000882331F481E0DF91CF911F910F91089538
:101AC000CE0108960E94D5148823A1F301151105B3
:101AD00089F381E0F8018083E5CFA5E0B0E0E3E79A
:101AE000FDE00C942E36562E472E5D834C83A22E9D
:101AF0008C0128E0C22ED12CC80ED91E91E1E92E0E
:101B0000F12CE00EF11E20E04E010894811C911C86
:101B100084E0682E712C6C0E7D1EBB24BA940FB627
:101B2000F8940F92F801828D882309F0ECC08C8123
:101B30009D81892B09F41CC1222309F4D5C00F9083
:101B40000FBE0E94BB120FB6F8940F92F801858D5C
:101B50008F3F09F4C7C0F801868D8F3F09F4C0C0DC
:101B60000F900FBEC401B3010E94E012882309F058
:101B700007C10FB6F8940F92F801828D0F900FBE37
:101B8000882309F05FC0F80180819181892B09F4D5
:101B9000AFC06C817D81C7010E94BF160FB6F8945B
:101BA0000F92F801868D18164CF019C0F801868D39
:101BB0008150868F868D181694F4F80181898823C8
:101BC00071F0C7010E94D514882381F30E941F136E
:101BD000F801868D8150868F868D181674F3F80172
:101BE000B68E0F900FBE0FB6F8940F92F801858D48
:101BF00018164CF019C0F801858D8150858F858DA0
:101C0000181694F4F8018085882371F0C6010E94AB
:101C1000D514882381F30E941F13F801858D81500C
:101C2000858F858D181674F3F801B58E0F900FBE51
:101C30000E94D517882311F021E071CF0E949C2CBF
:101C400021E06DCF0FB6F8940F92F801868D18162B
:101C50004CF019C0F801868D8150868F868D18163C
:101C600094F4F8018189882371F0C7010E94D5148A
:101C7000882381F30E941F13F801868D8150868F7F
:101C8000868D181674F3F801B68E0F900FBE0FB63E
:101C9000F8940F92F801858D18164CF019C0F801D0
:101CA000858D8150858F858D181694F4F801808577
:101CB000882371F0C6010E94D514882381F30E9405
:101CC0001F13F801858D8150858F858D181674F34B
:101CD000F801B58E0F900FBE0E94D51721E01FCFDF
:101CE000168E3ECF158E37CFC4010E94D51227CF56
:101CF0000FB6F8940F92F801828193810E944D14DF
:101D00000F900FBE46CF86809780608171816115EC
:101D10007105A1F0448D9401240F311D3783268372
:101D2000828193812817390708F08CC0F8016681F9
:101D30007781852D942D50E00E94E807AA2009F0B4
:101D400073C0F801828D8150828F80819181892BAF
:101D500009F481C0F8018085882309F46BC0C601AD
:101D60000E94D514813009F065C00E949C2C62C08D
:101D70000F900FBE80E02596E0E10C944A3671C0CA
:101D80000FB6F8940F92F801868D18164CF019C012
:101D9000F801868D8150868F868D181694F4F8018F
:101DA0008189882371F0C7010E94D514882381F3AB
:101DB0000E941F13F801868D8150868F868D18161C
:101DC00074F38FEFF801868F0F900FBE0FB6F89463
:101DD0000F92F801858D18164CF019C0F801858D09
:101DE0008150858F858D181694F4F801808588239D
:101DF00071F0C6010E94D514882381F30E941F133D
:101E0000F801858D8150858F858D181674F38FEFBD
:101E1000F801858F0F900FBE0E94D51780E02596A0
:101E2000E0E10C944A361DC0F801978286828189D0
:101E3000882359F40F900FBE81E02596E0E10C94C1
:101E40004A360FC07783668371CFC7010E94D514CD
:101E5000882381F38ACF0E94FD13F8019383828344
:101E600079CFEF92FF921F93CF93DF937A01122FD6
:101E7000EC019A8D8B8D981748F0223039F080E074
:101E8000DF91CF911F91FF90EF9008954C8D4423E7
:101E9000A9F488819981892B09F465C08A8D8F5FA7
:101EA0008A8F8E8D8F3F89F18E8D8F5F8E8F81E02F
:101EB000DF91CF911F91FF90EF900895112379F159
:101EC0008E819F8150E00E94E8078C8D90E044272E
:101ED0005527481B590B8E819F81840F951F9F8327
:101EE0008E83288139818217930730F48A819B8100
:101EF000840F951F9F838E83123081F68A8D8823ED
:101F000069F28A8D81508A8FC9CF89898823F1F43B
:101F100081E0DF91CF911F91FF90EF9008958C8128
:101F20009D8150E00E94E8078C8D2C813D81280F17
:101F3000311D3D832C838A819B812817390708F442
:101F4000ADCF888199819D838C83A8CFCE014196A6
:101F50000E94D5148823E1F2E114F104C9F281E072
:101F6000F7018083A5CF8A819B810E941B141B826D
:101F70001A8294CFA5E0B0E0E0ECFFE00C942E369E
:101F8000562E472E5D834C83B22E8C0158E0E52EF1
:101F9000F12CE80EF91E41E1C42ED12CC80ED91E39
:101FA00020E04E010894811C911C34E0632E712CBA
:101FB0006C0E7D1EAA24AA940FB6F8940F92F80115
:101FC000928D838D981708F4E0C0F2E0BF1609F4F3
:101FD000DCC08C819D81892B09F41EC1222309F468
:101FE00078C00F900FBE0E94BB120FB6F8940F92EC
:101FF000F801858D8F3F09F46AC0F801868D8F3F07
:1020000009F463C00F900FBEC401B3010E94E01237
:10201000882309F009C10FB6F8940F92F801928D48
:102020000F900FBEF801838D981709F456C00FB6B4
:10203000F8940F92F801868D18164CF019C0F8012B
:10204000868D8150868F868D181694F4F8018189CB
:10205000882371F0C6010E94D514882381F30E9461
:102060001F13F801868D8150868F868D181674F3A4
:10207000F801A68E0F900FBE0FB6F8940F92F801DC
:10208000858D18164CF019C0F801858D8150858F0B
:10209000858D181694F4F8018085882371F0C701A6
:1020A0000E94D514882381F30E941F13F801858DA7
:1020B0008150858F858D181674F3F801A58E0F90C9
:1020C0000FBE0E94D51721E077CF168E9BCF158EBD
:1020D00094CFC4010E94D51284CF6C817D81C70149
:1020E0000E94BF160FB6F8940F92F801868D18164D
:1020F0004CF019C0F801868D8150868F868D181698
:1021000094F4F8018189882371F0C6010E94D514E6
:10211000882381F30E941F13F801868D8150868FDA
:10212000868D181674F3F801A68E0F900FBE0FB6A9
:10213000F8940F92F801858D18164CF019C0F8012B
:10214000858D8150858F858D181694F4F8018085D2
:10215000882371F0C7010E94D514882381F30E945F
:102160001F13F801858D8150858F858D181674F3A6
:10217000F801A58E0F900FBE0E94D517882309F095
:10218000A2CF0E949C2C21E017CFF801448D44235C
:10219000A9F480819181892B09F4BEC0F801828D58
:1021A0008F5F828F8189882309F0ADC00F900FBEA9
:1021B00081E02596E0E10C944A36B6C0BB2009F4D4
:1021C00087C0F80186819781652D742D50E00E94AB
:1021D000E807F801848D90E044275527481B590BE8
:1021E00086819781840F951F978386832081318113
:1021F0008217930730F482819381840F951F978310
:102200008683F2E0BF1651F6F801828D882331F201
:10221000828D8150828FC2CF0F900FBE80E02596B5
:10222000E0E10C944A3680C00FB6F8940F92F801A2
:10223000868D18164CF019C0F801868D8150868F56
:10224000868D181694F4F8018189882371F0C601EF
:102250000E94D514882381F30E941F13F801868DF4
:102260008150868F868D181674F38FEFF801868F54
:102270000F900FBE0FB6F8940F92F801858D1816C7
:102280004CF019C0F801858D8150858F858D181609
:1022900094F4F8018085882371F0C7010E94D51459
:1022A000882381F30E941F13F801858D8150858F4B
:1022B000858D181674F38FEFF801858F0F900FBE80
:1022C0000E94D51780E02596E0E10C944A362CC098
:1022D000F80184819581652D742D50E00E94E807F6
:1022E000F801848D24813581280F311D35832483A5
:1022F000828193812817390708F450CF808191811A
:10230000958384834BCFC6010E94D514813009F098
:102310004DCF0E949C2C4ACF828193810E941B1436
:10232000F801138212823ACF0F931F93CF93DF935A
:10233000182F81E290E00E947B2DEC01009719F1AB
:102340001B821A82198218821D821C821F821E82A1
:102350001A8E81E08B8F1C8E8FEF8D8F8E8F18A33E
:10236000CE0108960E94792E8E010F5E1F4FC80184
:102370000E94792E0FB6F8940F929A8D8B8D981734
:1023800040F00F900FBECE01DF91CF911F910F91C2
:1023900008954C8D442391F488819981892B71F1A2
:1023A0008A8D8F5F8A8F8989882301F50F900FBEF0
:1023B000CE01DF91CF911F910F9108958C819D8166
:1023C00060E070E050E00E94E8078C8D2C813D8138
:1023D000280F311D3D832C838A819B812817390763
:1023E000F8F2888199819D838C83DACFC8010E949D
:1023F000D5148130D9F60E949C2CD8CF8A819B813C
:102400000E941B141B821A82CBCFCF93DF93EC0167
:102410000FB6F8940F92EC8D2B8DE29FC001112422
:1024200048815981840F951F9B838A831A8E5D830F
:102430004C8330E021503040F0E02E9FC0012F9FB0
:10244000900D3E9F900D1124480F591F5F834E83BE
:102450008FEF8D8F8E8F662391F48885882331F4DA
:102460000F900FBE81E0DF91CF910895CE010896C5
:102470000E94D5148130A1F70E949C2CF1CFCE018F
:1024800008960E94792ECE0141960E94792E0F90D7
:102490000FBE81E0DF91CF910895CF92DF92FF923E
:1024A0000F931F93CF93DF93182F062FF42E8823BB
:1024B00059F440E050E0CA01DF91CF911F910F9194
:1024C000FF90DF90CF90089581E290E00E947B2DF5
:1024D000EC01009771F3C02EDD24812F90E09C0168
:1024E000C29EC001C39E900DD29E900D11240196F4
:1024F0000E947B2D998388830097B9F11B8F0C8FE5
:102500000FB6F8940F922B8D30E0C29EC001C39E8F
:10251000900DD29E900D112448815981840F951FF2
:102520009B838A831A8E5D834C83215030408C8D2F
:1025300090E0BC01269FC001279F900D369F900D13
:102540001124480F591F5F834E838FEF8D8F8E8F1D
:10255000CE0108960E94792ECE0141960E94792ED6
:102560000F900FBEF8A2AE01A6CFCE010E94082D9B
:1025700040E050E0A0CF8091AA028F5F8093AA0232
:1025800008950FB6F8940F922091A7023091A802F7
:102590000F900FBEC90108952091A7023091A802A3
:1025A000C90108958091A4020895FC018091A902B7
:1025B00080838091A7029091A802928381830895DD
:1025C000FC01DB010FB6F8940F926091A7027091A5
:1025D000A8022D913C9111978FEF2F3F3807F9F00A
:1025E0009091A90280818917F1F04181528164178D
:1025F000750708F5CB01841B950B82179307D8F458
:10260000261B370B240F351F2D933C938091A90275
:1026100080838091A7029091A8029283818380E0B9
:102620000F900FBE089541815281CB01841B950B01
:102630008217930728F381E00F900FBE089581E081
:102640008093A6020895FC01009711F082A10895DD
:1026500080E00895FC01009709F062A30895A0E0CE
:10266000B0E0E5E3F3E10C942E363C018B015A0116
:10267000DB018C91882309F48DC01196ED91FC91BA
:1026800012970280F381E02D1296FC93EE9311973E
:1026900023E0C22ED12CC60ED71EEC15FD0509F481
:1026A00083C086809780FF249FE0E92E82E0482E39
:1026B000512C82819381F80192838183C816D906B7
:1026C00009F455C0D8011196ED91FC911297C6817D
:1026D000D781FE9CB0011124660D771DFB01D183CB
:1026E000C0836996D383C283699789A18483B682A4
:1026F000A5828E898783F3E0AF16B10409F43FC049
:102700008BA1FB0180878CA19DA1AEA1BFA1818778
:102710009287A387B487AF89B88D8C91853A09F0E9
:1027200040C020E030E040E050E02F5F3F4F4F4F8F
:102730005F4FFD01E20FF31F8081853AB1F3C901BC
:10274000DB011E969C938E931D97F394C815D905B3
:1027500011F1D8011196ED91FC911297828193812C
:10276000F80192838183C816D90609F0ABCFD60150
:1027700012968D919C91139792838183A3CF8C891C
:102780009D89892B09F4BCCFDB0116965C924E9291
:102790001597B6CFFF248F2DCDB7DEB7E0E10C94AF
:1027A0004A3680E090E0CCCF8281938111968C9361
:1027B000119712969C939C01F90173CF0097B1F089
:1027C000FC01A789B08D8C91853AA9F420E030E016
:1027D00040E050E02F5F3F4F4F4F5F4FFD01E20F52
:1027E000F31F8081853AB1F3822F0895E091A20210
:1027F000F091A302E6CF80E008952091A2023091EB
:10280000A302C9010895E091A202F091A302848578
:102810009585A091A202B091A302E091A202F0914D
:10282000A302468924E030E0241B31091D963C9325
:102830002E931C9708950F931F93CF93DF93EC0172
:10284000009731F19E898BA1981711F18E010E5FCF
:102850001F4FC8010E94DE2E2BA12E8B8C859D85DB
:1028600097FD06C084E090E0821B91099D878C87CC
:102870009E898091A502891710F49093A50289E0A2
:10288000989FC001112489549D4FB8010E948D2E3C
:10289000DF91CF911F910F9108950F931F93CF93C5
:1028A000DF93EC01009741F13E89E091A202F091A3
:1028B000A3028689381700F58C859D8597FD0BC08E
:1028C000E091A202F091A302268984E090E0821BAD
:1028D00091099D878C8789E0389FC0011124895414
:1028E0009D4F2A853B852817390759F0E091A202B0
:1028F000F091A30286898E8BDF91CF911F910F916A
:1029000008958E010E5F1F4FC8010E94DE2EE091D8
:10291000A202F091A30296899E8B8091A50289174D
:1029200010F49093A50289E0989FC0011124895466
:102930009D4FB8010E948D2EDFCF0F931F93CF9331
:10294000DF93FC01706871836083C681D7810E9428
:10295000DE2E8E010E5F1F4FC8010E94DE2E9E8963
:102960008091A502891710F49093A50289E0989FA1
:10297000C001112489549D4FB8010E948D2EE09111
:10298000A202F091A3029E898689891740F481E012
:102990008093A602DF91CF911F910F91089580E05F
:1029A000DF91CF911F910F9108950F931F93CF93B4
:1029B000DF93DC011596ED91FC9116970681178146
:1029C000E8012C96CE010E94DE2E8091AA02882377
:1029D00031F5E8012296CE010E94DE2EF80196899B
:1029E0008091A502891708F189E0989FC001112400
:1029F00089549D4FBE010E948D2EE091A202F0915C
:102A0000A302D80156969C918689891788F481E0A3
:102A10008093A602DF91CF911F910F91089581EFCE
:102A200092E0BE010E948D2EE8CF9093A502DCCFEC
:102A300080E0DF91CF911F910F910895A0E0B0E069
:102A4000E4E2F5E10C9436368091AA02882309F07D
:102A500089C08091A7029091A80201969093A80244
:102A60008093A702E090A702F090A802E114F1047D
:102A700019F52091ED023091EE028091EF029091D4
:102A8000F0029093EE028093ED023093F0022093D7
:102A9000EF028091A9028F5F8093A902E091ED027D
:102AA000F091EE028081882309F086C08FEF9FEFBE
:102AB0009093440280934302809143029091440298
:102AC000E816F90608F460C0DD2449E0C42EE09160
:102AD000ED02F091EE0280818823E9F1E091ED02B0
:102AE000F091EE020580F681E02DC681D7818A81C2
:102AF0009B81E816F90608F477C08E010E5F1F4F20
:102B0000C8010E94DE2E8C899D89892B21F0CE017F
:102B10000C960E94DE2E9E898091A502891710F4E2
:102B20009093A5029C9DC001112489549D4FB8012A
:102B30000E948D2EE091A202F091A3029E898689C7
:102B4000981728F2DD24D394E091ED02F091EE0283
:102B50008081882319F68FEF9FEF90934402809332
:102B6000430213C08091B3028F5F8093B302DD24D0
:102B70008091A602882311F0DD24D3948D2DCDB74A
:102B8000DEB7E8E00C945236DD24E091A202F09129
:102B9000A302868990E0FC01EE0FFF1FEE0FFF1FDE
:102BA000EE0FFF1FE80FF91FE954FD4F80818230BF
:102BB000F8F2DD24D394DCCFE091ED02F091EE0247
:102BC0000580F681E02D0680F781E02D82819381DA
:102BD0009093440280934302809143029091440277
:102BE000E816F90688F270CF90934402809343026E
:102BF000CCCFDF92EF92FF920F931F93CF93DF938F
:102C0000EC018A859B858350934041F010E0812F31
:102C1000CDB7DEB7E7E00C94533642C08C899D896E
:102C200022E0813F920791F3892B81F78091AA02DC
:102C3000882349F5DE88E091A202F091A30206897B
:102C400052E0E52EF12CEC0EFD1EC7010E94DE2E97
:102C50006E898091A502861710F46093A50210E09A
:102C6000D01608F011E089E0689FC0011124895452
:102C70009D4FB7010E948D2E812FCDB7DEB7E7E0C3
:102C80000C9453360DC02C9681EF92E0BE010E9449
:102C90008D2E10E0812FCDB7DEB7E7E00C945336D0
:102CA0000F931F93CF93DF938A01E091A202F091DB
:102CB000A3027068758764876091A2027091A30275
:102CC000645F7F4F0E948D2E8091A2029091A3029B
:102CD00002960E94DE2E8FEF0F3F180709F440C0C6
:102CE000C091A702D091A802C00FD11FE091A2020B
:102CF000F091A302D383C2838091A7029091A8028E
:102D0000C817D907E0F08091ED029091EE02609132
:102D1000A2027091A3026E5F7F4F0E94AC2E809141
:102D2000430290914402C817D90720F4D09344027B
:102D3000C0934302DF91CF911F910F91089580912D
:102D4000EF029091F0026091A2027091A3026E5F77
:102D50007F4F0E94AC2EDF91CF911F910F9108956C
:102D60006091A2027091A3026E5F7F4F83E093E0B7
:102D70000E948D2EDF91CF911F910F9108950F9397
:102D80001F93CF93DF938B016091A2027091A302F6
:102D9000645F7F4F0E94AC2E8091A2029091A302AB
:102DA00002960E94DE2E8FEF0F3F180709F440C0F5
:102DB000C091A702D091A802C00FD11FE091A2023A
:102DC000F091A302D383C2838091A7029091A802BD
:102DD000C817D907E0F08091ED029091EE02609162
:102DE000A2027091A3026E5F7F4F0E94AC2E809171
:102DF000430290914402C817D90720F4D0934402AB
:102E0000C0934302DF91CF911F910F91089580915C
:102E1000EF029091F0026091A2027091A3026E5FA6
:102E20007F4F0E94AC2EDF91CF911F910F9108959B
:102E30006091A2027091A3026E5F7F4F83E093E0E6
:102E40000E948D2EDF91CF911F910F910895EF92E7
:102E5000FF920F931F938091AA02882309F093C0D9
:102E60001092A60280918400909185007C0100E080
:102E700010E0E092AB02F092AC020093AD0210932E
:102E8000AE028091AF029091B002A091B102B091D8
:102E9000B2028E159F05A007B107B0F4E091A2021F
:102EA000F091A302A8019701281B390B4A0B5B0B79
:102EB00084A195A1A6A1B7A1820F931FA41FB51F3E
:102EC00084A395A3A6A3B7A3E092AF02F092B002A9
:102ED0000093B1021093B202E091A202F091A3021A
:102EE000A091A202B091A3022081318157968D91C9
:102EF0009C9158978217930790F08091A20290912D
:102F0000A3026091A2027091A302675E7F4F0E94AC
:102F10007E0A05C08091A50281508093A502809110
:102F2000A50290E0FC01EE0FFF1FEE0FFF1FEE0F5A
:102F3000FF1FE80FF91FE954FD4F8081882351F3EB
:102F40009091A50289E0989FD0011124A954BD4F0A
:102F50001196ED91FC9112970280F381E02D12966B
:102F6000FC93EE931197CD010396E817F90799F0BA
:102F7000868197819093A3028093A2021F910F9163
:102F8000FF90EF90089581E08093A6021F910F912A
:102F9000FF90EF9008958281938111968C93119701
:102FA00012969C939C01F901E3CFA0E0B0E0EBED19
:102FB000F7E10C9433360FB6F8940F928091AA0281
:102FC00081508093AA028091AA02882309F0EDC063
:102FD0008091A402882309F4E8C0F9E0FF2EEE24D2
:102FE000E3948091F102882369F1E091F602F09177
:102FF000F702C681D781CE010C960E94DE2E8E018B
:103000000E5F1F4FC8010E94DE2E9E898091A5028F
:10301000891710F49093A5029F9DC0011124895433
:103020009D4FB8010E948D2EE091A202F091A30263
:103030009E8986899817A8F2E092A6028091F102F3
:10304000882399F68091B302882309F4AAC080915D
:10305000B302882309F4A5C0E9E0CE2EAA24AA94DD
:10306000BA2C992493948091AA02882309F083C0F2
:103070008091A7029091A80201969093A802809354
:10308000A702E090A702F090A802E114F10409F56C
:103090002091ED023091EE028091EF029091F002CA
:1030A0009093EE028093ED023093F0022093EF02B2
:1030B0008091A9028F5F8093A902E091ED02F091C7
:1030C000EE028081882309F097C0B0924402A0925A
:1030D00043028091430290914402E816F90608F4F5
:1030E00073C0DD24E091ED02F091EE02808188232F
:1030F000E9F1E091ED02F091EE020580F681E02D1C
:10310000C681D7818A819B81E816F90608F485C0BB
:103110008E010E5F1F4FC8010E94DE2E8C899D8993
:10312000892B21F0CE010C960E94DE2E9E89809183
:10313000A502891710F49093A5029C9DC00111244B
:1031400089549D4FB8010E948D2EE091A202F0910A
:10315000A3029E898689981728F2DD24D394E091F2
:10316000ED02F091EE028081882319F6B0924402BC
:10317000A09243022AC08091B3028F5F8093B30272
:10318000DD248091A6028823E1F4DD20D1F4809132
:10319000B30281508093B3028091B302882309F077
:1031A00062CF8091A602813041F080E00F900FBE87
:1031B000CDB7DEB7EBE00C944F360E949C2C81E03B
:1031C000F5CF9092A602E3CFDD24E091A202F09128
:1031D000A302868990E0FC01EE0FFF1FEE0FFF1F98
:1031E000EE0FFF1FE80FF91FE954FD4F8081823079
:1031F00040F2DD24D394C5CFE091ED02F091EE02D0
:103200000580F681E02D0680F781E02D8281938193
:1032100090934402809343025CCF90934402809346
:103220004302D3CFA4E0B0E0E8E1F9E10C942C36FE
:103230001C01DC011C928091A40289839091A4025C
:103240008FE0989FC00111240E947B2D2C010097D4
:1032500009F4ADC089819091AA029F5F9093AA0260
:103260009091A402891708F4A6C084E0C82E1C829D
:10327000CA94BC81EFE0BE9F50011124A40CB51C80
:10328000F9E0CF9E7001112447EB52E0E40EF51EE9
:10329000D7018C91882309F484C11196ED91FC919A
:1032A00012970280F381E02D1296FC93EE93119712
:1032B00003E0802E912C8E0C9F1CE815F90509F473
:1032C0002CC566807780DD2482819381F70192830B
:1032D00081838816990609F45FC0D7011196ED9194
:1032E000FC91129766817781BFE0DB9E80011124FB
:1032F0000A0D1B1DF80171836083675E7F4F738326
:10330000628369517040DB0191968C91919784831F
:1033100041E050E05683458356968C9156978783BB
:1033200093968C919397808794968D919D910D9013
:10333000BC91A02D81879287A387B487FB01A789C1
:10334000B08D8C91853A09F0D4C220E030E040E0A5
:1033500050E02F5F3F4F4F4F5F4FFD01E20FF31FD4
:103360008081853AB1F3C901D8011E969C938E9352
:103370001D97D3946616770609F414C1D7011196E8
:10338000ED91FC91129782819381F7019283818361
:103390008816990609F0A1CFD40112968D919C91BF
:1033A00013979283818399CFC2010E94082D24969E
:1033B000E2E10C9448361B820FB6F8940F9280918C
:1033C000AA0281508093AA028091AA02882309F060
:1033D000A4C18091A402882309F49FC199E0D92E49
:1033E000CC24C3948091F102882399F1E091F602F4
:1033F000F091F70206811781C8010C960E94DE2E1B
:1034000022E0E22EF12CE00EF11EC7010E94DE2E1A
:10341000F80196898091A502891718F49093A50266
:1034200096899D9DC001112489549D4FB7010E942A
:103430008D2EE091A202F091A302D80156969C91A4
:103440008689981778F2C092A6028091F1028823AB
:1034500069F68091B302882309F459C18091B302BF
:10346000882309F454C189E0A82E8091AA028823F8
:1034700009F035C18091A7029091A802019690931E
:10348000A8028093A702C090A702D090A802C114FE
:10349000D10419F52091ED023091EE028091EF02F6
:1034A0009091F0029093EE028093ED023093F0023F
:1034B0002093EF028091A9028F5F8093A902E0918F
:1034C000ED02F091EE028081882309F004C4EFEF51
:1034D000FFEFF0934402E093430280914302909106
:1034E0004402C816D90608F4DDC3BB24E091ED02FE
:1034F000F091EE028081882309F44CC0E091ED0246
:10350000F091EE020580F681E02D06811781D80149
:1035100012968D919C911397C816D90608F4F5C39D
:10352000B2E0EB2EF12CE00EF11EC7010E94DE2E60
:10353000F80184899589892B21F0C8010C960E9495
:10354000DE2ED80156969C9156978091A502891738
:1035500020F49093A50256969C919A9DC001112447
:1035600089549D4FB7010E948D2EE091A202F091E7
:10357000A302D80156969C918689981708F4B6CF75
:10358000BB24B394E091ED02F091EE028081882398
:1035900009F0B4CF4FEF5FEF5093440240934302E2
:1035A00082C3DD24BC81BD0DBC83CC2009F060CE7C
:1035B0008FE0B89F50011124A40CB51CE090ED02DF
:1035C000F090EE02F7018081882309F495C1018013
:1035D000F281E02D0280F381E02DD7011296FC9359
:1035E000EE93119713E0812E912C8E0C9F1CE81501
:1035F000F90509F4A3C366807780DD24AFE0CA2E05
:1036000082819381F701928381838816990609F458
:103610005EC0D7011196ED91FC911297668177817A
:10362000DC9C800111240A0D1B1DF801718360834D
:10363000675E7F4F7383628369517040DB019196AF
:103640008C919197848342E050E05683458356964F
:103650008C915697878393968C91939780879496B5
:103660008D919D910D90BC91A02D81879287A3870C
:10367000B487FB01A789B08D8C91853A09F042C3CC
:1036800020E030E040E050E02F5F3F4F4F4F5F4F72
:10369000FD01E20FF31F8081853AB1F3C901D80122
:1036A0001E969C938E931D97D3946616770609F405
:1036B00024C1D7011196ED91FC91129782819381DB
:1036C000F701928381838816990609F0A2CFD4016D
:1036D00012968D919C911397928381839ACF8091BA
:1036E000B3028F5F8093B302BB248091A60288232C
:1036F00009F0D4C2BB2009F0D1C28091B30281503D
:103700008093B3028091B302882309F0AECE8091FA
:10371000A602813011F40E949C2C0F900FBEEB8109
:10372000E983C401B30124E630E040E050E00E94A8
:103730000A3659016A01A114B104C104D10409F483
:1037400033CE1A829A818981981708F02DCEEDE048
:103750008E2EE2E09E2E7CE1672E72E0772E60C016
:103760008A812A814DB75EB74A5050400FB6F8940F
:103770005EBF0FBE4DBFADB7BEB71196EDB7FEB77A
:103780003282218213969C928E92129790E0FC01D5
:10379000EE0FFF1FE80FF91FCF01880F991F880F49
:1037A000991FE80FF91FE40DF51D8281938115968D
:1037B0009C938E93149730E0F901EE0FFF1FE20FF8
:1037C000F31FCF01880F991F880F991FE80FF91F6A
:1037D000E40DF51D8185928517969C938E9316971F
:1037E0001996FC92EE9218970E942F084DB75EB77B
:1037F000465F5F4F0FB6F8945EBF0FBE4DBFD1015D
:103800000D900020E9F71197A219B3098A818F5F03
:103810008A839A818981981708F0C6CD2A0E3B1EAB
:103820008A8190E0FC01EE0FFF1FE80FF91FCF0126
:10383000880F991F880F991FE80FF91FE40DF51DD8
:103840006185728583859485A60195010E940A365B
:1038500079018A01E114F1040105110509F080CF15
:103860008A812A81ADB7BEB718970FB6F894BEBF4C
:103870000FBEADBF1196EDB7FEB73282218213960F
:103880007C926E92129790E0FC01EE0FFF1FE80F02
:10389000F91FCF01880F991F880F991FE80FF91F93
:1038A000E40DF51D8281938115969C938E93149758
:1038B00030E0F901EE0FFF1FE20FF31FCF01880F79
:1038C000991F880F991FE80FF91FE40DF51D8185D9
:1038D000928517969C938E9316970E942F084DB74A
:1038E0005EB7485F5F4F0FB6F8945EBF0FBE4DBF27
:1038F00086CF80E090E038CDDD24CC80CD0C8FE009
:10390000C89E50011124A40CB51CE090EF02F09069
:10391000F002F7018081882309F486C00180F281DA
:10392000E02D0280F381E02DD7011296FC93EE93F7
:10393000119773E0872E912C8E0C9F1CE815F905CA
:1039400009F406C266807780DD2482819381F701C5
:10395000928381838816990609F45EC0D701119677
:10396000ED91FC91129766817781BFE0DB9E80012B
:1039700011240A0D1B1DF80171836083675E7F4F60
:103980007383628369517040DB0191968C919197AA
:10399000848342E050E05683458356968C91569737
:1039A000878393968C919397808794968D919D9120
:1039B0000D90BC91A02D81879287A387B487FB01CE
:1039C000A789B08D8C91853A09F099C120E030E04B
:1039D00040E050E02F5F3F4F4F4F5F4FFD01E20F40
:1039E000F31F8081853AB1F3C901D8011E969C93DB
:1039F0008E931D97D39466167706B9F0D70111966A
:103A0000ED91FC91129782819381F70192838183DA
:103A10008816990609F0A2CFD40112968D919C9137
:103A20001397928381839ACFDD24ED2CEC0C8FE0E9
:103A3000E89E60011124C40CD51C8091FA028823F1
:103A400009F47CC0E091FB02F091FC020280F3815A
:103A5000E02DF093FC02E093FB02B2E0ED3FFB07A8
:103A600009F480C1E091FB02F091FC02A680B780CE
:103A7000FF246FE0762E54E0852E912C0280F38196
:103A8000E02DF093FC02E093FB0242E0ED3FF407EF
:103A900009F4FDC0E091FB02F091FC0266817781A0
:103AA000F79C800111240C0D1D1DD80111967C93EB
:103AB0006E93675E7F4F13967C936E931297695156
:103AC0007040FB0181A114968C93149716969C92DA
:103AD0008E921597868917968C93179783A11896BF
:103AE0008C9384A195A1A6A1B7A1F80181879287A3
:103AF000A387B487FB01A789B08D8C91853A09F023
:103B0000FBC020E030E040E050E02F5F3F4F4F4FE0
:103B10005F4FFD01E20FF31F8081853AB1F3C901C8
:103B2000D8011E969C938E931D97F394A616B70604
:103B300031F0E091FB02F091FC02A0CFFF24EF0CEA
:103B40008FE0E89E60011124C40CD51C8091030312
:103B5000882309F48AC0E0910403F09105030280F0
:103B6000F381E02DF0930503E0930403B3E0E63026
:103B7000FB0709F4DCC0E0910403F0910503A68083
:103B8000B780FF2443E0842E912C32E0632E712C09
:103B90000280F381E02DF0930503E093040343E0FA
:103BA000E630F40709F46CC0E0910403F0910503DA
:103BB000668177815FE0F59E800111240C0D1D1D4B
:103BC000D80111967C936E93675E7F4F13967C931A
:103BD0006E93129769517040FB0181A114968C93EA
:103BE000149716969C928E921597868917968C93A9
:103BF000179784899589892B21F016967C926E926D
:103C00001597DB0193968C919397F8018087949692
:103C10008D919D910D90BC91A02D81879287A38756
:103C2000B487FB01A789B08D8C91853A09F072C0E9
:103C300020E030E040E050E02F5F3F4F4F4F5F4FBC
:103C4000FD01E20FF31F8081853AB1F3C901D8016C
:103C50001E969C938E931D97F394A616B70631F08B
:103C6000E0910403F091050393CFFF24FE0CFB8247
:103C700080918400909185003C01882499249CCBFC
:103C80008281938190930503809304038DCF828179
:103C900093819093FC028093FB02FCCEB1E0B09341
:103CA000A6022BCDBB24E091A202F091A30286894B
:103CB00090E0FC01EE0FFF1FEE0FFF1FEE0FFF1F46
:103CC000E80FF91FE954FD4F8081823008F40DCDD3
:103CD000BB24B3940ACDE091ED02F091EE02058091
:103CE000F681E02D0680F781E02D8281938190930B
:103CF000440280934302F1CB80E090E011CF80E05A
:103D000090E073CE80E090E0CACC90934402809320
:103D10004302C9CF80E090E09ACF828193811196CF
:103D20008C93119712969C939C01F901CACA8281C7
:103D3000938190930503809304031DCF8281938127
:103D400011968C93119712969C939C01F90153CC78
:103D50008281938111968C93119712969C939C016A
:103D6000F901F0CD828193819093FC028093FB0254
:103D700079CEA3E0B0E0EFEBFEE10C942C361C0111
:103D8000DC011C928091A40289839091A4028FE0AF
:103D9000989FC00111240E947B2D5C01009709F4BB
:103DA000ADC089819091AA029F5F9093AA029091E1
:103DB000A402891708F4A6C064E0C62E1B82CA9428
:103DC000BB81EFE0BE9F400111248A0C9B1CF9E0EF
:103DD000CF9E7001112427EB32E0E20EF31ED701D3
:103DE0008C91882309F482C11196ED91FC91129770
:103DF0000280F381E02D1296FC93EE93119753E02D
:103E0000652E712C6E0C7F1CE615F70509F4FEC4B7
:103E100046805780DD2482819381F70192838183DC
:103E20006816790609F45FC0D7011196ED91FC91EF
:103E3000129766817781BFE0DB9E80011124080D17
:103E4000191DF80171836083675E7F4F73836283FE
:103E500069517040DB0191968C919197848321E0A8
:103E600030E03683258356968C91569787839396B8
:103E70008C919397808794968D919D910D90BC9194
:103E8000A02D81879287A387B487FB01A789B08D76
:103E90008C91853A09F0AEC220E030E040E050E07D
:103EA0002F5F3F4F4F4F5F4FFD01E20FF31F8081A8
:103EB000853AB1F3C901D8011E969C938E931D9744
:103EC000D3944616570609F412C1D7011196ED9105
:103ED000FC91129782819381F70192838183681606
:103EE000790609F0A1CFD30112968D919C91139779
:103EF0009283818399CFC5010E94082D2396E2E128
:103F00000C94483677240FB6F8940F928091AA0249
:103F100081508093AA028091AA02882309F0A2C14D
:103F20008091A402882309F49DC1A9E0DA2ECC2453
:103F3000C3948091F102882399F1E091F602F09107
:103F4000F70206811781C8010C960E94DE2EB2E0AE
:103F5000EB2EF12CE00EF11EC7010E94DE2EF801BF
:103F600096898091A502891718F49093A5029689E5
:103F70009D9DC001112489549D4FB7010E948D2E33
:103F8000E091A202F091A302D80156969C918689F5
:103F9000981778F2C092A6028091F102882369F600
:103FA0008091B302882309F457C18091B30288231A
:103FB00009F452C1F9E0CF2E44244A94542C6624CB
:103FC00063948091AA02882309F02EC18091A702F0
:103FD0009091A80201969093A8028093A7028090E6
:103FE000A7029090A8028114910409F52091ED0296
:103FF0003091EE028091EF029091F0029093EE02E8
:104000008093ED023093F0022093EF028091A90299
:104010008F5F8093A902E091ED02F091EE02808122
:10402000882309F0D1C35092440240924302809108
:104030004302909144028816990608F4ACC3DD242B
:10404000E091ED02F091EE028081882309F449C0ED
:10405000E091ED02F091EE020580F681E02D0681FF
:104060001781F801828193818816990608F4C6C3E6
:10407000E2E0EE2EF12CE00EF11EC7010E94DE2ED2
:10408000D80154968D919C915597892B21F0C801A8
:104090000C960E94DE2EF80196898091A502891760
:1040A00018F49093A50296899C9DC001112489540F
:1040B0009D4FB7010E948D2EE091A202F091A302C4
:1040C000D80156969C918689981708F4B9CFDD24BB
:1040D000D394E091ED02F091EE028081882309F003
:1040E000B7CF509244024092430256C3DD24BB81B5
:1040F000BD0DBB83CC2009F062CE8FE0B89F40019C
:1041000011248A0C9B1CE090ED02F090EE02F70166
:104110008081882309F471C10180F281E02D028041
:10412000F381E02DD7011296FC93EE93119743E0B3
:10413000642E712C6E0C7F1CE615F70509F477C30D
:1041400046805780DD243FE0C32E82819381F701B2
:10415000928381836816790609F45EC0D7011196AF
:10416000ED91FC91129766817781DC9C800111248E
:10417000080D191DF80171836083675E7F4F73839B
:10418000628369517040DB0191968C919197848391
:1041900022E030E03683258356968C9156978783AC
:1041A00093968C919397808794968D919D910D9085
:1041B000BC91A02D81879287A387B487FB01A78933
:1041C000B08D8C91853A09F016C320E030E040E0D4
:1041D00050E02F5F3F4F4F4F5F4FFD01E20FF31F46
:1041E0008081853AB1F3C901D8011E969C938E93C4
:1041F0001D97D3944616570609F400C1D7011196AE
:10420000ED91FC91129782819381F70192838183D2
:104210006816790609F0A2CFD30112968D919C9170
:104220001397928381839ACF8091B3028F5F80939B
:10423000B302DD248091A602882309F0A9C2DD2003
:1042400009F0A6C28091B30281508093B30280919D
:10425000B302882309F0B5CE8091A602813011F413
:104260000E949C2C0F900FBE79821A829A818981BC
:10427000981708F040CE6BE2E62E62E0F62E8FC073
:10428000019709F4B4C000E010E08A812A814A81D4
:104290006A81EDB7FEB73E970FB6F894FEBF0FBE2A
:1042A000EDBFADB7BEB71196328221821396FC9254
:1042B000EE92129790E0FC01EE0FFF1FE80FF91F3E
:1042C000CF01880F991F880F991FE80FF91FEA0D7A
:1042D000FB1D8281938115969C938E93149717965C
:1042E0001C930E93169730E0F901EE0FFF1FE20FBB
:1042F000F31FCF01880F991F880F991FE80FF91F2F
:10430000EA0DFB1D878118968C93189719961C92BD
:10431000199750E0FA01EE0FFF1FE40FF51FCF01D0
:10432000880F991F880F991FE80FF91FEA0DFB1DD1
:10433000858596851B969C938E931A9770E0FB015A
:10434000EE0FFF1FE60FF71FCF01880F991F880F91
:10435000991FE80FF91FEA0DFB1D84811C968C93B1
:104360001C971D961C920E942F08D1010D900020D1
:10437000E9F71197A219B3098A818F5F8A839A811D
:1043800089812DB73EB7225F3F4F0FB6F8943EBFED
:104390000FBE2DBF981708F0AECD2A0E3B1E8A81A6
:1043A00090E0FC01EE0FFF1FE80FF91FCF01880F0F
:1043B000991F880F991FE80FF91FEA0DFB1D8581D2
:1043C00096818230910569F08330910508F458CFC9
:1043D0008330910549F0049709F055CF04E410E0CB
:1043E00054CF02E410E051CF03E510E04ECF02E5D8
:1043F00010E04BCF80E090E05ECDDD24CB80CD0C93
:104400008FE0C89E400111248A0C9B1CE090EF02B3
:10441000F090F002F7018081882309F486C00180C2
:10442000F281E02D0280F381E02DD7011296FC93FA
:10443000EE93119723E0622E712C6E0C7F1CE61513
:10444000F70509F4FEC146805780DD2482819381FF
:10445000F701928381836816790609F45EC0D7015B
:104460001196ED91FC91129766817781BFE0DB9EFA
:1044700080011124080D191DF80171836083675EA6
:104480007F4F7383628369517040DB0191968C91F9
:104490009197848322E030E03683258356968C9171
:1044A0005697878393968C919397808794968D9156
:1044B0009D910D90BC91A02D81879287A387B48791
:1044C000FB01A789B08D8C91853A09F091C120E05C
:1044D00030E040E050E02F5F3F4F4F4F5F4FFD0116
:1044E000E20FF31F8081853AB1F3C901D8011E960E
:1044F0009C938E931D97D39446165706B9F0D70117
:104500001196ED91FC91129782819381F70192832C
:1045100081836816790609F0A2CFD30112968D9196
:104520009C911397928381839ACFDD24ED2CEC0C20
:104530008FE0E89E60011124CA0CDB1C8091FA0216
:10454000882309F47CC0E091FB02F091FC02028018
:10455000F381E02DF093FC02E093FB02B2E0ED3F2B
:10456000FB0709F478C1E091FB02F091FC02868020
:104570009780FF249FE0592E84E0682E712C0280E2
:10458000F381E02DF093FC02E093FB0222E0ED3F8B
:10459000F20709F4F6C0E091FB02F091FC0266819B
:1045A0007781F59C800111240C0D1D1DD8011196F9
:1045B0007C936E93675E7F4F13967C936E931297F6
:1045C00069517040FB0181A114968C931497169643
:1045D0007C926E921597868917968C93179783A174
:1045E00018968C9384A195A1A6A1B7A1F801818703
:1045F0009287A387B487FB01A789B08D8C91853AF8
:1046000009F0F3C020E030E040E050E02F5F3F4F82
:104610004F4F5F4FFD01E20FF31F8081853AB1F3E9
:10462000C901D8011E969C938E931D97F39486160C
:10463000970631F0E091FB02F091FC02A0CFFF243D
:10464000EF0C8FE0E89E60011124CA0CDB1C809106
:104650000303882309F48AC0E0910403F091050361
:104660000280F381E02DF0930503E0930403B3E0AF
:10467000E630FB0709F4D4C0E0910403F091050390
:1046800086809780FF2403E0602E712C12E0412E7B
:10469000512C0280F381E02DF0930503E093040395
:1046A00023E0E630F20709F465C0E0910403F091DD
:1046B0000503668177813FE0F39E800111240C0D94
:1046C0001D1DD80111967C936E93675E7F4F1396E4
:1046D0007C936E93129769517040FB0181A11496EF
:1046E0008C93149716967C926E92159786891796DE
:1046F0008C93179784899589892B21F016965C9263
:104700004E921597DB0193968C919397F8018087D1
:1047100094968D919D910D90BC91A02D818792874B
:10472000A387B487FB01A789B08D8C91853A09F0E6
:104730006AC020E030E040E050E02F5F3F4F4F4F35
:104740005F4FFD01E20FF31F8081853AB1F3C9018C
:10475000D8011E969C938E931D97F3948616970608
:1047600031F0E0910403F091050393CFFF247F2CF7
:104770007E0CC9CB828193819093050380930403BF
:1047800094CF828193819093FC028093FB0203CFAC
:104790006092A60257CDDD24E091A202F091A3021F
:1047A000868990E0FC01EE0FFF1FEE0FFF1FEE0F5A
:1047B000FF1FE80FF91FE954FD4F8081823008F494
:1047C00039CDDD24D39436CDE091ED02F091EE02A7
:1047D0000580F681E02D0680F781E02D82819381AE
:1047E000909344028093430222CC80E090E019CF62
:1047F00080E090E07BCE80E090E0F6CC90934402A5
:1048000080934302C9CF80E090E0A2CF8281938160
:1048100011968C93119712969C939C01F901F8CAFA
:1048200082819381909305038093040325CF828135
:10483000938111968C93119712969C939C01F90188
:104840007FCC8281938111968C93119712969C93C1
:104850009C01F901F8CD828193819093FC028093B1
:10486000FB0281CE0F931F93CF93DF93EC01009750
:1048700089F08091A2029091A302C817D90751F044
:104880000FB6F8940F928A859B858350934039F038
:104890000F900FBEDF91CF911F910F9108958C89DA
:1048A0009D8922E0813F920799F3892B89F78E0138
:1048B0000E5F1F4FC8010E94DE2E9E898091A502C7
:1048C000891710F49093A50289E0989FC0011124E4
:1048D00089549D4FB8010E948D2EE091A202F09163
:1048E000A3029E898689981798F20E949C2CD0CFAB
:1048F000EF92FF920F931F93CF93DF930FB6F8942D
:104900000F92009709F4DDC0EC018E010E5F1F4F7E
:10491000C8010E94DE2E8C899D89892B21F0CE0151
:104920000C960E94DE2E83E093E0B8010E948D2E4B
:104930000F900FBE8091A2029091A302C817D907D1
:1049400061F18091B402882391F00FB6F8940F9230
:10495000E091ED02F091EE028081882369F48FEFFF
:104960009FEF90934402809343020F900FBECDB708
:10497000DEB7E6E00C945436E091ED02F091EE02E1
:104980000580F681E02D0680F781E02D82819381FC
:104990009093440280934302E8CF8091B40288232D
:1049A00009F098C09091A40280910303891709F43B
:1049B00094C08091AA02882309F088C01092A602B0
:1049C00080918400909185007C0100E010E0E092ED
:1049D000AB02F092AC020093AD021093AE02809154
:1049E000AF029091B002A091B102B091B2028E15C7
:1049F0009F05A007B107B0F4E091A202F091A302D5
:104A0000A8019701281B390B4A0B5B0B84A195A1C8
:104A1000A6A1B7A1820F931FA41FB51F84A395A3BE
:104A2000A6A3B7A3E092AF02F092B0020093B10246
:104A30001093B202E091A202F091A302A091A2020F
:104A4000B091A3022081318157968D919C91589706
:104A50008217930730F046C08091A5028150809361
:104A6000A5028091A50290E0FC01EE0FFF1FEE0F62
:104A7000FF1FEE0FFF1FE80FF91FE954FD4F808164
:104A8000882351F39091A50289E0989FD0011124C9
:104A9000A954BD4F1196ED91FC9112970280F381BC
:104AA000E02D1296FC93EE931197CD010396E81733
:104AB000F90729F1868197819093A3028093A2023E
:104AC00056CFC091A202D091A3021FCF81E0809364
:104AD000A6024DCF0E949C2C4ACF1092A3021092A6
:104AE000A20245CF8091A2029091A3026091A202FE
:104AF0007091A302675E7F4F0E947E0AB2CF8281CF
:104B0000938111968C93119712969C939C01F901B5
:104B1000D1CFA0E0B0E0EFE8F5E20C9433369C0191
:104B2000009741F40E949C2CCDB7DEB7EBE00C94CB
:104B30004F3677C18091AA028F5F8093AA02C091FD
:104B4000A702D091A802C20FD31F8091A202909118
:104B5000A30202960E94DE2EE091A202F091A3022F
:104B6000D383C2838091A7029091A802C817D90766
:104B700008F45BC08091ED029091EE026091A20278
:104B80007091A3026E5F7F4F0E94AC2E8091430212
:104B900090914402C817D90720F4D0934402C093DF
:104BA00043020FB6F8940F928091AA02815080932D
:104BB000AA028091AA02882309F04DC08091A40224
:104BC000882309F448C099E0F92EEE24E3948091FB
:104BD000F1028823B9F1E091F602F091F702C68163
:104BE000D781CE010C960E94DE2E8E010E5F1F4FE4
:104BF000C8010E94DE2E9E898091A502891710F4BB
:104C00009093A5029F9DC001112489549D4FB80126
:104C10000E948D2EE091A202F091A3029E898689C6
:104C20009817A8F2E092A602D2CF8091EF0290915D
:104C3000F0026091A2027091A3026E5F7F4F0E940A
:104C4000AC2EAFCF8091B302882389F48091A60265
:104C5000813009F495C080E00F900FBE882309F4DD
:104C600061CFCDB7DEB7EBE00C944F36DAC0809160
:104C7000B302882359F389E0C82EAA24AA94BA2C37
:104C8000992493948091AA02882309F07DC0809191
:104C9000A7029091A80201969093A8028093A70280
:104CA000E090A702F090A802E114F10409F5209128
:104CB000ED023091EE028091EF029091F00290931C
:104CC000EE028093ED023093F0022093EF02809188
:104CD000A9028F5F8093A902E091ED02F091EE02AC
:104CE0008081882309F087C0B0924402A0924302D9
:104CF0008091430290914402E816F90608F45EC0E0
:104D0000DD24E091ED02F091EE028081882309F428
:104D10006DC0E091ED02F091EE020580F681E02D8C
:104D2000C681D7818A819B81E816F90608F474C090
:104D30008E010E5F1F4FC8010E94DE2E8C899D8957
:104D4000892B21F0CE010C960E94DE2E9E89809147
:104D5000A502891710F49093A5029C9DC00111240F
:104D600089549D4FB8010E948D2EE091A202F091CE
:104D7000A3029E898689981720F2DD24D394C1CF9F
:104D80000E949C2C81E068CF8091B3028F5F80935A
:104D9000B302DD248091A602882369F4DD2059F452
:104DA0008091B30281508093B3028091B302882333
:104DB00009F068CF4BCF9092A602F2CFDD24E091AC
:104DC000A202F091A302868990E0FC01EE0FFF1F82
:104DD000EE0FFF1FEE0FFF1FE80FF91FE954FD4F05
:104DE00080818230B8F2DD24D394D4CFB0924402D3
:104DF000A0924302E4CFE091ED02F091EE02058033
:104E0000F681E02D0680F781E02D828193819093D9
:104E10004402809343026CCF9093440280934302F8
:104E2000CECFA0E0B0E0E7E1F7E20C943336FC012E
:104E3000EB018091AA028F5F8093AA022091A702C2
:104E40003091A80280819181C80FD91F2817390796
:104E500008F016C1C817D90708F024C12C173D0760
:104E600008F020C1D183C0838091A2029091A30257
:104E700002960E94DE2EE091A202F091A302D3835B
:104E8000C2838091A7029091A802C817D90708F49D
:104E9000FCC08091ED029091EE026091A2027091AF
:104EA000A3026E5F7F4F0E94AC2E809143029091CF
:104EB0004402C817D90720F4D0934402C093430298
:104EC0000FB6F8940F928091AA0281508093AA02A3
:104ED0008091AA02882309F003C18091A40288234B
:104EE00009F4FEC049E0F42EEE24E3948091F1022F
:104EF000882369F1E091F602F091F702C681D7812B
:104F0000CE010C960E94DE2E8E010E5F1F4FC8014F
:104F10000E94DE2E9E898091A502891710F490933D
:104F2000A5029F9DC001112489549D4FB8010E9484
:104F30008D2EE091A202F091A3029E898689981796
:104F4000A8F2E092A6028091F102882399F680915E
:104F5000B302882309F4BFC08091B302882309F407
:104F6000BAC039E0C32EAA24AA94BA2C99249394E7
:104F70008091AA02882309F098C08091A70290919D
:104F8000A80201969093A8028093A702E090A7023E
:104F9000F090A802E114F10409F52091ED0230919E
:104FA000EE028091EF029091F0029093EE028093D6
:104FB000ED023093F0022093EF028091A9028F5FFF
:104FC0008093A902E091ED02F091EE0280818823A6
:104FD00009F0ADC0B0924402A09243028091430216
:104FE00090914402E816F90608F489C0DD24E091A6
:104FF000ED02F091EE0280818823E9F1E091ED026B
:10500000F091EE020580F681E02DC681D7818A817C
:105010009B81E816F90608F49BC08E010E5F1F4FB6
:10502000C8010E94DE2E8C899D89892B21F0CE013A
:105030000C960E94DE2E9E898091A502891710F49D
:105040009093A5029C9DC001112489549D4FB801E5
:105050000E948D2EE091A202F091A3029E89868982
:10506000981728F2DD24D394E091ED02F091EE023E
:105070008081882319F6B0924402A092430240C076
:10508000C817D90708F4EECEE9CE8091EF029091CF
:10509000F0026091A2027091A3026E5F7F4F0E94A6
:1050A000AC2E0ECFD183C0830BCF8091B3028F5F24
:1050B0008093B302DD248091A6028823E9F4DD20E9
:1050C000D9F48091B30281508093B3028091B302EE
:1050D000882309F04DCF8091A602813009F43DC0AC
:1050E00080E00F900FBE882311F40E949C2CCDB756
:1050F000DEB7EBE00C944F369092A602E2CFDD24AF
:10510000E091A202F091A302868990E0FC01EE0FEB
:10511000FF1FEE0FFF1FEE0FFF1FE80FF91FE954EF
:10512000FD4F8081823038F2DD24D394C4CFE091EA
:10513000ED02F091EE020580F681E02D0680F78108
:10514000E02D82819381909344028093430246CF65
:105150009093440280934302D3CF0E949C2C81E021
:10516000C0CF0F931F93CF93DF930FB6F8940F9296
:10517000009709F453C0EC018E010E5F1F4FC80168
:105180000E94DE2E8C899D89892B21F0CE010C9600
:105190000E94DE2E8AEF92E0B8010E948D2E80914F
:1051A000B5028F5F8093B5028091B6028F5F8093C6
:1051B000B6020F900FBE8091B402882319F180913E
:1051C000A2029091A302C817D90769F10FB6F8940B
:1051D0000F92E091ED02F091EE0280818823B9F008
:1051E000E091ED02F091EE020580F681E02D06805F
:1051F000F781E02D82819381909344028093430252
:105200000F900FBEDF91CF911F910F9108958FEFF7
:105210009FEF9093440280934302F2CFC091A20289
:10522000D091A302A9CF0E949C2CECCFF8941092AD
:10523000B4020E941C2C0895A0E0B0E0E2E2F9E282
:105240000C942C362C01362E272E5A013901102FA2
:10525000470188E290E00E947B2DEC01009709F461
:10526000ADC0C114D10409F49DC0D88ECF8AC60147
:1052700065EA70E0A5010E94F107EF88F88C832DA4
:10528000922D9C01F901DE0190E0808159968C936A
:1052900059978081882329F09F5F31961196983025
:1052A000A1F718A2012F143008F07AC00E8B0BA3BF
:1052B00072E0C72ED12CCC0EDD1EC6010E94892EB5
:1052C000CE010C960E94892ED987C88784E090E091
:1052D000801B91099D878C87DB8BCA8B1CA21DA22A
:1052E0001EA21FA20894A108B108C7018A0D9B1D28
:1052F000B201A3010E94882B9983888381149104B1
:1053000019F0F401D183C0830FB6F8940F92809105
:10531000A4028F5F8093A4028091A2029091A302C5
:10532000892B09F452C08091B402882359F4E0918A
:10533000A202F091A3028689181720F0D093A3024D
:10534000C093A2028091B6028F5F8093B60289A3B8
:105350009E898091A502891710F49093A50289E097
:10536000989FC001112489549D4FB6010E948D2E33
:105370000F900FBE8091B402882359F0E091A202F1
:10538000F091A3028689811720F40E949C2C81E071
:1053900001C081E0CDB7DEB7E2E10C94483651C0E0
:1053A00003E084CFC5010E947B2D6C01988F8F8B09
:1053B000009709F05CCFCE010E94082D8FEFCDB78A
:1053C000DEB7E2E10C9448363CC0D093A302C09310
:1053D000A2028091A402813009F0B4CF87EB92E061
:1053E0000E94792E80EC92E00E94792E89EC92E066
:1053F0000E94792E82ED92E00E94792E6BEDE62ECE
:1054000062E0F62EC7010E94792E54EEA52E52E0DE
:10541000B52EC5010E94792E81EF92E00E94792E6F
:105420008AEF92E00E94792E83E093E00E94792E29
:10543000F092EE02E092ED02B092F002A092EF0242
:1054400081CFA0E0B0E0E7E2FAE20C94363688E2E1
:1054500090E00E947B2DEC01009709F491C085E556
:1054600090E00E947B2D988F8F8B009709F4C7C026
:1054700065EA70E045E550E00E94F1070F89188D5C
:10548000EDE3F2E0DE01808159968C93599780819B
:10549000882331F03196119682E0E534F80799F7C8
:1054A00018A21E8A1BA2F2E0CF2ED12CCC0EDD1E3C
:1054B000C6010E94892ECE010C960E94892ED987A2
:1054C000C88784E090E09D878C87DB8BCA8B1CA209
:1054D0001DA21EA21FA2C8018C5A9F4F6FEB71E044
:1054E00040E050E00E94882B998388830FB6F8949F
:1054F0000F928091A4028F5F8093A4028091A202F8
:105500009091A302892B09F441C08091B4028823B1
:1055100059F4E091A202F091A3028689882321F434
:10552000D093A302C093A2028091B6028F5F8093B2
:10553000B60289A39E898091A502891710F49093E1
:10554000A50289E0989FC001112489549D4FB6019E
:105550000E948D2E0F900FBE8091B402882321F0FF
:105560008091A2029091A302F89481E08093B4020A
:105570001092A8021092A7020E94092F0E94D32B1A
:10558000CDB7DEB7E8E00C94523641C0D093A30209
:10559000C093A2028091A402813031F687EB92E0A1
:1055A0000E94792E80EC92E00E94792E89EC92E0A4
:1055B0000E94792E82ED92E00E94792EEBEDEE2E84
:1055C000E2E0FE2EC7010E94792E04EE12E0C8012F
:1055D0000E94792E81EF92E00E94792E8AEF92E06C
:1055E0000E94792E83E093E00E94792EF092EE02E1
:1055F000E092ED021093F0020093EF0295CFCE01FE
:105600000E94082DCDB7DEB7E8E00C945236AF9279
:10561000BF92DF92EF92FF920F931F93CF93DF938E
:10562000EC015A018091AA028F5F8093AA028091B7
:10563000A402681708F46AC000E014E08FE0D82ED6
:10564000B9E0EB2E1150AFE0FA2E0D9DC0011124F0
:105650001E9DB001112469547D4F8C0F9D1F41E0A8
:1056600050E00E942F13080F112361F76091ED02A3
:105670007091EE020F9DC00111248C0F9D1F42E01E
:1056800050E00E942F13102F180F6091EF027091BD
:10569000F0021F9DC00111248C0F9D1F42E050E0BD
:1056A0000E942F13180F1F9DC00111248C0F9D1FE6
:1056B0006AEF72E044E050E00E942F13180F1F9D24
:1056C000C00111248C0F9D1F63E073E043E050E0A4
:1056D0000E942F13180FA114B10459F08091840077
:1056E00090918500A0E0B0E0F50180839183A283D2
:1056F000B3830E94D517812FDF91CF911F910F9116
:10570000FF90EF90DF90BF90AF90089510E0F1CF41
:10571000FC0191E1908322E2229383E382936293DE
:1057200072931292129280E88293129212921292C3
:1057300082E0829383E0829384E0829385E0829387
:1057400086E0829387E0829388E0829389E0829367
:1057500080E18293929382E1829383E1829384E158
:10576000829385E1829386E1829387E1829388E147
:10577000829389E1829380E2829381E282932293F1
:1057800083E282934293529386E2829387E28293EA
:1057900088E2829389E2829380E3829381E3829319
:1057A0003197CF01089584EF91E090930D0380939A
:1057B0000C0390930F0380930E0381E08093990074
:1057C00083EF809398008BE080939100E1E7F0E015
:1057D000808182608083A091A202B091A302CD91CA
:1057E000CDBFDD91DEBFFF91EF91DF91CF91BF91F2
:1057F000AF919F918F917F916F915F914F913F9169
:105800002F911F910F91FF90EF90DF90CF90BF905D
:10581000AF909F908F907F906F905F904F903F9050
:105820002F901F900F900CBE0F900BBE0F900FBECD
:105830000F90089581E0089508950F920FB6F8949F
:105840000F920BB60F920CB60F921F9211242F924B
:105850003F924F925F926F927F928F929F92AF9200
:10586000BF92CF92DF92EF92FF920F931F932F93ED
:105870003F934F935F936F937F938F939F93AF93D8
:10588000BF93CF93DF93EF93FF93A091A202B091C8
:10589000A3020DB60D920EB60D9280910E0390915B
:1058A0000F03019790930F0380930E03892B09F444
:1058B00035C00E941E15882311F00E942717A09161
:1058C000A202B091A302CD91CDBFDD91DEBFFF91C9
:1058D000EF91DF91CF91BF91AF919F918F917F9188
:1058E0006F915F914F913F912F911F910F91FF9079
:1058F000EF90DF90CF90BF90AF909F908F907F9070
:105900006F905F904F903F902F901F900F900CBE24
:105910000F900BBE0F900FBE0F9008950E9457037B
:1059200080910C0390910D0390930F0380930E03CD
:10593000C0CF0E941D2C18950F920FB6F8940F92AD
:105940000BB60F920CB60F921F9211242F923F921A
:105950004F925F926F927F928F929F92AF92BF927F
:10596000CF92DF92EF92FF920F931F932F933F936B
:105970004F935F936F937F938F939F93AF93BF9357
:10598000CF93DF93EF93FF93A091A202B091A30274
:105990000DB60D920EB60D920E942717A091A2028D
:1059A000B091A302CD91CDBFDD91DEBFFF91EF910C
:1059B000DF91CF91BF91AF919F918F917F916F9127
:1059C0005F914F913F912F911F910F91FF90EF9019
:1059D000DF90CF90BF90AF909F908F907F906F900F
:1059E0005F904F903F902F901F900F900CBE0F90A4
:1059F0000BBE0F900FBE0F900895809147029091BB
:105A000048020895809145029091460208950895B4
:105A10000F931F93CF93DF93009789F0EC012497A6
:105A20004A815B812091100330911103C9018423C5
:105A30009523892B21F088819981892B29F0DF9189
:105A4000CF911F910F9108952095309524233523F0
:105A50003B832A830E94BB120A811B8180914702EB
:105A600090914802800F911F9093480280934702C3
:105A7000E4E1F5E101C0FC01808191818C179D0773
:105A8000D0F3BF019F0142815381CF01840F951F45
:105A9000C817D90749F1FE019E01EB01A881B98120
:105AA000200F311FA217B30759F0B183A0836E17DF
:105AB0007F0719F0DB01ED93FC930E94D517BFCF50
:105AC0008091120390911303A817B90771F31296EE
:105AD0008D919C911397800F911F938382838D9159
