:100000000C9428030C944A030C944A030C944A035E
:100010000C944A030C944A030C944A030C944A032C
:100020000C944A030C944A030C944A030C944A031C
:100030000C944A030C944A030C944A030C944A030C
:100040000C944A030C944A030C944A030C944A03FC
:100050000C944A030C944A030C944A030C944A03EC
:100060000C944A030C945A380C9459390C944A0352
:100070000C944A030C944A030C944A030C944A03CC
:100080000C94E4310C944A030C944A030C944A03F4
:100090000C9431380C9430390C944A030C94D210DF
:1000A0000C944A030C94650E0C944A030C944A0376
:1000B0000C944A030C941B0E0C94F00E0C944A03FF
:1000C0000C944A030C944A030C94400E0C94083888
:1000D0000C9407390C944A030C94DF370C94DE38E7
:1000E0000C944A033011E910E910E910E910E91005
:1000F000E910E9103011E910E910E910E910E910F0
:10010000E910E9103211E910E910E910E910E910DD
:10011000E910E9106A11E910E910E910E910E91095
:10012000E910E9103211E910E910E910E910E910BD
:10013000E910E9106A11E910E910E910E910E91075
:10014000E910E9107211E910E910E910E910E9105D
:10015000E910E910A211E910E910E910E910E9101D
:10016000E910E910E910E910E910E910E910E910C7
:10017000E910E9101811E910E910E910E910E91087
:10018000E910E9105911E910E910E910E910E91036
:10019000E910E9109F11E910E910E910E910E910E0
:1001A000E910E9109F11E910E910E910E910E910D0
:1001B000E910E9108A11E910E910E910E910E910D5
:1001C000E910E9108A11E910E910E910E910E910C5
:1001D000E910E9100311E910E910E910E910E9103C
:1001E000E910E9102C11E910E910E910E910E91003
:1001F000E910E9100311E910E910E910E910E9101C
:10020000E910E9102C11E910E910E910E910E910E2
:10021000E910E9107611E910E910E910E910E91088
:10022000E910E9104711E910E910E910E910E910A7
:10023000E910E9104711E910E910E910E910E91097
:10024000E910E9104911E910E910E910E910E91085
:10025000E910E9107C11E910E910E910E910E91042
:10026000E910E91014116E616E00696E66000040BD
:100270007A10F35A00A0724E18090010A5D4E800B5
:1002800000E87648170000E40B54020000CA9A3BCD
:10029000000000E1F5050000809698000000404253
:1002A0000F000000A08601000000102700000000E1
:1002B000E803000000006400000000000A000000E5
:1002C00000000100000000002C76D888DC674F0891
:1002D00023DFC1DFAE59E1B1B796E5E3E453C63A97
:1002E000E651997696E8E6C28426EB898C9B62ED0E
:1002F000407C6FFCEFBC9C9F40F2BAA56FA5F490C8
:10030000055A2AF75C936B6CF9676DC11BFCE0E43E
:100310000D47FEF520E6B500D0ED902E0300943594
:1003200077050080841E080000204E0A000000C8E7
:100330000C333333330F986E12831141EF8D211438
:10034000893BE65516CFFEE6DB18D1844B381BF708
:100350007C1D901DA4BBE424203284725E228100A7
:10036000C9F124ECA1E53D27A0E0B0E0EAEBF1E023
:100370000C94203DE9E0CE2EAA24A39488248A94EC
:10038000982C7724739405C00F900FBEBB2009F002
:100390005FC080911B03882309F480C08091100303
:1003A0008F5F80931003B09060030FB6F8940F92A4
:1003B0008091100381508093100380911003882353
:1003C00019F780910A038823F9F280915703882353
:1003D00071F1E0915C03F0915D03C681D781CE019C
:1003E0000C960E9429348E010E5F1F4FC8010E9497
:1003F00029349E8980910B03891718F490930B037D
:100400009E899C9DC0011124835E9C4FB8010E946F
:10041000D833E0910803F09109039E8986899817E3
:10042000A0F2A0920C0380915703882391F680914B
:100430001903882309F04DC080910C03813009F025
:10044000A3CF0E94E7310F900FBEBB2009F4A1CFCC
:100450000FB6F8940F92E0916503F0916603068160
:100460001781C80102960E94293480910A038150A5
:1004700080930A0380911B03815080931B030F908C
:100480000FBEF8018789908D0E945332C8010E94E7
:10049000533280911B03882309F080CF80911D0384
:1004A000823008F476CF0E94E73173CF8091190330
:1004B0008F5F80931903DD2480910C03882309F05A
:1004C00095C0DD2009F092C080911903815080937E
:1004D000190380911903882309F4AECF809110038A
:1004E000882321F780910D0390910E03019690933C
:1004F0000E0380930D03E0900D03F0900E03E114C2
:10050000F10409F520915303309154038091550370
:100510009091560390935403809353033093560362
:100520002093550380910F038F5F80930F03E09119
:100530005303F09154038081882309F073C0909293
:100540004602809245028091450290914602E8164B
:10055000F90608F44EC0DD24E0915303F0915403F2
:1005600080818823F1F1E0915303F09154030580D9
:10057000F681E02DC681D7818A819B81E816F90634
:1005800008F461C08E010E5F1F4FC8010E9429341C
:100590008C899D89892B21F0CE010C960E942934EB
:1005A0009E8980910B03891718F490930B039E8901
:1005B0009C9DC0011124835E9C4FB8010E94D833DA
:1005C000E0910803F09109039E898689981720F22B
:1005D000DD24D394E0915303F09154038081882368
:1005E00011F6909246028092450204C070920C036C
:1005F0006BCFDD24E0910803F0910903868990E038
:10060000FC01EE0FFF1FEE0FFF1FEE0FFF1FE80FA5
:10061000F91FE35EFC4F8081823008F44DCFDD246A
:10062000D3944ACFE0915303F09154030580F681AF
:10063000E02D0680F781E02D828193819093460220
:100640008093450280CF9093460280934502D2CF9B
:1006500011241FBECFEFD1E2DEBFCDBF00E00CBF43
:1006600012E0A0E0B2E0ECEDFAE700E00BBF02C060
:1006700007900D92A23DB107D9F71BBE16E1A2ED7E
:10068000B2E001C01D92A433B107E1F70E94660CED
:100690000C946C3D0C9400008F938FB78F93F8945B
:1006A0008091BC158F5F8093BC158091BD158F4FD5
:1006B0008093BD158091BE158F4F8093BE1580919C
:1006C000BF158F4F8093BF158F918FBF8F91089566
:1006D000A1E1B0E0EEE6F3E00C941B3D3C017F8726
:1006E0006E876A01FC0117821682838181FD03C037
:1006F0006FEF7FEF71C39E012F5F3F4F398B288BC8
:10070000F3012381EE85FF8523FD859123FF8191F0
:10071000FF87EE87882309F45CC3853251F4EE85A8
:10072000FF8523FD859123FF8191FF87EE87853229
:1007300029F490E0B3010E94F807E2CF982F10E06F
:10074000882499241032B0F49B3269F09C3228F44A
:10075000903251F0933271F40BC09D3239F09033E6
:1007600049F4116028C01260146025C0186023C0CD
:10077000106121C017FD2AC0892F80538A3078F478
:1007800016FF06C0FAE09F9E902C1124980E13C00D
:100790003AE0839E802C1124880E10620CC09E3299
:1007A00021F416FD16C3106406C09C3611F41068BF
:1007B00002C0983659F4EE85FF8523FD959123FFFD
:1007C0009191FF87EE87992309F0BCCF892F85543B
:1007D000833020F4812F8061905E07C0892F855679
:1007E000833008F0A1C1812F8F7E86FD02C076E0A4
:1007F000972E6FE3F62EF822953619F4F0E4FF2ACF
:1008000007C0963619F420E8F22A02C091109A9493
:10081000F7FE0BC03BE3391520F427E05CE3B52E6F
:100820000EC0B92CB39427E00AC047E0491528F45C
:1008300027E0BB2447E0942E02C0292DBB24C6012B
:1008400004969D878C87F6016081718182819381F6
:10085000AE014F5F5F4F0B2D0E94F1066C010981C5
:10086000202E332400FF04C003FD02C01DE209C096
:10087000F1FE02C01BE205C0F2FC02C010E001C0A4
:1008800010E2C1018C709070892BB9F1112311F421
:1008900083E001C084E0881510F088240AC0881A1B
:1008A000F3FC07C080E290E0B3010E94F8078A944D
:1008B000C9F7112329F0812F90E0B3010E94F807B6
:1008C00023FE03C006E612E00EC00AE612E00BC0EB
:1008D000E114F10409F0805290E0B3010E94F8079E
:1008E0000F5F1F4F05C0EF2CFF24F0E1EF22FF2424
:1008F000F8018491882361F714C1F7FE12C0BC0C83
:1009000024FE04C08A81813309F4BA941B141CF0BC
:10091000BB24B3942DC0F8E0FB1550F538E0B32E9E
:1009200027C0F6FC25C0892D90E08C159D054CF064
:100930002CEFC2162FEFD20624F030E8F32A01C0C4
:100940009A94992049F0E2E0F0E0EC0FFD1FE90DE8
:10095000F11D80818033A1F3F7FE0AC0B92CB39456
:10096000892D90E0C816D90614F0992401C09C186E
:10097000F7FC03C025E030E009C01C141D041CF086
:1009800021E030E003C096012F5F3F4F112311F0AB
:100990002F5F3F4F992029F0892D90E00196280F75
:1009A000391F882D90E02817390714F0882401C0DA
:1009B000821A4F2C5524C20189709070892B39F00E
:1009C00008C080E290E0B3010E94F8078A94882072
:1009D000C1F7112329F0812F90E0B3010E94F8079D
:1009E00043FE07C008C080E390E0B3010E94F8070F
:1009F0008A948820C1F7F7FE46C08601D7FE02C060
:100A000000E010E076010894E11CF11CE01AF10A04
:100A100041E050E04C0F5D1FE40EF51E26014B181F
:100A20005108892D90E0AA24BB24A81AB90A5FEFC7
:100A30000F3F150729F48EE290E0B3010E94F807FA
:100A4000C016D10634F0401651061CF4F70180811F
:100A500001C080E3015010400894E11CF11C0A150C
:100A60001B052CF090E0B3010E94F807E0CF0C15B5
:100A70001D0539F49A81963318F4953311F424FE48
:100A800081E390E04BC08A81813309F00F7E90E0D2
:100A9000B3010E94F8079920A1F08EE290E0B30123
:100AA0000E94F80712E0E1E0F0E0EC0FFD1FE10F1B
:100AB000F11D1F5F808190E0B3010E94F8079A94B6
:100AC00091F744FC03C085E690E002C085E490E025
:100AD000B3010E94F807D7FC05C0C114D10441F44A
:100AE00004FF06C0D094C194D108D3948DE201C014
:100AF0008BE290E0B3010E94F80780E305C08F5FAE
:100B000026EF3FEFC20ED31E3AE0C316D104BCF766
:100B100090E0B3010E94F807C601C096B3010E949D
:100B2000F807CC84DD8452C1933631F0933799F0C5
:100B3000933509F059C023C0F601808189835E0195
:100B40000894A11CB11C22E030E0C20ED31E21E0AB
:100B5000E22EF12C12C0F601A080B18016FD03C078
:100B60006FEF7FEF02C0692D70E022E030E0C20E2F
:100B7000D31EC5010E94ED077C011F7713C0F6014B
:100B8000A080B18016FD03C06FEF7FEF02C0692D1A
:100B900070E022E030E0C20ED31EC5010E94D207F1
:100BA0007C01106813FF07C01BC080E290E0B30116
:100BB0000E94F8078A94882D90E0E816F906A8F3B9
:100BC0000FC0F50117FD859117FF81915F0190E03E
:100BD000B3010E94F80781108A940894E108F10893
:100BE000E114F10471F7F2C0943611F0993689F5E9
:100BF00017FF08C0F601208131814281538184E0D2
:100C000090E00AC0F601808191819C01442737FD64
:100C10004095542F82E090E0C80ED91E9FE6F92E31
:100C2000F12257FF09C050954095309521953F4FCF
:100C30004F4F5F4F90E8F92ACA01B901AE014F5FEB
:100C40005F4F2AE030E00E949C08E82EE889EE1A07
:100C500041C0953721F41F7E2AE030E01CC0197F87
:100C60009F3661F0903720F4983509F0B2C00FC07C
:100C7000903739F0983709F0ACC004C028E030E074
:100C80000AC0106114FD146020E130E004C014FDBE
:100C9000166020E132E017FF08C0F6016081718123
:100CA0008281938144E050E008C0F6018081918107
:100CB000BC0180E090E042E050E0C40ED51EAE01E1
:100CC0004F5F5F4F0E949C08E82E5889E51A8FE716
:100CD000F82EF122F6FE0BC08EEFF822E91438F45C
:100CE000F4FE07C0F2FC05C09FEEF92202C01E2DE3
:100CF00001C0192DF4FE0DC0FE01EE0DF11D808125
:100D0000803319F4E9EEFE2208C01F5FF2FE05C031
:100D100003C08F2D867809F01F5F0F2DF3FC14C0E0
:100D2000F0FE0FC0181510F09E2C0BC09E2C980CD6
:100D3000911A182D06C080E290E0B3010E94F807D6
:100D40001F5F1815C0F304C0181510F4811A01C0F4
:100D5000882404FF0FC080E390E0B3010E94F807ED
:100D600002FF1DC001FD03C088E790E00EC088E5CA
:100D700090E00BC0802F867891F001FF02C08BE2DB
:100D800001C080E2F7FC8DE290E0B3010E94F80719
:100D900006C080E390E0B3010E94F8079A94E9143A
:100DA000C0F3EA94E1E0F0E0EC0FFD1FEE0DF11D61
:100DB000808190E0B3010E94F807EE2091F706C011
:100DC00080E290E0B3010E94F8078A948820C1F77E
:100DD00097CCF30166817781CB016196E2E10C94B7
:100DE000373D283008F027E03327DA01990F311D0D
:100DF00087FD916000966105710539F432602E5FC0
:100E00003D9330E32A95E1F708959F3F30F0803815
:100E10007105610509F03C5F3C5F3D93913008F03E
:100E20008068911DDF93CF931F930F93FF92EF92F2
:100E3000192F987F9695E92F96959695E90FFF279C
:100E4000E853FD4F99273327EE24FF24A701E7013C
:100E500005900894079428F4360FE71EF81E491FE2
:100E6000511D660F771F881F991F0694A1F70590E3
:100E7000079428F4E70EF81E491F561FC11D770F6F
:100E8000881F991F661F0694A1F70590079428F400
:100E9000F80E491F561FC71FD11D880F991F661FC7
:100EA000771F0694A1F70590079420F4490F561F69
:100EB000C71FD81F990F661F771F881F0694A9F7B1
:100EC00084911095177041F0D695C7955795479521
:100ED000F794E7941A95C1F7EEE6F2E0689415905E
:100EE000159135916591959105907FE27395E11883
:100EF000F10A430B560BC90BD009C0F7E10CF11EE8
:100F0000431F561FC91FD01D7EF4703311F48A95FC
:100F1000E6CFE894015030F0080F0AF400270217DA
:100F200008F4202F2395022F7A3328F079E37D935C
:100F30002A95E9F710C07D932A9589F6069497952E
:100F40006795379517951794E118F10A430B560BDF
:100F5000C90BD00998F023957E9173957A3308F0E8
:100F600070E37C932013B8F77E9170617D9330F02D
:100F7000839571E37D9370E32A95E1F71124EF9057
:100F8000FF900F911F91CF91DF91992787FD909549
:100F90000895FC0105900020E9F7809590958E0F4B
:100FA0009F1F0895FC010590615070400110D8F713
:100FB000809590958E0F9F1F0895FB01DC0102C064
:100FC00001900D9241505040D8F70895DC0101C0C6
:100FD0006D9341505040E0F70895FC01615070401E
:100FE00001900110D8F7809590958E0F9F1F08955E
:100FF0000F931F93CF93DF938C01EB018B8181FFC4
:101000001BC082FF0DC02E813F818C819D812817DE
:10101000390764F4E881F9810193F983E88306C014
:10102000E885F985802F1995892B31F48E819F8170
:1010300001969F838E8302C00FEF1FEFC801DF91DF
:10104000CF911F910F910895AEE0B0E0EAE2F8E091
:101050000C94293D0E891F8986E08C831A830983AD
:101060008FEF9FE79E838D839E01265E3F4FCE01CB
:101070000196688D798DA9010E9468032F813885BA
:10108000020F131FF80110822E96E4E00C94453DE8
:10109000AEE0B0E0EEE4F8E00C94293D8C0177FF7F
:1010A00002C060E070E8615070407E836D831A83F7
:1010B000098386E08C83CE010196BA01A9010E94C2
:1010C00068032D813E8137FD09C0EF81F8852E1719
:1010D0003F070CF4F901E00FF11F10822E96E4E0B7
:1010E0000C94453DAEE0B0E0E8E7F8E00C94293D13
:1010F0008C0177FF02C060E070E8615070407E8331
:101100006D831A8309838EE08C83CE010196BA0128
:10111000A9010E9468032D813E8137FD09C0EF813E
:10112000F8852E173F070CF4F901E00FF11F10822C
:101130002E96E4E00C94453DFA01AA27283051F19F
:10114000203181F1E8946F936E7F6E5F7F4F8F4FF8
:101150009F4FAF4FB1E03ED0B4E03CD0670F781F57
:10116000891F9A1FA11D680F791F8A1F911DA11D3C
:101170006A0F711D811D911DA11D20D009F4689475
:101180003F912AE0269F11243019305D3193DEF61D
:10119000CF010895462F4770405D4193B3E00FD0D3
:1011A000C9F7F6CF462F4F70405D4A3318F0495DBE
:1011B00031FD4052419302D0A9F7EACFB4E0A695A1
:1011C0009795879577956795BA95C9F700976105C3
:1011D000710508959B01AC010A2E06945795479519
:1011E00037952795BA95C9F7620F731F841F951F0E
:1011F000A01D0895A2E0B0E0E0E0F9E00C94233DEA
:1012000081E090E040E855E260E070E02FEF30E0F0
:1012100000E410E00E94023C81E090E06EEF0E944A
:10122000E83581E090E061E00E94E83581E090E0FF
:101230006EEF0E94E83581E090E060E80E94E835BA
:10124000EBEAF5E123E030E008C08081D80E2E5FA4
:101250003F4F32962331310559F02A303105ACF336
:101260008081C80E2E5F3F4F329623313105A9F79A
:101270005E010894A11CB11CD501E0E0F2E083E01E
:1012800001900D928150E1F7F50101900020E9F7FE
:10129000CF0100D000D0ADB7BEB711960197EDB722
:1012A000FEB79283818303E012E013961C930E93A2
:1012B000129780917F1514968C93149715961C9213
:1012C0000E942408F50101900020E9F7319780E29F
:1012D00090E0918380838DB79EB706960FB6F89401
:1012E0009EBF0FBE8DBF81E090E0B5010E949F3A86
:1012F000D501E6E0F2E083E001900D928150E1F744
:10130000F50101900020E9F7CF0100D000D0ADB782
:10131000BEB711960197EDB7FEB7928381831396FE
:101320001C930E9312978091811514968C931497A9
:1013300015961C920E9424088DB79EB706960FB68C
:10134000F8949EBF0FBE8DBF81E090E0B5010E9472
:101350009F3A81E090E06EEF0E94E83581E090E0F6
:1013600060EC0E94E835D501E9E0F2E083E001900D
:101370000D928150E1F7F50101900020E9F7CF01CE
:1013800000D000D0ADB7BEB711960197EDB7FEB74C
:10139000928381830CE012E013961C930E931297B4
:1013A0008091A91514968C93149715961C920E94FF
:1013B0002408F50101900020E9F7319780E2E82E3A
:1013C000F12CF182E0828DB79EB706960FB6F894A5
:1013D0009EBF0FBE8DBF81E090E0B5010E949F3A95
:1013E00081E492E5AAE3B0E089839A83AB83BC836E
:1013F000F50101900020E9F7CF0100D000D0ADB792
:10140000BEB711960197EDB7FEB79283818313960D
:101410001C930E931297D694D6941496DC9214973C
:1014200015961C920E942408F50101900020E9F70E
:101430003197F182E0828DB79EB706960FB6F89489
:101440009EBF0FBE8DBF81E090E0B5010E949F3A24
:1014500081E49CE4AAE3B0E089839A83AB83BC83F4
:10146000F50101900020E9F7CF0100D000D0ADB721
:10147000BEB711960197EDB7FEB79283818313969D
:101480001C930E931297C694C6941496CC921497FC
:1014900015961C920E9424088DB79EB706960FB62B
:1014A000F8949EBF0FBE8DBF81E090E0B5010E9411
:1014B0009F3A2296EAE00C943F3D813099F08230C9
:1014C000F9F0833059F16D9A6B9A8091010188602F
:1014D0008093010180910201877F809302017598BA
:1014E0007398089580910101877F809301016D9A1F
:1014F000739A809102018860809302017598089523
:1015000080910101877F809301016B9A759A809188
:101510000201886080930201739808956D986B981A
:1015200080910101886080930101739A759A80917E
:101530000201877F809302010895CF93DF9360912A
:1015400084157091851581E090E00E94EE0D019761
:1015500009F448C0C0918415D091851580E090E0D1
:10156000BE010E94EE0D0197D1F560918615709134
:1015700087156F5F7F4F7093871560938615882757
:1015800077FD8095982F0E94F63421E73DE34AE0ED
:101590005FE30E9482350E94C83470938215609385
:1015A0008115E0918415F0918515608170E08827A0
:1015B00077FD8095982F0E94F63420E030E04AEFC6
:1015C00054E40E9460349B01AC0161E77DE38AE052
:1015D0009FE30E9460340E94C83460937F15DF91BE
:1015E000CF91089560918615709187156F5F7F4F39
:1015F0007093871560938615882777FD8095982FBF
:101600000E94F63421E73DE34AE05FE30E94823521
:101610000E94C8347093821560938115C09184151F
:10162000D0918515688170E0882777FD8095982F87
:101630000E94F63420E030E04AEF54E40E94603427
:101640009B01AC0161E77DE38AE09FE30E94603487
:101650000E94C83460937F1581CF80E00E945D0AAC
:1016600081E090E00E946F0D80E090E00E946F0D9D
:1016700081E08093801508951092801581E00E948A
:101680005D0A81E090E00E940D0D81E090E068EB42
:101690007BE00E94BE0D80E090E00E940D0D80E096
:1016A00090E068EB7BE00E94BE0D089510928015DB
:1016B00081E00E945D0A81E090E00E940D0D81E0D2
:1016C00090E060ED77E00E94BE0D80E090E00E9427
:1016D0000D0D80E090E060ED77E00E94BE0D089572
:1016E0001092801583E00E945D0A81E090E00E94E4
:1016F0000D0D81E090E060ED77E00E94BE0D80E08E
:1017000090E00E940D0D80E090E068EB7BE00E948D
:10171000BE0D08951092801582E00E945D0A81E05E
:1017200090E00E940D0D81E090E068EB7BE00E946C
:10173000BE0D80E090E00E940D0D80E090E060ED35
:1017400077E00E94BE0D0895A4E1B0E0EAEAFBE074
:101750000C94253D83E0C82ED12CCC0EDD1ED60185
:10176000E3E7F2E082E101900D928150E1F781ED33
:10177000898381E08A8300E010E07E010894E11C07
:10178000F11CC601800F911F62E070E00E945710AB
:10179000C70162E070E00E945710C80188559A4E58
:1017A00062E070E00E94A2102091AB158091A91513
:1017B00090E0820F911D2091AD15820F911D209117
:1017C000AF15820F911D2091B115820F911D2091AF
:1017D000B315820F911D2091B515820F911D209197
:1017E000B715820F911D2091B915820F911D69E0E7
:1017F00070E00E94E63C70938415609383150E5F41
:101800001F4F0231110509F0BCCF6496E8E00C943B
:10181000413DA2E0B0E0EFE0FCE00C94253D0E94E9
:101820007E0F0E940C189A83898382E090E00E94C8
:101830000D0D01EE1AE022E0E22EF12C6E0108946B
:10184000C11CD11C80918015882329F582E090E08D
:10185000B8010E94BE0D8AE0013E180781F1B70170
:10186000600F711F82E1613C780708F19EEFE92E5D
:101870009FEFF92E8701060F171F82E090E0B80155
:101880000E94BE0DC60161E070E00E945C2C809158
:1018900080158823D9F282E090E061EE7AE00E9420
:1018A000BE0DC6016CE070E00E945C2CCBCF84E0E2
:1018B0006C347807F8F682E0E82EF12CDBCFC60115
:1018C0006CE070E00E945C2CCACFFFCFAF92BF9259
:1018D000CF92DF92EF92FF920F931F9380E090E000
:1018E00040E855E260E070E02FEF30E000E410E007
:1018F0000E94023C9093BB158093BA158FEE9CE03A
:1019000060E070E040E051E020E030E003E0EE24F1
:10191000FF24CC24DD24AA24BB240E94672E89E066
:101920009CE060E070E040E051E020E030E00E94A8
:10193000672E84EB9CE060E070E040E051E020E046
:1019400030E00E94672E80EC90E00E94AB110E9474
:101950006C2F80E090E01F910F91FF90EF90DF904F
:10196000CF90BF90AF900895A2E0B0E0EAEBFCE02A
:101970000C94293D0E940C189A8389838E010F5F75
:101980001F4F0E948A0B0E949D0AC80164EF71E0FC
:101990000E945C2C0E94560B0E949D0AC80164EFB5
:1019A00071E00E945C2C0E94700B0E949D0AC8018D
:1019B00064EF71E00E945C2C0E943C0B0E949D0A27
:1019C000C80164EF71E00E945C2C0E942D0B0E9404
:1019D0009D0AC80168EE73E00E945C2CD2CFA2E0A1
:1019E000B0E0E5EFFCE00C94293D0E940C189A83CE
:1019F00089838E010F5F1F4F80E00E94A40BC801F6
:101A000062E370E00E945C2C80E00E94FA08C8014A
:101A100068EC70E00E945C2CEFCF9C01DC01AA0F07
:101A2000BB1FAC01440F551F440F551F440F551FDA
:101A3000FD01E40FF51FED54FD4F0190F081E02D05
:101A4000808191818C54944085579E4020F080E5A0
:101A50009AE091838083F901EE0FFF1FEE0FFF1FC5
:101A6000E20FF31FEE0FFF1FEB54FD4F0190F081CB
:101A7000E02DA40FB51FAD54BD4F14964D915C9150
:101A80001597208181E090E016960C90169702C081
:101A9000880F991F0A94E2F7282B2083FA012081EE
:101AA0008095822380831896ED91FC91199700848C
:101AB000F185E02D20811796AC91A13069F0A1301D
:101AC00030F480E89FEB822B892380830895A23035
:101AD000E9F788E09BEFF7CF80E29FEEF4CFCF935A
:101AE000DF93FC01EE0FFF1FEE0FFF1FE80FF91F42
:101AF000EE0FFF1FEB54FD4F40815181DC01AA0F17
:101B0000BB1FAA0FBB1FAA0FBB1F880F991FA80FCF
:101B1000B91FAD54BD4F1496ED91FC911597EA0194
:101B2000288181E090E016960C90169702C0880FED
:101B3000991F0A94E2F7282B28832081809582231D
:101B400080831896ED91FC9119970084F185E02D22
:101B5000908117968C91813069F0813030F48FE359
:101B600089238083DF91CF910895823029F0DF911E
:101B7000CF9108958FECF4CF83EFF2CF9C01CB018E
:101B80008C54944085579E4098F4C901F901EE0F9A
:101B9000FF1FEE0FFF1FEE0FFF1F880F991FE80FAB
:101BA000F91FED54FD4F0190F081E02D71836083AA
:101BB00008959C01FC01EE0FFF1FEE0FFF1FEE0FBB
:101BC000FF1F220F331FE20FF31FED54FD4F019053
:101BD000F081E02D20813181C9010895CF93DF93F9
:101BE000DC01EB01F894FC01EE0FFF1FEA51FD4F01
:101BF00080819181019739F020E030E07894C9012B
:101C0000DF91CF910895AA0FBB1FAA0FBB1FA2524D
:101C1000BD4F8D919D910D90BC91A02D888399838E
:101C2000AA83BB831182108221E030E07894C9013D
:101C3000DF91CF9108951F920F920FB60F9211244A
:101C40008F939F93AF93BF938091D2029091D302D1
:101C5000A091D402B091D5020196A11DB11D80932F
:101C6000D2029093D302A093D402B093D502BF9135
:101C7000AF919F918F910F900FBE0F901F9018956D
:101C80001F920F920FB60F9211248F939F93AF93D1
:101C9000BF938091D6029091D702A091D802B091C3
:101CA000D9020196A11DB11D8093D6029093D7024F
:101CB000A093D802B093D902BF91AF919F918F9119
:101CC0000F900FBE0F901F9018951F920F920FB696
:101CD0000F920BB60F921124EF92FF920F931F9366
:101CE0002F933F934F935F936F937F938F939F9324
:101CF000AF93BF93CF93DF93EF93FF93E091930262
:101D0000F0919402808180628083E0919902F09149
:101D10009A02C081D1812091D2023091D3024091A8
:101D2000D4025091D5021092D2021092D302109296
:101D3000D4021092D502211531054105510509F44F
:101D400044C08091DA029091DB027E0100E010E055
:101D5000A0E0B0E0E81AF90A0A0B1B0BCA01B901AE
:101D60002FE33CE940E050E00E94C73CE60EF71E3E
:101D7000081F191FE092DE02F092DF020093E002DA
:101D80001093E10281E090E09093E7028093E602F5
:101D9000D093DB02C093DA02FF91EF91DF91CF91F4
:101DA000BF91AF919F918F917F916F915F914F9173
:101DB0003F912F911F910F91FF90EF900F900BBECD
:101DC0000F900FBE0F901F9018958091DA0290919E
:101DD000DB029E01281B390B790100E010E0CACF1D
:101DE0001F920F920FB60F920BB60F921124EF9223
:101DF000FF920F931F932F933F934F935F936F9394
:101E00007F938F939F93AF93BF93CF93DF93EF9382
:101E1000FF93A0919102B0919202ED91FC911197E4
:101E20008081806280831696ED91FC911797C08126
:101E3000D1812091D6023091D7024091D8025091A1
:101E4000D9021092D6021092D7021092D8021092A4
:101E5000D902211531054105510509F444C080918D
:101E6000DC029091DD027E0100E010E0A0E0B0E035
:101E7000E81AF90A0A0B1B0BCA01B9012FE33CE966
:101E800040E050E00E94C73CE60EF71E081F191FF5
:101E9000E092E202F092E3020093E4021093E50282
:101EA00081E090E09093E9028093E802D093DD0214
:101EB000C093DC02FF91EF91DF91CF91BF91AF9181
:101EC0009F918F917F916F915F914F913F912F9152
:101ED0001F910F91FF90EF900F900BBE0F900FBED0
:101EE0000F901F9018958091DC029091DD029E0169
:101EF000281B390B790100E010E0CACF8091A000C7
:101F00008F738093A0008091A0008F7C8093A000AD
:101F10008091A000837F8093A0008091A000909189
:101F2000A100836098618093A0009093A1008091AC
:101F3000A10082608A7F8093A1002EE33CE9309368
:101F4000A9002093A800809120018F738093200125
:101F5000809120018F7C8093200180912001837FDC
:101F600080932001809120019091210183609861EC
:101F700080932001909321018091210182608A7FCA
:101F80008093210130932901209328011092DB02D4
:101F90001092DA021092D2021092D3021092D4025E
:101FA0001092D50280910A018E7F80930A01809160
:101FB0000B018E7F80930B01E0919502F0919602C8
:101FC000808180628083808181608083E0919D0236
:101FD000F0919E028081806480831092DD021092D5
:101FE000DC021092D6021092D7021092D802109200
:101FF000D90280910A018D7F80930A0180910B01A3
:102000008D7F80930B01A0919102B0919202129664
:10201000ED91FC9113978081806280831296ED91FF
:10202000FC9113978081816080831A96ED91FC91D9
:102030001B9780818064808308958091BC0080FD1F
:10204000FCCF1092EC0288EF8093440285EC8093E1
:10205000BC0008958091BC0080FDFCCF1092EC0282
:1020600088EF8093440285EE8093BC000895AC0114
:102070008091BC0080FDFCCF60930703662371F064
:1020800020E030E0F901E151FD4FDA01A20FB31F6A
:102090008C9180832F5F3F4F2617A0F31092EC02A4
:1020A00088EF8093440285EC8093BC000895FC0186
:1020B0008091BC0080FDFCCF6093070380818093FA
:1020C000EF02808180FD11C0623078F0DF01E0EF27
:1020D000F2E0625070E06F507D4F11968C91119735
:1020E00081931196E617F707C1F71092EC0288EF7B
:1020F0008093440285EA8093BC000895AC018091EE
:10210000BC0080FDFCCF2091EC0220FF19C06623AB
:1021100081F020E030E0FA01E20FF31FD901A15174
:10212000BD4F8C9180832F5F3F4F2617A0F32091E6
:10213000EC02822F8D7F8093EC02822F81700895B4
:1021400080E00895AC018091BC0080FDFCCF8091BF
:10215000EC02282F217080FF13C0662389F020E055
:1021600030E0FA01E20FF31FD901A151BD4F8C916C
:1021700080832F5F3F4F2617A0F32091EC02217040
:10218000822F08958091ED02882319F089B189B1D9
:10219000FDCF81E008958091BC0080FDFCCF80914F
:1021A000440208951F920F920FB60F920BB60F9232
:1021B00011242F933F938F939F93AF93BF93EF93EC
:1021C000FF938091B90090E0FC013897E13CF10564
:1021D000B0F08091B9008093440285ED8093BC00FB
:1021E000FF91EF91BF91AF919F918F913F912F916F
:1021F0000F900BBE0F900FBE0F901F901895EE58CA
:10220000FF4F0C94523D8091EE029091BB00E82F5D
:10221000F0E0E151FD4F90838F5F8093EE0280915B
:10222000EC0281608093EC0285EC8093BC00D8CFF7
:102230002091EE028091BB00E22FF0E0E151FD4FD2
:1022400080832F5F2093EE0230E08091070390E0BF
:1022500001972817390744F385E88093BC00C0CF65
:102260001092EE029091EE0280910703981708F009
:102270005DC0E92FF0E0E151FD4F80818093BB000C
:102280009F5F9093EE0285E88093BC00A9CF1092E7
:10229000EE029091EE02E92FF0E0E151FD4F8081D6
:1022A0008093BB009F5F9093EE0285EC8093BC000F
:1022B00097CF8091BB00E091EE02F0E0E151FD4F3D
:1022C00080838091EC0281608093EC0284ED8093A6
:1022D000BC0086CF8091B9008093440285EE809344
:1022E000BC007ECF85EE8093BC007ACF84E08093E3
:1022F000ED028093BC0074CF9091EE0280910703B1
:10230000981719F18091B9008093440284E080937A
:10231000BC0066CF8091EC02846082608093EC0206
:102320001092EE0285EC8093BC005ACF8091EC02B3
:1023300081608093EC0284E98093BC0051CF80914E
:10234000EC02EBCF2091EE027FCF8091EC02816016
:102350008093EC02DBCF1F93182F8091EA029091BB
:10236000EB02892BA9F08AB18C7F8AB98BB183608B
:102370008BB91092B9008CE28093B8001093BA0028
:102380008FEF8093BB0084E08093BC001F91089581
:1023900081E060E043E00E9498179093EB02809305
:1023A000EA02009701F360E070E040E050E020E0D6
:1023B0000E940515D8CF1F93182F8091EA029091A3
:1023C000EB02892B69F08AB18C7F8AB91093BA002D
:1023D0008FEF8093BB0084E08093BC001F91089531
:1023E00081E060E043E00E9498179093EB028093B5
:1023F000EA02009741F360E070E040E050E020E046
:102400000E940515E0CF0FB6F8940F92FC01828D63
:102410000F900FBE0895FC010FB6F8940F92928DA5
:102420000F900FBE838D891B0895FC01828D089546
:10243000FC01878D0895FC01678F0895FC0180A140
:102440000895FC01828D90E0882309F491E0892FA2
:102450000895FC01928D20E0838D981711F0822F52
:10246000089521E0822F0895CF93DF93EC018881B6
:102470009981009711F00E945332CE010E9453328D
:10248000DF91CF9108950F931F93CF93DF93562F32
:10249000E72FEC018A8D8823F1F00E811F8168817E
:1024A000798161157105A1F04C8D9801240F311DC2
:1024B0003F832E838A819B812817390710F07F8301
:1024C0006E836E817F81852F9E2F50E00E94DD07F5
:1024D0001F830E8381E0DF91CF911F910F910895AB
:1024E0000F931F93CF93DF93FB018A01EC018A8D39
:1024F000882319F16881798161157105A1F04C8DEE
:102500008E819F81840F911D9F838E832A813B81C1
:102510008217930710F07F836E836E817F81CF01D6
:1025200050E00E94DD078A8D81508A8F8D8D8F3F0C
:1025300049F08D8D8F5F8D8F81E0DF91CF911F915D
:102540000F9108958885882331F481E0DF91CF9140
:102550001F910F910895CE0108960E94201A88239A
:10256000A1F30115110589F381E0F8018083E5CF1E
:10257000A5E0B0E0EEEBF2E10C941D3D562E472EA7
:102580005D834C83A22E8C0128E0C22ED12CC80E74
:10259000D91E91E1E92EF12CE00EF11E20E04E0152
:1025A0000894811C911C84E0682E712C6C0E7D1E99
:1025B000BB24BA940FB6F8940F92F801828D882349
:1025C00009F0ECC08C819D81892B09F41CC1222368
:1025D00009F4D5C00F900FBE0E9406180FB6F894EC
:1025E0000F92F801858D8F3F09F4C7C0F801868DE1
:1025F0008F3F09F4C0C00F900FBEC401B3010E9409
:102600002B18882309F007C10FB6F8940F92F80130
:10261000828D0F900FBE882309F05FC0F801808182
:102620009181892B09F4AFC06C817D81C7010E9423
:102630000A1C0FB6F8940F92F801868D18164CF00C
:1026400019C0F801868D8150868F868D181694F4F6
:10265000F8018189882371F0C7010E94201A88231C
:1026600081F30E946A18F801868D8150868F868DCD
:10267000181674F3F801B68E0F900FBE0FB6F894CB
:102680000F92F801858D18164CF019C0F801858D50
:102690008150858F858D181694F4F80180858823E4
:1026A00071F0C6010E94201A882381F30E946A18E3
:1026B000F801858D8150858F858D181674F3F8018A
:1026C000B58E0F900FBE0E94201D882311F021E0CF
:1026D00071CF0E94E73121E06DCF0FB6F8940F92D1
:1026E000F801868D18164CF019C0F801868D8150BE
:1026F000868F868D181694F4F8018189882371F0ED
:10270000C7010E94201A882381F30E946A18F801E9
:10271000868D8150868F868D181674F3F801B68EDB
:102720000F900FBE0FB6F8940F92F801858D181612
:102730004CF019C0F801858D8150858F858D181654
:1027400094F4F8018085882371F0C6010E94201A54
:10275000882381F30E946A18F801858D8150858F46
:10276000858D181674F3F801B58E0F900FBE0E9478
:10277000201D21E01FCF168E3ECF158E37CFC4010E
:102780000E94201827CF0FB6F8940F92F80182818B
:1027900093810E9498190F900FBE46CF8680978034
:1027A0006081718161157105A1F0448D9401240F40
:1027B000311D37832683828193812817390708F0DA
:1027C0008CC0F80166817781852D942D50E00E94A0
:1027D000DD07AA2009F073C0F801828D8150828F35
:1027E00080819181892B09F481C0F801808588233B
:1027F00009F46BC0C6010E94201A813009F065C03F
:102800000E94E73162C00F900FBE80E02596E0E1A4
:102810000C94393D71C00FB6F8940F92F801868D73
:1028200018164CF019C0F801868D8150868F868D60
:10283000181694F4F8018189882371F0C7010E9469
:10284000201A882381F30E946A18F801868D81502E
:10285000868F868D181674F38FEFF801868F0F9090
:102860000FBE0FB6F8940F92F801858D18164CF034
:1028700019C0F801858D8150858F858D181694F4C7
:10288000F8018085882371F0C6010E94201A8823F0
:1028900081F30E946A18F801858D8150858F858D9E
:1028A000181674F38FEFF801858F0F900FBE0E94FA
:1028B000201D80E02596E0E10C94393D1DC0F80113
:1028C000978286828189882359F40F900FBE81E018
:1028D0002596E0E10C94393D0FC07783668371CF74
:1028E000C7010E94201A882381F38ACF0E944819C9
:1028F000F8019383828379CFEF92FF921F93CF9356
:10290000DF937A01122FEC019A8D8B8D981748F086
:10291000223039F080E0DF91CF911F91FF90EF904E
:1029200008954C8D4423A9F488819981892B09F459
:1029300065C08A8D8F5F8A8F8E8D8F3F89F18E8DD6
:102940008F5F8E8F81E0DF91CF911F91FF90EF908D
:102950000895112379F18E819F8150E00E94DD0757
:102960008C8D90E044275527481B590B8E819F8101
:10297000840F951F9F838E83288139818217930747
:1029800030F48A819B81840F951F9F838E83123040
:1029900081F68A8D882369F28A8D81508A8FC9CF0A
:1029A00089898823F1F481E0DF91CF911F91FF9015
:1029B000EF9008958C819D8150E00E94DD078C8D01
:1029C0002C813D81280F311D3D832C838A819B8181
:1029D0002817390708F4ADCF888199819D838C83AE
:1029E000A8CFCE0141960E94201A8823E1F2E1147B
:1029F000F104C9F281E0F7018083A5CF8A819B8130
:102A00000E9466191B821A8294CFA5E0B0E0EBE029
:102A1000F5E10C941D3D562E472E5D834C83B22E5E
:102A20008C0158E0E52EF12CE80EF91E41E1C42E90
:102A3000D12CC80ED91E20E04E010894811C911C97
:102A400034E0632E712C6C0E7D1EAA24AA940FB65E
:102A5000F8940F92F801928D838D981708F4E0C0D6
:102A6000F2E0BF1609F4DCC08C819D81892B09F44A
:102A70001EC1222309F478C00F900FBE0E940618D1
:102A80000FB6F8940F92F801858D8F3F09F46AC054
:102A9000F801868D8F3F09F463C00F900FBEC4010B
:102AA000B3010E942B18882309F009C10FB6F894CE
:102AB0000F92F801928D0F900FBEF801838D981739
:102AC00009F456C00FB6F8940F92F801868D1816C7
:102AD0004CF019C0F801868D8150868F868D1816AE
:102AE00094F4F8018189882371F0C6010E94201AAC
:102AF000882381F30E946A18F801868D8150868FA1
:102B0000868D181674F3F801A68E0F900FBE0FB6BF
:102B1000F8940F92F801858D18164CF019C0F80141
:102B2000858D8150858F858D181694F4F8018085E8
:102B3000882371F0C7010E94201A882381F30E9424
:102B40006A18F801858D8150858F858D181674F36C
:102B5000F801A58E0F900FBE0E94201D21E077CFB7
:102B6000168E9BCF158E94CFC4010E94201884CF5F
:102B70006C817D81C7010E940A1C0FB6F8940F92E8
:102B8000F801868D18164CF019C0F801868D815019
:102B9000868F868D181694F4F8018189882371F048
:102BA000C6010E94201A882381F30E946A18F80146
:102BB000868D8150868F868D181674F3F801A68E47
:102BC0000F900FBE0FB6F8940F92F801858D18166E
:102BD0004CF019C0F801858D8150858F858D1816B0
:102BE00094F4F8018085882371F0C7010E94201AAF
:102BF000882381F30E946A18F801858D8150858FA2
:102C0000858D181674F3F801A58E0F900FBE0E94E3
:102C1000201D882309F0A2CF0E94E73121E017CFC1
:102C2000F801448D4423A9F480819181892B09F412
:102C3000BEC0F801828D8F5F828F8189882309F061
:102C4000ADC00F900FBE81E02596E0E10C94393DB8
:102C5000B6C0BB2009F487C0F80186819781652D35
:102C6000742D50E00E94DD07F801848D90E0442728
:102C70005527481B590B86819781840F951F978391
:102C80008683208131818217930730F4828193817A
:102C9000840F951F97838683F2E0BF1651F6F801E3
:102CA000828D882331F2828D8150828FC2CF0F9026
:102CB0000FBE80E02596E0E10C94393D80C00FB650
:102CC000F8940F92F801868D18164CF019C0F8018F
:102CD000868D8150868F868D181694F4F80181892F
:102CE000882371F0C6010E94201A882381F30E9474
:102CF0006A18F801868D8150868F868D181674F3B8
:102D00008FEFF801868F0F900FBE0FB6F8940F92D9
:102D1000F801858D18164CF019C0F801858D815089
:102D2000858F858D181694F4F8018085882371F0BD
:102D3000C7010E94201A882381F30E946A18F801B3
:102D4000858D8150858F858D181674F38FEFF8016E
:102D5000858F0F900FBE0E94201D80E02596E0E138
:102D60000C94393D2CC0F80184819581652D742D1A
:102D700050E00E94DD07F801848D24813581280F01
:102D8000311D35832483828193812817390708F404
:102D900050CF80819181958384834BCFC6010E945F
:102DA000201A813009F04DCF0E94E7314ACF82814D
:102DB00093810E946619F801138212823ACF0F9311
:102DC0001F93CF93DF93182F81E290E00E94C632C9
:102DD000EC01009719F11B821A82198218821D8258
:102DE0001C821F821E821A8E81E08B8F1C8E8FEFB9
:102DF0008D8F8E8F18A3CE0108960E94C4338E014A
:102E00000F5E1F4FC8010E94C4330FB6F8940F9293
:102E10009A8D8B8D981740F00F900FBECE01DF91E9
:102E2000CF911F910F9108954C8D442391F4888187
:102E30009981892B71F18A8D8F5F8A8F8989882387
:102E400001F50F900FBECE01DF91CF911F910F9131
:102E500008958C819D8160E070E050E00E94DD0764
:102E60008C8D2C813D81280F311D3D832C838A81DF
:102E70009B8128173907F8F2888199819D838C837B
:102E8000DACFC8010E94201A8130D9F60E94E731BA
:102E9000D8CF8A819B810E9466191B821A82CBCF70
:102EA000CF93DF93EC010FB6F8940F92EC8D2B8D3E
:102EB000E29FC001112448815981840F951F9B8393
:102EC0008A831A8E5D834C8330E021503040F0E0DD
:102ED0002E9FC0012F9F900D3E9F900D1124480FF3
:102EE000591F5F834E838FEF8D8F8E8F662391F4F2
:102EF0008885882331F40F900FBE81E0DF91CF9158
:102F00000895CE0108960E94201A8130A1F70E94F0
:102F1000E731F1CFCE0108960E94C433CE0141962D
:102F20000E94C4330F900FBE81E0DF91CF910895CE
:102F3000CF92DF92FF920F931F93CF93DF93182FBF
:102F4000062FF42E882359F440E050E0CA01DF91A7
:102F5000CF911F910F91FF90DF90CF90089581E264
:102F600090E00E94C632EC01009771F3C02EDD2480
:102F7000812F90E09C01C29EC001C39E900DD29E05
:102F8000900D112401960E94C63299838883009780
:102F9000B9F11B8F0C8F0FB6F8940F922B8D30E088
:102FA000C29EC001C39E900DD29E900D11244881F7
:102FB0005981840F951F9B838A831A8E5D834C836E
:102FC000215030408C8D90E0BC01269FC001279F8E
:102FD000900D369F900D1124480F591F5F834E832B
:102FE0008FEF8D8F8E8FCE0108960E94C433CE0155
:102FF00041960E94C4330F900FBEF8A2AE01A6CF37
:10300000CE010E94533240E050E0A0CF80911003E7
:103010008F5F8093100308950FB6F8940F9220915C
:103020000D0330910E030F900FBEC901089520913A
:103030000D0330910E03C901089580910A0308958C
:10304000FC0180910F03808380910D0390910E030A
:10305000928381830895FC01DB010FB6F8940F92EF
:1030600060910D0370910E032D913C9111978FEF9C
:103070002F3F3807F9F090910F0380818917F1F005
:10308000418152816417750708F5CB01841B950BAC
:1030900082179307D8F4261B370B240F351F2D9367
:1030A0003C9380910F03808380910D0390910E03D8
:1030B0009283818380E00F900FBE089541815281F9
:1030C000CB01841B950B8217930728F381E00F90A7
:1030D0000FBE089581E080930C030895FC010097D2
:1030E00011F082A1089580E00895FC01009709F095
:1030F00062A30895A0E0B0E0E0E8F8E10C941D3D83
:103100003C018B015A01DB018C91882309F48DC0AD
:103110001196ED91FC9112970280F381E02D1296A9
:10312000FC93EE93119723E0C22ED12CC60ED71E2E
:10313000EC15FD0509F483C086809780FF249FE08D
:10314000E92E82E0482E512C82819381F8019283EE
:103150008183C816D90609F455C0D8011196ED919E
:10316000FC911297C681D781FE9CB0011124660D97
:10317000771DFB01D183C0836996D383C28369978E
:1031800089A18483B682A5828E898783F3E0AF16F6
:10319000B10409F43FC08BA1FB0180878CA19DA1E4
:1031A000AEA1BFA181879287A387B487AF89B88D6D
:1031B0008C91853A09F040C020E030E040E050E0DA
:1031C0002F5F3F4F4F4F5F4FFD01E20FF31F808195
:1031D000853AB1F3C901DB011E969C938E931D972E
:1031E000F394C815D90511F1D8011196ED91FC9110
:1031F000129782819381F80192838183C816D90640
:1032000009F0ABCFD60112968D919C9113979283C2
:103210008183A3CF8C899D89892B09F4BCCFDB01E5
:1032200016965C924E921597B6CFFF248F2DCDB790
:10323000DEB7E0E10C94393D80E090E0CCCF8281B4
:10324000938111968C93119712969C939C01F9018E
:1032500073CF0097B1F0FC01A789B08D8C91853AAE
:10326000A9F420E030E040E050E02F5F3F4F4F4FA7
:103270005F4FFD01E20FF31F8081853AB1F3822F8A
:103280000895E0910803F0910903E6CF80E00895E6
:103290002091080330910903C9010895E0910803C2
:1032A000F091090384859585A0910803B0910903E5
:1032B000E0910803F0910903468924E030E0241BE3
:1032C00031091D963C932E931C9708950F931F93DD
:1032D000CF93DF93EC01009731F19E898BA1981772
:1032E00011F18E010E5F1F4FC8010E9429342BA1DE
:1032F0002E8B8C859D8597FD06C084E090E0821B17
:1033000091099D878C879E8980910B03891710F402
:1033100090930B0389E0989FC0011124835E9C4F1A
:10332000B8010E94D833DF91CF911F910F9108957A
:103330000F931F93CF93DF93EC01009741F13E89E8
:10334000E0910803F09109038689381700F58C8510
:103350009D8597FD0BC0E0910803F0910903268934
:1033600084E090E0821B91099D878C8789E0389FDB
:10337000C0011124835E9C4F2A853B85281739079D
:1033800059F0E0910803F091090386898E8BDF9153
:10339000CF911F910F9108958E010E5F1F4FC801AD
:1033A0000E942934E0910803F091090396899E8BCD
:1033B00080910B03891710F490930B0389E0989F79
:1033C000C0011124835E9C4FB8010E94D833DFCF27
:1033D0000F931F93CF93DF93FC0170687183608319
:1033E000C681D7810E9429348E010E5F1F4FC8010C
:1033F0000E9429349E8980910B03891710F49093C1
:103400000B0389E0989FC0011124835E9C4FB80193
:103410000E94D833E0910803F09109039E898689C0
:10342000891740F481E080930C03DF91CF911F91C5
:103430000F91089580E0DF91CF911F910F91089532
:103440000F931F93CF93DF93DC011596ED91FC91C1
:10345000169706811781E8012C96CE010E94293427
:1034600080911003882331F5E8012296CE010E9455
:103470002934F801968980910B03891708F189E0B6
:10348000989FC0011124835E9C4FBE010E94D833D7
:10349000E0910803F0910903D80156969C91868922
:1034A000891788F481E080930C03DF91CF911F91FD
:1034B0000F91089587E593E0BE010E94D833E8CFCD
:1034C00090930B03DCCF80E0DF91CF911F910F91A0
:1034D0000895A0E0B0E0EFE6FAE10C94253D80917C
:1034E0001003882309F089C080910D0390910E0389
:1034F000019690930E0380930D03E0900D03F090DE
:103500000E03E114F10419F5209153033091540393
:1035100080915503909156039093540380935303E5
:10352000309356032093550380910F038F5F809350
:103530000F03E0915303F09154038081882309F035
:1035400086C08FEF9FEF9093460280934502809153
:10355000450290914602E816F90608F460C0DD24A1
:1035600049E0C42EE0915303F091540380818823F5
:10357000E9F1E0915303F09154030580F681E02DC9
:10358000C681D7818A819B81E816F90608F477C045
:103590008E010E5F1F4FC8010E9429348C899D89BE
:1035A000892B21F0CE010C960E9429349E898091AE
:1035B0000B03891710F490930B039C9DC0011124F9
:1035C000835E9C4FB8010E94D833E0910803F091CC
:1035D00009039E898689981728F2DD24D394E09107
:1035E0005303F09154038081882319F68FEF9FEFE6
:1035F000909346028093450213C0809119038F5F18
:1036000080931903DD2480910C03882311F0DD24BD
:10361000D3948D2DCDB7DEB7E8E00C94413DDD2489
:10362000E0910803F0910903868990E0FC01EE0F18
:10363000FF1FEE0FFF1FEE0FFF1FE80FF91FE35EE6
:10364000FC4F80818230F8F2DD24D394DCCFE0910E
:103650005303F09154030580F681E02D0680F78135
:10366000E02D828193819093460280934502809160
:10367000450290914602E816F90688F270CF9093C1
:10368000460280934502CCCFDF92EF92FF920F93D8
:103690001F93CF93DF93EC018A859B8589569340D6
:1036A00041F010E0812FCDB7DEB7E7E00C94423D4A
:1036B00042C08C899D8923E08735920791F3892B3D
:1036C00081F780911003882349F5DE88E091080393
:1036D000F0910903068952E0E52EF12CEC0EFD1E57
:1036E000C7010E9429346E8980910B03861710F45C
:1036F00060930B0310E0D01608F011E089E0689F9A
:10370000C0011124835E9C4FB7010E94D833812FE2
:10371000CDB7DEB7E7E00C94423D0DC02C9687E5AF
:1037200093E0BE010E94D83310E0812FCDB7DEB701
:10373000E7E00C94423D0F931F93CF93DF938A01F0
:10374000E0910803F09109037068758764876091C0
:10375000080370910903645F7F4F0E94D833809102
:1037600008039091090302960E9429348FEF0F3FBE
:10377000180709F440C0C0910D03D0910E03C00F8B
:10378000D11FE0910803F0910903D383C283809194
:103790000D0390910E03C817D907E0F080915303F1
:1037A0009091540360910803709109036E5F7F4FFD
:1037B0000E94F7338091450290914602C817D907BD
:1037C00020F4D0934602C0934502DF91CF911F9120
:1037D0000F910895809155039091560360910803CD
:1037E000709109036E5F7F4F0E94F733DF91CF9195
:1037F0001F910F91089560910803709109036E5F06
:103800007F4F89E693E00E94D833DF91CF911F91DB
:103810000F9108950F931F93CF93DF938B016091C6
:10382000080370910903645F7F4F0E94F733809112
:1038300008039091090302960E9429348FEF0F3FED
:10384000180709F440C0C0910D03D0910E03C00FBA
:10385000D11FE0910803F0910903D383C2838091C3
:103860000D0390910E03C817D907E0F08091530320
:103870009091540360910803709109036E5F7F4F2C
:103880000E94F7338091450290914602C817D907EC
:1038900020F4D0934602C0934502DF91CF911F914F
:1038A0000F910895809155039091560360910803FC
:1038B000709109036E5F7F4F0E94F733DF91CF91C4
:1038C0001F910F91089560910803709109036E5F35
:1038D0007F4F89E693E00E94D833DF91CF911F910B
:1038E0000F910895EF92FF920F931F938091100311
:1038F000882309F093C010920C038091840090916A
:1039000085007C0100E010E0E0921103F0921203C8
:1039100000931303109314038091150390911603E1
:10392000A0911703B09118038E159F05A007B1074A
:10393000B0F4E0910803F0910903A8019701281B56
:10394000390B4A0B5B0B84A195A1A6A1B7A1820FED
:10395000931FA41FB51F84A395A3A6A3B7A3E092AA
:103960001503F09216030093170310931803E091C8
:103970000803F0910903A0910803B0910903208185
:10398000318157968D919C9158978217930790F0AB
:1039900080910803909109036091080370910903D5
:1039A000675E7F4F0E94650C05C080910B038150BC
:1039B00080930B0380910B0390E0FC01EE0FFF1F3F
:1039C000EE0FFF1FEE0FFF1FE80FF91FE35EFC4F26
:1039D0008081882351F390910B0389E0989FD00157
:1039E0001124A35EBC4F1196ED91FC9112970280B9
:1039F000F381E02D1296FC93EE931197CD0103967F
:103A0000E817F90799F086819781909309038093CD
:103A100008031F910F91FF90EF90089581E080932C
:103A20000C031F910F91FF90EF9008958281938175
:103A300011968C93119712969C939C01F901E3CFF8
:103A4000A0E0B0E0E6E2FDE10C94223D0FB6F89470
:103A50000F92809110038150809310038091100386
:103A6000882309F0EDC080910A03882309F4E8C097
:103A7000F9E0FF2EEE24E39480915703882369F147
:103A8000E0915C03F0915D03C681D781CE010C9675
:103A90000E9429348E010E5F1F4FC8010E942934F5
:103AA0009E8980910B03891710F490930B039F9DBF
:103AB000C0011124835E9C4FB8010E94D833E0916D
:103AC0000803F09109039E8986899817A8F2E0926D
:103AD0000C0380915703882399F68091190388235A
:103AE00009F4AAC080911903882309F4A5C0E9E06C
:103AF000CE2EAA24AA94BA2C9924939480911003D0
:103B0000882309F083C080910D0390910E030196E4
:103B100090930E0380930D03E0900D03F0900E033D
:103B2000E114F10409F5209153033091540380917D
:103B3000550390915603909354038093530330930D
:103B400056032093550380910F038F5F80930F03DB
:103B5000E0915303F09154038081882309F097C0CA
:103B6000B0924602A0924502809145029091460291
:103B7000E816F90608F473C0DD24E0915303F091D0
:103B8000540380818823E9F1E0915303F0915403B9
:103B90000580F681E02DC681D7818A819B81E81658
:103BA000F90608F485C08E010E5F1F4FC8010E9400
:103BB00029348C899D89892B21F0CE010C960E9495
:103BC00029349E8980910B03891710F490930B037D
:103BD0009C9DC0011124835E9C4FB8010E94D83384
:103BE000E0910803F09109039E898689981728F2CD
:103BF000DD24D394E0915303F09154038081882312
:103C000019F6B0924602A09245022AC0809119038B
:103C10008F5F80931903DD2480910C038823E1F4E6
:103C2000DD20D1F480911903815080931903809194
:103C30001903882309F062CF80910C03813041F091
:103C400080E00F900FBECDB7DEB7EBE00C943E3DA9
:103C50000E94E73181E0F5CF90920C03E3CFDD24A1
:103C6000E0910803F0910903868990E0FC01EE0FD2
:103C7000FF1FEE0FFF1FEE0FFF1FE80FF91FE35EA0
:103C8000FC4F8081823040F2DD24D394C5CFE09197
:103C90005303F09154030580F681E02D0680F781EF
:103CA000E02D8281938190934602809345025CCF00
:103CB0009093460280934502D3CFA4E0B0E0E3E6C0
:103CC000FEE10C941B3D1C01DC011C9280910A0357
:103CD000898390910A038FE0989FC00111240E946C
:103CE000C6322C01009709F4ADC089819091100370
:103CF0009F5F9093100390910A03891708F4A6C060
:103D000084E0C82E1C82CA94BC81EFE0BE9F5001A3
:103D10001124A40CB51CF9E0CF9E700111244DE1D3
:103D200053E0E40EF51ED7018C91882309F484C179
:103D30001196ED91FC9112970280F381E02D12967D
:103D4000FC93EE93119703E0802E912C8E0C9F1C18
:103D5000E815F90509F42CC566807780DD24828199
:103D60009381F701928381838816990609F45FC0D5
:103D7000D7011196ED91FC91129766817781BFE092
:103D8000DB9E800111240A0D1B1DF80171836083E5
:103D9000675E7F4F7383628369517040DB01919648
:103DA0008C919197848341E050E0568345835696E9
:103DB0008C915697878393968C919397808794964E
:103DC0008D919D910D90BC91A02D81879287A387A5
:103DD000B487FB01A789B08D8C91853A09F0D4C2D4
:103DE00020E030E040E050E02F5F3F4F4F4F5F4F0B
:103DF000FD01E20FF31F8081853AB1F3C901D801BB
:103E00001E969C938E931D97D3946616770609F49D
:103E100014C1D7011196ED91FC9112978281938183
:103E2000F701928381838816990609F0A1CFD40106
:103E300012968D919C9113979283818399CFC201A1
:103E40000E9453322496E2E10C94373D1B820FB658
:103E5000F8940F9280911003815080931003809109
:103E60001003882309F0A4C180910A03882309F470
:103E70009FC199E0D92ECC24C39480915703882305
:103E800099F1E0915C03F0915D0306811781C8010F
:103E90000C960E94293422E0E22EF12CE00EF11E55
:103EA000C7010E942934F801968980910B03891774
:103EB00018F490930B0396899D9DC0011124835E95
:103EC0009C4FB7010E94D833E0910803F091090399
:103ED000D80156969C918689981778F2C0920C0367
:103EE00080915703882369F680911903882309F488
:103EF00059C180911903882309F454C189E0A82E7F
:103F000080911003882309F035C180910D039091B1
:103F10000E03019690930E0380930D03C0900D0342
:103F2000D0900E03C114D10419F5209153033091A0
:103F300054038091550390915603909354038093BA
:103F40005303309356032093550380910F038F5FE3
:103F500080930F03E0915303F091540380818823F1
:103F600009F004C4EFEFFFEFF0934602E09345023F
:103F70008091450290914602C816D90608F4DDC327
:103F8000BB24E0915303F09154038081882309F40A
:103F90004CC0E0915303F09154030580F681E02D6D
:103FA00006811781D80112968D919C911397C8169E
:103FB000D90608F4F5C3B2E0EB2EF12CE00EF11EA9
:103FC000C7010E942934F80184899589892B21F041
:103FD000C8010C960E942934D80156969C91569798
:103FE00080910B03891720F490930B0356969C91B4
:103FF0009A9DC0011124835E9C4FB7010E94D83363
:10400000E0910803F0910903D80156969C918689A6
:10401000981708F4B6CFBB24B394E0915303F09102
:1040200054038081882309F0B4CF4FEF5FEF5093A2
:1040300046024093450282C3DD24BC81BD0DBC8392
:10404000CC2009F060CE8FE0B89F50011124A40C61
:10405000B51CE0905303F0905403F701808188234E
:1040600009F495C10180F281E02D0280F381E02DF9
:10407000D7011296FC93EE93119713E0812E912CA9
:104080008E0C9F1CE815F90509F4A3C366807780A0
:10409000DD24AFE0CA2E82819381F7019283818370
:1040A0008816990609F45EC0D7011196ED91FC912E
:1040B000129766817781DC9C800111240A0D1B1DFB
:1040C000F80171836083675E7F4F738362836951F8
:1040D0007040DB0191968C919197848342E050E08F
:1040E0005683458356968C915697878393968C91E9
:1040F0009397808794968D919D910D90BC91A02D62
:1041000081879287A387B487FB01A789B08D8C91A3
:10411000853A09F042C320E030E040E050E02F5FF4
:104120003F4F4F4F5F4FFD01E20FF31F8081853AF4
:10413000B1F3C901D8011E969C938E931D97D39419
:104140006616770609F424C1D7011196ED91FC910A
:10415000129782819381F701928381838816990651
:1041600009F0A2CFD40112968D919C91139792835E
:1041700081839ACF809119038F5F80931903BB24A9
:1041800080910C03882309F0D4C2BB2009F0D1C26E
:10419000809119038150809319038091190388231A
:1041A00009F0AECE80910C03813011F40E94E7310A
:1041B0000F900FBEEB81E983C401B30124E630E028
:1041C00040E050E00E94F93C59016A01A114B10499
:1041D000C104D10409F433CE1A829A8189819817D7
:1041E00008F02DCEEFE08E2EE2E09E2E7EE1672ECF
:1041F00072E0772E60C08A812A814DB75EB74A503F
:1042000050400FB6F8945EBF0FBE4DBFADB7BEB7FE
:104210001196EDB7FEB73282218213969C928E9250
:10422000129790E0FC01EE0FFF1FE80FF91FCF017E
:10423000880F991F880F991FE80FF91FE40DF51DCE
:104240008281938115969C938E93149730E0F901A7
:10425000EE0FFF1FE20FF31FCF01880F991F880F8A
:10426000991FE80FF91FE40DF51D818592851796BA
:104270009C938E9316971996FC92EE9218970E9433
:1042800024084DB75EB7465F5F4F0FB6F8945EBF28
:104290000FBE4DBFD1010D900020E9F71197A21973
:1042A000B3098A818F5F8A839A818981981708F080
:1042B000C6CD2A0E3B1E8A8190E0FC01EE0FFF1F47
:1042C000E80FF91FCF01880F991F880F991FE80F7A
:1042D000F91FE40DF51D6185728583859485A6011E
:1042E00095010E94F93C79018A01E114F10401056C
:1042F000110509F080CF8A812A81ADB7BEB7189722
:104300000FB6F894BEBF0FBEADBF1196EDB7FEB7A6
:104310003282218213967C926E92129790E0FC0179
:10432000EE0FFF1FE80FF91FCF01880F991F880FAD
:10433000991FE80FF91FE40DF51D828193811596F1
:104340009C938E93149730E0F901EE0FFF1FE20F5C
:10435000F31FCF01880F991F880F991FE80FF91FCE
:10436000E40DF51D8185928517969C938E93169783
:104370000E9424084DB75EB7485F5F4F0FB6F894B0
:104380005EBF0FBE4DBF86CF80E090E038CDDD240C
:10439000CC80CD0C8FE0C89E50011124A40CB51C1C
:1043A000E0905503F0905603F7018081882309F4CB
:1043B00086C00180F281E02D0280F381E02DD701DB
:1043C0001296FC93EE93119773E0872E912C8E0C2E
:1043D0009F1CE815F90509F406C266807780DD2484
:1043E00082819381F701928381838816990609F46B
:1043F0005EC0D7011196ED91FC911297668177818D
:10440000BFE0DB9E800111240A0D1B1DF8017183A2
:104410006083675E7F4F7383628369517040DB0105
:1044200091968C919197848342E050E05683458326
:1044300056968C915697878393968C919397808705
:1044400094968D919D910D90BC91A02D818792871E
:10445000A387B487FB01A789B08D8C91853A09F0B9
:1044600099C120E030E040E050E02F5F3F4F4F4FD8
:104470005F4FFD01E20FF31F8081853AB1F3C9015F
:10448000D8011E969C938E931D97D394661677063B
:10449000B9F0D7011196ED91FC9112978281938129
:1044A000F701928381838816990609F0A2CFD4017F
:1044B00012968D919C911397928381839ACFDD24DC
:1044C000ED2CEC0C8FE0E89E60011124C40CD51C8F
:1044D00080916003882309F47CC0E0916103F0912E
:1044E00062030280F381E02DF0936203E0936103A5
:1044F000B3E0E336FB0709F480C1E0916103F0917A
:104500006203A680B780FF246FE0762E54E0852EEC
:10451000912C0280F381E02DF0936203E09361031C
:1045200043E0E336F40709F4FDC0E0916103F09144
:10453000620366817781F79C800111240C0D1D1D9B
:10454000D80111967C936E93675E7F4F13967C9390
:104550006E93129769517040FB0181A114968C9360
:10456000149716969C928E921597868917968C931F
:10457000179783A118968C9384A195A1A6A1B7A1A2
:10458000F80181879287A387B487FB01A789B08D43
:104590008C91853A09F0FBC020E030E040E050E02B
:1045A0002F5F3F4F4F4F5F4FFD01E20FF31F8081A1
:1045B000853AB1F3C901D8011E969C938E931D973D
:1045C000F394A616B70631F0E0916103F09162030F
:1045D000A0CFFF24EF0C8FE0E89E60011124C40CF3
:1045E000D51C80916903882309F48AC0E0916A038D
:1045F000F0916B030280F381E02DF0936B03E09365
:104600006A03B3E0EC36FB0709F4DCC0E0916A030F
:10461000F0916B03A680B780FF2443E0842E912C99
:1046200032E0632E712C0280F381E02DF0936B0356
:10463000E0936A0343E0EC36F40709F46CC0E091C0
:104640006A03F0916B03668177815FE0F59E8001DC
:1046500011240C0D1D1DD80111967C936E93675E7D
:104660007F4F13967C936E93129769517040FB01B4
:1046700081A114968C93149716969C928E921597FE
:10468000868917968C93179784899589892B21F0B1
:1046900016967C926E921597DB0193968C91939768
:1046A000F801808794968D919D910D90BC91A02DDD
:1046B00081879287A387B487FB01A789B08D8C91EE
:1046C000853A09F072C020E030E040E050E02F5F12
:1046D0003F4F4F4F5F4FFD01E20FF31F8081853A3F
:1046E000B1F3C901D8011E969C938E931D97F39444
:1046F000A616B70631F0E0916A03F0916B0393CFF1
:10470000FF24FE0CFB8280918400909185003C0187
:10471000882499249CCB8281938190936B0380930E
:104720006A038DCF828193819093620380936103AA
:10473000FCCEB1E0B0930C032BCDBB24E091080379
:10474000F0910903868990E0FC01EE0FFF1FEE0F48
:10475000FF1FEE0FFF1FE80FF91FE35EFC4F808184
:10476000823008F40DCDBB24B3940ACDE0915303FD
:10477000F09154030580F681E02D0680F781E02D4D
:10478000828193819093460280934502F1CB80E031
:1047900090E011CF80E090E073CE80E090E0CACC52
:1047A0009093460280934502C9CF80E090E09ACF73
:1047B0008281938111968C93119712969C939C0100
:1047C000F901CACA8281938190936B0380936A0333
:1047D0001DCF8281938111968C93119712969C9391
:1047E0009C01F90153CC8281938111968C9311978E
:1047F00012969C939C01F901F0CD82819381909354
:1048000062038093610379CEA3E0B0E0EAE0F4E2D2
:104810000C941B3D1C01DC011C9280910A038983CE
:1048200090910A038FE0989FC00111240E94C63224
:104830005C01009709F4ADC08981909110039F5FDE
:104840009093100390910A03891708F4A6C064E0BE
:10485000C62E1B82CA94BB81EFE0BE9F400111248B
:104860008A0C9B1CF9E0CF9E700111242DE133E0EE
:10487000E20EF31ED7018C91882309F482C11196B0
:10488000ED91FC9112970280F381E02D1296FC933A
:10489000EE93119753E0652E712C6E0C7F1CE6157C
:1048A000F70509F4FEC446805780DD248281938198
:1048B000F701928381836816790609F45FC0D701F6
:1048C0001196ED91FC91129766817781BFE0DB9E96
:1048D00080011124080D191DF80171836083675E42
:1048E0007F4F7383628369517040DB0191968C9195
:1048F0009197848321E030E03683258356968C910E
:104900005697878393968C919397808794968D91F1
:104910009D910D90BC91A02D81879287A387B4872C
:10492000FB01A789B08D8C91853A09F0AEC220E0D9
:1049300030E040E050E02F5F3F4F4F4F5F4FFD01B1
:10494000E20FF31F8081853AB1F3C901D8011E96A9
:104950009C938E931D97D3944616570609F412C163
:10496000D7011196ED91FC91129782819381F70105
:10497000928381836816790609F0A1CFD30112963C
:104980008D919C9113979283818399CFC5010E9449
:1049900053322396E2E10C94373D77240FB6F89416
:1049A0000F92809110038150809310038091100327
:1049B000882309F0A2C180910A03882309F49DC1CC
:1049C000A9E0DA2ECC24C39480915703882399F16F
:1049D000E0915C03F0915D0306811781C8010C969C
:1049E0000E942934B2E0EB2EF12CE00EF11EC7013B
:1049F0000E942934F801968980910B03891718F4D5
:104A000090930B0396899D9DC0011124835E9C4F5A
:104A1000B7010E94D833E0910803F0910903D8014F
:104A200056969C918689981778F2C0920C038091D3
:104A30005703882369F680911903882309F457C125
:104A400080911903882309F452C1F9E0CF2E442440
:104A50004A94542C6624639480911003882309F0AF
:104A60002EC180910D0390910E03019690930E0339
:104A700080930D0380900D0390900E038114910498
:104A800009F520915303309154038091550390917F
:104A9000560390935403809353033093560320930B
:104AA000550380910F038F5F80930F03E0915303B1
:104AB000F09154038081882309F0D1C350924602BB
:104AC00040924502809145029091460288169906CF
:104AD00008F4ACC3DD24E0915303F09154038081CA
:104AE000882309F449C0E0915303F09154030580F1
:104AF000F681E02D06811781F80182819381881665
:104B0000990608F4C6C3E2E0EE2EF12CE00EF11E89
:104B1000C7010E942934D80154968D919C915597D4
:104B2000892B21F0C8010C960E942934F80196893E
:104B300080910B03891718F490930B0396899C9D21
:104B4000C0011124835E9C4FB7010E94D833E091CD
:104B50000803F0910903D80156969C91868998170D
:104B600008F4B9CFDD24D394E0915303F0915403BA
:104B70008081882309F0B7CF5092460240924502C7
:104B800056C3DD24BB81BD0DBB83CC2009F062CEB2
:104B90008FE0B89F400111248A0C9B1CE0905303C6
:104BA000F0905403F7018081882309F471C10180DA
:104BB000F281E02D0280F381E02DD7011296FC9363
:104BC000EE93119743E0642E712C6E0C7F1CE6155A
:104BD000F70509F477C346805780DD243FE0C32EF4
:104BE00082819381F701928381836816790609F4A3
:104BF0005EC0D7011196ED91FC9112976681778185
:104C0000DC9C80011124080D191DF801718360835B
:104C1000675E7F4F7383628369517040DB019196B9
:104C20008C919197848322E030E0368325835696D9
:104C30008C915697878393968C91939780879496BF
:104C40008D919D910D90BC91A02D81879287A38716
:104C5000B487FB01A789B08D8C91853A09F016C302
:104C600020E030E040E050E02F5F3F4F4F4F5F4F7C
:104C7000FD01E20FF31F8081853AB1F3C901D8012C
:104C80001E969C938E931D97D3944616570609F44F
:104C900000C1D7011196ED91FC9112978281938109
:104CA000F701928381836816790609F0A2CFD301B8
:104CB00012968D919C911397928381839ACF8091C4
:104CC00019038F5F80931903DD2480910C038823DF
:104CD00009F0A9C2DD2009F0A6C280911903815014
:104CE0008093190380911903882309F0B5CE809130
:104CF0000C03813011F40E94E7310F900FBE7982CE
:104D00001A829A818981981708F040CE6DE2E62ECA
:104D100062E0F62E8FC0019709F4B4C000E010E005
:104D20008A812A814A816A81EDB7FEB73E970FB624
:104D3000F894FEBF0FBEEDBFADB7BEB7119632827D
:104D400021821396FC92EE92129790E0FC01EE0FF6
:104D5000FF1FE80FF91FCF01880F991F880F991FB8
:104D6000E80FF91FEA0DFB1D8281938115969C9334
:104D70008E93149717961C930E93169730E0F901B3
:104D8000EE0FFF1FE20FF31FCF01880F991F880F4F
:104D9000991FE80FF91FEA0DFB1D878118968C9368
:104DA000189719961C92199750E0FA01EE0FFF1F01
:104DB000E40FF51FCF01880F991F880F991FE80F87
:104DC000F91FEA0DFB1D858596851B969C938E9396
:104DD0001A9770E0FB01EE0FFF1FE60FF71FCF01E0
:104DE000880F991F880F991FE80FF91FEA0DFB1D07
:104DF00084811C968C931C971D961C920E942408FB
:104E0000D1010D900020E9F71197A219B3098A8109
:104E10008F5F8A839A8189812DB73EB7225F3F4F8A
:104E20000FB6F8943EBF0FBE2DBF981708F0AECD59
:104E30002A0E3B1E8A8190E0FC01EE0FFF1FE80F57
:104E4000F91FCF01880F991F880F991FE80FF91FCD
:104E5000EA0DFB1D858196818230910569F08330D2
:104E6000910508F458CF8330910549F0049709F073
:104E700055CF04E410E054CF02E410E051CF03E535
:104E800010E04ECF02E510E04BCF80E090E05ECD29
:104E9000DD24CB80CD0C8FE0C89E400111248A0C0C
:104EA0009B1CE0905503F0905603F7018081882306
:104EB00009F486C00180F281E02D0280F381E02DAB
:104EC000D7011296FC93EE93119723E0622E712C7A
:104ED0006E0C7F1CE615F70509F4FEC1468057806D
:104EE000DD2482819381F70192838183681679069C
:104EF00009F45EC0D7011196ED91FC91129766817D
:104F00007781BFE0DB9E80011124080D191DF80197
:104F100071836083675E7F4F7383628369517040E2
:104F2000DB0191968C919197848322E030E0368367
:104F3000258356968C915697878393968C91939759
:104F4000808794968D919D910D90BC91A02D818725
:104F50009287A387B487FB01A789B08D8C91853A8E
:104F600009F091C120E030E040E050E02F5F3F4F7A
:104F70004F4F5F4FFD01E20FF31F8081853AB1F380
:104F8000C901D8011E969C938E931D97D394461603
:104F90005706B9F0D7011196ED91FC9112978281D5
:104FA0009381F701928381836816790609F0A2CF75
:104FB000D30112968D919C911397928381839ACFFE
:104FC000DD24ED2CEC0C8FE0E89E60011124CA0C6E
:104FD000DB1C80916003882309F47CC0E0916103AD
:104FE000F09162030280F381E02DF0936203E0937D
:104FF0006103B3E0E336FB0709F478C1E091610394
:10500000F091620386809780FF249FE0592E84E010
:10501000682E712C0280F381E02DF0936203E093FF
:10502000610323E0E336F20709F4F6C0E09161037F
:10503000F091620366817781F59C800111240C0D4B
:105040001D1DD80111967C936E93675E7F4F13965A
:105050007C936E93129769517040FB0181A1149665
:105060008C93149716967C926E9215978689179654
:105070008C93179783A118968C9384A195A1A6A1D0
:10508000B7A1F80181879287A387B487FB01A7891D
:10509000B08D8C91853A09F0F3C020E030E040E01B
:1050A00050E02F5F3F4F4F4F5F4FFD01E20FF31F67
:1050B0008081853AB1F3C901D8011E969C938E93E5
:1050C0001D97F3948616970631F0E0916103F091F5
:1050D0006203A0CFFF24EF0C8FE0E89E6001112453
:1050E000CA0CDB1C80916903882309F48AC0E09113
:1050F0006A03F0916B030280F381E02DF0936B0360
:10510000E0936A03B3E0EC36FB0709F4D4C0E09106
:105110006A03F0916B0386809780FF2403E0602E82
:10512000712C12E0412E512C0280F381E02DF0937E
:105130006B03E0936A0323E0EC36F20709F465C0E1
:10514000E0916A03F0916B03668177813FE0F39E03
:10515000800111240C0D1D1DD80111967C936E93B6
:10516000675E7F4F13967C936E93129769517040E0
:10517000FB0181A114968C93149716967C926E92E3
:105180001597868917968C93179784899589892B0B
:1051900021F016965C924E921597DB0193968C91B6
:1051A0009397F801808794968D919D910D90BC9175
:1051B000A02D81879287A387B487FB01A789B08D33
:1051C0008C91853A09F06AC020E030E040E050E080
:1051D0002F5F3F4F4F4F5F4FFD01E20FF31F808165
:1051E000853AB1F3C901D8011E969C938E931D9701
:1051F000F3948616970631F0E0916A03F0916B0301
:1052000093CFFF247F2C7E0CC9CB82819381909316
:105210006B0380936A0394CF82819381909362039E
:105220008093610303CF60920C0357CDDD24E0919E
:105230000803F0910903868990E0FC01EE0FFF1F3F
:10524000EE0FFF1FEE0FFF1FE80FF91FE35EFC4F8D
:105250008081823008F439CDDD24D39436CDE091BD
:105260005303F09154030580F681E02D0680F78109
:10527000E02D82819381909346028093450222CC57
:1052800080E090E019CF80E090E07BCE80E090E07D
:10529000F6CC9093460280934502C9CF80E090E01F
:1052A000A2CF8281938111968C93119712969C9331
:1052B0009C01F901F8CA8281938190936B038093DA
:1052C0006A0325CF8281938111968C931197129650
:1052D0009C939C01F9017FCC8281938111968C93E0
:1052E000119712969C939C01F901F8CD82819381CC
:1052F000909362038093610381CE0F931F93CF93AA
:10530000DF93EC01009789F08091080390910903E5
:10531000C817D90751F00FB6F8940F928A859B856C
:105320008956934039F00F900FBEDF91CF911F91B6
:105330000F9108958C899D8923E08735920799F311
:10534000892B89F78E010E5F1F4FC8010E942934F7
:105350009E8980910B03891710F490930B0389E0C9
:10536000989FC0011124835E9C4FB8010E94D833DE
:10537000E0910803F09109039E898689981798F2B5
:105380000E94E731D0CFEF92FF920F931F93CF93FC
:10539000DF930FB6F8940F92009709F4DDC0EC018B
:1053A0008E010E5F1F4FC8010E9429348C899D8990
:1053B000892B21F0CE010C960E94293489E693E0D6
:1053C000B8010E94D8330F900FBE809108039091CE
:1053D0000903C817D90761F180911A03882391F056
:1053E0000FB6F8940F92E0915303F091540380812B
:1053F000882369F48FEF9FEF9093460280934502D4
:105400000F900FBECDB7DEB7E6E00C94433DE091C0
:105410005303F09154030580F681E02D0680F78157
:10542000E02D828193819093460280934502E8CFDC
:1054300080911A03882309F098C090910A03809103
:105440006903891709F494C080911003882309F037
:1054500088C010920C0380918400909185007C019B
:1054600000E010E0E0921103F092120300931303A6
:10547000109314038091150390911603A0911703C4
:10548000B09118038E159F05A007B107B0F4E09105
:105490000803F0910903A8019701281B390B4A0B57
:1054A0005B0B84A195A1A6A1B7A1820F931FA41F96
:1054B000B51F84A395A3A6A3B7A3E0921503F0920A
:1054C00016030093170310931803E0910803F0915B
:1054D0000903A0910803B0910903208131815796F7
:1054E0008D919C9158978217930730F046C0809118
:1054F0000B03815080930B0380910B0390E0FC0120
:10550000EE0FFF1FEE0FFF1FEE0FFF1FE80FF91F3B
:10551000E35EFC4F8081882351F390910B0389E077
:10552000989FD0011124A35EBC4F1196ED91FC9180
:1055300012970280F381E02D1296FC93EE9311975F
:10554000CD010396E817F90729F186819781909399
:1055500009038093080356CFC0910803D091090333
:105560001FCF81E080930C034DCF0E94E7314ACFDB
:10557000109209031092080345CF8091080390917F
:1055800009036091080370910903675E7F4F0E94D1
:10559000650CB2CF8281938111968C9311971296EC
:1055A0009C939C01F901D1CFA0E0B0E0EAEDFAE2D2
:1055B0000C94223D9C01009741F40E94E731CDB745
:1055C000DEB7EBE00C943E3D77C1809110038F5F16
:1055D00080931003C0910D03D0910E03C20FD31F0F
:1055E000809108039091090302960E942934E0916A
:1055F0000803F0910903D383C28380910D03909136
:105600000E03C817D90708F45BC08091530390912B
:10561000540360910803709109036E5F7F4F0E94ED
:10562000F7338091450290914602C817D90720F4BC
:10563000D0934602C09345020FB6F8940F92809122
:10564000100381508093100380911003882309F088
:105650004DC080910A03882309F448C099E0F92ECF
:10566000EE24E394809157038823B9F1E0915C0321
:10567000F0915D03C681D781CE010C960E9429343A
:105680008E010E5F1F4FC8010E9429349E898091B0
:105690000B03891710F490930B039F9DC0011124F5
:1056A000835E9C4FB8010E94D833E0910803F091CB
:1056B00009039E8986899817A8F2E0920C03D2CF3D
:1056C00080915503909156036091080370910903EE
:1056D0006E5F7F4F0E94F733AFCF8091190388230D
:1056E00089F480910C03813009F495C080E00F901B
:1056F0000FBE882309F461CFCDB7DEB7EBE00C9481
:105700003E3DDAC080911903882359F389E0C82E01
:10571000AA24AA94BA2C99249394809110038823E4
:1057200009F07DC080910D0390910E030196909336
:105730000E0380930D03E0900D03F0900E03E1142F
:10574000F10409F5209153033091540380915503DE
:1057500090915603909354038093530330935603D0
:105760002093550380910F038F5F80930F03E09187
:105770005303F09154038081882309F087C0B092CD
:105780004602A09245028091450290914602E81699
:10579000F90608F45EC0DD24E0915303F091540350
:1057A0008081882309F46DC0E0915303F091540384
:1057B0000580F681E02DC681D7818A819B81E8161C
:1057C000F90608F474C08E010E5F1F4FC8010E94D5
:1057D00029348C899D89892B21F0CE010C960E9459
:1057E00029349E8980910B03891710F490930B0341
:1057F0009C9DC0011124835E9C4FB8010E94D83348
:10580000E0910803F09109039E898689981720F298
:10581000DD24D394C1CF0E94E73181E068CF80912D
:1058200019038F5F80931903DD2480910C03882373
:1058300069F4DD2059F48091190381508093190394
:1058400080911903882309F068CF4BCF90920C0305
:10585000F2CFDD24E0910803F0910903868990E0FE
:10586000FC01EE0FFF1FEE0FFF1FEE0FFF1FE80FF3
:10587000F91FE35EFC4F80818230B8F2DD24D394BF
:10588000D4CFB0924602A0924502E4CFE0915303F8
:10589000F09154030580F681E02D0680F781E02D1C
:1058A0008281938190934602809345026CCF9093BE
:1058B000460280934502CECFA0E0B0E0E2E6FCE2F3
:1058C0000C94223DFC01EB01809110038F5F8093CB
:1058D000100320910D0330910E0380819181C80F38
:1058E000D91F2817390708F016C1C817D90708F0BB
:1058F00024C12C173D0708F020C1D183C0838091BB
:1059000008039091090302960E942934E09108034C
:10591000F0910903D383C28380910D0390910E030C
:10592000C817D90708F4FCC0809153039091540321
:1059300060910803709109036E5F7F4F0E94F733F7
:105940008091450290914602C817D90720F4D09360
:105950004602C09345020FB6F8940F92809110034F
:1059600081508093100380911003882309F003C1B4
:1059700080910A03882309F4FEC049E0F42EEE2446
:10598000E39480915703882369F1E0915C03F091DF
:105990005D03C681D781CE010C960E9429348E0109
:1059A0000E5F1F4FC8010E9429349E8980910B030E
:1059B000891710F490930B039F9DC0011124835EFF
:1059C0009C4FB8010E94D833E0910803F09109037D
:1059D0009E8986899817A8F2E0920C03809157035C
:1059E000882399F680911903882309F4BFC0809118
:1059F0001903882309F4BAC039E0C32EAA24AA9453
:105A0000BA2C9924939480911003882309F098C0AC
:105A100080910D0390910E03019690930E03809355
:105A20000D03E0900D03F0900E03E114F10409F56D
:105A30002091530330915403809155039091560364
:105A4000909354038093530330935603209355034C
:105A500080910F038F5F80930F03E0915303F091C8
:105A600054038081882309F0ADC0B0924602A09211
:105A700045028091450290914602E816F90608F425
:105A800089C0DD24E0915303F09154038081882381
:105A9000E9F1E0915303F09154030580F681E02D84
:105AA000C681D7818A819B81E816F90608F49BC0DC
:105AB0008E010E5F1F4FC8010E9429348C899D8979
:105AC000892B21F0CE010C960E9429349E89809169
:105AD0000B03891710F490930B039C9DC0011124B4
