:100000000C942F030C9451030C9451030C94510342
:100010000C9451030C9451030C9451030C94510310
:100020000C9451030C9451030C9451030C94510300
:100030000C9451030C9451030C9451030C945103F0
:100040000C9451030C9451030C9451030C945103E0
:100050000C9451030C9451030C9451030C945103D0
:100060000C9451030C940C370C940B380C945103E2
:100070000C9451030C9451030C9451030C945103B0
:100080000C9496300C9451030C9451030C9451032E
:100090000C94E3360C94E2370C9451030C94840FC7
:1000A0000C9451030C94170D0C9451030C945103B0
:1000B0000C9451030C94CD0C0C94A20D0C94510390
:1000C0000C9451030C9451030C94F20C0C94BA361A
:1000D0000C94B9370C9451030C9491360C949037CE
:1000E0000C945103E20F9B0F9B0F9B0F9B0F9B0FD9
:1000F0009B0F9B0FE20F9B0F9B0F9B0F9B0F9B0F69
:100100009B0F9B0FE40F9B0F9B0F9B0F9B0F9B0F56
:100110009B0F9B0F1C109B0F9B0F9B0F9B0F9B0F0D
:100120009B0F9B0FE40F9B0F9B0F9B0F9B0F9B0F36
:100130009B0F9B0F1C109B0F9B0F9B0F9B0F9B0FED
:100140009B0F9B0F24109B0F9B0F9B0F9B0F9B0FD5
:100150009B0F9B0F54109B0F9B0F9B0F9B0F9B0F95
:100160009B0F9B0F9B0F9B0F9B0F9B0F9B0F9B0F3F
:100170009B0F9B0FCA0F9B0F9B0F9B0F9B0F9B0F00
:100180009B0F9B0F0B109B0F9B0F9B0F9B0F9B0FAE
:100190009B0F9B0F51109B0F9B0F9B0F9B0F9B0F58
:1001A0009B0F9B0F51109B0F9B0F9B0F9B0F9B0F48
:1001B0009B0F9B0F3C109B0F9B0F9B0F9B0F9B0F4D
:1001C0009B0F9B0F3C109B0F9B0F9B0F9B0F9B0F3D
:1001D0009B0F9B0FB50F9B0F9B0F9B0F9B0F9B0FB5
:1001E0009B0F9B0FDE0F9B0F9B0F9B0F9B0F9B0F7C
:1001F0009B0F9B0FB50F9B0F9B0F9B0F9B0F9B0F95
:100200009B0F9B0FDE0F9B0F9B0F9B0F9B0F9B0F5B
:100210009B0F9B0F28109B0F9B0F9B0F9B0F9B0F00
:100220009B0F9B0FF90F9B0F9B0F9B0F9B0F9B0F20
:100230009B0F9B0FF90F9B0F9B0F9B0F9B0F9B0F10
:100240009B0F9B0FFB0F9B0F9B0F9B0F9B0F9B0FFE
:100250009B0F9B0F2E109B0F9B0F9B0F9B0F9B0FBA
:100260009B0F9B0FC60F44697374616E63653A20E0
:100270002564006E616E00696E660000407A10F3BE
:100280005A00A0724E18090010A5D4E80000E876C4
:1002900048170000E40B54020000CA9A3B0000001B
:1002A000E1F505000080969800000040420F000034
:1002B00000A08601000000102700000000E80300F5
:1002C0000000006400000000000A000000000001BF
:1002D00000000000002C76D888DC674F0823DFC1BF
:1002E000DFAE59E1B1B796E5E3E453C63AE651997A
:1002F0007696E8E6C28426EB898C9B62ED407C6FA3
:10030000FCEFBC9C9F40F2BAA56FA5F490055A2A59
:10031000F75C936B6CF9676DC11BFCE0E40D47FE65
:10032000F520E6B500D0ED902E030094357705005A
:1003300080841E080000204E0A000000C80C3333E1
:1003400033330F986E12831141EF8D2114893BE6F0
:100350005516CFFEE6DB18D1844B381BF77C1D9079
:100360001DA4BBE424203284725E228100C9F124E2
:10037000ECA1E53D2700A0E0B0E0E1ECF1E00C9459
:10038000D23BE9E0CE2EAA24A39488248A94982C08
:100390007724739405C00F900FBEBB2009F05FC097
:1003A00080910B03882309F480C0809100038F5F44
:1003B00080930003B09050030FB6F8940F92809191
:1003C000000381508093000380910003882319F774
:1003D0008091FA028823F9F280914703882371F112
:1003E000E0914C03F0914D03C681D781CE010C966C
:1003F0000E94DB328E010E5F1F4FC8010E94DB326C
:100400009E898091FB02891718F49093FB029E89C4
:100410009C9DC0011124835F9C4FB8010E948A32C9
:10042000E091F802F091F9029E8986899817A0F26E
:10043000A092FC0280914703882391F680910903E2
:10044000882309F04DC08091FC02813009F0A3CFD0
:100450000E9499300F900FBEBB2009F4A1CF0FB6B8
:10046000F8940F92E0915503F0915603068117819D
:10047000C80102960E94DB328091FA02815080937B
:10048000FA0280910B03815080930B030F900FBEF3
:10049000F8018789908D0E940531C8010E940531BD
:1004A00080910B03882309F080CF80910D03823067
:1004B00008F476CF0E94993073CF809109038F5F43
:1004C00080930903DD248091FC02882309F095C004
:1004D000DD2009F092C080910903815080930903C7
:1004E00080910903882309F4AECF8091000388230B
:1004F00021F78091FD029091FE0201969093FE02F9
:100500008093FD02E090FD02F090FE02E114F10400
:1005100009F5209143033091440380914503909164
:100520004603909344038093430330934603209300
:1005300045038091FF028F5F8093FF02E0914303A8
:10054000F09144038081882309F073C090923702B0
:10055000809236028091360290913702E816F906B1
:1005600008F44EC0DD24E0914303F0914403808100
:100570008823F1F1E0914303F09144030580F68173
:10058000E02DC681D7818A819B81E816F90608F49F
:1005900061C08E010E5F1F4FC8010E94DB328C8943
:1005A0009D89892B21F0CE010C960E94DB329E8919
:1005B0008091FB02891718F49093FB029E899C9D01
:1005C000C0011124835F9C4FB8010E948A32E091E0
:1005D000F802F091F9029E898689981720F2DD24AD
:1005E000D394E0914303F09144038081882311F672
:1005F000909237028092360204C07092FC026BCF58
:10060000DD24E091F802F091F902868990E0FC0186
:10061000EE0FFF1FEE0FFF1FEE0FFF1FE80FF91F7A
:10062000E35FFC4F8081823008F44DCFDD24D3940A
:100630004ACFE0914303F09144030580F681E02D19
:100640000680F781E02D8281938190933702809319
:10065000360280CF9093370280933602D2CF112496
:100660001FBECFEFD1E2DEBFCDBF00E00CBF12E076
:10067000A0E0B2E0E0E4F8E700E00BBF02C00790C2
:100680000D92A23CB107D9F71BBE16E1A2ECB2E075
:1006900001C01D92A532B107E1F70E941E0B0C9418
:1006A0001E3C0C9400008F938FB78F93F894809129
:1006B000AD158F5F8093AD158091AE158F4F8093F0
:1006C000AE158091AF158F4F8093AF158091B01507
:1006D0008F4F8093B0158F918FBF8F910895A1E1B7
:1006E000B0E0E5E7F3E00C94CD3B3C017F876E87FB
:1006F0006A01FC0117821682838181FD03C06FEFBE
:100700007FEF71C39E012F5F3F4F398B288BF30121
:100710002381EE85FF8523FD859123FF8191FF874E
:10072000EE87882309F45CC3853251F4EE85FF859A
:1007300023FD859123FF8191FF87EE87853229F480
:1007400090E0B3010E94FF07E2CF982F10E08824C9
:1007500099241032B0F49B3269F09C3228F4903224
:1007600051F0933271F40BC09D3239F0903349F45B
:10077000116028C01260146025C0186023C0106189
:1007800021C017FD2AC0892F80538A3078F416FFC4
:1007900006C0FAE09F9E902C1124980E13C03AE0F8
:1007A000839E802C1124880E10620CC09E3221F48E
:1007B00016FD16C3106406C09C3611F4106802C002
:1007C000983659F4EE85FF8523FD959123FF91918D
:1007D000FF87EE87992309F0BCCF892F855483309A
:1007E00020F4812F8061905E07C0892F8556833069
:1007F00008F0A1C1812F8F7E86FD02C076E0972E82
:100800006FE3F62EF822953619F4F0E4FF2A07C0BC
:10081000963619F420E8F22A02C091109A94F7FE55
:100820000BC03BE3391520F427E05CE3B52E0EC086
:10083000B92CB39427E00AC047E0491528F427E013
:10084000BB2447E0942E02C0292DBB24C601049688
:100850009D878C87F6016081718182819381AE01D1
:100860004F5F5F4F0B2D0E94F8066C010981202E0F
:10087000332400FF04C003FD02C01DE209C0F1FEE5
:1008800002C01BE205C0F2FC02C010E001C010E291
:10089000C1018C709070892BB9F1112311F483E0A0
:1008A00001C084E0881510F088240AC0881AF3FC7F
:1008B00007C080E290E0B3010E94FF078A94C9F765
:1008C000112329F0812F90E0B3010E94FF0723FE3E
:1008D00003C003E712E00EC007E712E00BC0E1140B
:1008E000F10409F0805290E0B3010E94FF070F5F0E
:1008F0001F4F05C0EF2CFF24F0E1EF22FF24F80189
:100900008491882361F714C1F7FE12C0BC0C24FE49
:1009100004C08A81813309F4BA941B141CF0BB24EF
:10092000B3942DC0F8E0FB1550F538E0B32E27C086
:10093000F6FC25C0892D90E08C159D054CF02CEF20
:10094000C2162FEFD20624F030E8F32A01C09A94A1
:10095000992049F0E2E0F0E0EC0FFD1FE90DF11DF8
:1009600080818033A1F3F7FE0AC0B92CB394892D9E
:1009700090E0C816D90614F0992401C09C18F7FC21
:1009800003C025E030E009C01C141D041CF021E068
:1009900030E003C096012F5F3F4F112311F02F5F0E
:1009A0003F4F992029F0892D90E00196280F391F9B
:1009B000882D90E02817390714F0882401C0821A86
:1009C0004F2C5524C20189709070892B39F008C0D2
:1009D00080E290E0B3010E94FF078A948820C1F76B
:1009E000112329F0812F90E0B3010E94FF0743FEFD
:1009F00007C008C080E390E0B3010E94FF078A941B
:100A00008820C1F7F7FE46C08601D7FE02C000E08D
:100A100010E076010894E11CF11CE01AF10A41E0B3
:100A200050E04C0F5D1FE40EF51E26014B185108D7
:100A3000892D90E0AA24BB24A81AB90A5FEF0F3FC2
:100A4000150729F48EE290E0B3010E94FF07C0165B
:100A5000D10634F0401651061CF4F701808101C024
:100A600080E3015010400894E11CF11C0A151B059D
:100A70002CF090E0B3010E94FF07E0CF0C151D059C
:100A800039F49A81963318F4953311F424FE81E3F6
:100A900090E04BC08A81813309F00F7E90E0B30172
:100AA0000E94FF079920A1F08EE290E0B3010E941E
:100AB000FF0712E0E1E0F0E0EC0FFD1FE10FF11D98
:100AC0001F5F808190E0B3010E94FF079A9491F725
:100AD00044FC03C085E690E002C085E490E0B301E9
:100AE0000E94FF07D7FC05C0C114D10441F404FFE4
:100AF00006C0D094C194D108D3948DE201C08BE29A
:100B000090E0B3010E94FF0780E305C08F5F26EFEE
:100B10003FEFC20ED31E3AE0C316D104BCF790E0FB
:100B2000B3010E94FF07C601C096B3010E94FF07F0
:100B3000CC84DD8452C1933631F0933799F09335EC
:100B400009F059C023C0F601808189835E010894B1
:100B5000A11CB11C22E030E0C20ED31E21E0E22E27
:100B6000F12C12C0F601A080B18016FD03C06FEF1A
:100B70007FEF02C0692D70E022E030E0C20ED31E8C
:100B8000C5010E94F4077C011F7713C0F601A08005
:100B9000B18016FD03C06FEF7FEF02C0692D70E0DA
:100BA00022E030E0C20ED31EC5010E94D9077C01AD
:100BB000106813FF07C01BC080E290E0B3010E94E1
:100BC000FF078A94882D90E0E816F906A8F30FC075
:100BD000F50117FD859117FF81915F0190E0B30149
:100BE0000E94FF0781108A940894E108F108E1143B
:100BF000F10471F7F2C0943611F0993689F517FFB8
:100C000008C0F601208131814281538184E090E067
:100C10000AC0F601808191819C01442737FD4095EF
:100C2000542F82E090E0C80ED91E9FE6F92EF122E3
:100C300057FF09C050954095309521953F4F4F4F34
:100C40005F4F90E8F92ACA01B901AE014F5F5F4FCB
:100C50002AE030E00E94A308E82EE889EE1A41C09D
:100C6000953721F41F7E2AE030E01CC0197F9F36A3
:100C700061F0903720F4983509F0B2C00FC090377A
:100C800039F0983709F0ACC004C028E030E00AC061
:100C9000106114FD146020E130E004C014FD166002
:100CA00020E132E017FF08C0F60160817181828186
:100CB000938144E050E008C0F60180819181BC013D
:100CC00080E090E042E050E0C40ED51EAE014F5FE0
:100CD0005F4F0E94A308E82E5889E51A8FE7F82E87
:100CE000F122F6FE0BC08EEFF822E91438F4F4FE80
:100CF00007C0F2FC05C09FEEF92202C01E2D01C004
:100D0000192DF4FE0DC0FE01EE0DF11D8081803322
:100D100019F4E9EEFE2208C01F5FF2FE05C003C011
:100D20008F2D867809F01F5F0F2DF3FC14C0F0FEA5
:100D30000FC0181510F09E2C0BC09E2C980C911A09
:100D4000182D06C080E290E0B3010E94FF071F5FEC
:100D50001815C0F304C0181510F4811A01C08824B6
:100D600004FF0FC080E390E0B3010E94FF0702FF81
:100D70001DC001FD03C088E790E00EC088E590E04B
:100D80000BC0802F867891F001FF02C08BE201C07A
:100D900080E2F7FC8DE290E0B3010E94FF0706C0FD
:100DA00080E390E0B3010E94FF079A94E914C0F336
:100DB000EA94E1E0F0E0EC0FFD1FEE0DF11D808103
:100DC00090E0B3010E94FF07EE2091F706C080E299
:100DD00090E0B3010E94FF078A948820C1F797CC66
:100DE000F30166817781CB016196E2E10C94E93BE6
:100DF000283008F027E03327DA01990F311D87FDED
:100E0000916000966105710539F432602E5F3D9363
:100E100030E32A95E1F708959F3F30F0803871055F
:100E2000610509F03C5F3C5F3D93913008F08068BC
:100E3000911DDF93CF931F930F93FF92EF92192F82
:100E4000987F9695E92F96959695E90FFF27EB5297
:100E5000FD4F99273327EE24FF24A701E7010590D2
:100E60000894079428F4360FE71EF81E491F511DF9
:100E7000660F771F881F991F0694A1F705900794A6
:100E800028F4E70EF81E491F561FC11D770F881F53
:100E9000991F661F0694A1F70590079428F4F80E91
:100EA000491F561FC71FD11D880F991F661F771F27
:100EB0000694A1F70590079420F4490F561FC71F09
:100EC000D81F990F661F771F881F0694A9F7849172
:100ED0001095177041F0D695C79557954795F7949B
:100EE000E7941A95C1F7EBE7F2E068941590159135
:100EF00035916591959105907FE27395E118F10A1E
:100F0000430B560BC90BD009C0F7E10CF11E431F70
:100F1000561FC91FD01D7EF4703311F48A95E6CF99
:100F2000E894015030F0080F0AF40027021708F483
:100F3000202F2395022F7A3328F079E37D932A9589
:100F4000E9F710C07D932A9589F6069497956795E1
:100F5000379517951794E118F10A430B560BC90BF7
:100F6000D00998F023957E9173957A3308F070E359
:100F70007C932013B8F77E9170617D9330F0839558
:100F800071E37D9370E32A95E1F71124EF90FF90D0
:100F90000F911F91CF91DF91992787FD909508952B
:100FA000FC0105900020E9F7809590958E0F9F1F1A
:100FB0000895FC010590615070400110D8F78095AC
:100FC00090958E0F9F1F0895FB01DC0102C00190D8
:100FD0000D9241505040D8F70895DC0101C06D9347
:100FE00041505040E0F70895FC016150704001907D
:100FF0000110D8F7809590958E0F9F1F08950F933D
:101000001F93CF93DF938C01EB018B8181FF1BC07A
:1010100082FF0DC02E813F818C819D812817390769
:1010200064F4E881F9810193F983E88306C0E885D7
:10103000F985802F1995892B31F48E819F81019636
:101040009F838E8302C00FEF1FEFC801DF91CF9106
:101050001F910F910895AEE0B0E0E1E3F8E00C9449
:10106000DB3B0E891F8986E08C831A8309838FEF0F
:101070009FE79E838D839E01265E3F4FCE010196A2
:10108000688D798DA9010E946F032F813885020F29
:10109000131FF80110822E96E4E00C94F73BAEE0AB
:1010A000B0E0E5E5F8E00C94DB3B8C0177FF02C093
:1010B00060E070E8615070407E836D831A8309831D
:1010C00086E08C83CE010196BA01A9010E946F03CC
:1010D0002D813E8137FD09C0EF81F8852E173F072E
:1010E0000CF4F901E00FF11F10822E96E4E00C944D
:1010F000F73BAEE0B0E0EFE7F8E00C94DB3B8C01AF
:1011000077FF02C060E070E8615070407E836D83BD
:101110001A8309838EE08C83CE010196BA01A9015E
:101120000E946F032D813E8137FD09C0EF81F88554
:101130002E173F070CF4F901E00FF11F10822E96D5
:10114000E4E00C94F73BFA01AA27283051F1203152
:1011500081F1E8946F936E7F6E5F7F4F8F4F9F4F4B
:10116000AF4FB1E03ED0B4E03CD0670F781F891F8D
:101170009A1FA11D680F791F8A1F911DA11D6A0F5B
:10118000711D811D911DA11D20D009F468943F910E
:101190002AE0269F11243019305D3193DEF6CF010D
:1011A0000895462F4770405D4193B3E00FD0C9F7D3
:1011B000F6CF462F4F70405D4A3318F0495D31FD40
:1011C0004052419302D0A9F7EACFB4E0A695979593
:1011D000879577956795BA95C9F700976105710569
:1011E00008959B01AC010A2E0694579547953795B3
:1011F0002795BA95C9F7620F731F841F951FA01D0D
:1012000008950F931F9380E090E040E052EC61E07E
:1012100070E02FEF30E000E410E00E94B43A00D01C
:101220000F92EDB7FEB7319686E692E0ADB7BEB746
:1012300012969C938E93119780916F1582831382DF
:101240000E94533A0F900F900F900F901F910F91A3
:101250000895813099F08230F9F0833059F16D9A18
:101260006B9A809101018860809301018091020155
:10127000877F80930201759873980895809101018A
:10128000877F809301016D9A739A80910201886033
:10129000809302017598089580910101877F809362
:1012A00001016B9A759A8091020188608093020116
:1012B000739808956D986B98809101018860809370
:1012C0000101739A759A80910201877F80930201D0
:1012D0000895CF93DF93609174157091751581E037
:1012E00090E00E94A00C019709F44AC0C0917415C7
:1012F000D091751580E090E0BE010E94A00C01978E
:10130000E1F560917615709177156F5F7F4F70935F
:10131000771560937615882777FD8095982F0E9422
:10132000A83321E73DE34AE05FE30E943434609351
:101330006F15709370158093711590937215E091ED
:101340007415F0917515608170E0882777FD8095A0
:10135000982F0E94A83320E030E04AEF54E40E9426
:1013600012339B01AC0161E77DE38AE09FE30E94B9
:1013700012330E947A336093AA15DF91CF910895BA
:1013800060917615709177156F5F7F4F7093771529
:1013900060937615882777FD8095982F0E94A83353
:1013A00021E73DE34AE05FE30E94343460936F1528
:1013B000709370158093711590937215C091741588
:1013C000D0917515688170E0882777FD8095982FFA
:1013D0000E94A83320E030E04AEF54E40E94123328
:1013E0009B01AC0161E77DE38AE09FE30E94123339
:1013F0000E947A336093AA157DCF80E00E9429096C
:1014000081E090E00E94210C80E090E00E94210C9D
:101410001092AA15089581E00E94290981E090E0C8
:101420000E94BF0B81E090E068EB7BE00E94700CB3
:1014300080E090E00E94BF0B80E090E068EB7BE0F2
:101440000E94700C089581E00E94290981E090E0DB
:101450000E94BF0B81E090E060ED77E00E94700C8D
:1014600080E090E00E94BF0B80E090E060ED77E0CC
:101470000E94700C089583E00E94290981E090E0A9
:101480000E94BF0B81E090E060ED77E00E94700C5D
:1014900080E090E00E94BF0B80E090E068EB7BE092
:1014A0000E94700C089582E00E94290981E090E07A
:1014B0000E94BF0B81E090E068EB7BE00E94700C23
:1014C00080E090E00E94BF0B80E090E060ED77E06C
:1014D0000E94700C0895A4E1B0E0E1E7FAE00C94FA
:1014E000D73B83E0C82ED12CCC0EDD1ED601E4E61E
:1014F000F2E082E101900D928150E1F781ED898364
:1015000081E08A8300E010E07E010894E11CF11C78
:10151000C601800F911F62E070E00E94090FC701B1
:1015200062E070E00E94090FC80188569A4E62E09E
:1015300070E00E94540F20919B158091991590E0C6
:10154000820F911D20919D15820F911D20919F1555
:10155000820F911D2091A115820F911D2091A3153D
:10156000820F911D2091A515820F911D2091A71525
:10157000820F911D2091A915820F911D69E070E0E5
:101580000E94983B70937415609373150E5F1F4F04
:101590000231110509F0BCCF6496E8E00C94F33BEE
:1015A000A2E0B0E0E6EDFAE00C94D73B0E94300EEA
:1015B0000E94BE169A83898382E090E00E94BF0B4E
:1015C00001EE1AE022E0E22EF12C6E010894C11C1B
:1015D000D11C11C09EEFE92E9FEFF92E8701060F57
:1015E000171F82E090E0B8010E94700CC60161E014
:1015F00070E00E940E2B82E090E00E94BF0B82E020
:1016000090E0B8010E94700C8AE0013E180779F062
:10161000B701600F711F82E1613C7807D8F684E062
:101620006C347807D8F682E0E82EF12CD7CFC601CB
:101630006CE070E00E940E2BEBCFFFCFAF92BF9219
:10164000CF92DF92EF92FF920F931F9380E090E092
:1016500040E855E260E070E02FEF30E000E410E099
:101660000E94B43A9093AC158093AB158FE99BE040
:1016700060E070E040E051E020E030E003E0EE2484
:10168000FF24CC24DD24AA24BB240E94192D80ED44
:101690009AE060E070E040E051E020E030E00E943D
:1016A000192D8CE69BE060E070E040E051E020E026
:1016B00030E00E94192D80EC90E00E945D100E94A5
:1016C0001E2E80E090E01F910F91FF90EF90DF9031
:1016D000CF90BF90AF900895A2E0B0E0E2E7FBE0CA
:1016E0000C94DB3B0E94BE169A8389838E010F5FA8
:1016F0001F4F0E94530AC80164EF71E00E940E2B35
:101700000E94230AC80164EF71E00E940E2B0E9420
:101710003B0AC80164EF71E00E940E2B0E940B0A85
:10172000C80164EF71E00E940E2B0E94FD09109227
:10173000AA15C8016CED75E00E940E2BDACFA2E06D
:10174000B0E0E5EAFBE00C94DB3B0E94BE169A8316
:1017500089838E010F5F1F4F80E00E946B0AC801D2
:1017600062E370E00E940E2B0E94690980E00E94F3
:101770000109C80164EF71E00E940E2BEDCF9C01BE
:10178000DC01AA0FBB1FAC01440F551F440F551FAE
:10179000440F551FFD01E40FF51FEC55FD4F01905F
:1017A000F081E02D808191818C54944085579E403A
:1017B00020F080E59AE091838083F901EE0FFF1F0E
:1017C000EE0FFF1FE20FF31FEE0FFF1FEA55FD4F55
:1017D0000190F081E02DA40FB51FAC55BD4F1496BC
:1017E0004D915C911597208181E090E016960C90C8
:1017F000169702C0880F991F0A94E2F7282B2083BE
:10180000FA0120818095822380831896ED91FC91C6
:1018100019970084F185E02D20811796AC91A130B5
:1018200069F0A13030F480E89FEB822B892380831C
:101830000895A230E9F788E09BEFF7CF80E29FEEB2
:10184000F4CFCF93DF93FC01EE0FFF1FEE0FFF1FCE
:10185000E80FF91FEE0FFF1FEA55FD4F4081518140
:10186000DC01AA0FBB1FAA0FBB1FAA0FBB1F880F4B
:10187000991FA80FB91FAC55BD4F1496ED91FC915F
:101880001597EA01288181E090E016960C90169752
:1018900002C0880F991F0A94E2F7282B2883208121
:1018A0008095822380831896ED91FC91199700848E
:1018B000F185E02D908117968C91813069F081300F
:1018C00030F48FE389238083DF91CF9108958230B4
:1018D00029F0DF91CF9108958FECF4CF83EFF2CF11
:1018E0009C01CB018C54944085579E4098F4C901CB
:1018F000F901EE0FFF1FEE0FFF1FEE0FFF1F880F06
:10190000991FE80FF91FEC55FD4F0190F081E02D74
:101910007183608308959C01FC01EE0FFF1FEE0FA1
:10192000FF1FEE0FFF1F220F331FE20FF31FEC55B7
:10193000FD4F0190F081E02D20813181C901089592
:10194000CF93DF93DC01EB01F894FC01EE0FFF1F56
:10195000EA52FD4F80819181019739F020E030E01B
:101960007894C901DF91CF910895AA0FBB1FAA0FE8
:10197000BB1FA253BD4F8D919D910D90BC91A02D89
:1019800088839983AA83BB831182108221E030E08F
:101990007894C901DF91CF9108951F920F920FB6ED
:1019A0000F9211248F939F93AF93BF938091C202A4
:1019B0009091C302A091C402B091C5020196A11DED
:1019C000B11D8093C2029093C302A093C402B0934E
:1019D000C502BF91AF919F918F910F900FBE0F9055
:1019E0001F9018951F920F920FB60F9211248F938C
:1019F0009F93AF93BF938091C6029091C702A0912D
:101A0000C802B091C9020196A11DB11D8093C60202
:101A10009093C702A093C802B093C902BF91AF913F
:101A20009F918F910F900FBE0F901F9018951F924E
:101A30000F920FB60F920BB60F921124EF92FF92F6
:101A40000F931F932F933F934F935F936F937F93C6
:101A50008F939F93AF93BF93CF93DF93EF93FF93B6
:101A6000E0918402F0918502808180628083E09120
:101A70008A02F0918B02C081D1812091C202309103
:101A8000C3024091C4025091C5021092C20210924A
:101A9000C3021092C4021092C502211531054105FE
:101AA000510509F444C08091CA029091CB027E0195
:101AB00000E010E0A0E0B0E0E81AF90A0A0B1B0B06
:101AC000CA01B9012FE33CE940E050E00E94793BB4
:101AD000E60EF71E081F191FE092CE02F092CF0209
:101AE0000093D0021093D10281E090E09093D7024E
:101AF0008093D602D093CB02C093CA02FF91EF919C
:101B0000DF91CF91BF91AF919F918F917F916F9115
:101B10005F914F913F912F911F910F91FF90EF9007
:101B20000F900BBE0F900FBE0F901F9018958091D5
:101B3000CA029091CB029E01281B390B790100E06B
:101B400010E0CACF1F920F920FB60F920BB60F92F2
:101B50001124EF92FF920F931F932F933F934F9374
:101B60005F936F937F938F939F93AF93BF93CF9325
:101B7000DF93EF93FF93A0918202B0918302ED91E6
:101B8000FC9111978081806280831696ED91FC9183
:101B90001797C081D1812091C6023091C702409130
:101BA000C8025091C9021092C6021092C702109248
:101BB000C8021092C902211531054105510509F4E9
:101BC00044C08091CC029091CD027E0100E010E0F3
:101BD000A0E0B0E0E81AF90A0A0B1B0BCA01B90130
:101BE0002FE33CE940E050E00E94793BE60EF71E0F
:101BF000081F191FE092D202F092D3020093D40280
:101C00001093D50281E090E09093D9028093D8029E
:101C1000D093CD02C093CC02FF91EF91DF91CF9191
:101C2000BF91AF919F918F917F916F915F914F91F4
:101C30003F912F911F910F91FF90EF900F900BBE4E
:101C40000F900FBE0F901F9018958091CC0290912D
:101C5000CD029E01281B390B790100E010E0CACFAC
:101C60008091A0008F738093A0008091A0008F7C52
:101C70008093A0008091A000837F8093A00080913A
:101C8000A0009091A100836098618093A000909340
:101C9000A1008091A10082608A7F8093A1002EE341
:101CA0003CE93093A9002093A800809120018F7314
:101CB00080932001809120018F7C8093200180916E
:101CC0002001837F80932001809120019091210148
:101CD000836098618093200190932101809121017C
:101CE00082608A7F8093210130932901209328010B
:101CF0001092CB021092CA021092C2021092C3023A
:101D00001092C4021092C50280910A018E7F8093C6
:101D10000A0180910B018E7F80930B01E091860276
:101D2000F0918702808180628083808181608083DE
:101D3000E0918E02F0918F02808180648083109206
:101D4000CD021092CC021092C6021092C7021092DD
:101D5000C8021092C90280910A018D7F80930A0106
:101D600080910B018D7F80930B01A0918202B09135
:101D700083021296ED91FC9113978081806280839B
:101D80001296ED91FC9113978081816080831A9661
:101D9000ED91FC911B9780818064808308958091F0
:101DA000BC0080FDFCCF1092DC0288EF80933502EE
:101DB00085EC8093BC0008958091BC0080FDFCCF31
:101DC0001092DC0288EF8093350285EE8093BC0090
:101DD0000895AC018091BC0080FDFCCF6093F702B8
:101DE000662371F020E030E0F901E152FD4FDA01A5
:101DF000A20FB31F8C9180832F5F3F4F2617A0F354
:101E00001092DC0288EF8093350285EC8093BC0051
:101E10000895FC018091BC0080FDFCCF6093F70227
:101E200080818093DF02808180FD11C0623078F074
:101E3000DF01E0EEF2E0625070E06F517D4F1196ED
:101E40008C91119781931196E617F707C1F71092BD
:101E5000DC0288EF8093350285EA8093BC00089508
:101E6000AC018091BC0080FDFCCF2091DC0220FF02
:101E700019C0662381F020E030E0FA01E20FF31F81
:101E8000D901A152BD4F8C9180832F5F3F4F261700
:101E9000A0F32091DC02822F8D7F8093DC02822FC1
:101EA0008170089580E00895AC018091BC0080FDB0
:101EB000FCCF8091DC02282F217080FF13C06623A5
:101EC00089F020E030E0FA01E20FF31FD901A152BE
:101ED000BD4F8C9180832F5F3F4F2617A0F3209139
:101EE000DC022170822F08958091DD02882319F091
:101EF00089B189B1FDCF81E008958091BC0080FD5A
:101F0000FCCF8091350208951F920F920FB60F9269
:101F10000BB60F9211242F933F938F939F93AF9300
:101F2000BF93EF93FF938091B90090E0FC01389745
:101F3000E13CF105B0F08091B9008093350285ED68
:101F40008093BC00FF91EF91BF91AF919F918F91D2
:101F50003F912F910F900BBE0F900FBE0F901F90CF
:101F60001895EE58FF4F0C94043C8091DE0290913E
:101F7000BB00E82FF0E0E152FD4F90838F5F80932C
:101F8000DE028091DC0281608093DC0285EC80932C
:101F9000BC00D8CF2091DE028091BB00E22FF0E0A0
:101FA000E152FD4F80832F5F2093DE0230E080916D
:101FB000F70290E001972817390744F385E88093EA
:101FC000BC00C0CF1092DE029091DE028091F70239
:101FD000981708F05DC0E92FF0E0E152FD4F8081D5
:101FE0008093BB009F5F9093DE0285E88093BC00E6
:101FF000A9CF1092DE029091DE02E92FF0E0E152CB
:10200000FD4F80818093BB009F5F9093DE0285EC43
:102010008093BC0097CF8091BB00E091DE02F0E09E
:10202000E152FD4F80838091DC0281608093DC026D
:1020300084ED8093BC0086CF8091B90080933502F7
:1020400085EE8093BC007ECF85EE8093BC007ACF76
:1020500084E08093DD028093BC0074CF9091DE0217
:102060008091F702981719F18091B9008093350299
:1020700084E08093BC0066CF8091DC028460826043
:102080008093DC021092DE0285EC8093BC005ACF74
:102090008091DC0281608093DC0284E98093BC0043
:1020A00051CF8091DC02EBCF2091DE027FCF809177
:1020B000DC0281608093DC02DBCF1F93182F8091BC
:1020C000DA029091DB02892BA9F08AB18C7F8AB960
:1020D0008BB183608BB91092B9008CE28093B80009
:1020E0001093BA008FEF8093BB0084E08093BC0014
:1020F0001F91089581E060E043E00E944A169093AA
:10210000DB028093DA02009701F360E070E040E0C8
:1021100050E020E00E94B713D8CF1F93182F809172
:10212000DA029091DB02892B69F08AB18C7F8AB93F
:102130001093BA008FEF8093BB0084E08093BC00C3
:102140001F91089581E060E043E00E944A16909359
:10215000DB028093DA02009741F360E070E040E038
:1021600050E020E00E94B713E0CF0FB6F8940F9232
:10217000FC01828D0F900FBE0895FC010FB6F894FC
:102180000F92928D0F900FBE838D891B0895FC01D5
:10219000828D0895FC01878D0895FC01678F089555
:1021A000FC0180A10895FC01828D90E0882309F450
:1021B00091E0892F0895FC01928D20E0838D98177E
:1021C00011F0822F089521E0822F0895CF93DF939D
:1021D000EC0188819981009711F00E940531CE01B0
:1021E0000E940531DF91CF9108950F931F93CF93F4
:1021F000DF93562FE72FEC018A8D8823F1F00E81B3
:102200001F816881798161157105A1F04C8D98015C
:10221000240F311D3F832E838A819B812817390724
:1022200010F07F836E836E817F81852F9E2F50E01B
:102230000E94E4071F830E8381E0DF91CF911F91FD
:102240000F9108950F931F93CF93DF93FB018A01A2
:10225000EC018A8D882319F16881798161157105F6
:10226000A1F04C8D8E819F81840F911D9F838E8361
:102270002A813B818217930710F07F836E836E81E2
:102280007F81CF0150E00E94E4078A8D81508A8FC0
:102290008D8D8F3F49F08D8D8F5F8D8F81E0DF9128
:1022A000CF911F910F9108958885882331F481E0A3
:1022B000DF91CF911F910F910895CE0108960E9452
:1022C000D2188823A1F30115110589F381E0F801E3
:1022D0008083E5CFA5E0B0E0E0E7F1E10C94CF3BEF
:1022E000562E472E5D834C83A22E8C0128E0C22EF1
:1022F000D12CC80ED91E91E1E92EF12CE00EF11E71
:1023000020E04E010894811C911C84E0682E712C01
:102310006C0E7D1EBB24BA940FB6F8940F92F80190
:10232000828D882309F0ECC08C819D81892B09F472
:102330001CC1222309F4D5C00F900FBE0E94B8160D
:102340000FB6F8940F92F801858D8F3F09F4C7C03E
:10235000F801868D8F3F09F4C0C00F900FBEC401F5
:10236000B3010E94DD16882309F007C10FB6F89467
:102370000F92F801828D0F900FBE882309F05FC085
:10238000F80180819181892B09F4AFC06C817D8136
:10239000C7010E94BC1A0FB6F8940F92F801868DFF
:1023A00018164CF019C0F801868D8150868F868DE5
:1023B000181694F4F8018189882371F0C7010E94EE
:1023C000D218882381F30E941C17F801868D815052
:1023D000868F868D181674F3F801B68E0F900FBE97
:1023E0000FB6F8940F92F801858D18164CF019C0AD
:1023F000F801858D8150858F858D181694F4F8012C
:102400008085882371F0C6010E94D218882381F349
:102410000E941C17F801858D8150858F858D1816B7
:1024200074F3F801B58E0F900FBE0E94D21B882363
:1024300011F021E071CF0E94993021E06DCF0FB6ED
:10244000F8940F92F801868D18164CF019C0F80117
:10245000868D8150868F868D181694F4F8018189B7
:10246000882371F0C7010E94D218882381F30E944B
:102470001C17F801868D8150868F868D181674F38F
:10248000F801B68E0F900FBE0FB6F8940F92F801B8
:10249000858D18164CF019C0F801858D8150858FF7
:1024A000858D181694F4F8018085882371F0C60193
:1024B0000E94D218882381F30E941C17F801858D91
:1024C0008150858F858D181674F3F801B58E0F90A5
:1024D0000FBE0E94D21B21E01FCF168E3ECF158E5D
:1024E00037CFC4010E94D21627CF0FB6F8940F92AF
:1024F000F801828193810E944A180F900FBE46CF47
:10250000868097806081718161157105A1F0448D8D
:102510009401240F311D37832683828193812817EC
:10252000390708F08CC0F80166817781852D942DDC
:1025300050E00E94E407AA2009F073C0F801828DE0
:102540008150828F80819181892B09F481C0F801AB
:102550008085882309F46BC0C6010E94D21881309F
:1025600009F065C00E94993062C00F900FBE80E0F4
:102570002596E0E10C94EB3B71C00FB6F8940F92F6
:10258000F801868D18164CF019C0F801868D81501F
:10259000868F868D181694F4F8018189882371F04E
:1025A000C7010E94D218882381F30E941C17F801EA
:1025B000868D8150868F868D181674F38FEFF80103
:1025C000868F0F900FBE0FB6F8940F92F801858D8D
:1025D00018164CF019C0F801858D8150858F858DB6
:1025E000181694F4F8018085882371F0C6010E94C2
:1025F000D218882381F30E941C17F801858D815021
:10260000858F858D181674F38FEFF801858F0F90E5
:102610000FBE0E94D21B80E02596E0E10C94EB3BBC
:102620001DC0F801978286828189882359F40F9012
:102630000FBE81E02596E0E10C94EB3B0FC0778361
:10264000668371CFC7010E94D218882381F38ACF95
:102650000E94FA17F8019383828379CFEF92FF9259
:102660001F93CF93DF937A01122FEC019A8D8B8DFC
:10267000981748F0223039F080E0DF91CF911F9118
:10268000FF90EF9008954C8D4423A9F4888199819F
:10269000892B09F465C08A8D8F5F8A8F8E8D8F3F5D
:1026A00089F18E8D8F5F8E8F81E0DF91CF911F91A9
:1026B000FF90EF900895112379F18E819F8150E072
:1026C0000E94E4078C8D90E044275527481B590B46
:1026D0008E819F81840F951F9F838E8328813981EE
:1026E0008217930730F48A819B81840F951F9F8303
:1026F0008E83123081F68A8D882369F28A8D81500B
:102700008A8FC9CF89898823F1F481E0DF91CF9145
:102710001F91FF90EF9008958C819D8150E00E9461
:10272000E4078C8D2C813D81280F311D3D832C8346
:102730008A819B812817390708F4ADCF8881998158
:102740009D838C83A8CFCE0141960E94D218882306
:10275000E1F2E114F104C9F281E0F7018083A5CF31
:102760008A819B810E9418181B821A8294CFA5E04F
:10277000B0E0EDEBF3E10C94CF3B562E472E5D839A
:102780004C83B22E8C0158E0E52EF12CE80EF91E98
:1027900041E1C42ED12CC80ED91E20E04E01089470
:1027A000811C911C34E0632E712C6C0E7D1EAA24BA
:1027B000AA940FB6F8940F92F801928D838D981712
:1027C00008F4E0C0F2E0BF1609F4DCC08C819D8102
:1027D000892B09F41EC1222309F478C00F900FBE83
:1027E0000E94B8160FB6F8940F92F801858D8F3FAE
:1027F00009F46AC0F801868D8F3F09F463C00F9019
:102800000FBEC401B3010E94DD16882309F009C17F
:102810000FB6F8940F92F801928D0F900FBEF80149
:10282000838D981709F456C00FB6F8940F92F801EB
:10283000868D18164CF019C0F801868D8150868F50
:10284000868D181694F4F8018189882371F0C601E9
:102850000E94D218882381F30E941C17F801868DEC
:102860008150868F868D181674F3F801A68E0F900E
:102870000FBE0FB6F8940F92F801858D18164CF024
:1028800019C0F801858D8150858F858D181694F4B7
:10289000F8018085882371F0C7010E94D21888232F
:1028A00081F30E941C17F801858D8150858F858DDD
:1028B000181674F3F801A58E0F900FBE0E94D21B5C
:1028C00021E077CF168E9BCF158E94CFC4010E9446
:1028D000D21684CF6C817D81C7010E94BC1A0FB6CD
:1028E000F8940F92F801868D18164CF019C0F80173
:1028F000868D8150868F868D181694F4F801818913
:10290000882371F0C6010E94D218882381F30E94A7
:102910001C17F801868D8150868F868D181674F3EA
:10292000F801A68E0F900FBE0FB6F8940F92F80123
:10293000858D18164CF019C0F801858D8150858F52
:10294000858D181694F4F8018085882371F0C701ED
:102950000E94D218882381F30E941C17F801858DEC
:102960008150858F858D181674F3F801A58E0F9010
:102970000FBE0E94D21B882309F0A2CF0E9499307B
:1029800021E017CFF801448D4423A9F4808191817F
:10299000892B09F4BEC0F801828D8F5F828F8189F7
:1029A000882309F0ADC00F900FBE81E02596E0E1CD
:1029B0000C94EB3BB6C0BB2009F487C0F8018681BC
:1029C0009781652D742D50E00E94E407F801848DF5
:1029D00090E044275527481B590B86819781840F27
:1029E000951F97838683208131818217930730F466
:1029F00082819381840F951F97838683F2E0BF16AF
:102A000051F6F801828D882331F2828D8150828FB8
:102A1000C2CF0F900FBE80E02596E0E10C94EB3B17
:102A200080C00FB6F8940F92F801868D18164CF0FE
:102A300019C0F801868D8150868F868D181694F402
:102A4000F8018189882371F0C6010E94D218882379
:102A500081F30E941C17F801868D8150868F868D28
:102A6000181674F38FEFF801868F0F900FBE0FB614
:102A7000F8940F92F801858D18164CF019C0F801E2
:102A8000858D8150858F858D181694F4F801808589
:102A9000882371F0C7010E94D218882381F30E9415
:102AA0001C17F801858D8150858F858D181674F35C
:102AB0008FEFF801858F0F900FBE0E94D21B80E030
:102AC0002596E0E10C94EB3B2CC0F80184819581C4
:102AD000652D742D50E00E94E407F801848D248157
:102AE0003581280F311D35832483828193812817F6
:102AF000390708F450CF80819181958384834BCF2F
:102B0000C6010E94D218813009F04DCF0E94993041
:102B10004ACF828193810E941818F8011382128291
:102B20003ACF0F931F93CF93DF93182F81E290E05A
:102B30000E947831EC01009719F11B821A821982E8
:102B400018821D821C821F821E821A8E81E08B8F4A
:102B50001C8E8FEF8D8F8E8F18A3CE0108960E944A
:102B600076328E010F5E1F4FC8010E9476320FB67B
:102B7000F8940F929A8D8B8D981740F00F900FBE9E
:102B8000CE01DF91CF911F910F9108954C8D442379
:102B900091F488819981892B71F18A8D8F5F8A8F59
:102BA0008989882301F50F900FBECE01DF91CF9167
:102BB0001F910F9108958C819D8160E070E050E03D
:102BC0000E94E4078C8D2C813D81280F311D3D83AF
:102BD0002C838A819B8128173907F8F28881998193
:102BE0009D838C83DACFC8010E94D2188130D9F638
:102BF0000E949930D8CF8A819B810E9418181B822D
:102C00001A82CBCFCF93DF93EC010FB6F8940F92DB
:102C1000EC8D2B8DE29FC001112448815981840FD6
:102C2000951F9B838A831A8E5D834C8330E02150ED
:102C30003040F0E02E9FC0012F9F900D3E9F900DE1
:102C40001124480F591F5F834E838FEF8D8F8E8F16
:102C5000662391F48885882331F40F900FBE81E0BC
:102C6000DF91CF910895CE0108960E94D21881304D
:102C7000A1F70E949930F1CFCE0108960E947632DA
:102C8000CE0141960E9476320F900FBE81E0DF9117
:102C9000CF910895CF92DF92FF920F931F93CF931E
:102CA000DF93182F062FF42E882359F440E050E0CC
:102CB000CA01DF91CF911F910F91FF90DF90CF90CC
:102CC000089581E290E00E947831EC01009771F361
:102CD000C02EDD24812F90E09C01C29EC001C39EC6
:102CE000900DD29E900D112401960E947831998307
:102CF00088830097B9F11B8F0C8F0FB6F8940F9251
:102D00002B8D30E0C29EC001C39E900DD29E900DCF
:102D1000112448815981840F951F9B838A831A8EC1
:102D20005D834C83215030408C8D90E0BC01269F08
:102D3000C001279F900D369F900D1124480F591FF9
:102D40005F834E838FEF8D8F8E8FCE0108960E940A
:102D50007632CE0141960E9476320F900FBEF8A2D5
:102D6000AE01A6CFCE010E94053140E050E0A0CFD9
:102D7000809100038F5F8093000308950FB6F8944D
:102D80000F922091FD023091FE020F900FBEC901FB
:102D900008952091FD023091FE02C90108958091AD
:102DA000FA020895FC018091FF0280838091FD0268
:102DB0009091FE02928381830895FC01DB010FB69E
:102DC000F8940F926091FD027091FE022D913C915A
:102DD00011978FEF2F3F3807F9F09091FF02808114
:102DE0008917F1F0418152816417750708F5CB010D
:102DF000841B950B82179307D8F4261B370B240FDF
:102E0000351F2D933C938091FF0280838091FD02BA
:102E10009091FE029283818380E00F900FBE08950F
:102E200041815281CB01841B950B8217930728F3B4
:102E300081E00F900FBE089581E08093FC02089519
:102E4000FC01009711F082A1089580E00895FC0133
:102E5000009709F062A30895A0E0B0E0E2E3F7E193
:102E60000C94CF3B3C018B015A01DB018C918823F0
:102E700009F48DC01196ED91FC9112970280F381B7
:102E8000E02D1296FC93EE93119723E0C22ED12CE5
:102E9000C60ED71EEC15FD0509F483C08680978009
:102EA000FF249FE0E92E82E0482E512C82819381FD
:102EB000F80192838183C816D90609F455C0D80158
:102EC0001196ED91FC911297C681D781FE9CB001BD
:102ED0001124660D771DFB01D183C0836996D383CE
:102EE000C283699789A18483B682A5828E898783EC
:102EF000F3E0AF16B10409F43FC08BA1FB0180875A
:102F00008CA19DA1AEA1BFA181879287A387B48721
:102F1000AF89B88D8C91853A09F040C020E030E04F
:102F200040E050E02F5F3F4F4F4F5F4FFD01E20FFA
:102F3000F31F8081853AB1F3C901DB011E969C9392
:102F40008E931D97F394C815D90511F1D8011196E8
:102F5000ED91FC91129782819381F8019283818394
:102F6000C816D90609F0ABCFD60112968D919C9167
:102F7000139792838183A3CF8C899D89892B09F430
:102F8000BCCFDB0116965C924E921597B6CFFF240C
:102F90008F2DCDB7DEB7E0E10C94EB3B80E090E005
:102FA000CCCF8281938111968C93119712969C932A
:102FB0009C01F90173CF0097B1F0FC01A789B08D96
:102FC0008C91853AA9F420E030E040E050E02F5F9A
:102FD0003F4F4F4F5F4FFD01E20FF31F8081853A56
:102FE000B1F3822F0895E091F802F091F902E6CF53
:102FF00080E008952091F8023091F902C901089506
:10300000E091F802F091F90284859585A091F8028B
:10301000B091F902E091F802F091F902468924E0BA
:1030200030E0241B31091D963C932E931C97089584
:103030000F931F93CF93DF93EC01009731F19E899B
:103040008BA1981711F18E010E5F1F4FC8010E94CE
:10305000DB322BA12E8B8C859D8597FD06C084E0ED
:1030600090E0821B91099D878C879E898091FB024D
:10307000891710F49093FB0289E0989FC0011124F6
:10308000835F9C4FB8010E948A32DF91CF911F91DC
:103090000F9108950F931F93CF93DF93EC01009747
:1030A00041F13E89E091F802F091F90286893817E2
:1030B00000F58C859D8597FD0BC0E091F802F0919D
:1030C000F902268984E090E0821B91099D878C8714
:1030D00089E0389FC0011124835F9C4F2A853B857E
:1030E0002817390759F0E091F802F091F902868922
:1030F0008E8BDF91CF911F910F9108958E010E5FFE
:103100001F4FC8010E94DB32E091F802F091F902F2
:1031100096899E8B8091FB02891710F49093FB0295
:1031200089E0989FC0011124835F9C4FB8010E94E1
:103130008A32DFCF0F931F93CF93DF93FC01706828
:1031400071836083C681D7810E94DB328E010E5F5E
:103150001F4FC8010E94DB329E898091FB028917B4
:1031600010F49093FB0289E0989FC0011124835FC3
:103170009C4FB8010E948A32E091F802F091F90266
:103180009E898689891740F481E08093FC02DF9153
:10319000CF911F910F91089580E0DF91CF911F9102
:1031A0000F9108950F931F93CF93DF93DC01159632
:1031B000ED91FC91169706811781E8012C96CE01BE
:1031C0000E94DB3280910003882331F5E8012296CA
:1031D000CE010E94DB32F80196898091FB028917AB
:1031E00008F189E0989FC0011124835F9C4FBE01C4
:1031F0000E948A32E091F802F091F902D8015696C5
:103200009C918689891788F481E08093FC02DF9184
:10321000CF911F910F91089587E493E0BE010E9422
:103220008A32E8CF9093FB02DCCF80E0DF91CF9130
:103230001F910F910895A0E0B0E0E1E2F9E10C9454
:10324000D73B80910003882309F089C08091FD025B
:103250009091FE0201969093FE028093FD02E09011
:10326000FD02F090FE02E114F10419F520914303F0
:103270003091440380914503909146039093440319
:103280008093430330934603209345038091FF02CC
:103290008F5F8093FF02E0914303F09144038081AC
:1032A000882309F086C08FEF9FEF909337028093B9
:1032B00036028091360290913702E816F90608F43A
:1032C00060C0DD2449E0C42EE0914303F091440343
:1032D00080818823E9F1E0914303F0914403058064
:1032E000F681E02DC681D7818A819B81E816F90697
:1032F00008F477C08E010E5F1F4FC8010E94DB32B9
:103300008C899D89892B21F0CE010C960E94DB329D
:103310009E898091FB02891710F49093FB029C9D7B
:10332000C0011124835F9C4FB8010E948A32E09152
:10333000F802F091F9029E898689981728F2DD2417
:10334000D394E0914303F09144038081882319F6DC
:103350008FEF9FEF909337028093360213C08091D6
:1033600009038F5F80930903DD248091FC02882389
:1033700011F0DD24D3948D2DCDB7DEB7E8E00C94A9
:10338000F33BDD24E091F802F091F902868990E0A8
:10339000FC01EE0FFF1FEE0FFF1FEE0FFF1FE80FE8
:1033A000F91FE35FFC4F80818230F8F2DD24D39473
:1033B000DCCFE0914303F09144030580F681E02DDA
:1033C0000680F781E02D828193819093370280936C
:1033D00036028091360290913702E816F90688F29B
:1033E00070CF9093370280933602CCCFDF92EF926A
:1033F000FF920F931F93CF93DF93EC018A859B85F8
:103400008955934041F010E0812FCDB7DEB7E7E05A
:103410000C94F43B42C08C899D8923E08734920749
:1034200091F3892B81F780910003882349F5DE8889
:10343000E091F802F091F902068952E0E52EF12CB4
:10344000EC0EFD1EC7010E94DB326E898091FB02EB
:10345000861710F46093FB0210E0D01608F011E01C
:1034600089E0689FC0011124835F9C4FB7010E94CF
:103470008A32812FCDB7DEB7E7E00C94F43B0DC064
:103480002C9687E493E0BE010E948A3210E0812FDF
:10349000CDB7DEB7E7E00C94F43B0F931F93CF93C7
:1034A000DF938A01E091F802F091F9027068758764
:1034B00064876091F8027091F902645F7F4F0E9407
:1034C0008A328091F8029091F90202960E94DB32D2
:1034D0008FEF0F3F180709F440C0C091FD02D09153
:1034E000FE02C00FD11FE091F802F091F902D383E0
:1034F000C2838091FD029091FE02C817D907E0F0C7
:1035000080914303909144036091F8027091F90215
:103510006E5F7F4F0E94A9328091360290913702F0
:10352000C817D90720F4D0933702C0933602DF9131
:10353000CF911F910F91089580914503909146037B
:103540006091F8027091F9026E5F7F4F0E94A9327C
:10355000DF91CF911F910F9108956091F8027091C2
:10356000F9026E5F7F4F89E593E00E948A32DF9116
:10357000CF911F910F9108950F931F93CF93DF93D6
:103580008B016091F8027091F902645F7F4F0E9495
:10359000A9328091F8029091F90202960E94DB32E2
:1035A0008FEF0F3F180709F440C0C091FD02D09182
:1035B000FE02C00FD11FE091F802F091F902D3830F
:1035C000C2838091FD029091FE02C817D907E0F0F6
:1035D00080914303909144036091F8027091F90245
:1035E0006E5F7F4F0E94A932809136029091370220
:1035F000C817D90720F4D0933702C0933602DF9161
:10360000CF911F910F9108958091450390914603AA
:103610006091F8027091F9026E5F7F4F0E94A932AB
:10362000DF91CF911F910F9108956091F8027091F1
:10363000F9026E5F7F4F89E593E00E948A32DF9145
:10364000CF911F910F910895EF92FF920F931F93C7
:1036500080910003882309F093C01092FC028091AE
:103660008400909185007C0100E010E0E09201036D
:10367000F092020300930303109304038091050367
:1036800090910603A0910703B09108038E159F0542
:10369000A007B107B0F4E091F802F091F902A80197
:1036A0009701281B390B4A0B5B0B84A195A1A6A19E
:1036B000B7A1820F931FA41FB51F84A395A3A6A330
:1036C000B7A3E0920503F09206030093070310935B
:1036D0000803E091F802F091F902A091F802B0918C
:1036E000F9022081318157968D919C9158978217CC
:1036F000930790F08091F8029091F9026091F8029E
:103700007091F902675E7F4F0E941D0B05C080918A
:10371000FB0281508093FB028091FB0290E0FC0150
:10372000EE0FFF1FEE0FFF1FEE0FFF1FE80FF91F39
:10373000E35FFC4F8081882351F39091FB0289E085
:10374000989FD0011124A35FBC4F1196ED91FC917D
:1037500012970280F381E02D1296FC93EE9311975D
:10376000CD010396E817F90799F086819781909328
:10377000F9028093F8021F910F91FF90EF90089546
:1037800081E08093FC021F910F91FF90EF900895CC
:103790008281938111968C93119712969C939C0130
:1037A000F901E3CFA0E0B0E0E8EDFBE10C94D43BFD
:1037B0000FB6F8940F92809100038150809300031C
:1037C00080910003882309F0EDC08091FA028823DC
:1037D00009F4E8C0F9E0FF2EEE24E394809147035A
:1037E000882369F1E0914C03F0914D03C681D781A4
:1037F000CE010C960E94DB328E010E5F1F4FC80176
:103800000E94DB329E898091FB02891710F490930D
:10381000FB029F9DC0011124835F9C4FB8010E9451
:103820008A32E091F802F091F9029E898689981710
:10383000A8F2E092FC0280914703882399F68091D8
:103840000903882309F4AAC080910903882309F495
:10385000A5C0E9E0CE2EAA24AA94BA2C9924939468
:1038600080910003882309F083C08091FD0290912C
:10387000FE0201969093FE028093FD02E090FD020D
:10388000F090FE02E114F10409F520914303309118
:1038900044038091450390914603909344038093A1
:1038A000430330934603209345038091FF028F5FCB
:1038B0008093FF02E0914303F091440380818823C9
:1038C00009F097C0B0923702A0923602809136027A
:1038D00090913702E816F90608F473C0DD24E091F0
:1038E0004303F091440380818823E9F1E09143038D
:1038F000F09144030580F681E02DC681D7818A814D
:103900009B81E816F90608F485C08E010E5F1F4FF3
:10391000C8010E94DB328C899D89892B21F0CE0160
:103920000C960E94DB329E898091FB02891710F46D
:103930009093FB029C9DC0011124835F9C4FB801B2
:103940000E948A32E091F802F091F9029E898689FC
:10395000981728F2DD24D394E0914303F0914403B7
:103960008081882319F6B0923702A09236022AC0CD
:10397000809109038F5F80930903DD248091FC020D
:103980008823E1F4DD20D1F48091090381508093F4
:10399000090380910903882309F062CF8091FC021A
:1039A000813041F080E00F900FBECDB7DEB7EBE085
:1039B0000C94F03B0E94993081E0F5CF9092FC028C
:1039C000E3CFDD24E091F802F091F902868990E0DE
:1039D000FC01EE0FFF1FEE0FFF1FEE0FFF1FE80FA2
:1039E000F91FE35FFC4F8081823040F2DD24D394E5
:1039F000C5CFE0914303F09144030580F681E02DAB
:103A00000680F781E02D8281938190933702809325
:103A100036025CCF9093370280933602D3CFA4E076
:103A2000B0E0E5E1FDE10C94CD3B1C01DC011C9212
:103A30008091FA0289839091FA028FE0989FC001E9
:103A400011240E9478312C01009709F4ADC08981BE
:103A5000909100039F5F909300039091FA02891761
:103A600008F4A6C084E0C82E1C82CA94BC81EFE092
:103A7000BE9F50011124A40CB51CF9E0CF9E70012B
:103A800011244DE053E0E40EF51ED7018C918823FC
:103A900009F484C11196ED91FC9112970280F38193
:103AA000E02D1296FC93EE93119703E0802E912C5B
:103AB0008E0C9F1CE815F90509F42CC566807780EB
:103AC000DD2482819381F701928381838816990690
:103AD00009F45FC0D7011196ED91FC9112976681B0
:103AE0007781BFE0DB9E800111240A0D1B1DF801C8
:103AF00071836083675E7F4F738362836951704017
:103B0000DB0191968C919197848341E050E056833C
:103B1000458356968C915697878393968C9193976D
:103B2000808794968D919D910D90BC91A02D818759
:103B30009287A387B487FB01A789B08D8C91853AC2
:103B400009F0D4C220E030E040E050E02F5F3F4F6A
:103B50004F4F5F4FFD01E20FF31F8081853AB1F3B4
:103B6000C901D8011E969C938E931D97D394661617
:103B7000770609F414C1D7011196ED91FC911297C3
:103B800082819381F701928381838816990609F0D7
:103B9000A1CFD40112968D919C911397928381832A
:103BA00099CFC2010E9405312496E2E10C94E93BD1
:103BB0001B820FB6F8940F9280910003815080937E
:103BC000000380910003882309F0A4C18091FA02C8
:103BD000882309F49FC199E0D92ECC24C394809105
:103BE0004703882399F1E0914C03F0914D0306813E
:103BF0001781C8010C960E94DB3222E0E22EF12CE4
:103C0000E00EF11EC7010E94DB32F8019689809117
:103C1000FB02891718F49093FB0296899D9DC001C1
:103C20001124835F9C4FB7010E948A32E091F80211
:103C3000F091F902D80156969C918689981778F2EE
:103C4000C092FC0280914703882369F680910903A2
:103C5000882309F459C180910903882309F454C1C8
:103C600089E0A82E80910003882309F035C1809156
:103C7000FD029091FE0201969093FE028093FD0258
:103C8000C090FD02D090FE02C114D10419F520911C
:103C900043033091440380914503909146039093F0
:103CA000440380934303309346032093450380915C
:103CB000FF028F5F8093FF02E0914303F091440382
:103CC0008081882309F004C4EFEFFFEFF0933702FF
:103CD000E09336028091360290913702C816D906D9
:103CE00008F4DDC3BB24E0914303F09144038081D9
:103CF000882309F44CC0E0914303F091440305800C
:103D0000F681E02D06811781D80112968D919C9144
:103D10001397C816D90608F4F5C3B2E0EB2EF12CC0
:103D2000E00EF11EC7010E94DB32F80184899589FB
:103D3000892B21F0C8010C960E94DB32D8015696DF
:103D40009C9156978091FB02891720F49093FB0277
:103D500056969C919A9DC0011124835F9C4FB70198
:103D60000E948A32E091F802F091F902D801569649
:103D70009C918689981708F4B6CFBB24B394E09140
:103D80004303F09144038081882309F0B4CF4FEFBF
:103D90005FEF509337024093360282C3DD24BC812B
:103DA000BD0DBC83CC2009F060CE8FE0B89F5001E0
:103DB0001124A40CB51CE0904303F0904403F701D8
:103DC0008081882309F495C10180F281E02D028071
:103DD000F381E02DD7011296FC93EE93119713E037
:103DE000812E912C8E0C9F1CE815F90509F4A3C3B4
:103DF00066807780DD24AFE0CA2E82819381F7014F
:103E0000928381838816990609F45EC0D7011196C2
:103E1000ED91FC91129766817781DC9C80011124E1
:103E20000A0D1B1DF80171836083675E7F4F7383EA
:103E3000628369517040DB0191968C9191978483E4
:103E400042E050E05683458356968C91569787837F
:103E500093968C919397808794968D919D910D90D8
:103E6000BC91A02D81879287A387B487FB01A78986
:103E7000B08D8C91853A09F042C320E030E040E0FB
:103E800050E02F5F3F4F4F4F5F4FFD01E20FF31F99
:103E90008081853AB1F3C901D8011E969C938E9317
:103EA0001D97D3946616770609F424C1D70111969D
:103EB000ED91FC91129782819381F7019283818326
:103EC0008816990609F0A2CFD40112968D919C9183
:103ED0001397928381839ACF809109038F5F809398
:103EE0000903BB248091FC02882309F0D4C2BB20C3
:103EF00009F0D1C280910903815080930903809118
:103F00000903882309F0AECE8091FC02813011F4C0
:103F10000E9499300F900FBEEB81E983C401B30179
:103F200024E630E040E050E00E94AB3B59016A01DA
:103F3000A114B104C104D10409F433CE1A829A81C8
:103F40008981981708F02DCEE0E08E2EE2E09E2EBB
:103F50007FE0672E72E0772E60C08A812A814DB79C
:103F60005EB74A5050400FB6F8945EBF0FBE4DBFCB
:103F7000ADB7BEB71196EDB7FEB732822182139668
:103F80009C928E92129790E0FC01EE0FFF1FE80FBB
:103F9000F91FCF01880F991F880F991FE80FF91F8C
:103FA000E40DF51D8281938115969C938E93149751
:103FB00030E0F901EE0FFF1FE20FF31FCF01880F72
:103FC000991F880F991FE80FF91FE40DF51D8185D2
:103FD000928517969C938E9316971996FC92EE9263
:103FE00018970E942B084DB75EB7465F5F4F0FB61C
:103FF000F8945EBF0FBE4DBFD1010D900020E9F7D0
:104000001197A219B3098A818F5F8A839A81898166
:10401000981708F0C6CD2A0E3B1E8A8190E0FC015D
:10402000EE0FFF1FE80FF91FCF01880F991F880FB0
:10403000991FE80FF91FE40DF51D618572858385D1
:104040009485A60195010E94AB3B79018A01E11498
:10405000F1040105110509F080CF8A812A81ADB7ED
:10406000BEB718970FB6F894BEBF0FBEADBF11967E
:10407000EDB7FEB73282218213967C926E92129730
:1040800090E0FC01EE0FFF1FE80FF91FCF01880F32
:10409000991F880F991FE80FF91FE40DF51D828104
:1040A000938115969C938E93149730E0F901EE0F4F
:1040B000FF1FE20FF31FCF01880F991F880F991F71
:1040C000E80FF91FE40DF51D8185928517969C93E5
:1040D0008E9316970E942B084DB75EB7485F5F4FCF
:1040E0000FB6F8945EBF0FBE4DBF86CF80E090E064
:1040F00038CDDD24CC80CD0C8FE0C89E500111243A
:10410000A40CB51CE0904503F0904603F7018081B4
:10411000882309F486C00180F281E02D0280F381BA
:10412000E02DD7011296FC93EE93119773E0872E42
:10413000912C8E0C9F1CE815F90509F406C26680C7
:104140007780DD2482819381F701928381838816B1
:10415000990609F45EC0D7011196ED91FC91129772
:1041600066817781BFE0DB9E800111240A0D1B1D53
:10417000F80171836083675E7F4F73836283695147
:104180007040DB0191968C919197848342E050E0DE
:104190005683458356968C915697878393968C9138
:1041A0009397808794968D919D910D90BC91A02DB1
:1041B00081879287A387B487FB01A789B08D8C91F3
:1041C000853A09F099C120E030E040E050E02F5FEF
:1041D0003F4F4F4F5F4FFD01E20FF31F8081853A44
:1041E000B1F3C901D8011E969C938E931D97D39469
:1041F00066167706B9F0D7011196ED91FC911297EA
:1042000082819381F701928381838816990609F050
:10421000A2CFD40112968D919C91139792838183A2
:104220009ACFDD24ED2CEC0C8FE0E89E6001112488
:10423000C40CD51C80915003882309F47CC0E09104
:104240005103F09152030280F381E02DF093520369
:10425000E0935103B3E0E335FB0709F480C1E0913B
:104260005103F0915203A680B780FF246FE0762EB1
:1042700054E0852E912C0280F381E02DF0935203BF
:10428000E093510343E0E335F40709F4FDC0E09106
:104290005103F091520366817781F79C80011124CC
:1042A0000C0D1D1DD80111967C936E93675E7F4F98
:1042B00013967C936E93129769517040FB0181A114
:1042C00014968C93149716969C928E9215978689C5
:1042D00017968C93179783A118968C9384A195A118
:1042E000A6A1B7A1F80181879287A387B487FB01B4
:1042F000A789B08D8C91853A09F0FBC020E030E0B1
:1043000040E050E02F5F3F4F4F4F5F4FFD01E20F06
:10431000F31F8081853AB1F3C901D8011E969C93A1
:104320008E931D97F394A616B70631F0E0915103D2
:10433000F0915203A0CFFF24EF0C8FE0E89E6001C4
:104340001124C40CD51C80915903882309F48AC018
:10435000E0915A03F0915B030280F381E02DF0932A
:104360005B03E0935A03B3E0EC35FB0709F4DCC0D0
:10437000E0915A03F0915B03A680B780FF2443E0ED
:10438000842E912C32E0632E712C0280F381E02D7B
:10439000F0935B03E0935A0343E0EC35F40709F430
:1043A0006CC0E0915A03F0915B03668177815FE016
:1043B000F59E800111240C0D1D1DD80111967C93D2
:1043C0006E93675E7F4F13967C936E93129769513D
:1043D0007040FB0181A114968C93149716969C92C1
:1043E0008E921597868917968C931797848995894D
:1043F000892B21F016967C926E921597DB0193968D
:104400008C919397F801808794968D919D910D9052
:10441000BC91A02D81879287A387B487FB01A789D0
:10442000B08D8C91853A09F072C020E030E040E018
:1044300050E02F5F3F4F4F4F5F4FFD01E20FF31FE3
:104440008081853AB1F3C901D8011E969C938E9361
:104450001D97F394A616B70631F0E0915A03F09138
:104460005B0393CFFF24FE0CFB828091840090912C
:1044700085003C01882499249CCB82819381909370
:104480005B0380935A038DCF828193819093520373
:1044900080935103FCCEB1E0B093FC022BCDBB2442
:1044A000E091F802F091F902868990E0FC01EE0FAC
:1044B000FF1FEE0FFF1FEE0FFF1FE80FF91FE35F57
:1044C000FC4F8081823008F40DCDBB24B3940ACD1B
:1044D000E0914303F09144030580F681E02D0680CE
:1044E000F781E02D82819381909337028093360289
:1044F000F1CB80E090E011CF80E090E073CE80E0DF
:1045000090E0CACC9093370280933602C9CF80E006
:1045100090E09ACF8281938111968C931197129695
:104520009C939C01F901CACA8281938190935B0399
:1045300080935A031DCF8281938111968C9311979A
:1045400012969C939C01F90153CC82819381119620
:104550008C93119712969C939C01F901F0CD828166
:104560009381909352038093510379CEA3E0B0E0FE
:10457000ECEBF2E20C94CD3B1C01DC011C9280912F
:10458000FA0289839091FA028FE0989FC00111246A
:104590000E9478315C01009709F4ADC08981909147
:1045A00000039F5F909300039091FA02891708F42B
:1045B000A6C064E0C62E1B82CA94BB81EFE0BE9FFA
:1045C000400111248A0C9B1CF9E0CF9E700111243C
:1045D0002DE033E0E20EF31ED7018C91882309F41D
:1045E00082C11196ED91FC9112970280F381E02D2A
:1045F0001296FC93EE93119753E0652E712C6E0C7E
:104600007F1CE615F70509F4FEC446805780DD24BB
:1046100082819381F701928381836816790609F478
:104620005FC0D7011196ED91FC9112976681778159
:10463000BFE0DB9E80011124080D191DF801718374
:104640006083675E7F4F7383628369517040DB01D3
:1046500091968C919197848321E030E03683258375
:1046600056968C915697878393968C9193978087D3
:1046700094968D919D910D90BC91A02D81879287EC
:10468000A387B487FB01A789B08D8C91853A09F087
:10469000AEC220E030E040E050E02F5F3F4F4F4F90
:1046A0005F4FFD01E20FF31F8081853AB1F3C9012D
:1046B000D8011E969C938E931D97D3944616570649
:1046C00009F412C1D7011196ED91FC9112978281E4
:1046D0009381F701928381836816790609F0A1CF4F
:1046E000D30112968D919C9113979283818399CFD8
:1046F000C5010E9405312396E2E10C94E93B772441
:104700000FB6F8940F9280910003815080930003BC
:1047100080910003882309F0A2C18091FA028823C6
:1047200009F49DC1A9E0DA2ECC24C39480914703FB
:10473000882399F1E0914C03F0914D030681178194
:10474000C8010C960E94DB32B2E0EB2EF12CE00E99
:10475000F11EC7010E94DB32F80196898091FB02AD
:10476000891718F49093FB0296899D9DC00111242E
:10477000835F9C4FB7010E948A32E091F802F0916A
:10478000F902D80156969C918689981778F2C092C2
:10479000FC0280914703882369F6809109038823EE
:1047A00009F457C180910903882309F452C1F9E043
:1047B000CF2E44244A94542C6624639480910003A1
:1047C000882309F02EC18091FD029091FE0201968E
:1047D0009093FE028093FD028090FD029090FE0275
:1047E0008114910409F52091430330914403809191
:1047F0004503909146039093440380934303309381
:104800004603209345038091FF028F5F8093FF0250
:10481000E0914303F09144038081882309F0D1C3E0
:1048200050923702409236028091360290913702C0
:104830008816990608F4ACC3DD24E0914303F09197
:1048400044038081882309F449C0E0914303F09137
:1048500044030580F681E02D06811781F8018281ED
:1048600093818816990608F4C6C3E2E0EE2EF12C77
:10487000E00EF11EC7010E94DB32D80154968D91E3
:104880009C915597892B21F0C8010C960E94DB3230
:10489000F80196898091FB02891718F49093FB0226
:1048A00096899C9DC0011124835F9C4FB7010E9493
:1048B0008A32E091F802F091F902D80156969C9163
:1048C0008689981708F4B9CFDD24D394E091430387
:1048D000F09144038081882309F0B7CF50923702CA
:1048E0004092360256C3DD24BB81BD0DBB83CC2074
:1048F00009F062CE8FE0B89F400111248A0C9B1C06
:10490000E0904303F0904403F7018081882309F489
:1049100071C10180F281E02D0280F381E02DD70189
:104920001296FC93EE93119743E0642E712C6E0C5B
:104930007F1CE615F70509F477C346805780DD2410
:104940003FE0C32E82819381F701928381836816B1
:10495000790609F45EC0D7011196ED91FC9112978A
:1049600066817781DC9C80011124080D191DF801F6
:1049700071836083675E7F4F738362836951704088
:10498000DB0191968C919197848322E030E036830D
:10499000258356968C915697878393968C919397FF
:1049A000808794968D919D910D90BC91A02D8187CB
:1049B0009287A387B487FB01A789B08D8C91853A34
:1049C00009F016C320E030E040E050E02F5F3F4F99
:1049D0004F4F5F4FFD01E20FF31F8081853AB1F326
:1049E000C901D8011E969C938E931D97D3944616A9
:1049F000570609F400C1D7011196ED91FC91129769
:104A000082819381F701928381836816790609F088
:104A1000A2CFD30112968D919C911397928381839B
:104A20009ACF809109038F5F80930903DD248091E1
:104A3000FC02882309F0A9C2DD2009F0A6C28091FA
:104A4000090381508093090380910903882309F0A9
:104A5000B5CE8091FC02813011F40E9499300F9004
:104A60000FBE79821A829A818981981708F040CE08
:104A70006EE1E62E62E0F62E8FC0019709F4B4C015
:104A800000E010E08A812A814A816A81EDB7FEB791
:104A90003E970FB6F894FEBF0FBEEDBFADB7BEB7E1
:104AA0001196328221821396FC92EE92129790E038
:104AB000FC01EE0FFF1FE80FF91FCF01880F991FB0
:104AC000880F991FE80FF91FEA0DFB1D8281938162
:104AD00015969C938E93149717961C930E93169786
:104AE00030E0F901EE0FFF1FE20FF31FCF01880F37
:104AF000991F880F991FE80FF91FEA0DFB1D878189
:104B000018968C93189719961C92199750E0FA01F1
:104B1000EE0FFF1FE40FF51FCF01880F991F880FBD
:104B2000991FE80FF91FEA0DFB1D858596851B96D9
:104B30009C938E931A9770E0FB01EE0FFF1FE60F18
:104B4000F71FCF01880F991F880F991FE80FF91FD2
:104B5000EA0DFB1D84811C968C931C971D961C925C
:104B60000E942B08D1010D900020E9F71197A2199E
:104B7000B3098A818F5F8A839A8189812DB73EB775
:104B8000225F3F4F0FB6F8943EBF0FBE2DBF981760
:104B900008F0AECD2A0E3B1E8A8190E0FC01EE0F9C
:104BA000FF1FE80FF91FCF01880F991F880F991F6A
:104BB000E80FF91FEA0DFB1D858196818230910572
:104BC00069F08330910508F458CF8330910549F09E
:104BD000049709F055CF04E410E054CF02E410E04C
:104BE00051CF03E510E04ECF02E510E04BCF80E05F
:104BF00090E05ECDDD24CB80CD0C8FE0C89E4001DF
:104C000011248A0C9B1CE0904503F0904603F701A9
:104C10008081882309F486C00180F281E02D028022
:104C2000F381E02DD7011296FC93EE93119723E0C8
:104C3000622E712C6E0C7F1CE615F70509F4FEC17F
:104C400046805780DD2482819381F701928381839E
:104C50006816790609F45EC0D7011196ED91FC91B2
:104C6000129766817781BFE0DB9E80011124080DD9
:104C7000191DF80171836083675E7F4F73836283C0
:104C800069517040DB0191968C919197848322E069
:104C900030E03683258356968C915697878393967A
:104CA0008C919397808794968D919D910D90BC9156
:104CB000A02D81879287A387B487FB01A789B08D38
:104CC0008C91853A09F091C120E030E040E050E05D
:104CD0002F5F3F4F4F4F5F4FFD01E20FF31F80816A
:104CE000853AB1F3C901D8011E969C938E931D9706
:104CF000D39446165706B9F0D7011196ED91FC9161
:104D0000129782819381F7019283818368167906D5
:104D100009F0A2CFD30112968D919C9113979283A3
:104D200081839ACFDD24ED2CEC0C8FE0E89E6001AE
:104D30001124CA0CDB1C80915003882309F47CC029
:104D4000E0915103F09152030280F381E02DF09342
:104D50005203E0935103B3E0E335FB0709F478C154
:104D6000E0915103F091520386809780FF249FE0E9
:104D7000592E84E0682E712C0280F381E02DF0938F
:104D80005203E093510323E0E335F20709F4F6C040
:104D9000E0915103F091520366817781F59C800187
:104DA00011240C0D1D1DD80111967C936E93675E26
:104DB0007F4F13967C936E93129769517040FB015D
:104DC00081A114968C93149716967C926E921597E7
:104DD000868917968C93179783A118968C9384A134
:104DE00095A1A6A1B7A1F80181879287A387B4876F
:104DF000FB01A789B08D8C91853A09F0F3C020E0C2
:104E000030E040E050E02F5F3F4F4F4F5F4FFD01DC
:104E1000E20FF31F8081853AB1F3C901D8011E96D4
:104E20009C938E931D97F3948616970631F0E0912C
:104E30005103F0915203A0CFFF24EF0C8FE0E89EC6
:104E400060011124CA0CDB1C80915903882309F4EA
:104E50008AC0E0915A03F0915B030280F381E02D58
:104E6000F0935B03E0935A03B3E0EC35FB0709F4DE
:104E7000D4C0E0915A03F0915B0386809780FF24B1
:104E800003E0602E712C12E0412E512C0280F38140
:104E9000E02DF0935B03E0935A0323E0EC35F20737
:104EA00009F465C0E0915A03F0915B036681778154
:104EB0003FE0F39E800111240C0D1D1DD8011196B9
:104EC0007C936E93675E7F4F13967C936E931297DD
:104ED00069517040FB0181A114968C93149716962A
:104EE0007C926E921597868917968C931797848972
:104EF0009589892B21F016965C924E921597DB01CD
:104F000093968C919397F801808794968D919D91BB
:104F10000D90BC91A02D81879287A387B487FB0158
:104F2000A789B08D8C91853A09F06AC020E030E005
:104F300040E050E02F5F3F4F4F4F5F4FFD01E20FCA
:104F4000F31F8081853AB1F3C901D8011E969C9365
:104F50008E931D97F3948616970631F0E0915A03CD
:104F6000F0915B0393CFFF247F2C7E0CC9CB828111
:104F7000938190935B0380935A0394CF82819381B2
:104F8000909352038093510303CF6092FC0257CD5C
:104F9000DD24E091F802F091F902868990E0FC01AD
:104FA000EE0FFF1FEE0FFF1FEE0FFF1FE80FF91FA1
:104FB000E35FFC4F8081823008F439CDDD24D39447
:104FC00036CDE0914303F09144030580F681E02D56
:104FD0000680F781E02D8281938190933702809340
:104FE000360222CC80E090E019CF80E090E07BCECA
:104FF00080E090E0F6CC9093370280933602C9CFE0
:1050000080E090E0A2CF8281938111968C931197DA
:1050100012969C939C01F901F8CA82819381909326
:105020005B0380935A0325CF8281938111968C93E1
:10503000119712969C939C01F9017FCC82819381F8
:1050400011968C93119712969C939C01F901F8CDBF
:1050500082819381909352038093510381CE0F9369
:105060001F93CF93DF93EC01009789F08091F802B2
:105070009091F902C817D90751F00FB6F8940F9222
:105080008A859B858955934039F00F900FBEDF913B
:10509000CF911F910F9108958C899D8923E08734CA
:1050A000920799F3892B89F78E010E5F1F4FC80174
:1050B0000E94DB329E898091FB02891710F4909345
:1050C000FB0289E0989FC0011124835F9C4FB801C7
:1050D0000E948A32E091F802F091F9029E89868955
:1050E000981798F20E949930D0CFEF92FF920F93C9
:1050F0001F93CF93DF930FB6F8940F92009709F4A4
:10510000DDC0EC018E010E5F1F4FC8010E94DB3233
:105110008C899D89892B21F0CE010C960E94DB326F
:1051200089E593E0B8010E948A320F900FBE80910A
:10513000F8029091F902C817D90761F180910A032A
:10514000882391F00FB6F8940F92E0914303F09109
:1051500044038081882369F48FEF9FEF9093370297
:10516000809336020F900FBECDB7DEB7E6E00C9409
:10517000F53BE0914303F09144030580F681E02D77
:105180000680F781E02D828193819093370280938E
:105190003602E8CF80910A03882309F098C09091E5
:1051A000FA0280915903891709F494C08091000391
:1051B000882309F088C01092FC02809184009091AD
:1051C00085007C0100E010E0E0920103F092020310
:1051D0000093030310930403809105039091060349
:1051E000A0910703B09108038E159F05A007B10792
:1051F000B0F4E091F802F091F902A8019701281BA0
:10520000390B4A0B5B0B84A195A1A6A1B7A1820F14
:10521000931FA41FB51F84A395A3A6A3B7A3E092D1
:105220000503F09206030093070310930803E0912F
:10523000F802F091F902A091F802B091F9022081F0
:10524000318157968D919C9158978217930730F032
:1052500046C08091FB0281508093FB028091FB024B
:1052600090E0FC01EE0FFF1FEE0FFF1FEE0FFF1F80
:10527000E80FF91FE35FFC4F8081882351F3909181
:10528000FB0289E0989FD0011124A35FBC4F1196C7
:10529000ED91FC9112970280F381E02D1296FC9320
:1052A000EE931197CD010396E817F90729F186814E
:1052B00097819093F9028093F80256CFC091F8023B
:1052C000D091F9021FCF81E08093FC024DCF0E9464
:1052D00099304ACF1092F9021092F80245CF80918E
:1052E000F8029091F9026091F8027091F902675EFC
:1052F0007F4F0E941D0BB2CF8281938111968C93B8
:10530000119712969C939C01F901D1CFA0E0B0E0D7
:10531000ECE8F9E20C94D43B9C01009741F40E9424
:105320009930CDB7DEB7EBE00C94F03B77C18091BC
:1053300000038F5F80930003C091FD02D091FE02B5
:10534000C20FD31F8091F8029091F90202960E9439
:10535000DB32E091F802F091F902D383C2838091AD
:10536000FD029091FE02C817D90708F45BC0809136
:105370004303909144036091F8027091F9026E5FCB
:105380007F4F0E94A9328091360290913702C81750
:10539000D90720F4D0933702C09336020FB6F894A1
:1053A0000F9280910003815080930003809100034D
:1053B000882309F04DC08091FA02882309F448C07F
:1053C00099E0F92EEE24E394809147038823B9F104
:1053D000E0914C03F0914D03C681D781CE010C962C
:1053E0000E94DB328E010E5F1F4FC8010E94DB322C
:1053F0009E898091FB02891710F49093FB029F9D78
:10540000C0011124835F9C4FB8010E948A32E09151
:10541000F802F091F9029E8986899817A8F2E09225
:10542000FC02D2CF80914503909146036091F8022F
:105430007091F9026E5F7F4F0E94A932AFCF8091C9
:105440000903882389F48091FC02813009F495C016
:1054500080E00F900FBE882309F461CFCDB7DEB78F
:10546000EBE00C94F03BDAC080910903882359F3F8
:1054700089E0C82EAA24AA94BA2C992493948091E6
:105480000003882309F07DC08091FD029091FE0207
:1054900001969093FE028093FD02E090FD02F09051
:1054A000FE02E114F10409F5209143033091440315
:1054B0008091450390914603909344038093430366
:1054C00030934603209345038091FF028F5F8093C2
:1054D000FF02E0914303F09144038081882309F0A7
:1054E00087C0B0923702A092360280913602909126
:1054F0003702E816F90608F45EC0DD24E0914303A4
:10550000F09144038081882309F46DC0E091430346
:10551000F09144030580F681E02DC681D7818A8110
:105520009B81E816F90608F474C08E010E5F1F4FC8
:10553000C8010E94DB328C899D89892B21F0CE0124
:105540000C960E94DB329E898091FB02891710F431
:105550009093FB029C9DC0011124835F9C4FB80176
:105560000E948A32E091F802F091F9029E898689C0
:10557000981720F2DD24D394C1CF0E94993081E0A6
:1055800068CF809109038F5F80930903DD248091A8
:10559000FC02882369F4DD2059F4809109038150CD
:1055A0008093090380910903882309F068CF4BCFCA
:1055B0009092FC02F2CFDD24E091F802F091F90222
:1055C000868990E0FC01EE0FFF1FEE0FFF1FEE0F2C
:1055D000FF1FE80FF91FE35FFC4F80818230B8F2B4
:1055E000DD24D394D4CFB0923702A0923602E4CF18
:1055F000E0914303F09144030580F681E02D06809D
:10560000F781E02D82819381909337028093360257
:105610006CCF9093370280933602CECFA0E0B0E0FB
:10562000E4E1FBE20C94D43BFC01EB01809100032C
:105630008F5F809300032091FD023091FE028081F4
:105640009181C80FD91F2817390708F016C1C8174C
:10565000D90708F024C12C173D0708F020C1D183D9
:10566000C0838091F8029091F90202960E94DB3289
:10567000E091F802F091F902D383C2838091FD0298
:105680009091FE02C817D90708F4FCC0809143032B
:10569000909144036091F8027091F9026E5F7F4F20
:1056A0000E94A9328091360290913702C817D9071B
:1056B00020F4D0933702C09336020FB6F8940F92BD
:1056C0008091000381508093000380910003882320
:1056D00009F003C18091FA02882309F4FEC049E071
:1056E000F42EEE24E39480914703882369F1E0913E
:1056F0004C03F0914D03C681D781CE010C960E94D8
:10570000DB328E010E5F1F4FC8010E94DB329E8983
:105710008091FB02891710F49093FB029F9DC001BA
:105720001124835F9C4FB8010E948A32E091F802F5
:10573000F091F9029E8986899817A8F2E092FC02FE
:1057400080914703882399F680910903882309F4FF
:10575000BFC080910903882309F4BAC039E0C32E81
:10576000AA24AA94BA2C99249394809100038823A4
:1057700009F098C08091FD029091FE0201969093ED
:10578000FE028093FD02E090FD02F090FE02E11423
:10579000F10409F5209143033091440380914503BE
:1057A00090914603909344038093430330934603C0
:1057B000209345038091FF028F5F8093FF02E09169
:1057C0004303F09144038081882309F0ADC0B09277
:1057D0003702A09236028091360290913702E81685
:1057E000F90608F489C0DD24E0914303F0914403F5
:1057F00080818823E9F1E0914303F091440305801F
:10580000F681E02DC681D7818A819B81E816F90651
:1058100008F49BC08E010E5F1F4FC8010E94DB324F
:105820008C899D89892B21F0CE010C960E94DB3258
:105830009E898091FB02891710F49093FB029C9D36
:10584000C0011124835F9C4FB8010E948A32E0910D
:10585000F802F091F9029E898689981728F2DD24D2
:10586000D394E0914303F09144038081882319F697
:10587000B0923702A092360240C0C817D90708F488
:10588000EECEE9CE80914503909146036091F802F7
:105890007091F9026E5F7F4F0E94A9320ECFD183C3
:1058A000C0830BCF809109038F5F80930903DD24B0
:1058B0008091FC028823E9F4DD20D9F4809109036A
:1058C00081508093090380910903882309F04DCF0B
:1058D0008091FC02813009F43DC080E00F900FBE42
:1058E000882311F40E949930CDB7DEB7EBE00C9419
:1058F000F03B9092FC02E2CFDD24E091F802F091BF
:10590000F902868990E0FC01EE0FFF1FEE0FFF1FEA
:10591000EE0FFF1FE80FF91FE35FFC4F808182301D
:1059200038F2DD24D394C4CFE0914303F0914403D3
:105930000580F681E02D0680F781E02D828193813C
:10594000909337028093360246CF9093370280932C
:105950003602D3CF0E94993081E0C0CF0F931F93BE
:10596000CF93DF930FB6F8940F92009709F453C0CA
:10597000EC018E010E5F1F4FC8010E94DB328C8943
:105980009D89892B21F0CE010C960E94DB3280E5A7
:1059900093E0B8010E948A3280910B038F5F80935D
:1059A0000B0380910C038F5F80930C030F900FBE4D
:1059B00080910A03882319F18091F8029091F902ED
:1059C000C817D90769F10FB6F8940F92E091430315
:1059D000F091440380818823B9F0E0914303F09172
:1059E00044030580F681E02D0680F781E02D828159
:1059F000938190933702809336020F900FBEDF9110
:105A0000CF911F910F9108958FEF9FEF90933702E1
:105A100080933602F2CFC091F802D091F902A9CF5B
:105A20000E949930ECCFF89410920A030E9419302A
:105A30000895A0E0B0E0EFE1FDE20C94CD3B2C0135
:105A4000362E272E5A013901102F470188E290E0A7
:105A50000E947831EC01009709F4ADC0C114D10463
:105A600009F49DC0D88ECF8AC60165EA70E0A50111
:105A70000E94ED07EF88F88C832D922D9C01F9018F
:105A8000DE0190E0808159968C935997808188231C
:105A900029F09F5F319611969830A1F718A2012F37
:105AA000143008F07AC00E8B0BA372E0C72ED12CF5
:105AB000CC0EDD1EC6010E948632CE010C960E94DD
:105AC0008632D987C88784E090E0801B91099D8742
:105AD0008C87DB8BCA8B1CA21DA21EA21FA208945E
