:100000000C9452030C9474030C9474030C947403B6
:100010000C9474030C9474030C9474030C94740384
:100020000C9474030C9474030C9474030C94740374
:100030000C9474030C9474030C9474030C94740364
:100040000C9474030C9474030C9474030C94740354
:100050000C9474030C9474030C9474030C94E50DC9
:100060000C9474030C9406150C9419160C947403D8
:100070000C9474030C9474030C9474030C94740324
:100080000C94EF2D0C9474030C9474030C9474036F
:100090000C94DC140C94EF150C9474030C94082F3E
:1000A0000C9474030C9460100C9474030C947403FB
:1000B0000C9474030C9416100C94EB100C947403B1
:1000C0000C9474030C9474030C943B100C94B214B1
:1000D0000C94C5150C9474030C9488140C949B1503
:1000E0000C947403A0228C2278225222911F911F1B
:1000F000911F911F911FC921A5219121911F911F2E
:10010000911F2D21911FEB20CD209C205B1F88206B
:10011000742060204C2038202420E71FD31FAC1F00
:100120000F22FB21911FE72109214B215F21732120
:10013000911F911F911F2322662F1F2F1F2F1F2FEB
:100140001F2F1F2F1F2F1F2F662F1F2F1F2F1F2FF8
:100150001F2F1F2F1F2F1F2F682F1F2F1F2F1F2FE6
:100160001F2F1F2F1F2F1F2FA02F1F2F1F2F1F2F9E
:100170001F2F1F2F1F2F1F2F682F1F2F1F2F1F2FC6
:100180001F2F1F2F1F2F1F2FA02F1F2F1F2F1F2F7E
:100190001F2F1F2F1F2F1F2FA82F1F2F1F2F1F2F66
:1001A0001F2F1F2F1F2F1F2FD82F1F2F1F2F1F2F26
:1001B0001F2F1F2F1F2F1F2F1F2F1F2F1F2F1F2FCF
:1001C0001F2F1F2F1F2F1F2F4E2F1F2F1F2F1F2F90
:1001D0001F2F1F2F1F2F1F2F8F2F1F2F1F2F1F2F3F
:1001E0001F2F1F2F1F2F1F2FD52F1F2F1F2F1F2FE9
:1001F0001F2F1F2F1F2F1F2FD52F1F2F1F2F1F2FD9
:100200001F2F1F2F1F2F1F2FC02F1F2F1F2F1F2FDD
:100210001F2F1F2F1F2F1F2FC02F1F2F1F2F1F2FCD
:100220001F2F1F2F1F2F1F2F392F1F2F1F2F1F2F44
:100230001F2F1F2F1F2F1F2F622F1F2F1F2F1F2F0B
:100240001F2F1F2F1F2F1F2F392F1F2F1F2F1F2F24
:100250001F2F1F2F1F2F1F2F622F1F2F1F2F1F2FEB
:100260001F2F1F2F1F2F1F2FAC2F1F2F1F2F1F2F91
:100270001F2F1F2F1F2F1F2F7D2F1F2F1F2F1F2FB0
:100280001F2F1F2F1F2F1F2F7D2F1F2F1F2F1F2FA0
:100290001F2F1F2F1F2F1F2F7F2F1F2F1F2F1F2F8E
:1002A0001F2F1F2F1F2F1F2FB22F1F2F1F2F1F2F4B
:1002B0001F2F1F2F1F2F1F2F4A2F6E616E00696E79
:1002C000660000407A10F35A00A0724E1809001020
:1002D000A5D4E80000E87648170000E40B540200BB
:1002E00000CA9A3B000000E1F505000080969800E6
:1002F000000040420F000000A0860100000010270F
:1003000000000000E803000000006400000000009E
:100310000A00000000000100000000002C76D888D0
:10032000DC674F0823DFC1DFAE59E1B1B796E5E3E3
:10033000E453C63AE651997696E8E6C28426EB89FC
:100340008C9B62ED407C6FFCEFBC9C9F40F2BAA599
:100350006FA5F490055A2AF75C936B6CF9676DC131
:100360001BFCE0E40D47FEF520E6B500D0ED902E35
:100370000300943577050080841E080000204E0A93
:10038000000000C80C333333330F986E12831141D1
:10039000EF8D2114893BE65516CFFEE6DB18D1849C
:1003A0004B381BF77C1D901DA4BBE42420328472C3
:1003B0005E228100C9F124ECA1E53D27A0E0B0E078
:1003C000E4EEF1E00C941353E9E0CE2EAA24A394BA
:1003D00088248A94982C7724739405C00F900FBEBC
:1003E000BB2009F05FC080915B1C882309F480C0AA
:1003F0008091501C8F5F8093501CB090A01C0FB652
:10040000F8940F928091501C81508093501C8091E1
:10041000501C882319F780914A1C8823F9F2809197
:10042000971C882371F1E0919C1CF0919D1CC68162
:10043000D781CE010C960E94EA508E010E5F1F4FAD
:10044000C8010E94EA509E8980914B1C891718F4BC
:1004500090934B1C9E899C9DC0011124835A934EFE
:10046000B8010E949950E091481CF091491C9E8966
:1004700086899817A0F2A0924C1C8091971C882323
:1004800091F68091591C882309F04DC080914C1C35
:10049000813009F0A3CF0E94F22D0F900FBEBB2038
:1004A00009F4A1CF0FB6F8940F92E091A51CF0913A
:1004B000A61C06811781C80102960E94EA5080910D
:1004C0004A1C815080934A1C80915B1C8150809310
:1004D0005B1C0F900FBEF8018789908D0E944430FD
:1004E000C8010E94443080915B1C882309F080CFB2
:1004F00080915D1C823008F476CF0E94F22D73CF7C
:100500008091591C8F5F8093591CDD2480914C1C75
:10051000882309F095C0DD2009F092C08091591C14
:1005200081508093591C8091591C882309F4AECFC7
:100530008091501C882321F780914D1C90914E1C76
:10054000019690934E1C80934D1CE0904D1CF090B2
:100550004E1CE114F10409F52091931C3091941C78
:100560008091951C9091961C9093941C8093931C61
:100570003093961C2093951C80914F1C8F5F809325
:100580004F1CE091931CF091941C8081882309F00A
:1005900073C09092950980929409809194099091EA
:1005A0009509E816F90608F44EC0DD24E091931C85
:1005B000F091941C80818823F1F1E091931CF091DB
:1005C000941C0580F681E02DC681D7818A819B81AC
:1005D000E816F90608F461C08E010E5F1F4FC801CE
:1005E0000E94EA508C899D89892B21F0CE010C96BE
:1005F0000E94EA509E8980914B1C891718F49093B1
:100600004B1C9E899C9DC0011124835A934EB801B6
:100610000E949950E091481CF091491C9E8986895E
:10062000981720F2DD24D394E091931CF091941C50
:100630008081882311F6909295098092940904C0D4
:1006400070924C1C6BCFDD24E091481CF091491C4A
:10065000868990E0FC01EE0FFF1FEE0FFF1FEE0FEB
:10066000FF1FE80FF91FE35AF34E8081823008F430
:100670004DCFDD24D3944ACFE091931CF091941C8C
:100680000580F681E02D0680F781E02D828193813F
:10069000909395098093940980CF909395098093C6
:1006A0009409D2CF11241FBECFEFD1E2DEBFCDBF60
:1006B00000E00CBF19E0A0E0B2E0EAE9F6EA00E0F1
:1006C0000BBF02C007900D92A43FB107D9F71BBE24
:1006D0001DE1A4EFB9E001C01D92AD3EB107E1F705
:1006E0000E942E0E0C944B530C9400008F938FB7E6
:1006F0008F93F8948091E91D8F5F8093E91D80911D
:10070000EA1D8F4F8093EA1D8091EB1D8F4F8093E0
:10071000EB1D8091EC1D8F4F8093EC1D8F918FBF4F
:100720008F910895A1E1B0E0E8E9F3E00C940E5355
:100730003C017F876E876A01FC01178216828381E4
:1007400081FD03C06FEF7FEF71C39E012F5F3F4FAD
:10075000398B288BF3012381EE85FF8523FD85915D
:1007600023FF8191FF87EE87882309F45CC38532DC
:1007700051F4EE85FF8523FD859123FF8191FF874D
:10078000EE87853229F490E0B3010E947B08E2CF26
:10079000982F10E0882499241032B0F49B3269F02D
:1007A0009C3228F4903251F0933271F40BC09D3298
:1007B00039F0903349F4116028C01260146025C0EC
:1007C000186023C0106121C017FD2AC0892F8053F3
:1007D0008A3078F416FF06C0FAE09F9E902C112410
:1007E000980E13C03AE0839E802C1124880E10626C
:1007F0000CC09E3221F416FD16C3106406C09C3650
:1008000011F4106802C0983659F4EE85FF8523FD77
:10081000959123FF9191FF87EE87992309F0BCCF33
:10082000892F8554833020F4812F8061905E07C02A
:10083000892F8556833008F0A1C1812F8F7E86FDD8
:1008400002C076E0972E6FE3F62EF822953619F463
:10085000F0E4FF2A07C0963619F420E8F22A02C015
:1008600091109A94F7FE0BC03BE3391520F427E072
:100870005CE3B52E0EC0B92CB39427E00AC047E064
:10088000491528F427E0BB2447E0942E02C0292D07
:10089000BB24C60104969D878C87F6016081718117
:1008A00082819381AE014F5F5F4F0B2D0E941B072A
:1008B0006C010981202E332400FF04C003FD02C017
:1008C0001DE209C0F1FE02C01BE205C0F2FC02C03D
:1008D00010E001C010E2C1018C709070892BB9F159
:1008E000112311F483E001C084E0881510F08824FE
:1008F0000AC0881AF3FC07C080E290E0B3010E94AE
:100900007B088A94C9F7112329F0812F90E0B30165
:100910000E947B0823FE03C00AEB12E00EC00EEB20
:1009200012E00BC0E114F10409F0805290E0B30131
:100930000E947B080F5F1F4F05C0EF2CFF24F0E1E2
:10094000EF22FF24F8018491882361F714C1F7FE98
:1009500012C0BC0C24FE04C08A81813309F4BA940D
:100960001B141CF0BB24B3942DC0F8E0FB1550F50C
:1009700038E0B32E27C0F6FC25C0892D90E08C15F9
:100980009D054CF02CEFC2162FEFD20624F030E874
:10099000F32A01C09A94992049F0E2E0F0E0EC0FCC
:1009A000FD1FE90DF11D80818033A1F3F7FE0AC020
:1009B000B92CB394892D90E0C816D90614F0992467
:1009C00001C09C18F7FC03C025E030E009C01C14EE
:1009D0001D041CF021E030E003C096012F5F3F4F63
:1009E000112311F02F5F3F4F992029F0892D90E0BE
:1009F0000196280F391F882D90E02817390714F029
:100A0000882401C0821A4F2C5524C201897090702D
:100A1000892B39F008C080E290E0B3010E947B0886
:100A20008A948820C1F7112329F0812F90E0B30127
:100A30000E947B0843FE07C008C080E390E0B3013A
:100A40000E947B088A948820C1F7F7FE46C0860181
:100A5000D7FE02C000E010E076010894E11CF11C12
:100A6000E01AF10A41E050E04C0F5D1FE40EF51E64
:100A700026014B185108892D90E0AA24BB24A81AFE
:100A8000B90A5FEF0F3F150729F48EE290E0B3013A
:100A90000E947B08C016D10634F0401651061CF4A3
:100AA000F701808101C080E3015010400894E11CEF
:100AB000F11C0A151B052CF090E0B3010E947B0885
:100AC000E0CF0C151D0539F49A81963318F495334F
:100AD00011F424FE81E390E04BC08A81813309F058
:100AE0000F7E90E0B3010E947B089920A1F08EE276
:100AF00090E0B3010E947B0812E0E1E0F0E0EC0F2F
:100B0000FD1FE10FF11D1F5F808190E0B3010E9486
:100B10007B089A9491F744FC03C085E690E002C0FC
:100B200085E490E0B3010E947B08D7FC05C0C114A6
:100B3000D10441F404FF06C0D094C194D108D394E9
:100B40008DE201C08BE290E0B3010E947B0880E35C
:100B500005C08F5F26EF3FEFC20ED31E3AE0C316EB
:100B6000D104BCF790E0B3010E947B08C601C09697
:100B7000B3010E947B08CC84DD8452C1933631F0EE
:100B8000933799F0933509F059C023C0F60180815D
:100B900089835E010894A11CB11C22E030E0C20EE2
:100BA000D31E21E0E22EF12C12C0F601A080B1800C
:100BB00016FD03C06FEF7FEF02C0692D70E022E0E9
:100BC00030E0C20ED31EC5010E9456087C011F777B
:100BD00013C0F601A080B18016FD03C06FEF7FEF58
:100BE00002C0692D70E022E030E0C20ED31EC501C4
:100BF0000E94FC077C01106813FF07C01BC080E245
:100C000090E0B3010E947B088A94882D90E0E8165A
:100C1000F906A8F30FC0F50117FD859117FF819123
:100C20005F0190E0B3010E947B0881108A940894D0
:100C3000E108F108E114F10471F7F2C0943611F003
:100C4000993689F517FF08C0F6012081318142816C
:100C5000538184E090E00AC0F601808191819C017B
:100C6000442737FD4095542F82E090E0C80ED91EEE
:100C70009FE6F92EF12257FF09C050954095309517
:100C800021953F4F4F4F5F4F90E8F92ACA01B901B4
:100C9000AE014F5F5F4F2AE030E00E941F09E82E4F
:100CA000E889EE1A41C0953721F41F7E2AE030E032
:100CB0001CC0197F9F3661F0903720F4983509F0F9
:100CC000B2C00FC0903739F0983709F0ACC004C0FB
:100CD00028E030E00AC0106114FD146020E130E02B
:100CE00004C014FD166020E132E017FF08C0F601D1
:100CF000608171818281938144E050E008C0F601F7
:100D000080819181BC0180E090E042E050E0C40E1F
:100D1000D51EAE014F5F5F4F0E941F09E82E588914
:100D2000E51A8FE7F82EF122F6FE0BC08EEFF822BF
:100D3000E91438F4F4FE07C0F2FC05C09FEEF92276
:100D400002C01E2D01C0192DF4FE0DC0FE01EE0DD6
:100D5000F11D8081803319F4E9EEFE2208C01F5F87
:100D6000F2FE05C003C08F2D867809F01F5F0F2D9E
:100D7000F3FC14C0F0FE0FC0181510F09E2C0BC031
:100D80009E2C980C911A182D06C080E290E0B301B9
:100D90000E947B081F5F1815C0F304C0181510F4DB
:100DA000811A01C0882404FF0FC080E390E0B301E2
:100DB0000E947B0802FF1DC001FD03C088E790E090
:100DC0000EC088E590E00BC0802F867891F001FF7F
:100DD00002C08BE201C080E2F7FC8DE290E0B3013B
:100DE0000E947B0806C080E390E0B3010E947B086C
:100DF0009A94E914C0F3EA94E1E0F0E0EC0FFD1FEF
:100E0000EE0DF11D808190E0B3010E947B08EE2081
:100E100091F706C080E290E0B3010E947B088A94BB
:100E20008820C1F797CCF30166817781CB01619669
:100E3000E2E10C942A53283008F027E03327DA0146
:100E4000990F311D87FD916000966105710539F498
:100E500032602E5F3D9330E32A95E1F708959F3F7E
:100E600030F080387105610509F03C5F3C5F3D93CF
:100E7000913008F08068911DDF93CF931F930F93FB
:100E8000FF92EF92192F987F9695E92F9695969558
:100E9000E90FFF27E45EFC4F99273327EE24FF2458
:100EA000A701E70105900894079428F4360FE71E80
:100EB000F81E491F511D660F771F881F991F069442
:100EC000A1F70590079428F4E70EF81E491F561F56
:100ED000C11D770F881F991F661F0694A1F7059003
:100EE000079428F4F80E491F561FC71FD11D880FFD
:100EF000991F661F771F0694A1F70590079420F4A9
:100F0000490F561FC71FD81F990F661F771F881FCD
:100F10000694A9F784911095177041F0D695C7955E
:100F200057954795F794E7941A95C1F7E2ECF2E0EC
:100F300068941590159135916591959105907FE292
:100F40007395E118F10A430B560BC90BD009C0F792
:100F5000E10CF11E431F561FC91FD01D7EF47033D4
:100F600011F48A95E6CFE894015030F0080F0AF4A6
:100F70000027021708F4202F2395022F7A3328F038
:100F800079E37D932A95E9F710C07D932A9589F638
:100F9000069497956795379517951794E118F10A78
:100FA000430B560BC90BD00998F023957E9173958E
:100FB0007A3308F070E37C932013B8F77E91706168
:100FC0007D9330F0839571E37D9370E32A95E1F78B
:100FD0001124EF90FF900F911F91CF91DF919927EE
:100FE00087FD90950895FC0105900020E9F7809514
:100FF00090958E0F9F1F0895FC01059061507040E1
:101000000110D8F7809590958E0F9F1F0895FB01D2
:10101000DC0102C001900D9241505040D8F7089574
:10102000DC0101C06D9341505040E0F70895FB0191
:10103000DC010D900020E9F7119701900D9200203E
:10104000E1F70895FB01DC0101900D920020E1F72A
:101050000895FB01DC010D900020E9F71197415044
:10106000504028F0019000200D92C9F708951C927D
:101070000895FB01DC014150504030F08D9101900A
:10108000801919F40020B9F7881B990B0895FB010A
:10109000DC014150504048F001900D920020C9F70A
:1010A00001C01D9241505040E0F70895FC0161508D
:1010B000704001900110D8F7809590958E0F9F1F7A
:1010C0000895FB0151915523A9F0BF01DC014D9119
:1010D00045174111E1F759F4CD010190002049F085
:1010E0004D9140154111C9F3FB014111EFCF81E052
:1010F00090E0019708950F931F93CF93DF938C0196
:10110000EB018B8181FF1BC082FF0DC02E813F81CF
:101110008C819D812817390764F4E881F981019356
:10112000F983E88306C0E885F985802F1995892B16
:1011300031F48E819F8101969F838E8302C00FEFD1
:101140001FEFC801DF91CF911F910F910895AEE07D
:10115000B0E0EDEAF8E00C941C530E891F8986E09C
:101160008C831A8309838FEF9FE79E838D839E0173
:10117000265E3F4FCE010196688D798DA9010E94B0
:1011800092032F813885020F131FF80110822E96CB
:10119000E4E00C943853AEE0B0E0E1EDF8E00C94FC
:1011A0001C538C0177FF02C060E070E86150704012
:1011B0007E836D831A83098386E08C83CE0101963A
:1011C000BA01A9010E9492032D813E8137FD09C019
:1011D000EF81F8852E173F070CF4F901E00FF11F9E
:1011E00010822E96E4E00C943853AEE0B0E0EBEFC2
:1011F000F8E00C941C538C0177FF02C060E070E8AB
:10120000615070407E836D831A8309838EE08C83E6
:10121000CE010196BA01A9010E9492032D813E815F
:1012200037FD09C0EF81F8852E173F070CF4F9014F
:10123000E00FF11F10822E96E4E00C943853FA016F
:10124000AA27283051F1203181F1E8946F936E7F05
:101250006E5F7F4F8F4F9F4FAF4FB1E03ED0B4E0F6
:101260003CD0670F781F891F9A1FA11D680F791F37
:101270008A1F911DA11D6A0F711D811D911DA11D48
:1012800020D009F468943F912AE0269F1124301958
:10129000305D3193DEF6CF010895462F4770405DF3
:1012A0004193B3E00FD0C9F7F6CF462F4F70405DA2
:1012B0004A3318F0495D31FD4052419302D0A9F7FD
:1012C000EACFB4E0A6959795879577956795BA95F7
:1012D000C9F700976105710508959B01AC010A2EBD
:1012E00006945795479537952795BA95C9F7620F94
:1012F000731F841F951FA01D0895A2E0B0E0E3E8CE
:10130000F9E00C94165381E090E040E855E260E08B
:1013100070E02FEF30E000E410E00E94341981E02B
:1013200090E06EEF0E941D1281E090E061E00E946B
:101330001D1281E090E06EEF0E941D1281E090E0AE
:1013400060E80E941D12EEEDFCE123E030E008C0F1
:101350008081D80E2E5F3F4F32962331310559F0F0
:101360002A303105ACF38081C80E2E5F3F4F329694
:1013700023313105A9F75E010894A11CB11CD501E8
:10138000E0E0F2E083E001900D928150E1F7F50199
:1013900001900020E9F7CF0100D000D0ADB7BEB773
:1013A00011960197EDB7FEB79283818303E012E0B7
:1013B00013961C930E9312978091B21C14968C93E3
:1013C000149715961C920E94A708F5010190002021
:1013D000E9F7319780E290E0918380838DB79EB7E3
:1013E00006960FB6F8949EBF0FBE8DBF81E090E0C9
:1013F000B5010E948A17D501E6E0F2E083E0019092
:101400000D928150E1F7F50101900020E9F7CF013D
:1014100000D000D0ADB7BEB711960197EDB7FEB7BB
:101420009283818313961C930E9312978091B41C20
:1014300014968C93149715961C920E94A7088DB74A
:101440009EB706960FB6F8949EBF0FBE8DBF81E083
:1014500090E0B5010E948A1781E090E06EEF0E9453
:101460001D1281E090E060EC0E941D12D501E9E0C0
:10147000F2E083E001900D928150E1F7F5010190D7
:101480000020E9F7CF0100D000D0ADB7BEB711966C
:101490000197EDB7FEB7928381830CE012E01396BB
:1014A0001C930E9312978091DC1C14968C931497C6
:1014B00015961C920E94A708F50101900020E9F7FB
:1014C000319780E2E82EF12CF182E0828DB79EB751
:1014D00006960FB6F8949EBF0FBE8DBF81E090E0D8
:1014E000B5010E948A1781E492E5AAE3B0E08983FE
:1014F0009A83AB83BC83F50101900020E9F7CF010B
:1015000000D000D0ADB7BEB711960197EDB7FEB7CA
:101510009283818313961C930E931297D694D6943C
:101520001496DC92149715961C920E94A708F50158
:1015300001900020E9F73197F182E0828DB79EB7E4
:1015400006960FB6F8949EBF0FBE8DBF81E090E067
:10155000B5010E948A1781E49CE4AAE3B0E0898384
:101560009A83AB83BC83F50101900020E9F7CF019A
:1015700000D000D0ADB7BEB711960197EDB7FEB75A
:101580009283818313961C930E931297C694C694EC
:101590001496CC92149715961C920E94A7088DB7AA
:1015A0009EB706960FB6F8949EBF0FBE8DBF81E022
:1015B00090E0B5010E948A172296EAE00C9432531B
:1015C000813099F08230F9F0833059F16D9A6B9A3D
:1015D0008091010188608093010180910201877FE1
:1015E0008093020175987398089580910101877F17
:1015F000809301016D9A739A8091020188608093B3
:1016000002017598089580910101877F80930101FF
:101610006B9A759A80910201886080930201739899
:1016200008956D986B988091010188608093010105
:10163000739A759A80910201877F809302010895C1
:10164000CF93DF936091B71C7091B81C81E090E05C
:101650000E94E90F019709F448C0C091B71CD091CE
:10166000B81C80E090E0BE010E94E90F0197D1F51F
:101670006091B91C7091BA1C6F5F7F4F7093BA1C58
:101680006093B91C882777FD8095982F0E94B751E9
:1016900021E73DE34AE05FE30E9443520E94895103
:1016A0007093B51C6093B41CE091B71CF091B81C0A
:1016B000608170E0882777FD8095982F0E94B75150
:1016C00020E030E04AEF54E40E9421519B01AC013C
:1016D00061E77DE38AE09FE30E9421510E948951E6
:1016E0006093B21CDF91CF9108956091B91C709105
:1016F000BA1C6F5F7F4F7093BA1C6093B91C882728
:1017000077FD8095982F0E94B75121E73DE34AE08D
:101710005FE30E9443520E9489517093B51C60930D
:10172000B41CC091B71CD091B81C688170E08827A8
:1017300077FD8095982F0E94B75120E030E04AEF66
:1017400054E40E9421519B01AC0161E77DE38AE0F2
:101750009FE30E9421510E9489516093B21C81CF66
:1017600080E00E94E00A81E090E00E946A0F80E041
:1017700090E00E946A0F81E08093B31C089510925C
:10178000B31C81E00E94E00A81E090E00E94080F13
:1017900081E090E068EB7BE00E94B90F80E090E090
:1017A0000E94080F80E090E068EB7BE00E94B90F98
:1017B00008951092B31C81E00E94E00A81E090E05D
:1017C0000E94080F81E090E060ED77E00E94B90F81
:1017D00080E090E00E94080F80E090E060ED77E00C
:1017E0000E94B90F08951092B31C83E00E94E00A92
:1017F00081E090E00E94080F81E090E060ED77E0EA
:101800000E94B90F80E090E00E94080F80E090E015
:1018100068EB7BE00E94B90F08951092B31C82E040
:101820000E94E00A81E090E00E94080F81E090E0D1
:1018300068EB7BE00E94B90F80E090E00E94080F07
:1018400080E090E060ED77E00E94B90F089520916C
:10185000F40930E08091B61C9091B71C281B390B1D
:10186000C9010895A2E1B0E0E8E3FCE00C941A534A
:101870007E010894E11CF11CD701E6E9F9E082E160
:1018800001900D928150E1F700E010E00AC08093D2
:10189000B61C1092B71C0E5F1F4F0231110509F4E0
:1018A00056C0C701800F911F62E070E00E948D2E2C
:1018B0008FE099E062E070E00E948D2EC8018552B1
:1018C000934E62E070E00E94D82E2091DE1C809141
:1018D000DC1C90E0820F911D2091E01C820F911D75
:1018E0002091E21C820F911D2091E41C820F911D1A
:1018F0002091E61C820F911D2091E81C820F911D02
:101900002091EA1C820F911D2091EC1C820F911DE9
:1019100069E070E00E94D952862F6093F4096091CB
:10192000B61C7091B71C6115710509F4B0CF680F32
:10193000711D77FD10C0759567957093B71C609306
:10194000B61C0E5F1F4F0231110509F0AACF629637
:10195000E6E00C9436536F5F7F4FEDCFA2E0B0E02E
:10196000E4EBFCE00C9416530E9479110E94BE3700
:101970009A83898382E090E00E94080F01EE1AE0CA
:1019800022E0E22EF12C6E010894C11CD11CAA2485
:10199000AA94BA2C8091B31C882321F582E090E0B0
:1019A000B8010E94B90F8AE0013E180709F441C04E
:1019B0000E0D1F1D82E1013C180700F584E00C3478
:1019C000180758F10E0D1F1D82E090E0B8010E942B
:1019D000B90FC60161E070E00E940E4C8091B31C0B
:1019E0008823E1F282E090E061EE7AE00E94B90F94
:1019F000C6016CE070E00E940E4CCCCF0E94270C18
:101A0000049734F081E090E09093F6098093F50913
:101A10009EEFE92E9FEFF92ED5CF0E94270C049759
:101A200024F0B092F609A092F50982E0E82EF12C9C
:101A3000C9CF0E94270C049724F01092F609109247
:101A4000F509C6016CE070E00E940E4CB1CF7894AD
:101A500084B5826084BD84B5816084BD85B58260B3
:101A600085BD85B5816085BDEEE6F0E08081816051
:101A700080831092FF09EBEFF9E01082118212824D
:101A80001382129212921292129208959FB7F894B2
:101A90002091F7093091F8094091F9095091FA091C
:101AA00086B5A89B06C08F3F21F02F5F3F4F4F4F59
:101AB0005F4F9FBF542F432F322F2227280F311DF6
:101AC000411D511D220F331F441F551F220F331F6D
:101AD000441F551FB901CA0108958FB7F89420918A
:101AE000FB093091FC094091FD095091FE098FBF1F
:101AF000B901CA010895EF92FF920F931F937B01E2
:101B00008C012FB7F8948091F7099091F809A09172
:101B1000F909B091FA0936B5A89B05C03F3F19F005
:101B20000196A11DB11D2FBFE114F104010511059E
:101B300009F446C0BA2FA92F982F8827830F911D2B
:101B4000A11DB11D880F991FAA1FBB1F880F991FC8
:101B5000AA1FBB1FAC013FB7F8948091F709909181
:101B6000F809A091F909B091FA0926B5A89B05C01A
:101B70002F3F19F00196A11DB11D3FBFBA2FA92F0C
:101B8000982F8827820F911DA11DB11D880F991FC5
:101B9000AA1FBB1F880F991FAA1FBB1F841B950B71
:101BA000885E9340C0F20894E108F1080109110928
:101BB000E114F1040105110519F048515C4FCBCF38
:101BC0001F910F91FF90EF9008951F920F920FB603
:101BD0000F9211242F933F938F939F93AF93BF93B3
:101BE0008091FB099091FC09A091FD09B091FE093B
:101BF0003091FF090196A11DB11D232F2D5F2D37B7
:101C000020F02D570196A11DB11D2093FF0980934F
:101C1000FB099093FC09A093FD09B093FE09809104
:101C2000F7099091F809A091F909B091FA09019684
:101C3000A11DB11D8093F7099093F809A093F909AC
:101C4000B093FA09BF91AF919F918F913F912F91DE
:101C50000F900FBE0F901F901895FFCFAF92BF92BD
:101C6000CF92DF92EF92FF920F931F93789481E0CF
:101C700090E040E052EC61E070E02FEF30E000E4F3
:101C800010E00E9434199093EE1C8093ED1C82E0CA
:101C900090E040E855E260E070E02FEF30E00E9415
:101CA000341980E090E040E052EC61E070E02FEF0A
:101CB00030E00E94341982E090E040E855E260E0B4
:101CC00070E020E030E0E12CE2ECFE2EE1E00E2FAF
:101CD000112D0E94BE278FE092E00E940E280E94E4
:101CE000AF2584E192E065E272E040E050E00E94BE
:101CF000102986E46BE372E00E9487280E944C253D
:101D000082EA9EE060E070E040E054E020E030E0F5
:101D100003E0EE24FF24CC24DD24AA24BB240E946B
:101D2000194E80EC90E00E94E12F0E941E4F80E04F
:101D300090E01F910F91FF90EF90DF90CF90BF90B8
:101D4000AF900895A2E0B0E0E8EAFEE00C941C53E6
:101D50000E94BE379A8389838E010F5F1F4F0E94B6
:101D6000BB2A0E94D11AC8016EEB7AE00E940E4C89
:101D7000F6CFA2E0B0E0EFEBFEE00C941C530E9423
:101D8000BE379A8389838E010F5F1F4F0E94200BFD
:101D9000C80164EF71E00E940E4C0E94200BC80144
:101DA00064EF71E00E940E4C0E94200BC80164EFAA
:101DB00071E00E940E4C0E94200BC80164EF71E09C
:101DC0000E940E4C0E94200BC80168EE73E00E9436
:101DD0000E4CDCCFA2E0B0E0E0EFFEE00C941C5330
:101DE0000E94BE379A8389838E010F5F1F4F80E068
:101DF0000E94320CC80162E370E00E940E4C80E049
:101E00000E947D09C80168EC70E00E940E4CEFCF83
:101E10009C01DC01AA0FBB1FAC01440F551F440FEE
:101E2000551F440F551FFD01E40FF51FEA52F64FF1
:101E30000190F081E02D808191818C5494408557F0
:101E40009E4020F080E59AE091838083F901EE0FB7
:101E5000FF1FEE0FFF1FE20FF31FEE0FFF1FE852F1
:101E6000F64F0190F081E02DA40FB51FAA52B64F96
:101E700014964D915C911597208181E090E0169623
:101E80000C90169702C0880F991F0A94E2F7282B2E
:101E90002083FA0120818095822380831896ED911A
:101EA000FC9119970084F185E02D20811796AC9163
:101EB000A13069F0A13030F480E89FEB822B8923B8
:101EC00080830895A230E9F788E09BEFF7CF80E2A6
:101ED0009FEEF4CFCF93DF93FC01EE0FFF1FEE0FC9
:101EE000FF1FE80FF91FEE0FFF1FE852F64F40816A
:101EF0005181DC01AA0FBB1FAA0FBB1FAA0FBB1F7A
:101F0000880F991FA80FB91FAA52B64F1496ED91CA
:101F1000FC911597EA01288181E090E016960C90DB
:101F2000169702C0880F991F0A94E2F7282B28837E
:101F300020818095822380831896ED91FC911997DA
:101F40000084F185E02D908117968C91813069F0A5
:101F5000813030F48FE389238083DF91CF9108951E
:101F6000823029F0DF91CF9108958FECF4CF83EF89
:101F7000F2CF9C01CB018C54944085579E4098F43D
:101F8000C901F901EE0FFF1FEE0FFF1FEE0FFF1F3C
:101F9000880F991FE80FF91FEA52F64F0190F08160
:101FA000E02D7183608308959C01FC01EE0FFF1FFB
:101FB000EE0FFF1FEE0FFF1F220F331FE20FF31F65
:101FC000EA52F64F0190F081E02D20813181C90164
:101FD0000895CF93DF93DC01EB01F894FC01EE0F41
:101FE000FF1FEC5EF54F80819181019739F020E071
:101FF00030E07894C901DF91CF910895AA0FBB1FFB
:10200000AA0FBB1FA45FB54F8D919D910D90BC9100
:10201000A02D88839983AA83BB831182108221E03B
:1020200030E07894C901DF91CF9108951F920F920B
:102030000FB60F9211248F939F93AF93BF9380910C
:10204000000A9091010AA091020AB091030A019638
:10205000A11DB11D8093000A9093010AA093020A6A
:10206000B093030ABF91AF919F918F910F900FBED4
:102070000F901F9018951F920F920FB60F92112478
:102080008F939F93AF93BF938091040A9091050A19
:10209000A091060AB091070A0196A11DB11D809377
:1020A000040A9093050AA093060AB093070ABF9109
:1020B000AF919F918F910F900FBE0F901F90189529
:1020C0001F920F920FB60F920BB60F921124EF9240
:1020D000FF920F931F932F933F934F935F936F93B1
:1020E0007F938F939F93AF93BF93CF93DF93EF93A0
:1020F000FF93E091B609F091B709808180628083F7
:10210000E091BC09F091BD09C081D1812091000A04
:102110003091010A4091020A5091030A1092000A7C
:102120001092010A1092020A1092030A2115310539
:102130004105510509F444C08091080A9091090AAB
:102140007E0100E010E0A0E0B0E0E81AF90A0A0B16
:102150001B0BCA01B9012FE33CE940E050E00E94AB
:10216000A652E60EF71E081F191FE0920C0AF09205
:102170000D0A00930E0A10930F0A81E090E09093ED
:10218000150A8093140AD093090AC093080AFF9194
:10219000EF91DF91CF91BF91AF919F918F917F91FF
:1021A0006F915F914F913F912F911F910F91FF90F0
:1021B000EF900F900BBE0F900FBE0F901F901895D1
:1021C0008091080A9091090A9E01281B390B790118
:1021D00000E010E0CACF1F920F920FB60F920BB61D
:1021E0000F921124EF92FF920F931F932F933F931F
:1021F0004F935F936F937F938F939F93AF93BF930F
:10220000CF93DF93EF93FF93A091B409B091B509F9
:10221000ED91FC9111978081806280831696ED91FB
:10222000FC911797C081D1812091040A3091050A51
:102230004091060A5091070A1092040A1092050A6A
:102240001092060A1092070A211531054105510521
:1022500009F444C080910A0A90910B0A7E0100E0C3
:1022600010E0A0E0B0E0E81AF90A0A0B1B0BCA0163
:10227000B9012FE33CE940E050E00E94A652E60E8F
:10228000F71E081F191FE092100AF092110A00931E
:10229000120A1093130A81E090E09093170A80933A
:1022A000160AD0930B0AC0930A0AFF91EF91DF91AF
:1022B000CF91BF91AF919F918F917F916F915F91DE
:1022C0004F913F912F911F910F91FF90EF900F90A1
:1022D0000BBE0F900FBE0F901F90189580910A0AA9
:1022E00090910B0A9E01281B390B790100E010E048
:1022F000CACF8091A0008F738093A0008091A0002E
:102300008F7C8093A0008091A000837F8093A000A9
:102310008091A0009091A100836098618093A000BB
:102320009093A1008091A10082608A7F8093A10098
:102330002EE33CE93093A9002093A800809120016E
:102340008F7380932001809120018F7C80932001E6
:1023500080912001837F80932001809120019091C2
:1023600021018360986180932001909321018091E5
:10237000210182608A7F809321013093290120937B
:1023800028011092090A1092080A1092000A10926D
:10239000010A1092020A1092030A80910A018E7FAC
:1023A00080930A0180910B018E7F80930B01E09155
:1023B000B809F091B9098081806280838081816051
:1023C0008083E091C009F091C1098081806480839D
:1023D00010920B0A10920A0A1092040A1092050A2F
:1023E0001092060A1092070A80910A018D7F80934D
:1023F0000A0180910B018D7F80930B01A091B4099C
:10240000B091B5091296ED91FC911397808180628D
:1024100080831296ED91FC91139780818160808377
:102420001A96ED91FC911B978081806480830895BA
:102430009093190A8093180A08959C01FC01EE0FED
:10244000FF1FEE0FFF1FE80FF91FEE0FFF1FED5EDE
:10245000F64F0190F081E02D808185FD07C095E861
:10246000892F8A95F1F7808185FFFACFF901EE0F68
:10247000FF1FEE0FFF1FEE0FFF1F220F331FE20F94
:10248000F31FEF5EF64F0190F081E02D6083089519
:10249000AC01FC01EE0FFF1FEE0FFF1FE80FF91F4D
:1024A000EE0FFF1FED5EF64F0190F081E02D808171
:1024B00087FD07C025E8822F8A95F1F7808187FF85
:1024C000FACF80818C7191F4FA01EE0FFF1FEE0FAD
:1024D000FF1FEE0FFF1F440F551FE40FF51FEF5EA8
:1024E000F64F0190F081E02D808108958FEF0895DF
:1024F0009C01FC01EE0FFF1FEE0FFF1FE80FF91FFD
:10250000EE0FFF1FED5EF64FA081B1818C91882305
:10251000CCF5A901440F551FF901EE0FFF1FEE0F77
:10252000FF1FEE0FFF1FE40FF51FEF5EF64F019048
:10253000F081E02D80818C9187FDFCCF0FB6F8945F
:102540000F92CA01820F931FFC01EE0FFF1FEE0FC7
:10255000FF1FE80FF91FEE0FFF1FDF01A151B34E60
:1025600011961C921E92EF50F34E16968D919C91EF
:1025700017979183808315969C938E9314970F9051
:102580000FBE0895A901440F551FD8CF0FB6F89478
:102590000F92FC01EE0FFF1FE80FF91FCF01880F0C
:1025A000991F880F991FE80FF91FEE0FFF1FE151C8
:1025B000F34E208131810F900FBEC9010895CF9352
:1025C000DF939C01DB010FB6F8940F92AC01440F2E
:1025D000551FFA01E80FF91FCF01880F991F880FC7
:1025E000991FE80FF91FEE0FFF1FE151F34E808195
:1025F00091810F900FBE892B41F1CA01820F931F69
:102600009C01220F331F220F331F820F931F880F4D
:10261000991F8151934EEC01EC81FD8121910FB600
:10262000F8940F92FD83EC8388859985E817F90764
:1026300081F0888199810197998388830F900FBEDB
:102640002C9381E0DF91CF91089580E0DF91CF91CD
:1026500008958E819F819D838C83EBCFCF93DF93F1
:10266000DC010FB6F8940F92FC01EE0FFF1FE80F8C
:10267000F91FCF01880F991F880F991FE80FF91FC5
:10268000EE0FFF1FE151F34EC485D5850F900FBEAD
:10269000AD01440F551FCA018A0F9B1F9C01220FD9
:1026A000331F220F331F280F391F220F331FF90149
:1026B000E151F34E86899789C817D90791F1C9016D
:1026C0008550934EEC01EA81FB8160830FB6F8944C
:1026D0000F928A819B8101969B838A832885398505
:1026E0008217930709F44EC08881998101969983D6
:1026F00088830F900FBE91E0AA0FBB1FAA0FBB1FCC
:10270000AA0FBB1FA40FB51FAF5EB64F1496ED9175
:10271000FC911597808180628083892FDF91CF9112
:10272000089585E8982F9A95F1F7982F9A95F1F7E3
:10273000982F9A95F1F78A95F1F70FB6F8940F92C2
:10274000FA01EA0FFB1FCF01880F991F880F991F0D
:10275000E80FF91FEE0FFF1FE151F34E84859585B9
:102760000F900FBEC817D90791F0CA018A0F9B1F9F
:102770009C01220F331F220F331F820F931F880FDC
:10278000991F9ECF8E819F819B838A83ADCF90E0DE
:10279000B3CFFC01EE0FFF1FEE0FFF1FE80FF91F75
:1027A000EE0FFF1FED5EF64F0190F081E02D80816E
:1027B00080780895FC01EE0FFF1FEE0FFF1FE80F5A
:1027C000F91FEE0FFF1FED5EF64F0190F081E02D37
:1027D0008081807208959C01FC01EE0FFF1FEE0FB7
:1027E000FF1FEE0FFF1F220F331FE20FF31FEF5EDD
:1027F000F64F0480F581E02D80818062808308950A
:102800009C01FC01EE0FFF1FEE0FFF1FEE0FFF1FDD
:10281000220F331FE20FF31FEF5EF64F0480F581A6
:10282000E02D80818F7D80830895CF93DF93AC016D
:10283000FC01EE0FFF1FEE0FFF1FE80FF91FEE0F59
:10284000FF1FED5EF64F0190F081E02D80818C71CD
:1028500009F056C0FA01EE0FFF1FCA01880F991F39
:10286000880F991F880F991FE80FF91FEF5EF64F29
:102870000190F081E02D60810FB6F8940F92FA017B
:10288000EE0FFF1FE40FF51FCF01880F991F880F70
:10289000991FE80FF91FEE0FFF1FE151F34E208142
:1028A00031810F900FBECA01880F991F840F951FA9
:1028B000FC01EE0FFF1FEE0FFF1FE80FF91FEE0FD9
:1028C000FF1FE151F34E8285938528173907C1F028
:1028D000EF01EA81FB8160830FB6F8940F928A8141
:1028E0009B8101969B838A8328853985821793076C
:1028F00051F0888199810196998388830F900FBE4A
:10290000DF91CF9108958E819F819B838A83F1CF40
:102910001F920F920FB60F920BB60F9211242F93A6
:102920003F934F935F936F937F938F939F93AF9357
:10293000BF93EF93FF9383E090E00E941514FF9103
:10294000EF91BF91AF919F918F917F916F915F9127
:102950004F913F912F910F900BBE0F900FBE0F9094
:102960001F9018951F920F920FB60F920BB60F92F1
:1029700011242F933F934F935F936F937F938F9384
:102980009F93AF93BF93EF93FF9382E090E00E94F9
:102990001514FF91EF91BF91AF919F918F917F910E
:1029A0006F915F914F913F912F910F900BBE0F90C0
:1029B0000FBE0F901F9018951F920F920FB60F9297
:1029C0000BB60F9211242F933F934F935F936F9306
:1029D0007F938F939F93AF93BF93EF93FF9381E088
:1029E00090E00E941514FF91EF91BF91AF919F91DC
:1029F0008F917F916F915F914F913F912F910F90A8
:102A00000BBE0F900FBE0F901F9018951F920F9244
:102A10000FB60F920BB60F9211242F933F934F9343
:102A20005F936F937F938F939F93AF93BF93EF9336
:102A3000FF9380E090E00E941514FF91EF91BF9109
:102A4000AF919F918F917F916F915F914F913F9146
:102A50002F910F900BBE0F900FBE0F901F901895E7
:102A6000CF93DF93DC010FB6F8940F929C01220FF5
:102A7000331FF901E80FF91FCF01880F991F880F45
:102A8000991FE80FF91FEE0FFF1FE151F34E8485E8
:102A900095850F900FBE892BA9F1FD01EE0FFF1F49
:102AA000EE0FFF1FEE0FFF1FE20FF31FEF5EF64F5B
:102AB00040815181C9018A0F9B1F9C01220F331F46
:102AC000220F331F820F931F880F991F8550934E3B
:102AD000EC01EC81FD8121910FB6F8940F92FD83FA
:102AE000EC8388859985E817F90701F18881998138
:102AF0000197998388830F900FBEFA012083DF919D
:102B0000CF910895AA0FBB1FAA0FBB1FAA0FBB1F0F
:102B1000A20FB31FAF5EB64F1496ED91FC911597BF
:102B200080818F7D8083DF91CF9108958E819F81F9
:102B30009D838C83DBCF1F920F920FB60F920BB643
:102B40000F9211242F933F934F935F936F937F9333
:102B50008F939F93AF93BF93EF93FF9383E090E0A6
:102B60000E943015FF91EF91BF91AF919F918F918E
:102B70007F916F915F914F913F912F910F900BBE7D
:102B80000F900FBE0F901F9018951F920F920FB6C7
:102B90000F920BB60F9211242F933F934F935F9395
:102BA0006F937F938F939F93AF93BF93EF93FF9315
:102BB00082E090E00E943015FF91EF91BF91AF91BC
:102BC0009F918F917F916F915F914F913F912F9145
:102BD0000F900BBE0F900FBE0F901F9018951F9275
:102BE0000F920FB60F920BB60F9211242F933F93B3
:102BF0004F935F936F937F938F939F93AF93BF9305
:102C0000EF93FF9381E090E00E943015FF91EF91E8
:102C1000BF91AF919F918F917F916F915F914F91F4
:102C20003F912F910F900BBE0F900FBE0F901F90F2
:102C300018951F920F920FB60F920BB60F92112498
:102C40002F933F934F935F936F937F938F939F93B4
:102C5000AF93BF93EF93FF9380E090E00E94301515
:102C6000FF91EF91BF91AF919F918F917F916F9164
:102C70005F914F913F912F910F900BBE0F900FBE20
:102C80000F901F901895A0E0B0E0E9E4F6E10C94F5
:102C900018536C017B01CB010E94F3078C01009754
:102CA00071F0C0E0D0E0F701EC0FFD1F2196E49138
:102CB000C6016E2F0E942E13C017D107A0F3CDB707
:102CC000DEB7E8E00C943453BC018091180A90916F
:102CD000190A0E9443160895EF92FF920F931F93D3
:102CE000CF93DF938C017B01CB010E94F307BC01E2
:102CF000009799F120E030E0D801AA0FBB1FAA0F7E
:102D0000BB1FE801CC0FDD1FCC0FDD1FCC0FDD1F7B
:102D1000A00FB11FAA0FBB1FAD5EB64F45E8000F55
:102D2000111FC00FD11FCF5ED64FF701E20FF31F67
:102D30002F5F3F4F5491ED91FC911197808185FD5C
:102D400006C0842F8A95F1F7808185FFFACFE8814C
:102D5000F98150832617370740F3CDB7DEB7E6E099
:102D60000C943653BC018091180A9091190A0E9464
:102D70006C160895A0E0B0E0E0ECF6E10C94185376
:102D80006C017B01DB010D900020E9F78D01015002
:102D90001040061B170B79F0C0E0D0E0E0E0F0E057
:102DA0002196EE0DFF1DC60160810E942E13FE01CB
:102DB000C017D107A8F3CDB7DEB7E8E00C943453C1
:102DC000A0E0B0E0E6EEF6E10C9416537C016B0156
:102DD0005A018C01000F111FC8018E0D9F1DFC01AF
:102DE000EE0FFF1FEE0FFF1FE80FF91FEE0FFF1F83
:102DF000E151F34E9F01245E3F4F848D958D0197E5
:102E000039F4E9010E94F22D888199810197D1F36B
:102E1000C8018E0D9F1D8C01000F111F000F111F87
:102E2000080F191F000F111F0151134E81E090E090
:102E3000F801958F848F628D738D808D918DA601A1
:102E400095010E94F508F801608D718DC7010E94FF
:102E5000BA16F801158E148ECDB7DEB7EAE00C94E1
:102E60003253A0E0B0E0E7E3F7E10C9416537C01A5
:102E70006B015A018C01000F111FC8018E0D9F1D9F
:102E8000FC01EE0FFF1FEE0FFF1FE80FF91FEE0F03
:102E9000FF1FE151F34E9F01245E3F4F848D958DBE
:102EA000019739F4E9010E94F22D888199810197F7
:102EB000D1F3C8018E0D9F1D8C01000F111F000F53
:102EC000111F080F191F000F111F0151134E81E030
:102ED00090E0F801958F848F628D738D808D918D38
:102EE000A60195010E94CB08F801608D718DC70184
:102EF0000E94BA16F801158E148ECDB7DEB7EAE03F
:102F00000C943253BC018091180A9091190A0E94C6
:102F1000BA1608950F931F93CF93DF938B01DB01B4
:102F20000D900020E9F7BD0161507040601B710BEE
:102F300099F120E030E0DC01AA0FBB1FAA0FBB1FF4
:102F4000EC01CC0FDD1FCC0FDD1FCC0FDD1FA80F58
:102F5000B91FAA0FBB1FAD5EB64F45E8880F991F7A
:102F6000C80FD91FCF5ED64FF801E20FF31F908133
:102F70002F5F3F4FED91FC911197808185FD06C039
:102F8000842F8A95F1F7808185FFFACFE881F98156
:102F900090832617370740F3DF91CF911F910F9150
:102FA00008950F931F93CF93DF938C01FB019A0138
:102FB000880F991F800F911FEC01CC0FDD1FCC0FE4
:102FC000DD1FC80FD91FCC0FDD1FC151D34E8C8D13
:102FD0009D8D019741F495E8892F8A95F1F7892F06
:102FE0008A95F1F7F9CF81E090E09D8F8C8F6A8D03
:102FF0007B8D888D998DAF010E94F508688D798D44
:10300000C8010E948A171D8E1C8EDF91CF911F91DF
:103010000F910895CF93DF93FB01DA019C01220FFA
:10302000331F280F391FE901CC0FDD1FCC0FDD1F27
:10303000C20FD31FCC0FDD1FC151D34E8C8D9D8D80
:10304000019741F495E8892F8A95F1F7892F8A95A0
:10305000F1F7F9CF81E090E09D8F8C8F6A8D7B8DA9
:10306000888D998DAF019D010E94CB08688D798D67
:103070008091180A9091190A0E948A171D8E1C8E41
:10308000DF91CF910895BC018091180A9091190A9F
:103090000E948A170895A0E0B0E0E1E5F8E10C9401
:1030A0001E539E01265F3F4F8E819F8168857985E3
:1030B000A9010E94E0162096E2E00C943A53A0E0A9
:1030C000B0E0E5E6F8E10C941E539E01265F3F4F09
:1030D0008E819F8168857985A9010E94311720968C
:1030E000E2E00C943A53A0E0B0E0E9E7F8E10C9498
:1030F0001E53FE013696619171918091180A90914C
:10310000190AAF010E94E0162096E2E00C943A53AF
:10311000A0E0B0E0EEE8F8E10C941E53FE01369614
:10312000619171918091180A9091190AAF010E94E2
:1031300031172096E2E00C943A53A0E0B0E0E3EAC5
:10314000F8E10C941E539E01265F3F4F8E819F81B4
:1031500068857985A9010E94D1172096E2E00C9438
:103160003A53A0E0B0E0E7EBF8E10C941E539E0167
:10317000265F3F4F8E819F8168857985A9010E94D6
:103180000A182096E2E00C943A53A0E0B0E0EBEC91
:10319000F8E10C941E53FE01369661917191809175
:1031A000180A9091190AAF010E94D1172096E2E007
:1031B0000C943A53A0E0B0E0E0EEF8E10C941E531A
:1031C000FE013696619171918091180A9091190AC9
:1031D000AF010E940A182096E2E00C943A53EF9255
:1031E000FF920F931F937C01880F991F8E0D9F1DD7
:1031F0008C01000F111F000F111F080F191F000F66
:10320000111F0151134EF801808D918D0E944430A1
:10321000F801868197810E944430F8018289938960
:103220000E9444300FB6F8940F92F701EE0FFF1F83
:10323000EE0FFF1FEE0FFF1FEE0CFF1CEE0DFF1D2C
:10324000EF5EF64FA481B5818C918F7D8C930480C5
:10325000F581E02D80818F7780830F900FBE1F91C5
:103260000F91FF90EF900895A0E0B0E0EAE3F9E15C
:103270000C941453EC015A016B017901C8010E94AE
:10328000B7309C01009709F4C1C04E01880C991C0D
:10329000F401EC0FFD1FCF01880F991F880F991FB4
:1032A000E80FF91FEE0FFF1FE151F34E0FB6F89430
:1032B0000F921182108222833383248335833783D4
:1032C0002683200F311F31872087138702870F90B5
:1032D0000FBEC7010E94B7309C01009709F1F401AD
:1032E000EC0FFD1FCF01880F991F880F991FE80F62
:1032F000F91FEE0FFF1FE550F34E0FB6F8940F9233
:10330000118210822283338324833583378326837B
:103310002E0D3F1D31872087F386E2860F900FBE6A
:10332000C7010E94B7309C01C4018C0F9D1FFC0196
:10333000EE0FFF1FEE0FFF1FE80FF91FEE0FFF1F2D
:10334000E151F34E208F318FF38EE28E158E148E65
:103350000FB6F8940F928E01000F111FCE01880F47
:10336000991F880F991F880F991F080F191F0F5E4B
:10337000164FD8011896ED90FC901997C601B5012B
:103380006050774F824C9F4F660F771F881F991FA1
:10339000660F771F881F991FAA0CBB1CCC1CDD1C55
:1033A000AA0CBB1CCC1CDD1CAA0CBB1CCC1CDD1C41
:1033B000A60195010E94EC5221503040F701318363
:1033C0002083FE01EE0FFF1FEE0FFF1FEC0FFD1F0E
:1033D000EE0FFF1FED5EF64F0190F081E02D82E0D1
:1033E0008083D8011496ED91FC91159788E980832C
:1033F0001696ED91FC91179786E080830F900FBE93
:10340000CE01CDB7DEB7ECE00C9430534E01880C02
:10341000991C5FCFEF92FF920F931F939093941D8F
:103420008093931D4093951D5093961D6093971D17
:103430007093981D30938E1D20938D1DE0928F1DEB
:10344000F092901D0093911D1093921D1F910F916A
:10345000FF90EF900895843080F490E0FC01EE0F2F
:10346000FF1FEE0FFF1FEE0FFF1FE80FF91FE357BF
:10347000F24E24A535A5C90108952FEF30E0C9010A
:103480000895282F8430D0F490E0FC01EE0FFF1F48
:10349000EE0FFF1FEE0FFF1FE80FF91FE357F24E6D
:1034A00084A595A50197039748F42093DE1D84A970
:1034B0008093DF1D21E030E0C901089520E030E075
:1034C000C90108958091DE1D089590E0FC01EE0F82
:1034D000FF1FEE0FFF1FEE0FFF1FE80FF91FE3574F
:1034E000F24E86A597A5089590E0FC01EE0FFF1F10
:1034F000EE0FFF1FEE0FFF1FE80FF91FE357F24E0D
:1035000082A993A9089520E030E09091DD1D9817DD
:1035100011F0C901089521E030E0C90108958093B8
:10352000DE1D90E0FC01EE0FFF1FEE0FFF1FEE0F00
:10353000FF1FE80FF91FE357F24E77A766A753ABBB
:1035400042AB81E090E095A784A708953091DD1DFE
:10355000E9EBFDE120E080819181039731F02F5F5D
:1035600039962430C1F78FEF08953330C1F7822F99
:10357000089520E030E090E0FC01EE0FFF1FEE0F19
:10358000FF1FEE0FFF1FE80FF91FE357F24E84A550
:1035900095A5039711F0C901089521E030E0C90114
:1035A000089580911B0AE091E41DF091E51DE80F5C
:1035B000F11D908180E2808380911B0A8F5F809350
:1035C0001B0A8A3010F010921B0A892F0895982F39
:1035D00080538A3048F08151863038F0892F8156E7
:1035E000863028F4892F87550895865F089580E0F6
:1035F0000895982F8A3040F08A50863018F4892F29
:10360000895C089580E30895805D089580E590E0E9
:103610009093E71D8093E61D86E08093E81D80E08F
:1036200090E063E472E00E94BA160895A2E8B0E068
:10363000ECE1FBE10C941C539C011BAA1CAA1DAAE3
:103640001EAAFE01F7968CE4DF011D928A95E9F728
:103650008091BE029091BF029A838983FE013396C6
:1036600080E3DF011D928A95E9F72130310509F4E5
:1036700048C021303105C8F12230310509F44DC070
:103680009E012F5F3F4FD901E3E6F2E084E1019014
:103690000D928150E1F700D000D0EDB7FEB7319622
:1036A0008E010D5C1F4FADB7BEB712961C930E93E3
:1036B000119786EA92E093838283358324830E9464
:1036C000A7088DB79EB706960FB6F8949EBF0FBE9B
:1036D0008DBF80918D1D90918E1DB8010E94BA16EC
:1036E000CE57DF4FE4E00C9438539E012F5F3F4FDD
:1036F000D901E3E6F2E084E101900D928150E1F717
:10370000CACF9E012F5F3F4FD901E7E7F2E088E182
:1037100001900D928150E1F7BECF9E012F5F3F4F88
:10372000D901EFE8F2E087E101900D928150E1F7D5
:10373000B2CFA2E8B0E0EFE9FBE10C941C53482FB4
:103740001BAA1CAA1DAA1EAAFE01F7968CE4DF0183
:103750001D928A95E9F78091BE029091BF029A83EB
:103760008983FE01339680E3DF011D928A95E9F794
:103770006130710509F45BC06130710508F44BC01C
:103780006230710509F45FC09E012F5F3F4FD90180
:10379000E0E0F3E086E101900D928150E1F7EDB7B2
:1037A000FEB738970FB6F894FEBF0FBEEDBFADB7AA
:1037B000BEB711968E010D5C1F4F1283018386E107
:1037C00093E013969C938E931297E42FF0E0EE0F04
:1037D000FF1FE75CF64F8081918115969C938E9335
:1037E000149717963C932E9316970E94A7088DB7AF
:1037F0009EB708960FB6F8949EBF0FBE8DBF8091FE
:103800008D1D90918E1DB8010E94BA16CE57DF4FC4
:10381000E4E00C9438539E012F5F3F4FD901E0EF55
:10382000F2E087E001900D928150E1F7B8CF9E0160
:103830002F5F3F4FD901E7EFF2E089E001900D9251
:103840008150E1F7ACCF9E012F5F3F4FD901E0E0FF
:10385000F3E086E101900D928150E1F7A0CFA0E85E
:10386000B0E0E5E3FCE10C941453282F843008F019
:103870009FC0A82EBB244501880C991C880C991C5C
:10388000880C991C6401CA0CDB1C8DE89DE1C80EF4
:10389000D91ED6019C968D919C919D970197039777
:1038A00008F086C02093DE1DD4968C918093DF1D96
:1038B0009BE1E92EF12CFA82E9828091931D90918F
:1038C000941D8E010F5F1F4FB8010E94BA1683E549
:1038D00090E09A8389838091931D9091941DB80103
:1038E0000E94BA1600D000D0EDB7FEB73196ADB742
:1038F000BEB712961C930E93119787E293E09383C1
:103900008283D601D4968C91848315820E94A70865
:10391000EDB7FEB736960FB6F894FEBF0FBEEDBFFB
:103920008091931D9091941DB8010E94BA16FA825D
:10393000E9828091931D9091941DB8010E94BA165E
:1039400083E490E09A8389838091931D9091941DE4
:10395000B8010E94BA16D601D0962C91D097D19674
:103960003C91C901DC01EAE2F3E088E001900D92AC
:103970008150E1F7F401EA0DFB1DE357F24E82E0BE
:1039800090E095A784A786E090E097A786A713AA62
:1039900012AA8091B81D84AB8093DF1D8FEF8093B6
:1039A000DD1D1092E11D1092E01D21E030E002C00B
:1039B00020E030E0C901C058DF4FECE00C943053F8
:1039C000A3E8B0E0E6EEFCE10C9415537C015B014A
:1039D0009090DE1D6E010894C11CD11CC60160E2EE
:1039E00070E040E850E00E941008F70180818823D1
:1039F00009F46EC000E010E020E030E015C08A302D
:103A0000C9F0F601E20FF31F80832F5F3F4F0F5F76
:103A10001F4FF70101900020E9F73197EE19FF09D8
:103A2000E017F10708F454C0F701E00FF11F80819F
:103A30008D3029F72115310551F32C0D3D1DF9016C
:103A40001082C60162E373E047E050E00E9439084B
:103A5000009709F445C0C6016AE373E04AE050E00C
:103A60000E943908009709F484C0C60165E473E038
:103A700044E150E00E943908009709F4A2C0C60151
:103A80006AE573E042E050E00E943908009709F4CB
:103A9000A1C0C6016DE573E045E050E00E94390821
:103AA000009709F49EC0C60163E673E04BE050E066
:103AB0000E943908009709F4ACC0C60160E270E0CA
:103AC00040E850E00E941008198220E030E09FCFCB
:103AD00022E030E0C901CD57DF4FEBE00C943153C9
:103AE000F1E0AF16B10409F497C082E0A816B10462
:103AF00009F04EC08985582F5053982F9154CE57B6
:103B0000DF4F9883C258D040B82FB753E82FE15603
:103B1000CD57DF4FE883C358D040A82FA7558B85DA
:103B2000482F4053082F0154782F7753F82FF15620
:103B3000CF57DF4FF883C158D040682F6755109199
:103B4000DE1D3091DF1DE9EBFDE120E083E0E82E92
:103B5000F12C80819181029709F485C02F5F3996FD
:103B60002430B9F71093DE1D3093DF1D21E030E0E3
:103B7000B1CF09EB1DE1FF24F8018081918102970B
:103B8000029748F0F394075F1F4FF4E0FF16A1F788
:103B900021E030E09FCF2091DF1D9C85892F80534D
:103BA0008A3028F08151863008F083C0865F28175C
:103BB00049F78F2D0E942F1C1092E11D1092E01DDD
:103BC000E1CF82E090E090939A1D8093991D21E0CF
:103BD00030E080CF1092E11D1092E01D21E030E036
:103BE00079CF892D90E0FC01EE0FFF1FEE0FFF1F34
:103BF000EE0FFF1FE80FF91FE357F24E82E090E04F
:103C000095A784A71092E11D1092E01D20E030E0FE
:103C100061CF20E030E05ECF9985292F20532A30F4
:103C200008F453C0892F8154863008F048C0292FEA
:103C300027532093B81D2093DF1D8091DE1D90E057
:103C4000FC01EE0FFF1FEE0FFF1FEE0FFF1FE80F2F
:103C5000F91FE357F24E24AB82E090E095A784A7CA
:103C600021E030E037CF90855A30B8F5852F98178E
:103C700009F074CF82819381069709F06FCF9091FC
:103C8000B81D5A3008F440C0CE57DF4F8881C25863
:103C9000D040863008F048C08B2F981709F05ECFCF
:103CA0004A30E8F5842F342F8087F182E082122F8A
:103CB00055CF892F8156863000F180E078CF892F4B
:103CC0008156863018F5292F27552093B81D20934B
:103CD000DF1D8091DE1D90E0B3CFCE57DF4F88818E
:103CE000C258D040863060F0CD57DF4F8881C3582E
:103CF000D040863038F080E0BACF892F875557CF33
:103D00008B2FB5CF8A2FB3CF852FC7CF1092B81D79
:103D10001092DF1D8091DE1D90E020E091CF0630F3
:103D200060F4872F372FC0CFCD57DF4F8881C3581E
:103D3000D040863060F080E0B0CFCF57DF4F988121
:103D4000C158D040963028F4862F362FADCF8A2F19
:103D5000A4CF80E030E0A8CFA0E5B0E0E2EBFEE148
:103D60000C9416537C015E010894A11CB11CC50182
:103D700060E270E040E550E00E941008F7018081A9
:103D8000882309F440C052E0C52ED12C20E030E059
:103D900000E010E014C08A30C1F0F501E20FF31F1B
:103DA00080832F5F3F4F0F5F1F4FF701019000206F
:103DB000E9F73197EE19FF09E017F10738F1F7013C
:103DC000E00FF11F80818D3031F72115310559F356
:103DD0002A0D3B1DF9011082C5016AE573E042E03E
:103DE00050E00E9439080097B9F441E0C42ED12C6C
:103DF000C50160E270E040E550E00E9410081982C1
:103E000020E030E0D0CF62E0C62ED12CC601C05BEE
:103E1000DF4FEAE00C943253C5016DE573E045E0F5
:103E200050E00E943908009719F7CC24DD24E0CF38
:103E3000A1E0B0E0EEE1FFE10C941C5380E2898345
:103E40008E010F5F1F4F07C08091931D9091941DAD
:103E5000B8010E94DF128091931D9091941D0E94E1
:103E6000C612892B89F72196E4E00C943853EF921F
:103E7000FF921F93DF93CF93CDB7DEB7E2970FB6D4
:103E8000F894DEBF0FBECDBF182F7E010894E11C51
:103E9000F11CC70160E270E042E350E00E941008AC
:103EA0000E94181FE12FF0E0EA32F105D0F5EE583C
:103EB000FF4F0C944553ADB7BEB71A970FB6F894A1
:103EC000BEBF0FBEADBFEDB7FEB731961296FC92E6
:103ED000EE9211978BE993E093838283809161093D
:103EE000909162099583848380919B1D90919C1D84
:103EF0009783868380919D1D90919E1D91878087D9
:103F00000E94A7088DB79EB70A960FB6F8949EBF79
:103F10000FBE8DBF8091931D9091941DB7010E949B
:103F2000BA1680918D1D90918E1D69EB73E00E94F1
:103F3000BA1680918D1D90918E1DB7010E94BA1600
:103F4000E2960FB6F894DEBF0FBECDBFCF91DF91E2
:103F50001F91FF90EF90089500D000D0EDB7FEB70D
:103F60003196ADB7BEB71296FC92EE9211978FE6DE
:103F700093E0938382838091730990917409958370
:103F800084830E94A7088DB79EB706960FB6F89453
:103F90009EBF0FBE8DBF8091931D9091941DB70160
:103FA0000E94BA16BECF00D000D0EDB7FEB7319652
:103FB000ADB7BEB71296FC92EE9211978FE693E0E2
:103FC000938382838091710990917209D8CFADB7A4
:103FD000BEB71C970FB6F894BEBF0FBEADBFEDB70E
:103FE000FEB731961296FC92EE92119785EA93E015
:103FF0009383828380916F09909170099583848364
:104000008091A91D9091AA1D978386838091AB1DF5
:104010009091AC1D918780878091AD1D9091AE1DD0
:10402000938782870E94A7088DB79EB70C960FB61C
:10403000F8949EBF0FBE8DBF8091931D9091941DEB
:10404000B7010E94BA166DCF00D000D0EDB7FEB711
:104050003196ADB7BEB71296FC92EE9211978FE6ED
:1040600093E09383828380916D0990916E0987CF4D
:1040700000D000D0EDB7FEB73196ADB7BEB71296FF
:10408000FC92EE9211978FE693E093838283809166
:104090006B0990916C0973CF00D000D0EDB7FEB7DB
:1040A0003196ADB7BEB71296FC92EE9211978FE69D
:1040B00093E0938382838091690990916A095FCF2D
:1040C00000D000D0EDB7FEB73196ADB7BEB71296AF
:1040D000FC92EE9211978FE693E093838283809116
:1040E0006709909168094BCF00D000D0EDB7FEB7BB
:1040F0003196ADB7BEB71296FC92EE9211978FE64D
:1041000093E093838283809165099091660937CF0C
:1041100000D000D0EDB7FEB73196ADB7BEB712965E
:10412000FC92EE9211978FE693E0938382838091C5
:1041300063099091640923CFADB7BEB718970FB646
:10414000F894BEBF0FBEADBFEDB7FEB73196129665
:10415000FC92EE92119784E993E09383828380919D
:104160005F09909160099583848380919D1D909152
:104170009E1D978386830E94A7088DB79EB70896D9
:104180000FB6F8949EBF0FBE8DBF8091931D909186
:10419000941DB7010E94BA16C4CEADB7BEB718972A
:1041A0000FB6F894BEBF0FBEADBFEDB7FEB73196E8
:1041B0001296FC92EE92119782E893E093838283A9
:1041C00080915D0990915E09958384838091A31D00
:1041D00086831782D0CFADB7BEB718970FB6F894C5
:1041E000BEBF0FBEADBFEDB7FEB731961296FC92C3
:1041F000EE92119782E893E09383828380915B092A
:1042000090915C09958384838091A11D8683178298
:10421000B2CFADB7BEB71A970FB6F894BEBF0FBEF8
:10422000ADBFEDB7FEB731961296FC92EE921197A4
:104230008BE993E09383828380917D0990917E093D
:10424000958384838091B41D9091B51D9783868357
:104250008091B61D9091B71D51CEADB7BEB71897DE
:104260000FB6F894BEBF0FBEADBFEDB7FEB7319627
:104270001296FC92EE92119782E893E093838283E8
:104280008091570990915809958384838091A51D49
:104290008683178270CF00D000D0EDB7FEB731967D
:1042A000ADB7BEB71296FC92EE9211978FE693E0EF
:1042B0009383828380917F099091800960CE00D0A2
:1042C00000D0EDB7FEB73196ADB7BEB71296FC92EF
:1042D000EE9211978FE693E0938382838091810918
:1042E000909182094CCEADB7BEB718970FB6F8942F
:1042F000BEBF0FBEADBFEDB7FEB731961296FC92B2
:10430000EE92119782E893E09383828380918309F0
:1043100090918409958384838091B11D868317824F
:104320002ACF00D000D0EDB7FEB73196ADB7BEB7FB
:104330001296FC92EE9211978FE693E0938382831C
:1043400080914F09909150091ACEADB7BEB71A9718
:104350000FB6F894BEBF0FBEADBFEDB7FEB7319636
:104360001296FC92EE92119789E893E093838283F0
:1043700080914D0990914E099583848380919B1D76
:1043800090919C1D978386838091A71D80871186BD
:10439000B7CDADB7BEB718970FB6F894BEBF0FBE76
:1043A000ADBFEDB7FEB731961296FC92EE92119723
:1043B00082E893E09383828380914B0990914C092A
:1043C0009583848380919F1D86831782D4CE00D0ED
:1043D00000D0EDB7FEB73196ADB7BEB71296FC92DE
:1043E000EE9211978FE693E09383828380917B090D
:1043F00090917C09C4CD00D000D0EDB7FEB73196C6
:10440000ADB7BEB71296FC92EE9211978FE693E08D
:10441000938382838091770990917809B0CD00D001
:1044200000D0EDB7FEB73196ADB7BEB71296FC928D
:10443000EE9211978FE693E09383828380917509C2
:10444000909176099CCD8091DE1D90E0FC01EE0FED
:10445000FF1FEE0FFF1FEE0FFF1FE80FF91FE357BF
:10446000F24E84A595A5892B09F45BCDADB7BEB7F7
:1044700018970FB6F894BEBF0FBEADBFEDB7FEB72D
:1044800031961296FC92EE92119782EB93E0938311
:10449000828380918B0990918C099583848380918C
:1044A000DF1D3CCFADB7BEB71A970FB6F894BEBFAD
:1044B0000FBEADBFEDB7FEB731961296FC92EE92ED
:1044C000119784E793E09383828380913F099091D1
:1044D0004009958384838091951D9091961DA091AC
:1044E000971DB091981D86839783A087B18708CDCB
:1044F00000D000D0EDB7FEB73196ADB7BEB712967B
:10450000FC92EE9211978FE693E0938382838091E1
:104510003D0990913E0933CD00D000D0EDB7FEB7F4
:104520003196ADB7BEB71296FC92EE9211978FE618
:1045300093E09383828380913B0990913C091FCD46
:1045400000D000D0EDB7FEB73196ADB7BEB712962A
:10455000FC92EE9211978FE693E093838283809191
:10456000390990913A090BCDA1E0B0E0EAEBF2E213
:104570000C940E532C01CB0120E2298365E070E0FE
:104580000E94C5523B01EE24FF2400E010E0AA2463
:10459000BB24E0E22E2EEEE43E2E4E010894811C58
:1045A000911CC1010197F1F76201CE0CDF1C8091D3
:1045B000931D9091941D0E94C612892BA9F08091A1
:1045C000931D9091941DB4010E94DF128981F60120
:1045D00081936F010894E11CF11C0F5F1F4F00389D
:1045E000110528F30E94181F0894A11CB11C6A141D
:1045F0007B04B8F6E40CF51CF701108280918D1D48
:1046000090918E1D6CEB73E00E94BA1680918D1D07
:1046100090918E1DB2010E94BA1680918D1D9091CD
:104620008E1D69EB73E00E94BA16C8012196E2E183
:104630000C942A53A1E8B0E0E0E2F3E20C940E53AC
:104640002C018091BE029091BF029A838983FE0162
:1046500033968EE7DF011D928A95E9F7F201108209
:1046600019825E010894A11CB11CC5016EE170E0C5
:104670000E94B4229C018981882309F4A9C0232BBC
:1046800009F4A6C0850166247724CC24DD24EE2419
:10469000FF248824992491E0292E312C18C091E020
:1046A000C916D10409F4C0C0253409F478C00894AF
:1046B000E11CF11CF50101900020E9F73197EA199E
:1046C000FB090F5F1F4FEE15FF0508F485C0F801C9
:1046D0002081322F2B3109F49DC0233509F492C07B
:1046E000253439F08091E01D9091E11D892B09F46A
:1046F00079C0C114D10499F68091E01D9091E11D1B
:10470000029791F6432F40535091DF1DA091DD1D7C
:104710007091DE1DE1ECFDE120E0632F6154832FF9
:104720008156CF57DF4F8883C158D040B9EADB2E7E
:10473000D30EB32FB75390814A3060F4842F98176B
:1047400079F0952F2F5F3996243081F0592F908181
:104750004A30A0F3663008F06FC08B2F981789F7A6
:10476000A22F722F2F5F3996243081F79093DF1D8F
:10477000A093DD1D7093DE1D1092E31D1092E21DCB
:10478000F201E80DF91D30830894811C911CA1E011
:10479000CA2ED12CD8012C91253409F088CF8091D4
:1047A000E01D9091E11D8130910509F080CF90933B
:1047B000E31D8093E21D1092E11D1092E01DBFEFFA
:1047C000B093DD1DF1E06F2E712CCC24DD246FCF72
:1047D000D2011C9266247724C301CF57DF4FE2E158
:1047E0000C942A53C50162E070E04AE20E94E01C8A
:1047F0000197D1F1D8012C91322F2B3159F023356B
:1048000009F077CF8091E01D9091E11D0197E9F0CB
:1048100033E56FCF3092E11D2092E01D1092E31D31
:104820001092E21D3BE165CF8091E01D9091E11D6A
:10483000029709F039CFA0CFCF57DF4F8881C158F9
:10484000D040863078F080E07ACFE2E0F0E0F0937C
:10485000E11DE093E01D1092E31D1092E21D33E58F
:1048600043E252CF8D2D6BCF81E0682E712CC2CFE9
:104870008F929F92BF92CF92DF92EF92FF920F930F
:104880001F93DF93CF93CDB7DEB7C058D0400FB69C
:10489000F894DEBF0FBECDBFB82E83E08B1508F4B1
:1048A00042C0CB2CDD244601880C991C880C991C35
:1048B000880C991C7401EC0CFD1CADE8BDE1EA0EFE
:1048C000FB1EF70184A595A50197039760F5B092AB
:1048D000DE1D84A98093DF1D8091BE029091BF02EE
:1048E0009A838983FE0133968EE7DF011D928A95B4
:1048F000E9F7198289E20E94371F8E010F5F1F4F6F
:10490000C80168EE73E00E94B422C80161E070E063
:1049100049E20E94E01C8C0189E2B8010E94991BC7
:1049200001301105B1F020E030E0C901C058DF4F7F
:104930000FB6F894DEBF0FBECDBFCF91DF911F91B0
:104940000F91FF90EF90DF90CF90BF909F908F904E
:104950000895F70180A991A99C01D901EAE2F3E049
:1049600088E001900D928150E1F7F401EC0DFD1DFE
:10497000E357F24E15A614A686E090E097A786A707
:1049800013AA12AA8FEF84AB5091DE1D5B1561F064
:104990008093DF1D8FEF8093DD1D1092E11D10923B
:1049A000E01D21E030E0C1CFE9EBFDE120E030E0A7
:1049B000808191810297029738F02F5F3F4F39969F
:1049C00024303105A9F7E6CF5217B9F32093DE1D45
:1049D000F901EE0FFF1FEE0FFF1FEE0FFF1FE20F9B
:1049E000F31FE357F24E84A98093DF1DD3CFA0E8D5
:1049F000B0E0EDEFF4E20C941C53282F8430E8F57E
:104A000090E0FC01EE0FFF1FEE0FFF1FEE0FFF1FE8
:104A1000E80FF91FE357F24E84A595A50197039778
:104A200060F52093DE1D84A98093DF1D8091BE0276
:104A30009091BF029A838983FE0133968EE7DF014E
:104A40001D928A95E9F7198285E20E94371F8E012F
:104A50000F5F1F4FC8016CE271E00E94B422C801D1
:104A600061E070E045E20E94E01C8C0185E2B80143
:104A70000E94991B0130110541F020E030E0C9018E
:104A8000C058DF4FE4E00C9438531092E11D1092AF
:104A9000E01D21E030E0F3CF0F931F93CF93DF931E
:104AA00080918B1D882329F180E590E09093E71D8C
:104AB0008093E61D86E08093E81D80E090E063E44B
:104AC00072E00E94BA162091E81DE9EBFDE1C0E01A
:104AD000D0E080819181892B11F42630A9F02196B4
:104AE0003996C430D105A9F7DF91CF911F910F916D
:104AF000089580E090E064EE73E00E94BA16DF91C2
:104B0000CF911F910F9108952091E61D3091E71DDF
:104B1000C093DE1DFE01EE0FFF1FEE0FFF1FEE0F15
:104B2000FF1FEC0FFD1FE357F24E86E090E097A7C2
:104B300086A733AB22AB01E010E015A704A78C2FAA
:104B40000E94F724C0938C1D80E090E068EC73E035
:104B50000E94BA1610931D0A00931C0AC5CFA0E844
:104B6000B0E0E5EBF5E20C9418538091BE02909111
:104B7000BF029A838983FE0133968EE7DF011D927F
:104B80008A95E9F780918D1D90918E1D64E174E006
:104B90000E94BA16198280E00E94371F7E01089495
:104BA000E11CF11CC7016CE271E00E94B422C70154
:104BB0000E94AC1EBC0180E00E94991B198280E01B
:104BC0000E94371FC7016CE271E00E94B422C70146
:104BD0000E94AC1E8C0180E0B8010E94991B01303C
:104BE000110509F47DC0CC24DD24D394198281E021
:104BF0000E94371FC7016CE271E00E94B422C70116
:104C00000E94AC1E8C0181E0B8010E94991B01300A
:104C1000110509F463C0D39419828CE10E94371FF7
:104C2000C7016CE271E00E94B422C7010E94AC1E71
:104C30008C018CE1B8010E94991B0130110509F427
:104C40004BC0D39419828BE00E94371FC7016CE2DE
:104C500071E00E94B422C7010E94AC1E8C018BE05F
:104C6000B8010E94991B0130110509F49BC0D3942F
:104C7000198289E10E94371FC7016CE271E00E942E
:104C8000B422C7010E94AC1E8C0189E1B8010E94C8
:104C9000991B0130110541F1D39480919F1D909192
:104CA000A01D029741F1CC20A1F0DD2079F401E0B4
:104CB00010E0C8010E94161B10939A1D0093991DC5
:104CC000C801C058DF4FE8E00C94345302E010E014
:104CD000F0CF00E010E0EDCFC394B4CFC3949CCFED
:104CE000CC24C394DD2482CFC39480919F1D9091E6
:104CF000A01D0297C1F619828BE10E94371FC701E0
:104D00006CE271E00E94B422C7010E94AC1E8C01CB
:104D10008BE1B8010E94991B0130110509F444C0D0
:104D2000D394198289E00E94371FC7016CE271E0B9
:104D30000E94B422C7010E94AC1E8C0189E0B80118
:104D40000E94991B0130110599F1D39419828AE0D0
:104D50000E94371FC7016CED75E00E94B422C701A5
:104D60000E94AC1E8C018AE0B8010E94991B0130A0
:104D70001105E1F0D39419828DE10E94371FC7011C
:104D80006CE271E00E94B422C7010E94AC1E8C014B
:104D90008DE1B8010E94991B0130110509F485CFFE
:104DA000D39481CFC39464CFC394BBCFC394E3CFD8
:104DB000C394CCCFEF92FF921F93CF93DF931092C7
:104DC0008E1D10928D1D20E835E240E050E02093CA
:104DD0008F1D3093901D4093911D5093921D82E042
:104DE00090E09093941D8093931D2093951D309394
:104DF000961D4093971D5093981D10929A1D1092E6
:104E0000991D80E890E00E94B73080939B1D90939D
:104E10009C1DDC01E4E4F4E089E001900D928150F6
:104E2000E1F780E890E00E94B73080939D1D909359
:104E30009E1DDC01EDE4F4E089E001900D928150CB
:104E4000E1F782E090E09093A01D80939F1D109267
:104E5000A21D1092A11D84E090E09093A41D809368
:104E6000A31D1092A61D1092A51D8BE090E09093BB
:104E7000A81D8093A71D8FE090E00E94B73080931B
:104E8000A91D9093AA1DDC01E6E5F4E08CE00190F9
:104E90000D928150E1F78FE090E00E94B73080934F
:104EA000AB1D9093AC1DDC01E2E6F4E08EE00190D6
:104EB0000D928150E1F78FE090E00E94B73080932F
:104EC000AD1D9093AE1DDC01E6E5F4E08CE00190B1
:104ED0000D928150E1F786E090E09093B01D8093B1
:104EE000AF1D80E590E09093B21D8093B11D81E0ED
:104EF0008093B31D80E794E09093B51D8093B41D1B
:104F000086E794E09093B71D8093B61D1092E11D43
:104F10001092E01D8FEF8093B81DC9EBDDE1E6E054
:104F2000EE2EF12C1FEF8FE090E00E94B7308C83C3
:104F30009D83DC01EAE2F3E088E001900D9281506C
:104F4000E1F719821882FB82EA821F821E8218878B
:104F500029968DE1CD3DD80731F7188319831A833F
:104F60001092E11D1092E01D81E090E09E838D8300
:104F7000DF91CF911F91FF90EF9008956F927F92F4
:104F80008F929F92AF92BF92CF92DF92EF92FF9259
:104F90000F931F934C015A016B0139010E94DA26CD
:104FA0009092941D8092931DA092951DB092961D93
:104FB000C092971DD092981D70928E1D60928D1D8B
:104FC000E0928F1DF092901D0093911D1093921D01
:104FD0001F910F91FF90EF90DF90CF90BF90AF9017
:104FE0009F908F907F906F900895EF92FF920F9314
:104FF0001F937B018C018091B41D9091B51DB70169
:105000000E9422088091B61D9091B71DB8010E94A0
:1050100022081F910F91FF90EF900895BC0180919D
:105020009B1D90919C1D0E9422080895AEE0B0E067
:10503000ECE1F8E20C941253C982DA82EB82FC8232
:105040000D831E832F83388749875A876B877C8718
:105050008D879E870B811C81ED80FE80CF80D88458
:10506000A984BA848B849C846D847E8469817A81CE
:1050700080919B1D90919C1D0E94220880919D1DF6
:1050800090919E1DB8010E942208F092A01DE0920E
:105090009F1DD092A21DC092A11DB092A41DA092EE
:1050A000A31D9092A61D8092A51D7092A81D6092CE
:1050B000A71D2E96EEE00C942E53A6E0B0E0E3E69A
:1050C000F8E20C941A5349835A836B837C838D8353
:1050D0009E830B811C81ED80FE8069817A818091A5
:1050E000A91D9091AA1D0E9422088091AB1D90914C
:1050F000AC1DB8010E9422088091AD1D9091AE1D9B
:10510000B7010E9422082696E6E00C9436530F93CE
:105110001F93CF93DF93382F20918B1D222389F18A
:1051200080916D1D831711F1E0E7FDE190E004C06F
:10513000808133968317D1F09F5F9217C8F32B308D
:1051400000F180E090E065EE74E00E94BA1620E580
:1051500033EC40E951E0CA010197F1F721503040AA
:10516000D1F7DF91CF911F910F91089580E090E0EA
:105170006CE774E00E94BA16DF91CF911F910F91F6
:105180000895422F50E08A01000F111FE801C40F5B
:10519000D51FC959D24E3E83DB010D900020E9F79F
:1051A0001197A61BB70BA832B105A8F4FB018081AB
:1051B000882381F5F801E40FF51FE959F24E2781A4
:1051C0003085C901DC01E7EBF4E08EE001900D923F
:1051D0008150E1F70AC0FB018081882359F38F8158
:1051E000988548E250E00E94470880918B1D8F5FB0
:1051F00080938B1D8B3018F08AE080938B1D80E0AC
:1052000090E065EC74E00E94BA16DF91CF911F9197
:105210000F9108958F819885AD010E944708E5CFD1
:105220008F929F92AF92BF92CF92DF92FF920F9395
:105230001F93CF93DF936C015B014A0180E890E0FC
:105240000E94B730FC019093681D8093671D108207
:1052500080E890E00E94B730FC0190936A1D809333
:10526000691D108210926C1D10926B1DCDE6DDE160
:10527000A0E2FA2E00E210E0F88288E290E00E94BC
:10528000B730FC019A8389831183008323968DE1D3
:10529000CB38D80789F718828AE090E00E94B730AF
:1052A000FC019093E51D8093E41D1082E2E08E16D0
:1052B000910408F475C010926C1D10926B1DD601FC
:1052C0000D900020E9F71197AC19BD09A038B10580
:1052D00098F4F6018081882309F067C08091671DEA
:1052E0009091681D9C01D901E9E1F5E080E1019010
:1052F0000D928150E1F70DC0F6018081882371F392
:105300008091671D9091681DB60140E850E00E94B1
:105310004708D5010D900020E9F71197AA19BB099C
:10532000A038B10578F5F5018081882309F046C0E1
:105330008091691D90916A1D9C01D901E9E2F5E017
:105340008DE001900D928150E1F710928B1DE0915C
:10535000E41DF091E51D108210921A0A10921B0AAA
:1053600080E090E066E375E00E94BA16DF91CF918D
:105370001F910F91FF90DF90CF90BF90AF909F90C3
:105380008F900895F5018081882391F28091691DA5
:1053900090916A1DB50140E850E00E944708D5CFC2
:1053A00090926C1D80926B1D8ACF8091671D9091A9
:1053B000681DB601AD010E944708ABCF8091691D01
:1053C00090916A1DB501AD010E944708BECFA0E8CB
:1053D000B0E0EDEEF9E20C941853182F7B016E014A
:1053E0000894C11CD11CC60160E270E040E850E0A6
:1053F0000E9410081982D7018C918823A1F08D306A
:1054000091F0812F90E08C01000F111F000F111FF0
:10541000000F111F080F191F0357124EF80186A520
:1054200097A5069779F02CED35E040E951E0CA01E7
:105430000197F1F721503040D1F7C058DF4FE8E035
:105440000C9434538BE190E09A8389838091931D6F
:105450009091941DB6010E94BA1683E590E09A835C
:1054600089838091931D9091941DB6010E94BA1674
:1054700000D000D0EDB7FEB73196ADB7BEB71296EB
:10548000DC92CE92119787E293E093838283D801D6
:10549000D4968C91848315820E94A708EDB7FEB73D
:1054A00036960FB6F894FEBF0FBEEDBF8091931DE8
:1054B0009091941DB6010E94BA16F7010190002048
:1054C000E9F73297EE15FF0579F4D7018C918D300D
:1054D000B1F08A3069F5D601E9EBF3E083E00190A1
:1054E0000D928150E1F704C0C601B7010E94220865
:1054F0008091931D9091941DB6010E94BA168BE184
:1055000090E09A8389838091931D9091941DB601B8
:105510000E94BA1685E490E09A8389838091931D56
:105520009091941DB6010E94BA162CED35E07DCF06
:1055300000D000D0EDB7FEB73196ADB7BEB712962A
:10554000DC92CE9211978FE693E093838283F5826B
:10555000E4820E94A708EDB7FEB736960FB6F8941E
:10556000FEBF0FBEEDBF8091931D9091941DB601BB
:105570000E94BA16C4CFA0E8B1E0E1ECFAE20C94C4
:10558000165380911C0A90911D0A019729F0C0586A
:10559000DE4FEAE00C94325380918C1D8430B8F7D2
:1055A00090E0FC01EE0FFF1FEE0FFF1FEE0FFF1F3D
:1055B000E80FF91FE357F24E84A595A5029739F736
:1055C00051E0E52EF52EEC0EFD1E8091BE0290916D
:1055D000BF02F701819391932EE7DF01322F1D92D5
:1055E0003A95E9F741E8C42ED12CCC0EDD1EF60128
:1055F00081939193DF01322F1D923A95E9F79A83B7
:105600008983FE013396DF011D922A95E9F78E0109
:105610000F5F1F4FC8010E941A238981882309F058
:1056200048C120918C1D243008F0B1CF822F90E02A
:10563000FC01EE0FFF1FEE0FFF1FEE0FFF1FE80F25
:10564000F91FE357F24E84A595A5039709F09FCF64
:10565000822F67E575E00E94E72980918C1D68E63E
:1056600075E00E94E72980918C1D62E875E00E9438
:10567000E72980918C1D64E975E00E94E7298091FB
:105680008C1D6DE975E00E94E729D601E6EAF5E098
:1056900088E001900D928150E1F76091671D709153
:1056A000681DC6010E941708F60101900020E9F765
:1056B0003197DF01EEEAF5E08BE001900D92815029
:1056C000E1F780918C1DB6010E94E72980918C1D25
:1056D00069EB75E00E94E72980918C1D63EC75E011
:1056E0000E94E729D601ECECF5E08DE001900D92E7
:1056F0008150E1F76091671D7091681DC6010E949D
:105700001708F60101900020E9F73197DF01E9ED74
:10571000F5E088E001900D928150E1F780918C1DB9
:10572000B6010E94E729D601E1EEF5E08DE0019097
:105730000D928150E1F76091691D70916A1DC6015B
:105740000E941708F60101900020E9F73197DF0168
:10575000EEEEF5E089E001900D928150E1F7809145
:105760008C1DB6010E94E72980918C1D67EF75E0C2
:105770000E94E72980918C1D6DEF75E00E94E7295A
:1057800080916B1D90916C1D009709F4BEC001972C
:1057900009F0B4C080918B1D882309F449C0FF240F
:1057A000D601ECE5F6E08AE201900D928150E1F736
:1057B0000F2D10E05801AA0CBB1CB501600F711F22
:1057C0006359724EC60141E050E00E942908F6017B
:1057D00001900020E9F73197DF01E1E4F6E083E092
:1057E00001900D928150E1F70A0D1B1D0959124ECF
:1057F000D80117966D917C911897C6010E941708E1
:10580000F60101900020E9F73197DF01E6E8F6E0C4
:1058100083E001900D928150E1F780918C1DB601DB
:105820000E94E729F39480918B1DF81608F4B8CFF5
:1058300080918C1D66EC76E00E94E72980918C1D9A
:105840006AEE76E00E94E72980918C1D64EF76E095
:105850000E94E72980918C1D6BEF76E00E94E7297A
:1058600080918C1D67E077E00E94E72980918C1D74
:1058700061E177E00E94E72980918C1D69E177E082
:105880000E94E72980918C1D6AE177E00E94E72958
:1058900080918C1D0E942F1C0E94181F28EE33E05F
:1058A00040E951E0CA010197F1F721503040D1F7AA
:1058B0006ECEC80163E575E00E946108BC01C701B6
:1058C0000E942208F70185818F3309F0AACE8091CA
:1058D0001A0AE091E41DF091E51DE80FF11DD701D2
:1058E00018968C91808380911A0A8F5F80931A0A90
:1058F0008A3008F496CE10921A0A93CE80918C1DAD
:1059000069E876E00E94E72993CF80918C1D6DE1D4
:1059100076E00E94E72980918B1D882309F447C017
:10592000BB24D601E1E3F6E080E101900D928150C5
:10593000E1F70B2D10E07801EE0CFF1CB701600FB2
:10594000711F6359724EC60141E050E00E94290860
:10595000F60101900020E9F73197DF01E1E4F6E07C
:1059600083E001900D928150E1F70E0D1F1D095942
:10597000124EF80167817085C6010E941708F60172
:1059800001900020E9F73197DF01E4E4F6E08CE0D4
:1059900001900D928150E1F780918C1DB6010E941B
:1059A000E729B39480918B1DB81608F4BACF809183
:1059B0008C1D60E576E00E94E7293ACFFC0191E179
:1059C000908322E2229383E38293629372931292F2
:1059D000129280E8829312921292129282E0829343
:1059E00083E0829384E0829385E0829386E08293D1
:1059F00087E0829388E0829389E0829380E18293BA
:105A0000929382E1829383E1829384E1829385E1A0
:105A1000829386E1829387E1829388E1829389E190
:105A2000829380E2829381E28293229383E2829343
:105A30004293529386E2829387E2829388E2829332
:105A400089E2829380E3829381E382933197CF014D
:105A5000089584EF91E090931F0A80931E0A90931B
:105A6000210A8093200A81E08093990083EF80933C
:105A700098008BE080939100E1E7F0E08081826004
:105A80008083A091481CB091491CCD91CDBFDD9180
:105A9000DEBFFF91EF91DF91CF91BF91AF919F91C9
:105AA0008F917F916F915F914F913F912F911F91B6
:105AB0000F91FF90EF90DF90CF90BF90AF909F90AD
:105AC0008F907F906F905F904F903F902F901F909E
:105AD0000F900CBE0F900BBE0F900FBE0F9008954D
