:100000000C9488020C94AA020C94AA020C94AA02E2
:100010000C94AA020C94AA020C94AA020C94AA02B0
:100020000C94AA020C94AA020C94AA020C94AA02A0
:100030000C94AA020C94AA020C94AA020C94AA0290
:100040000C94AA020C94AA020C94AA020C94AA0280
:100050000C94AA020C94AA020C94AA020C94AA0270
:100060000C94AA020C94A0270C949F280C94AA022A
:100070000C94AA020C94AA020C94AA020C94AA0250
:100080000C942B240C94AA020C94AA020C94AA029D
:100090000C9477270C9476280C94AA020C94AA024C
:1000A0000C94AA020C94AA020C94AA020C94AA0220
:1000B0000C94AA020C94AA020C94AA020C94AA0210
:1000C0000C94AA020C94AA020C94AA020C944E2737
:1000D0000C944D280C94AA020C9425270C942428E7
:1000E0000C94AA020D0A0A0A476F6F646279652EA2
:1000F0002E2E206E6F20737061636520666F7220F4
:1001000069646C65207461736B210D0A000D0A0A25
:100110004672656520486561702053697A653A20AA
:1001200025750D0A006E616E00696E660000407AEA
:1001300010F35A00A0724E18090010A5D4E8000070
:10014000E87648170000E40B54020000CA9A3B000E
:100150000000E1F505000080969800000040420F85
:10016000000000A08601000000102700000000E849
:1001700003000000006400000000000A000000000E
:10018000000100000000002C76D888DC674F0823AF
:10019000DFC1DFAE59E1B1B796E5E3E453C63AE615
:1001A00051997696E8E6C28426EB898C9B62ED40F5
:1001B0007C6FFCEFBC9C9F40F2BAA56FA5F4900544
:1001C0005A2AF75C936B6CF9676DC11BFCE0E40D78
:1001D00047FEF520E6B500D0ED902E03009435776C
:1001E000050080841E080000204E0A000000C80C94
:1001F000333333330F986E12831141EF8D211489FD
:100200003BE65516CFFEE6DB18D1844B381BF77C56
:100210001D901DA4BBE424203284725E228100C99B
:10022000F124ECA1E53D2700A0E0B0E0EAE1F1E037
:100230000C94342CE9E0CE2EAA24A39488248A942A
:10024000982C7724739405C00F900FBEBB2009F043
:100250005FC080919114882309F480C08091861436
:100260008F5F80938614B090D6140FB6F8940F92D7
:1002700080918614815080938614809186148823FF
:1002800019F7809180148823F9F28091CD14882386
:1002900071F1E091D214F091D314C681D781CE01CF
:1002A0000C960E94F4248E010E5F1F4FC8010E941D
:1002B000F4249E8980918114891718F490938114F5
:1002C0009E899C9DC00111248D569B4EB8010E94B1
:1002D000A324E0917E14F0917F149E89868998175B
:1002E000A0F2A09282148091CD14882391F680917F
:1002F0008F14882309F04DC080918214813009F059
:10030000A3CF0E942E240F900FBEBB2009F4A1CFD3
:100310000FB6F8940F92E091DB14F091DC14068193
:100320001781C80102960E94F424809180148150A4
:1003300080938014809191148150809391140F9038
:100340000FBEF8018789908D0E94DC08C8010E94C9
:10035000DC0880919114882309F080CF8091931458
:10036000823008F476CF0E942E2473CF80918F14B0
:100370008F5F80938F14DD2480918214882309F08D
:1003800095C0DD2009F092C080918F148150809338
:100390008F1480918F14882309F4AECF8091861436
:1003A000882321F78091831490918414019690936F
:1003B000841480938314E0908314F0908414E114E7
:1003C000F10409F52091C9143091CA148091CB141D
:1003D0009091CC149093CA148093C9143093CC1488
:1003E0002093CB14809185148F5F80938514E091C6
:1003F000C914F091CA148081882309F073C09092C7
:100400004D0280924C0280914C0290914D02E81670
:10041000F90608F44EC0DD24E091C914F091CA1425
:1004200080818823F1F1E091C914F091CA1405800C
:10043000F681E02DC681D7818A819B81E816F90675
:1004400008F461C08E010E5F1F4FC8010E94F424A2
:100450008C899D89892B21F0CE010C960E94F42471
:100460009E8980918114891718F4909381149E8934
:100470009C9DC00111248D569B4EB8010E94A3245F
:10048000E0917E14F0917F149E898689981720F25E
:10049000DD24D394E091C914F091CA14808188239B
:1004A00011F690924D0280924C0204C07092821418
:1004B0006BCFDD24E0917E14F0917F14868990E06B
:1004C000FC01EE0FFF1FEE0FFF1FEE0FFF1FE80FE7
:1004D000F91FED56FB4E8081823008F44DCFDD24AC
:1004E000D3944ACFE091C914F091CA140580F681E3
:1004F000E02D0680F781E02D8281938190934D025B
:1005000080934C0280CF90934D0280934C02D2CFC7
:1005100011241FBECFEFD1E2DEBFCDBF00E00CBF84
:1005200012E0A0E0B2E0E0EDF8E500E00BBF02C0B1
:1005300007900D92A637B107D9F71BBE15E1A6E7C4
:10054000B2E001C01D92A736B107E1F70E94520840
:100550000C94662C0C9400008F938FB78F93F894B3
:100560008091EF148F5F8093EF148091F0148F4F80
:100570008093F0148091F1148F4F8093F114809147
:10058000F2148F4F8093F2148F918FBF8F91089543
:10059000A1E1B0E0EEECF2E00C942F2C3C017F875F
:1005A0006E876A01FC0117821682838181FD03C078
:1005B0006FEF7FEF71C39E012F5F3F4F398B288B09
:1005C000F3012381EE85FF8523FD859123FF819132
:1005D000FF87EE87882309F45CC3853251F4EE85EA
:1005E000FF8523FD859123FF8191FF87EE8785326B
:1005F00029F490E0B3010E944F07E2CF982F10E05A
:10060000882499241032B0F49B3269F09C3228F48B
:10061000903251F0933271F40BC09D3239F0903327
:1006200049F4116028C01260146025C0186023C00E
:10063000106121C017FD2AC0892F80538A3078F4B9
:1006400016FF06C0FAE09F9E902C1124980E13C04E
:100650003AE0839E802C1124880E10620CC09E32DA
:1006600021F416FD16C3106406C09C3611F4106800
:1006700002C0983659F4EE85FF8523FD959123FF3E
:100680009191FF87EE87992309F0BCCF892F85547C
:10069000833020F4812F8061905E07C0892F8556BA
:1006A000833008F0A1C1812F8F7E86FD02C076E0E5
:1006B000972E6FE3F62EF822953619F4F0E4FF2A10
:1006C00007C0963619F420E8F22A02C091109A94D5
:1006D000F7FE0BC03BE3391520F427E05CE3B52EB1
:1006E0000EC0B92CB39427E00AC047E0491528F49E
:1006F00027E0BB2447E0942E02C0292DBB24C6016D
:1007000004969D878C87F601608171818281938137
:10071000AE014F5F5F4F0B2D0E9451066C010981A6
:10072000202E332400FF04C003FD02C01DE209C0D7
:10073000F1FE02C01BE205C0F2FC02C010E001C0E5
:1007400010E2C1018C709070892BB9F1112311F462
:1007500083E001C084E0881510F088240AC0881A5C
:10076000F3FC07C080E290E0B3010E944F078A9437
:10077000C9F7112329F0812F90E0B3010E944F07A0
:1007800023FE03C005E211E00EC009E211E00BC038
:10079000E114F10409F0805290E0B3010E944F0788
:1007A0000F5F1F4F05C0EF2CFF24F0E1EF22FF2465
:1007B000F8018491882361F714C1F7FE12C0BC0CC4
:1007C00024FE04C08A81813309F4BA941B141CF0FE
:1007D000BB24B3942DC0F8E0FB1550F538E0B32EE0
:1007E00027C0F6FC25C0892D90E08C159D054CF0A6
:1007F0002CEFC2162FEFD20624F030E8F32A01C006
:100800009A94992049F0E2E0F0E0EC0FFD1FE90D29
:10081000F11D80818033A1F3F7FE0AC0B92CB39497
:10082000892D90E0C816D90614F0992401C09C18AF
:10083000F7FC03C025E030E009C01C141D041CF0C7
:1008400021E030E003C096012F5F3F4F112311F0EC
:100850002F5F3F4F992029F0892D90E00196280FB6
:10086000391F882D90E02817390714F0882401C01B
:10087000821A4F2C5524C20189709070892B39F04F
:1008800008C080E290E0B3010E944F078A9488205C
:10089000C1F7112329F0812F90E0B3010E944F0787
:1008A00043FE07C008C080E390E0B3010E944F07F9
:1008B0008A948820C1F7F7FE46C08601D7FE02C0A1
:1008C00000E010E076010894E11CF11CE01AF10A46
:1008D00041E050E04C0F5D1FE40EF51E26014B1861
:1008E0005108892D90E0AA24BB24A81AB90A5FEF09
:1008F0000F3F150729F48EE290E0B3010E944F07E5
:10090000C016D10634F0401651061CF4F701808160
:1009100001C080E3015010400894E11CF11C0A154D
:100920001B052CF090E0B3010E944F07E0CF0C159F
:100930001D0539F49A81963318F4953311F424FE89
:1009400081E390E04BC08A81813309F00F7E90E013
:10095000B3010E944F079920A1F08EE290E0B3010D
:100960000E944F0712E0E1E0F0E0EC0FFD1FE10F05
:10097000F11D1F5F808190E0B3010E944F079A94A0
:1009800091F744FC03C085E690E002C085E490E066
:10099000B3010E944F07D7FC05C0C114D10441F434
:1009A00004FF06C0D094C194D108D3948DE201C055
:1009B0008BE290E0B3010E944F0780E305C08F5F98
:1009C00026EF3FEFC20ED31E3AE0C316D104BCF7A8
:1009D00090E0B3010E944F07C601C096B3010E9488
:1009E0004F07CC84DD8452C1933631F0933799F0B0
:1009F000933509F059C023C0F601808189835E01D7
:100A00000894A11CB11C22E030E0C20ED31E21E0EC
:100A1000E22EF12C12C0F601A080B18016FD03C0B9
:100A20006FEF7FEF02C0692D70E022E030E0C20E70
:100A3000D31EC5010E9444077C011F7713C0F60135
:100A4000A080B18016FD03C06FEF7FEF02C0692D5B
:100A500070E022E030E0C20ED31EC5010E943207D2
:100A60007C01106813FF07C01BC080E290E0B30157
:100A70000E944F078A94882D90E0E816F906A8F3A3
:100A80000FC0F50117FD859117FF81915F0190E07F
:100A9000B3010E944F0781108A940894E108F1087D
:100AA000E114F10471F7F2C0943611F0993689F52A
:100AB00017FF08C0F601208131814281538184E013
:100AC00090E00AC0F601808191819C01442737FDA6
:100AD0004095542F82E090E0C80ED91E9FE6F92E73
:100AE000F12257FF09C050954095309521953F4F11
:100AF0004F4F5F4F90E8F92ACA01B901AE014F5F2D
:100B00005F4F2AE030E00E94F307E82EE889EE1AF2
:100B100041C0953721F41F7E2AE030E01CC0197FC8
:100B20009F3661F0903720F4983509F0B2C00FC0BD
:100B3000903739F0983709F0ACC004C028E030E0B5
:100B40000AC0106114FD146020E130E004C014FDFF
:100B5000166020E132E017FF08C0F6016081718164
:100B60008281938144E050E008C0F6018081918148
:100B7000BC0180E090E042E050E0C40ED51EAE0122
:100B80004F5F5F4F0E94F307E82E5889E51A8FE701
:100B9000F82EF122F6FE0BC08EEFF822E91438F49D
:100BA000F4FE07C0F2FC05C09FEEF92202C01E2D24
:100BB00001C0192DF4FE0DC0FE01EE0DF11D808166
:100BC000803319F4E9EEFE2208C01F5FF2FE05C073
:100BD00003C08F2D867809F01F5F0F2DF3FC14C022
:100BE000F0FE0FC0181510F09E2C0BC09E2C980C18
:100BF000911A182D06C080E290E0B3010E944F07C1
:100C00001F5F1815C0F304C0181510F4811A01C035
:100C1000882404FF0FC080E390E0B3010E944F07D7
:100C200002FF1DC001FD03C088E790E00EC088E50B
:100C300090E00BC0802F867891F001FF02C08BE21C
:100C400001C080E2F7FC8DE290E0B3010E944F0703
:100C500006C080E390E0B3010E944F079A94E91424
:100C6000C0F3EA94E1E0F0E0EC0FFD1FEE0DF11DA2
:100C7000808190E0B3010E944F07EE2091F706C0FB
:100C800080E290E0B3010E944F078A948820C1F768
:100C900097CCF30166817781CB016196E2E10C94F8
:100CA0004B2C283008F027E03327DA01990F311D4B
:100CB00087FD916000966105710539F432602E5F01
:100CC0003D9330E32A95E1F708959F3F30F0803857
:100CD0007105610509F03C5F3C5F3D93913008F080
:100CE0008068911DDF93CF931F930F93FF92EF9234
:100CF000192F987F9695E92F96959695E90FFF27DE
:100D0000E957FE4F99273327EE24FF24A701E70177
:100D100005900894079428F4360FE71EF81E491F23
:100D2000511D660F771F881F991F0694A1F7059024
:100D3000079428F4E70EF81E491F561FC11D770FB0
:100D4000881F991F661F0694A1F70590079428F441
:100D5000F80E491F561FC71FD11D880F991F661F08
:100D6000771F0694A1F70590079420F4490F561FAA
:100D7000C71FD81F990F661F771F881F0694A9F7F2
:100D800084911095177041F0D695C7955795479562
:100D9000F794E7941A95C1F7EDE2F1E068941590A5
:100DA000159135916591959105907FE27395E118C4
:100DB000F10A430B560BC90BD009C0F7E10CF11E29
:100DC000431F561FC91FD01D7EF4703311F48A953E
:100DD000E6CFE894015030F0080F0AF4002702171C
:100DE00008F4202F2395022F7A3328F079E37D939E
:100DF0002A95E9F710C07D932A9589F60694979570
:100E00006795379517951794E118F10A430B560B20
:100E1000C90BD00998F023957E9173957A3308F029
:100E200070E37C932013B8F77E9170617D9330F06E
:100E3000839571E37D9370E32A95E1F71124EF9098
:100E4000FF900F911F91CF91DF91992787FD90958A
:100E50000895FC0105900020E9F7809590958E0F8C
:100E60009F1F0895FC010590615070400110D8F754
:100E7000809590958E0F9F1F0895DC0101C06D93A2
:100E800041505040E0F70895FC01615070400190DE
:100E90000110D8F7809590958E0F9F1F08950F939E
:100EA0001F93CF93DF938C01EB018B8181FF1BC0DC
:100EB00082FF0DC02E813F818C819D8128173907CB
:100EC00064F4E881F9810193F983E88306C0E88539
:100ED000F985802F1995892B31F48E819F81019698
:100EE0009F838E8302C00FEF1FEFC801DF91CF9168
:100EF0001F910F910895AEE0B0E0E1E8F7E00C94A7
:100F00003D2C0E891F8986E08C831A8309838FEF1D
:100F10009FE79E838D839E01265E3F4FCE01019603
:100F2000688D798DA9010E94C8022F813885020F32
:100F3000131FF80110822E96E4E00C94592CAEE0B9
:100F4000B0E0E5EAF7E00C943D2C8C0177FF02C09D
:100F500060E070E8615070407E836D831A8309837E
:100F600086E08C83CE010196BA01A9010E94C802D5
:100F70002D813E8137FD09C0EF81F8852E173F078F
:100F80000CF4F901E00FF11F10822E96E4E00C94AE
:100F9000592CAEE0B0E0EFECF7E00C943D2C8C0166
:100FA00077FF02C060E070E8615070407E836D831F
:100FB0001A8309838EE08C83CE010196BA01A901C0
:100FC0000E94C8022D813E8137FD09C0EF81F8855E
:100FD0002E173F070CF4F901E00FF11F10822E9637
:100FE000E4E00C94592CFA01AA27283051F1203161
:100FF00081F1E8946F936E7F6E5F7F4F8F4F9F4FAD
:10100000AF4FB1E03ED0B4E03CD0670F781F891FEE
:101010009A1FA11D680F791F8A1F911DA11D6A0FBC
:10102000711D811D911DA11D20D009F468943F916F
:101030002AE0269F11243019305D3193DEF6CF016E
:101040000895462F4770405D4193B3E00FD0C9F734
:10105000F6CF462F4F70405D4A3318F0495D31FDA1
:101060004052419302D0A9F7EACFB4E0A6959795F4
:10107000879577956795BA95C9F7009761057105CA
:1010800008959B01AC010A2E069457954795379514
:101090002795BA95C9F7620F731F841F951FA01D6E
:1010A00008950895AF92BF92CF92DF92EF92FF9290
:1010B0000F931F9381E090E040E855E260E070E01C
:1010C0002FEF30E000E410E00E94482B9093EE14E4
:1010D0008093ED1481E090E00E94852581E090E00E
:1010E0000E94852581E090E00E94852581E090E0C6
:1010F00060E072E00E94E52980EB98E060E070E03B
:1011000040E051E020E030E003E0EE24FF24CC2476
:10111000DD24AA24BB240E94AE200E94D10800D066
:101120000F922DE031E0EDB7FEB732832183948337
:1011300083830E94E72A0F900F900F900F900E94D8
:10114000B32184EE90E00E94372980E090E01F9167
:101150000F91FF90EF90DF90CF90BF90AF900895E8
:101160006D986B98E1E0F1E0808188608083739AEC
:10117000759AE2E0F1E08081877F808300D00F9252
:1011800081E090E0EDB7FEB79283818386E092E044
:10119000948383830E94D72A0F900F900F900F9013
:1011A000089580914A0290914B02089580914802DF
:1011B00090914902089508950F931F93CF93DF9361
:1011C000009789F0EC0124974A815B812091760297
:1011D00030917702C90184239523892B21F08881DE
:1011E0009981892B29F0DF91CF911F910F9108955B
:1011F00020953095242335233B832A830E944D0A72
:101200000A811B8180914A0290914B02800F911FAD
:1012100090934B0280934A02EAE7F4E101C0FC019B
:10122000808191818C179D07D0F3BF019F0142817E
:101230005381CF01840F951FC817D90749F1FE01CB
:101240009E01EB01A881B981200F311FA217B307BE
:1012500059F0B183A0836E177F0719F0DB01ED937E
:10126000FC930E94670FBFCF809178029091790222
:10127000A817B90771F312968D919C911397800F5F
:10128000911F938382838D919C9191838083E3CF7F
:10129000CA01800F911F938382838C01D2CFA0E07B
:1012A000B0E0E5E5F9E00C94372CEC010E944D0A22
:1012B0008091780290917902892B99F04091760281
:1012C00050917702CE0184239523892BE1F1C0E070
:1012D000D0E00E94670FCE01CDB7DEB7EAE00C94F4
:1012E000532C8BE792E090937B1480937A141092A6
:1012F0007D1410927C1426E734E130937902209318
:101300007802109279141092781410927714109237
:1013100076148BEF91E190937E0280937D0230935F
:101320007C0220937B0280914A0290914B020497A9
:1013300090934B0280934A0280E090E8909377026A
:1013400080937602BBCF209711F2BE016C5F7F4F76
:1013500009F4BDCFA0904A02B0904B02A616B70682
:1013600008F4B5CF00917A1410917B14AAE7B4E188
:1013700006C088819981009741F08C01DE01E80167
:10138000EA81FB81E617F707A0F3E0907802F0907E
:1013900079020E151F0509F49ACFCD90DC901197B4
:1013A000E801888199818D939C93CF01861B970BCF
:1013B0008930910590F1D801A60FB71F13969C9321
:1013C0008E931297F80173836283EAE7F4E101C018
:1013D000FC01808191818A179B07D0F3EF019F0167
:1013E00062817381CF01860F971FA817B90799F102
:1013F000FD019D0162817381A881B981260F371F8C
:10140000A217B307B9F1B183A083CE17DF0761F14B
:10141000F983E883E801EA81FB8195012E1B3F0BEC
:1014200030934B0220934A028091480290914902E6
:101430002817390720F43093490220934802E60127
:101440002496E42BF52BD8011396FC93EE93129778
:101450001D921C923ECF12968D919C911397860FF0
:10146000971F93838283C6CFD8011296ED91FC918A
:101470001397D3CFEA16FB0669F012968D919C91D3
:101480001397860F971F938382838D919C919183ED
:101490008083BBCFF182E082B8CF809186148F5FCA
:1014A0008093861408950FB6F8940F9220918314B8
:1014B000309184140F900FBEC901089520918314B8
:1014C00030918414C9010895809180140895FC011D
:1014D00080918514808380918314909184149283E9
:1014E00081830895FC01DB010FB6F8940F9260919F
:1014F0008314709184142D913C9111978FEF2F3F9D
:101500003807F9F09091851480818917F1F04181B5
:1015100052816417750708F5CB01841B950B821760
:101520009307D8F4261B370B240F351F2D933C93BC
:101530008091851480838091831490918414928388
:10154000818380E00F900FBE089541815281CB01CD
:10155000841B950B8217930728F381E00F900FBE31
:10156000089581E0809382140895FC01009711F0A2
:1015700082A1089580E00895FC01009709F062A31C
:101580000895A0E0B0E0E7ECFAE00C94312C3C01C7
:101590008B015A01DB018C91882309F48DC01196CF
:1015A000ED91FC9112970280F381E02D1296FC934D
:1015B000EE93119723E0C22ED12CC60ED71EEC1548
:1015C000FD0509F483C086809780FF249FE0E92E03
:1015D00082E0482E512C82819381F801928381838D
:1015E000C816D90609F455C0D8011196ED91FC91A1
:1015F0001297C681D781FE9CB0011124660D771D1C
:10160000FB01D183C0836996D383C283699789A183
:101610008483B682A5828E898783F3E0AF16B104F6
:1016200009F43FC08BA1FB0180878CA19DA1AEA1D5
:10163000BFA181879287A387B487AF89B88D8C912A
:10164000853A09F040C020E030E040E050E02F5FF4
:101650003F4F4F4F5F4FFD01E20FF31F8081853AEF
:10166000B1F3C901DB011E969C938E931D97F394F1
:10167000C815D90511F1D8011196ED91FC91129779
:1016800082819381F80192838183C816D90609F07B
:10169000ABCFD60112968D919C9113979283818343
:1016A000A3CF8C899D89892B09F4BCCFDB011696C9
:1016B0005C924E921597B6CFFF248F2DCDB7DEB733
:1016C000E0E10C944D2C80E090E0CCCF82819381BE
:1016D00011968C93119712969C939C01F90173CFEC
:1016E0000097B1F0FC01A789B08D8C91853AA9F4DF
:1016F00020E030E040E050E02F5F3F4F4F4F5F4F22
:10170000FD01E20FF31F8081853AB1F3822F089526
:10171000E0917E14F0917F14E6CF80E0089520914F
:101720007E1430917F14C9010895E0917E14F091E8
:101730007F1484859585A0917E14B0917F14E091EB
:101740007E14F0917F14468924E030E0241B310997
:101750001D963C932E931C9708950F931F93CF9340
:10176000DF93EC01009731F19E898BA1981711F15D
:101770008E010E5F1F4FC8010E94F4242BA12E8BF7
:101780008C859D8597FD06C084E090E0821B9109C1
:101790009D878C879E8980918114891710F490937E
:1017A000811489E0989FC00111248D569B4EB80189
:1017B0000E94A324DF91CF911F910F9108950F9361
:1017C0001F93CF93DF93EC01009741F13E89E091A5
:1017D0007E14F0917F148689381700F58C859D85DD
:1017E00097FD0BC0E0917E14F0917F14268984E070
:1017F00090E0821B91099D878C8789E0389FC0010A
:1018000011248D569B4E2A853B852817390759F0A0
:10181000E0917E14F0917F1486898E8BDF91CF91B9
:101820001F910F9108958E010E5F1F4FC8010E94F6
:10183000F424E0917E14F0917F1496899E8B809120
:101840008114891710F49093811489E0989FC00146
:1018500011248D569B4EB8010E94A324DFCF0F9315
:101860001F93CF93DF93FC01706871836083C681FF
:10187000D7810E94F4248E010E5F1F4FC8010E9481
:10188000F4249E8980918114891710F49093811417
:1018900089E0989FC00111248D569B4EB8010E948B
:1018A000A324E0917E14F0917F149E898689891784
:1018B00040F481E080938214DF91CF911F910F91CA
:1018C000089580E0DF91CF911F910F9108950F93BC
:1018D0001F93CF93DF93DC011596ED91FC91169742
:1018E00006811781E8012C96CE010E94F424809194
:1018F0008614882331F5E8012296CE010E94F42453
:10190000F801968980918114891708F189E0989FE0
:10191000C00111248D569B4EBE010E94A324E0916C
:101920007E14F0917F14D80156969C918689891770
:1019300088F481E080938214DF91CF911F910F9101
:1019400008958DEC94E1BE010E94A324E8CF90930A
:101950008114DCCF80E0DF91CF911F910F9108952A
:10196000A0E0B0E0E6EBFCE00C94392C809186140A
:10197000882309F089C08091831490918414019682
:101980009093841480938314E0908314F0908414D3
:10199000E114F10419F52091C9143091CA14809111
:1019A000CB149091CC149093CA148093C9143093A3
:1019B000CC142093CB14809185148F5F8093851471
:1019C000E091C914F091CA148081882309F086C07F
:1019D0008FEF9FEF90934D0280934C0280914C02C9
:1019E00090914D02E816F90608F460C0DD2449E044
:1019F000C42EE091C914F091CA1480818823E9F1C2
:101A0000E091C914F091CA140580F681E02DC681D9
:101A1000D7818A819B81E816F90608F477C08E0188
:101A20000E5F1F4FC8010E94F4248C899D89892B69
:101A300021F0CE010C960E94F4249E89809181149D
:101A4000891710F4909381149C9DC00111248D5628
:101A50009B4EB8010E94A324E0917E14F0917F1464
:101A60009E898689981728F2DD24D394E091C914C1
:101A7000F091CA148081882319F68FEF9FEF90931D
:101A80004D0280934C0213C080918F148F5F80931E
:101A90008F14DD2480918214882311F0DD24D394E7
:101AA0008D2DCDB7DEB7E8E00C94552CDD24E09108
:101AB0007E14F0917F14868990E0FC01EE0FFF1FE9
:101AC000EE0FFF1FEE0FFF1FE80FF91FED56FB4E45
:101AD00080818230F8F2DD24D394DCCFE091C91408
:101AE000F091CA140580F681E02D0680F781E02D83
:101AF0008281938190934D0280934C0280914C029D
:101B000090914D02E816F90688F270CF90934D023D
:101B100080934C02CCCFDF92EF92FF920F931F93F2
:101B2000CF93DF93EC018A859B858F5D944141F0D3
:101B300010E0812FCDB7DEB7E7E00C94562C42C001
:101B40008C899D8924E18D3C920791F3892B81F743
:101B500080918614882349F5DE88E0917E14F09107
:101B60007F14068952E0E52EF12CEC0EFD1EC70114
:101B70000E94F4246E8980918114861710F460937A
:101B8000811410E0D01608F011E089E0689FC001D0
:101B900011248D569B4EB7010E94A324812FCDB7EF
:101BA000DEB7E7E00C94562C0DC02C968DEC94E13A
:101BB000BE010E94A32410E0812FCDB7DEB7E7E07D
:101BC0000C94562C0F931F93CF93DF938A01E091CF
:101BD0007E14F0917F1470687587648760917E141D
:101BE00070917F14645F7F4F0E94A32480917E14C4
:101BF00090917F1402960E94F4248FEF0F3F1807F4
:101C000009F440C0C0918314D0918414C00FD11F37
:101C1000E0917E14F0917F14D383C283809183146A
:101C200090918414C817D907E0F08091C91490915D
:101C3000CA1460917E1470917F146E5F7F4F0E9472
:101C4000C22480914C0290914D02C817D90720F40C
:101C5000D0934D02C0934C02DF91CF911F910F9111
:101C600008958091CB149091CC1460917E14709162
:101C70007F146E5F7F4F0E94C224DF91CF911F912E
:101C80000F91089560917E1470917F146E5F7F4F65
:101C90008FED94E10E94A324DF91CF911F910F91CA
:101CA00008950F931F93CF93DF938B0160917E1460
:101CB00070917F14645F7F4F0E94C22480917E14D4
:101CC00090917F1402960E94F4248FEF0F3F180723
:101CD00009F440C0C0918314D0918414C00FD11F67
:101CE000E0917E14F0917F14D383C283809183149A
:101CF00090918414C817D907E0F08091C91490918D
:101D0000CA1460917E1470917F146E5F7F4F0E94A1
:101D1000C22480914C0290914D02C817D90720F43B
:101D2000D0934D02C0934C02DF91CF911F910F9140
:101D300008958091CB149091CC1460917E14709191
:101D40007F146E5F7F4F0E94C224DF91CF911F915D
:101D50000F91089560917E1470917F146E5F7F4F94
:101D60008FED94E10E94A324DF91CF911F910F91F9
:101D70000895EF92FF920F931F938091861488230A
:101D800009F093C010928214809184009091850094
:101D90007C0100E010E0E0928714F0928814009338
:101DA000891410938A1480918B1490918C14A091B3
:101DB0008D14B0918E148E159F05A007B107B0F455
:101DC000E0917E14F0917F14A8019701281B390B34
:101DD0004A0B5B0B84A195A1A6A1B7A1820F931F0B
:101DE000A41FB51F84A395A3A6A3B7A3E0928B1449
:101DF000F0928C1400938D1410938E14E0917E1445
:101E0000F0917F14A0917E14B0917F1420813181D4
:101E100057968D919C9158978217930790F08091D7
:101E20007E1490917F1460917E1470917F14675E90
:101E30007F4F0E94510805C080918114815080938A
:101E400081148091811490E0FC01EE0FFF1FEE0FD2
:101E5000FF1FEE0FFF1FE80FF91FED56FB4E8081AD
:101E6000882351F39091811489E0989FD001112427
:101E7000AD56BB4E1196ED91FC9112970280F38105
:101E8000E02D1296FC93EE931197CD010396E8177F
:101E9000F90799F08681978190937F1480937E143F
:101EA0001F910F91FF90EF90089581E0809382142D
:101EB0001F910F91FF90EF90089582819381119669
:101EC0008C93119712969C939C01F901E3CFA0E0AB
:101ED000B0E0EDE6FFE00C94362C0FB6F8940F92CC
:101EE0008091861481508093861480918614882373
:101EF00009F0EDC080918014882309F4E8C0F9E06E
:101F0000FF2EEE24E3948091CD14882369F1E091B3
:101F1000D214F091D314C681D781CE010C960E94C1
:101F2000F4248E010E5F1F4FC8010E94F4249E8985
:101F300080918114891710F4909381149F9DC001A2
:101F400011248D569B4EB8010E94A324E0917E146B
:101F5000F0917F149E8986899817A8F2E0928214E6
:101F60008091CD14882399F680918F14882309F4E9
:101F7000AAC080918F14882309F4A5C0E9E0CE2E71
:101F8000AA24AA94BA2C9924939480918614882325
:101F900009F083C0809183149091841401969093EA
:101FA000841480938314E0908314F0908414E114DB
:101FB000F10409F52091C9143091CA148091CB1411
:101FC0009091CC149093CA148093C9143093CC147C
:101FD0002093CB14809185148F5F80938514E091BA
:101FE000C914F091CA148081882309F097C0B09277
:101FF0004D02A0924C0280914C0290914D02E81645
:10200000F90608F473C0DD24E091C914F091CA14F4
:1020100080818823E9F1E091C914F091CA14058008
:10202000F681E02DC681D7818A819B81E816F90669
:1020300008F485C08E010E5F1F4FC8010E94F42472
:102040008C899D89892B21F0CE010C960E94F42465
:102050009E8980918114891710F4909381149C9D1E
:10206000C00111248D569B4EB8010E94A324E0911B
:102070007E14F0917F149E898689981728F2DD24BA
:10208000D394E091C914F091CA148081882319F681
:10209000B0924D02A0924C022AC080918F148F5FA3
:1020A00080938F14DD24809182148823E1F4DD2055
:1020B000D1F480918F14815080938F1480918F146C
:1020C000882309F062CF80918214813041F080E052
:1020D0000F900FBECDB7DEB7EBE00C94522C0E94F0
:1020E0002E2481E0F5CF90928214E3CFDD24E0919D
:1020F0007E14F0917F14868990E0FC01EE0FFF1FA3
:10210000EE0FFF1FEE0FFF1FE80FF91FED56FB4EFE
:102110008081823040F2DD24D394C5CFE091C91490
:10212000F091CA140580F681E02D0680F781E02D3C
:102130008281938190934D0280934C025CCF909367
:102140004D0280934C02D3CFA4E0B0E0EAEAF0E184
:102150000C942F2C1C01DC011C928091801489832B
:10216000909180148FE0989FC00111240E944F0924
:102170002C01009709F4ADC08981909186149F5F6E
:102180009093861490918014891708F4A6C084E077
:10219000C82E1C82CA94BC81EFE0BE9F500111245E
:1021A000A40CB51CF9E0CF9E7001112443E954E161
:1021B000E40EF51ED7018C91882309F484C1119691
:1021C000ED91FC9112970280F381E02D1296FC9321
:1021D000EE93119703E0802E912C8E0C9F1CE81536
:1021E000F90509F42CC566807780DD24828193810E
:1021F000F701928381838816990609F45FC0D7019D
:102200001196ED91FC91129766817781BFE0DB9E7C
:10221000800111240A0D1B1DF80171836083675E24
:102220007F4F7383628369517040DB0191968C917B
:102230009197848341E050E05683458356968C9174
:102240005697878393968C919397808794968D91D8
:102250009D910D90BC91A02D81879287A387B48713
:10226000FB01A789B08D8C91853A09F0D4C220E09A
:1022700030E040E050E02F5F3F4F4F4F5F4FFD0198
:10228000E20FF31F8081853AB1F3C901D8011E9690
:102290009C938E931D97D3946616770609F414C108
:1022A000D7011196ED91FC91129782819381F701EC
:1022B000928381838816990609F0A1CFD4011296E2
:1022C0008D919C9113979283818399CFC2010E9433
:1022D000DC082496E2E10C944B2C1B820FB6F89498
:1022E0000F92809186148150809386148091861479
:1022F000882309F0A4C180918014882309F49FC128
:1023000099E0D92ECC24C3948091CD14882399F1DF
:10231000E091D214F091D31406811781C8010C9674
:102320000E94F42422E0E22EF12CE00EF11EC701FF
:102330000E94F424F801968980918114891718F479
:102340009093811496899D9DC00111248D569B4EBA
:10235000B7010E94A324E0917E14F0917F14D8016C
:1023600056969C918689981778F2C0928214809133
:10237000CD14882369F680918F14882309F459C1FC
:1023800080918F14882309F454C189E0A82E80918C
:102390008614882309F035C18091831490918414A8
:1023A00001969093841480938314C0908314D090EA
:1023B0008414C114D10419F52091C9143091CA14A0
:1023C0008091CB149091CC149093CA148093C9142B
:1023D0003093CC142093CB14809185148F5F80931D
:1023E0008514E091C914F091CA148081882309F002
:1023F00004C4EFEFFFEFF0934D02E0934C028091A5
:102400004C0290914D02C816D90608F4DDC3BB24D6
:10241000E091C914F091CA148081882309F44CC05A
:10242000E091C914F091CA140580F681E02D06816F
:102430001781D80112968D919C911397C816D906D1
:1024400008F4F5C3B2E0EB2EF12CE00EF11EC7014B
:102450000E94F424F80184899589892B21F0C80110
:102460000C960E94F424D80156969C915697809120
:102470008114891720F49093811456969C919A9D0B
:10248000C00111248D569B4EB7010E94A324E091F8
:102490007E14F0917F14D80156969C9186899817E6
:1024A00008F4B6CFBB24B394E091C914F091CA14D8
:1024B0008081882309F0B4CF4FEF5FEF50934D0236
:1024C00040934C0282C3DD24BC81BD0DBC83CC2073
:1024D00009F060CE8FE0B89F50011124A40CB51C08
:1024E000E090C914F090CA14F7018081882309F4A0
:1024F00095C10180F281E02D0280F381E02DD701AA
:102500001296FC93EE93119713E0812E912C8E0C72
:102510009F1CE815F90509F4A3C366807780DD24C4
:10252000AFE0CA2E82819381F7019283818388165E
:10253000990609F45EC0D7011196ED91FC911297AE
:1025400066817781DC9C800111240A0D1B1DF80136
:1025500071836083675E7F4F7383628369517040CC
:10256000DB0191968C919197848342E050E05683F1
:10257000458356968C915697878393968C91939723
:10258000808794968D919D910D90BC91A02D81870F
:102590009287A387B487FB01A789B08D8C91853A78
:1025A00009F042C320E030E040E050E02F5F3F4FB1
:1025B0004F4F5F4FFD01E20FF31F8081853AB1F36A
:1025C000C901D8011E969C938E931D97D3946616CD
:1025D000770609F424C1D7011196ED91FC91129769
:1025E00082819381F701928381838816990609F08D
:1025F000A2CFD40112968D919C91139792838183DF
:102600009ACF80918F148F5F80938F14BB24809119
:102610008214882309F0D4C2BB2009F0D1C2809172
:102620008F14815080938F1480918F14882309F028
:10263000AECE80918214813011F40E942E240F902E
:102640000FBEEB81E983C401B30124E630E040E032
:1026500050E00E940D2C59016A01A114B104C1047B
:10266000D10409F433CE1A829A818981981708F02F
:102670002DCEE3E18E2EE2E09E2E72E2672E72E016
:10268000772E60C08A812A814DB75EB74A5050408C
:102690000FB6F8945EBF0FBE4DBFADB7BEB7119673
:1026A000EDB7FEB73282218213969C928E921297DA
:1026B00090E0FC01EE0FFF1FE80FF91FCF01880F1C
:1026C000991F880F991FE80FF91FE40DF51D8281EE
:1026D000938115969C938E93149730E0F901EE0F39
:1026E000FF1FE20FF31FCF01880F991F880F991F5B
:1026F000E80FF91FE40DF51D8185928517969C93CF
:102700008E9316971996FC92EE9218970E947B076B
:102710004DB75EB7465F5F4F0FB6F8945EBF0FBE12
:102720004DBFD1010D900020E9F71197A219B3090F
:102730008A818F5F8A839A818981981708F0C6CD34
:102740002A0E3B1E8A8190E0FC01EE0FFF1FE80F6E
:10275000F91FCF01880F991F880F991FE80FF91FE4
:10276000E40DF51D6185728583859485A60195012B
:102770000E940D2C79018A01E114F1040105110573
:1027800009F080CF8A812A81ADB7BEB718970FB6FE
:10279000F894BEBF0FBEADBF1196EDB7FEB7328243
:1027A000218213967C926E92129790E0FC01EE0FBC
:1027B000FF1FE80FF91FCF01880F991F880F991F7E
:1027C000E80FF91FE40DF51D8281938115969C9306
:1027D0008E93149730E0F901EE0FFF1FE20FF31F05
:1027E000CF01880F991F880F991FE80FF91FE40D7B
:1027F000F51D8185928517969C938E9316970E945E
:102800007B074DB75EB7485F5F4F0FB6F8945EBF6A
:102810000FBE4DBF86CF80E090E038CDDD24CC8068
:10282000CD0C8FE0C89E50011124A40CB51CE09083
:10283000CB14F090CC14F7018081882309F486C072
:102840000180F281E02D0280F381E02DD701129604
:10285000FC93EE93119773E0872E912C8E0C9F1CA6
:10286000E815F90509F406C266807780DD248281C7
:102870009381F701928381838816990609F45EC0DB
:10288000D7011196ED91FC91129766817781BFE097
:10289000DB9E800111240A0D1B1DF80171836083EA
:1028A000675E7F4F7383628369517040DB0191964D
:1028B0008C919197848342E050E0568345835696ED
:1028C0008C915697878393968C9193978087949653
:1028D0008D919D910D90BC91A02D81879287A387AA
:1028E000B487FB01A789B08D8C91853A09F099C115
:1028F00020E030E040E050E02F5F3F4F4F4F5F4F10
:10290000FD01E20FF31F8081853AB1F3C901D801BF
:102910001E969C938E931D97D39466167706B9F0F6
:10292000D7011196ED91FC91129782819381F70165
:10293000928381838816990609F0A2CFD40112965A
:102940008D919C911397928381839ACFDD24ED2CF6
:10295000EC0C8FE0E89E60011124C40CD51C809122
:10296000D614882309F47CC0E091D714F091D814D0
:102970000280F381E02DF093D814E093D714B4E1F2
:10298000E93DFB0709F480C1E091D714F091D81418
:10299000A680B780FF246FE0762E54E0852E912C20
:1029A0000280F381E02DF093D814E093D71444E132
:1029B000E93DF40709F4FDC0E091D714F091D81473
:1029C00066817781F79C800111240C0D1D1DD801B3
:1029D00011967C936E93675E7F4F13967C936E93F4
:1029E000129769517040FB0181A114968C93149742
:1029F00016969C928E921597868917968C931797A8
:102A000083A118968C9384A195A1A6A1B7A1F801E2
:102A100081879287A387B487FB01A789B08D8C91AA
:102A2000853A09F0FBC020E030E040E050E02F5F45
:102A30003F4F4F4F5F4FFD01E20FF31F8081853AFB
:102A4000B1F3C901D8011E969C938E931D97F39400
:102A5000A616B70631F0E091D714F091D814A0CFA4
:102A6000FF24EF0C8FE0E89E60011124C40CD51CFC
:102A70008091DF14882309F48AC0E091E014F0917A
:102A8000E1140280F381E02DF093E114E093E0146F
:102A9000B4E1E23EFB0709F4DCC0E091E014F09100
:102AA000E114A680B780FF2443E0842E912C32E00D
:102AB000632E712C0280F381E02DF093E114E093FA
:102AC000E01444E1E23EF40709F46CC0E091E01444
:102AD000F091E114668177815FE0F59E8001112419
:102AE0000C0D1D1DD80111967C936E93675E7F4F70
:102AF00013967C936E93129769517040FB0181A1EC
:102B000014968C93149716969C928E92159786899C
:102B100017968C93179784899589892B21F016969F
:102B20007C926E921597DB0193968C919397F801A6
:102B3000808794968D919D910D90BC91A02D818759
:102B40009287A387B487FB01A789B08D8C91853AC2
:102B500009F072C020E030E040E050E02F5F3F4FCE
:102B60004F4F5F4FFD01E20FF31F8081853AB1F3B4
:102B7000C901D8011E969C938E931D97F394A616B7
:102B8000B70631F0E091E014F091E11493CFFF2407
:102B9000FE0CFB8280918400909185003C0188248A
:102BA00099249CCB828193819093E1148093E014CB
:102BB0008DCF828193819093D8148093D714FCCECB
:102BC000B1E0B09382142BCDBB24E0917E14F09140
:102BD0007F14868990E0FC01EE0FFF1FEE0FFF1FB0
:102BE000EE0FFF1FE80FF91FED56FB4E808182307C
:102BF00008F40DCDBB24B3940ACDE091C914F09133
:102C0000CA140580F681E02D0680F781E02D8281CF
:102C1000938190934D0280934C02F1CB80E090E041
:102C200011CF80E090E073CE80E090E0CACC90932A
:102C30004D0280934C02C9CF80E090E09ACF828110
:102C4000938111968C93119712969C939C01F90194
:102C5000CACA828193819093E1148093E0141DCFBE
:102C60008281938111968C93119712969C939C016B
:102C7000F90153CC8281938111968C93119712960E
:102C80009C939C01F901F0CD828193819093D8149B
:102C90008093D71479CEA3E0B0E0E1E5F6E10C949F
:102CA0002F2C1C01DC011C9280918014898390914F
:102CB00080148FE0989FC00111240E944F095C018D
:102CC000009709F4ADC08981909186149F5F90931D
:102CD000861490918014891708F4A6C064E0C62E6B
:102CE0001B82CA94BB81EFE0BE9F400111248A0C75
:102CF0009B1CF9E0CF9E7001112423E934E1E20E20
:102D0000F31ED7018C91882309F482C11196ED91AD
:102D1000FC9112970280F381E02D1296FC93EE93C2
:102D2000119753E0652E712C6E0C7F1CE615F7058C
:102D300009F4FEC446805780DD2482819381F70127
:102D4000928381836816790609F45FC0D7011196D2
:102D5000ED91FC91129766817781BFE0DB9E800147
:102D60001124080D191DF80171836083675E7F4F80
:102D70007383628369517040DB0191968C919197C6
:102D8000848321E030E03683258356968C915697D4
:102D9000878393968C919397808794968D919D913C
:102DA0000D90BC91A02D81879287A387B487FB01EA
:102DB000A789B08D8C91853A09F0AEC220E030E051
:102DC00040E050E02F5F3F4F4F4F5F4FFD01E20F5C
:102DD000F31F8081853AB1F3C901D8011E969C93F7
:102DE0008E931D97D3944616570609F412C1D70146
:102DF0001196ED91FC91129782819381F701928354
:102E000081836816790609F0A1CFD30112968D91BE
:102E10009C9113979283818399CFC5010E94DC080E
:102E20002396E2E10C944B2C77240FB6F8940F9282
:102E30008091861481508093861480918614882313
:102E400009F0A2C180918014882309F49DC1A9E0F2
:102E5000DA2ECC24C3948091CD14882399F1E0918B
:102E6000D214F091D31406811781C8010C960E94E8
:102E7000F424B2E0EB2EF12CE00EF11EC7010E940B
:102E8000F424F801968980918114891718F490939D
:102E9000811496899D9DC00111248D569B4EB701CA
:102EA0000E94A324E0917E14F0917F14D8015696DD
:102EB0009C918689981778F2C09282148091CD14E3
:102EC000882369F680918F14882309F457C1809173
:102ED0008F14882309F452C1F9E0CF2E44244A9478
:102EE000542C6624639480918614882309F02EC1A3
:102EF000809183149091841401969093841480930C
:102F0000831480908314909084148114910409F5A3
:102F10002091C9143091CA148091CB149091CC1493
:102F20009093CA148093C9143093CC142093CB147B
:102F3000809185148F5F80938514E091C914F0917E
:102F4000CA148081882309F0D1C350924D02409267
:102F50004C0280914C0290914D028816990608F41B
:102F6000ACC3DD24E091C914F091CA148081882398
:102F700009F449C0E091C914F091CA140580F681A2
:102F8000E02D06811781F8018281938188169906C8
:102F900008F4C6C3E2E0EE2EF12CE00EF11EC701EC
:102FA0000E94F424D80154968D919C915597892BB9
:102FB00021F0C8010C960E94F424F80196898091B2
:102FC0008114891718F49093811496899C9DC001EF
:102FD00011248D569B4EB7010E94A324E0917E14CC
:102FE000F0917F14D80156969C918689981708F421
:102FF000B9CFDD24D394E091C914F091CA14808133
:10300000882309F0B7CF50924D0240924C0256C32C
:10301000DD24BB81BD0DBB83CC2009F062CE8FE0E7
:10302000B89F400111248A0C9B1CE090C914F090B9
:10303000CA14F7018081882309F471C10180F281EB
:10304000E02D0280F381E02DD7011296FC93EE93E0
:10305000119743E0642E712C6E0C7F1CE615F7056A
:1030600009F477C346805780DD243FE0C32E828178
:103070009381F701928381836816790609F45EC013
:10308000D7011196ED91FC91129766817781DC9CB6
:1030900080011124080D191DF80171836083675E9A
:1030A0007F4F7383628369517040DB0191968C91ED
:1030B0009197848322E030E03683258356968C9165
:1030C0005697878393968C919397808794968D914A
:1030D0009D910D90BC91A02D81879287A387B48785
:1030E000FB01A789B08D8C91853A09F016C320E0C9
:1030F00030E040E050E02F5F3F4F4F4F5F4FFD010A
:10310000E20FF31F8081853AB1F3C901D8011E9601
:103110009C938E931D97D3944616570609F400C1CD
:10312000D7011196ED91FC91129782819381F7015D
:10313000928381836816790609F0A2CFD301129693
:103140008D919C911397928381839ACF80918F1454
:103150008F5F80938F14DD2480918214882309F07F
:10316000A9C2DD2009F0A6C280918F1481508093FE
:103170008F1480918F14882309F0B5CE809182142A
:10318000813011F40E942E240F900FBE79821A8292
:103190009A818981981708F040CE61E3E62E62E0BB
:1031A000F62E8FC0019709F4B4C000E010E08A81C8
:1031B0002A814A816A81EDB7FEB73E970FB6F8942F
:1031C000FEBF0FBEEDBFADB7BEB7119632822182F2
:1031D0001396FC92EE92129790E0FC01EE0FFF1F07
:1031E000E80FF91FCF01880F991F880F991FE80F6B
:1031F000F91FEA0DFB1D8281938115969C938E9396
:10320000149717961C930E93169730E0F901EE0F62
:10321000FF1FE20FF31FCF01880F991F880F991F1F
:10322000E80FF91FEA0DFB1D878118968C931897FC
:1032300019961C92199750E0FA01EE0FFF1FE40F48
:10324000F51FCF01880F991F880F991FE80FF91FED
:10325000EA0DFB1D858596851B969C938E931A9788
:1032600070E0FB01EE0FFF1FE60FF71FCF01880F85
:10327000991F880F991FE80FF91FEA0DFB1D848124
:103280001C968C931C971D961C920E947B07D10163
:103290000D900020E9F71197A219B3098A818F5F79
:1032A0008A839A8189812DB73EB7225F3F4F0FB63F
:1032B000F8943EBF0FBE2DBF981708F0AECD2A0E72
:1032C0003B1E8A8190E0FC01EE0FFF1FE80FF91F03
:1032D000CF01880F991F880F991FE80FF91FEA0D7A
:1032E000FB1D858196818230910569F083309105BF
:1032F00008F458CF8330910549F0049709F055CF71
:1033000004E410E054CF02E410E051CF03E510E0F4
:103310004ECF02E510E04BCF80E090E05ECDDD24A3
:10332000CB80CD0C8FE0C89E400111248A0C9B1CE1
:10333000E090CB14F090CC14F7018081882309F43D
:1033400086C00180F281E02D0280F381E02DD7015B
:103350001296FC93EE93119723E0622E712C6E0C63
:103360007F1CE615F70509F4FEC146805780DD2471
:1033700082819381F701928381836816790609F42B
:103380005EC0D7011196ED91FC911297668177810D
:10339000BFE0DB9E80011124080D191DF801718327
:1033A0006083675E7F4F7383628369517040DB0186
:1033B00091968C919197848322E030E03683258327
:1033C00056968C915697878393968C919397808786
:1033D00094968D919D910D90BC91A02D818792879F
:1033E000A387B487FB01A789B08D8C91853A09F03A
:1033F00091C120E030E040E050E02F5F3F4F4F4F61
:103400005F4FFD01E20FF31F8081853AB1F3C901DF
:10341000D8011E969C938E931D97D39446165706FB
:10342000B9F0D7011196ED91FC91129782819381A9
:10343000F701928381836816790609F0A2CFD30140
:1034400012968D919C911397928381839ACFDD245C
:10345000ED2CEC0C8FE0E89E60011124CA0CDB1C03
:103460008091D614882309F47CC0E091D714F091A0
:10347000D8140280F381E02DF093D814E093D71490
:10348000B4E1E93DFB0709F478C1E091D714F0916C
:10349000D81486809780FF249FE0592E84E0682E00
:1034A000712C0280F381E02DF093D814E093D714AF
:1034B00024E1E93DF20709F4F6C0E091D714F09158
:1034C000D81466817781F59C800111240C0D1D1D97
:1034D000D80111967C936E93675E7F4F13967C9311
:1034E0006E93129769517040FB0181A114968C93E1
:1034F000149716967C926E921597868917968C93E0
:10350000179783A118968C9384A195A1A6A1B7A122
:10351000F80181879287A387B487FB01A789B08DC3
:103520008C91853A09F0F3C020E030E040E050E0B3
:103530002F5F3F4F4F4F5F4FFD01E20FF31F808121
:10354000853AB1F3C901D8011E969C938E931D97BD
:10355000F3948616970631F0E091D714F091D814C1
:10356000A0CFFF24EF0C8FE0E89E60011124CA0C6D
:10357000DB1C8091DF14882309F48AC0E091E014F9
:10358000F091E1140280F381E02DF093E114E093D7
:10359000E014B4E1E23EFB0709F4D4C0E091E0148A
:1035A000F091E11486809780FF2403E0602E712C57
:1035B00012E0412E512C0280F381E02DF093E114B2
:1035C000E093E01424E1E23EF20709F465C0E091E3
:1035D000E014F091E114668177813FE0F39E800171
:1035E00011240C0D1D1DD80111967C936E93675EFE
:1035F0007F4F13967C936E93129769517040FB0135
:1036000081A114968C93149716967C926E921597BE
:10361000868917968C93179784899589892B21F031
:1036200016965C924E921597DB0193968C91939728
:10363000F801808794968D919D910D90BC91A02D5D
:1036400081879287A387B487FB01A789B08D8C916E
:10365000853A09F06AC020E030E040E050E02F5F9A
:103660003F4F4F4F5F4FFD01E20FF31F8081853ABF
:10367000B1F3C901D8011E969C938E931D97F394C4
:103680008616970631F0E091E014F091E11493CFA3
:10369000FF247F2C7E0CC9CB828193819093E1140F
:1036A0008093E01494CF828193819093D814809377
:1036B000D71403CF6092821457CDDD24E0917E149D
:1036C000F0917F14868990E0FC01EE0FFF1FEE0F52
:1036D000FF1FEE0FFF1FE80FF91FED56FB4E808115
:1036E000823008F439CDDD24D39436CDE091C9146D
:1036F000F091CA140580F681E02D0680F781E02D57
:103700008281938190934D0280934C0222CC80E081
:1037100090E019CF80E090E07BCE80E090E0F6CCA6
:1037200090934D0280934C02C9CF80E090E0A2CFED
:103730008281938111968C93119712969C939C0190
:10374000F901F8CA828193819093E1148093E01487
:1037500025CF8281938111968C93119712969C9319
:103760009C01F9017FCC8281938111968C931197F2
:1037700012969C939C01F901F8CD828193819093DC
:10378000D8148093D71481CE0F931F93CF93DF93D8
:10379000EC01009789F080917E1490917F14C817F6
:1037A000D90751F00FB6F8940F928A859B858F5DEB
:1037B000944139F00F900FBEDF91CF911F910F917F
:1037C00008958C899D8924E18D3C920799F3892B7A
:1037D00089F78E010E5F1F4FC8010E94F4249E8955
:1037E00080918114891710F49093811489E0989F37
:1037F000C00111248D569B4EB8010E94A324E09174
:103800007E14F0917F149E898689981798F20E9401
:103810002E24D0CFEF92FF920F931F93CF93DF937D
:103820000FB6F8940F92009709F4DDC0EC018E01F9
:103830000E5F1F4FC8010E94F4248C899D89892B3B
:1038400021F0CE010C960E94F4248FED94E1B80192
:103850000E94A3240F900FBE80917E1490917F143C
:10386000C817D90761F180919014882391F00FB6A1
:10387000F8940F92E091C914F091CA1480818823C2
:1038800069F48FEF9FEF90934D0280934C020F905D
:103890000FBECDB7DEB7E6E00C94572CE091C9140B
:1038A000F091CA140580F681E02D0680F781E02DA5
:1038B0008281938190934D0280934C02E8CF809156
:1038C0009014882309F098C0909180148091DF149F
:1038D000891709F494C080918614882309F088C060
:1038E0001092821480918400909185007C0100E008
:1038F00010E0E0928714F0928814009389141093DA
:103900008A1480918B1490918C14A0918D14B09195
:103910008E148E159F05A007B107B0F4E0917E14B8
:10392000F0917F14A8019701281B390B4A0B5B0B00
:1039300084A195A1A6A1B7A1820F931FA41FB51FB3
:1039400084A395A3A6A3B7A3E0928B14F0928C1442
:1039500000938D1410938E14E0917E14F0917F14D7
:10396000A0917E14B0917F142081318157968D9162
:103970009C9158978217930730F046C0809181142C
:103980008150809381148091811490E0FC01EE0FAE
:10399000FF1FEE0FFF1FEE0FFF1FE80FF91FED5681
:1039A000FB4E8081882351F39091811489E0989F88
:1039B000D0011124AD56BB4E1196ED91FC9112979A
:1039C0000280F381E02D1296FC93EE931197CD01C6
:1039D0000396E817F90729F18681978190937F1460
:1039E00080937E1456CFC0917E14D0917F141FCF48
:1039F00081E0809382144DCF0E942E244ACF1092F2
:103A00007F1410927E1445CF80917E1490917F1484
:103A100060917E1470917F14675E7F4F0E94510801
:103A2000B2CF8281938111968C93119712969C93B9
:103A30009C01F901D1CFA0E0B0E0E1E2FDE10C94FE
:103A4000362C9C01009741F40E942E24CDB7DEB79E
:103A5000EBE00C94522C77C1809186148F5F809399
:103A60008614C0918314D0918414C20FD31F809107
:103A70007E1490917F1402960E94F424E0917E14AB
:103A8000F0917F14D383C283809183149091841426
:103A9000C817D90708F45BC08091C9149091CA1463
:103AA00060917E1470917F146E5F7F4F0E94C224DC
:103AB00080914C0290914D02C817D90720F4D09301
:103AC0004D02C0934C020FB6F8940F928091861469
:103AD00081508093861480918614882309F04DC00C
:103AE00080918014882309F448C099E0F92EEE24CF
:103AF000E3948091CD148823B9F1E091D214F09130
:103B0000D314C681D781CE010C960E94F4248E0175
:103B10000E5F1F4FC8010E94F4249E89809181147A
:103B2000891710F4909381149F9DC00111248D5624
:103B30009B4EB8010E94A324E0917E14F0917F1463
:103B40009E8986899817A8F2E0928214D2CF80913C
:103B5000CB149091CC1460917E1470917F146E5FA1
:103B60007F4F0E94C224AFCF80918F14882389F4A5
:103B700080918214813009F495C080E00F900FBECF
:103B8000882309F461CFCDB7DEB7EBE00C94522C5B
:103B9000DAC080918F14882359F389E0C82EAA24B3
:103BA000AA94BA2C9924939480918614882309F0BE
:103BB0007DC0809183149091841401969093841415
:103BC00080938314E0908314F0908414E114F10442
:103BD00009F52091C9143091CA148091CB149091A9
:103BE000CC149093CA148093C9143093CC142093AE
:103BF000CB14809185148F5F80938514E091C91454
:103C0000F091CA148081882309F087C0B0924D02D8
:103C1000A0924C0280914C0290914D02E816F90658
:103C200008F45EC0DD24E091C914F091CA148081CB
:103C3000882309F46DC0E091C914F091CA1405807D
:103C4000F681E02DC681D7818A819B81E816F9062D
:103C500008F474C08E010E5F1F4FC8010E94F42447
:103C60008C899D89892B21F0CE010C960E94F42429
:103C70009E8980918114891710F4909381149C9DE2
:103C8000C00111248D569B4EB8010E94A324E091DF
:103C90007E14F0917F149E898689981720F2DD2486
:103CA000D394C1CF0E942E2481E068CF80918F14DD
:103CB0008F5F80938F14DD2480918214882369F4B0
:103CC000DD2059F480918F14815080938F1480915E
:103CD0008F14882309F068CF4BCF90928214F2CFD3
:103CE000DD24E0917E14F0917F14868990E0FC0140
:103CF000EE0FFF1FEE0FFF1FEE0FFF1FE80FF91F64
:103D0000ED56FB4E80818230B8F2DD24D394D4CFBF
:103D1000B0924D02A0924C02E4CFE091C914F09110
:103D2000CA140580F681E02D0680F781E02D82819E
:103D3000938190934D0280934C026CCF90934D02EF
:103D400080934C02CECFA0E0B0E0E9EAFEE10C9413
:103D5000362CFC01EB01809186148F5F80938614D2
:103D6000209183143091841480819181C80FD91FD0
:103D70002817390708F016C1C817D90708F024C159
:103D80002C173D0708F020C1D183C08380917E1499
:103D900090917F1402960E94F424E0917E14F09199
:103DA0007F14D383C2838091831490918414C817A5
:103DB000D90708F4FCC08091C9149091CA1460918D
:103DC0007E1470917F146E5F7F4F0E94C224809199
:103DD0004C0290914D02C817D90720F4D0934D02A0
:103DE000C0934C020FB6F8940F92809186148150C4
:103DF0008093861480918614882309F003C18091F2
:103E00008014882309F4FEC049E0F42EEE24E394E4
:103E10008091CD14882369F1E091D214F091D314EC
:103E2000C681D781CE010C960E94F4248E010E5FCC
:103E30001F4FC8010E94F4249E8980918114891724
:103E400010F4909381149F9DC00111248D569B4EB8
:103E5000B8010E94A324E0917E14F0917F149E8902
:103E600086899817A8F2E09282148091CD14882355
:103E700099F680918F14882309F4BFC080918F1424
:103E8000882309F4BAC039E0C32EAA24AA94BA2C14
:103E90009924939480918614882309F098C0809186
:103EA00083149091841401969093841480938314C6
:103EB000E0908314F0908414E114F10409F520914A
:103EC000C9143091CA148091CB149091CC14909362
:103ED000CA148093C9143093CC142093CB148091CE
:103EE00085148F5F80938514E091C914F091CA14F2
:103EF0008081882309F0ADC0B0924D02A0924C029F
:103F000080914C0290914D02E816F90608F489C0A0
:103F1000DD24E091C914F091CA1480818823E9F16D
:103F2000E091C914F091CA140580F681E02DC68194
:103F3000D7818A819B81E816F90608F49BC08E011F
:103F40000E5F1F4FC8010E94F4248C899D89892B24
:103F500021F0CE010C960E94F4249E898091811458
:103F6000891710F4909381149C9DC00111248D56E3
:103F70009B4EB8010E94A324E0917E14F0917F141F
:103F80009E898689981728F2DD24D394E091C9147C
:103F9000F091CA148081882319F6B0924D02A09244
:103FA0004C0240C0C817D90708F4EECEE9CE809184
:103FB000CB149091CC1460917E1470917F146E5F3D
:103FC0007F4F0E94C2240ECFD183C0830BCF80913C
:103FD0008F148F5F80938F14DD2480918214882347
:103FE000E9F4DD20D9F480918F14815080938F14EF
:103FF00080918F14882309F04DCF809182148130F5
:1040000009F43DC080E00F900FBE882311F40E9498
:104010002E24CDB7DEB7EBE00C94522C9092821494
:10402000E2CFDD24E0917E14F0917F14868990E048
:10403000FC01EE0FFF1FEE0FFF1FEE0FFF1FE80F3B
:10404000F91FED56FB4E8081823038F2DD24D39487
:10405000C4CFE091C914F091CA140580F681E02D17
:104060000680F781E02D8281938190934D028093A9
:104070004C0246CF90934D0280934C02D3CF0E94C6
:104080002E2481E0C0CF0F931F93CF93DF930FB601
:10409000F8940F92009709F453C0EC018E010E5F63
:1040A0001F4FC8010E94F4248C899D89892B21F01F
:1040B000CE010C960E94F42486ED94E1B8010E9492
:1040C000A324809191148F5F809391148091921416
:1040D0008F5F809392140F900FBE8091901488236D
:1040E00019F180917E1490917F14C817D90769F156
:1040F0000FB6F8940F92E091C914F091CA14808120
:104100008823B9F0E091C914F091CA140580F681B2
:10411000E02D0680F781E02D8281938190934D02FE
:1041200080934C020F900FBEDF91CF911F910F91A2
:1041300008958FEF9FEF90934D0280934C02F2CF42
:10414000C0917E14D0917F14A9CF0E942E24ECCF71
:10415000F894109290140E94AE230895A0E0B0E06D
:10416000E4EBF0E20C942F2C2C01362E272E5A0172
:104170003901102F470188E290E00E944F09EC01BD
:10418000009709F4ADC0C114D10409F49DC0D88EC4
:10419000CF8AC60165EA70E0A5010E943D07EF885D
:1041A000F88C832D922D9C01F901DE0190E0808135
:1041B00059968C9359978081882329F09F5F319677
:1041C00011969830A1F718A2012F143008F07AC088
:1041D0000E8B0BA372E0C72ED12CCC0EDD1EC601B8
:1041E0000E949F24CE010C960E949F24D987C887E5
:1041F00084E090E0801B91099D878C87DB8BCA8BC4
:104200001CA21DA21EA21FA20894A108B108C701EA
:104210008A0D9B1DB201A3010E941A2399838883F2
:104220008114910419F0F401D183C0830FB6F8947E
:104230000F92809180148F5F8093801480917E1400
:1042400090917F14892B09F452C080919014882397
:1042500059F4E0917E14F0917F148689181720F0AC
:10426000D0937F14C0937E14809192148F5F8093BB
:10427000921489A39E8980918114891710F49093D8
:10428000811489E0989FC00111248D569B4EB60180
:104290000E94A3240F900FBE80919014882359F0A0
:1042A000E0917E14F0917F148689811720F40E949A
:1042B0002E2481E001C081E0CDB7DEB7E2E10C94AD
:1042C0004B2C51C003E084CFC5010E944F096C0103
:1042D000988F8F8B009709F05CCFCE010E94DC088D
:1042E0008FEFCDB7DEB7E2E10C944B2C3CC0D093FE
:1042F0007F14C0937E1480918014813009F0B4CF74
:1043000083E994E10E948F248CE994E10E948F2438
:1043100085EA94E10E948F248EEA94E10E948F2422
:1043200067EBE62E64E1F62EC7010E948F2450EC65
:10433000A52E54E1B52EC5010E948F248DEC94E189
:104340000E948F2486ED94E10E948F248FED94E1EA
:104350000E948F24F092CA14E092C914B092CC1437
:10436000A092CB1481CFA0E0B0E0E9EBF1E20C9495
:10437000392C88E290E00E944F09EC01009709F483
:1043800091C085E590E00E944F09988F8F8B009730
:1043900009F4C7C065EA70E045E550E00E943D07BA
:1043A0000F89188DE3E4F2E0DE01808159968C9349
:1043B00059978081882331F03196119682E0EB3451
:1043C000F80799F718A21E8A1BA2F2E0CF2ED12C73
:1043D000CC0EDD1EC6010E949F24CE010C960E94C9
:1043E0009F24D987C88784E090E09D878C87DB8BEA
:1043F000CA8B1CA21DA21EA21FA2C8018C5A9F4FCD
:1044000064E171E040E050E00E941A2399838883C0
:104410000FB6F8940F92809180148F5F8093801470
:1044200080917E1490917F14892B09F441C0809172
:104430009014882359F4E0917E14F0917F148689BA
:10444000882321F4D0937F14C0937E14809192141A
:104450008F5F8093921489A39E898091811489171C
:1044600010F49093811489E0989FC00111248D5617
:104470009B4EB6010E94A3240F900FBE8091901412
:10448000882321F080917E1490917F14F89481E02C
:104490008093901410928414109283140E941F250C
:1044A0000E946523CDB7DEB7E8E00C94552C41C0DF
:1044B000D0937F14C0937E1480918014813031F6A4
:1044C00083E994E10E948F248CE994E10E948F2477
:1044D00085EA94E10E948F248EEA94E10E948F2461
:1044E000E7EBEE2EE4E1FE2EC7010E948F2400ECE4
:1044F00014E1C8010E948F248DEC94E10E948F2466
:1045000086ED94E10E948F248FED94E10E948F2428
:10451000F092CA14E092C9141093CC140093CB14F7
:1045200095CFCE010E94DC08CDB7DEB7E8E00C9451
:10453000552CAF92BF92DF92EF92FF920F931F9391
:10454000CF93DF93EC015A01809186148F5F8093A3
:10455000861480918014681708F46AC000E014E0A3
:104560008FE0D82EB9E0EB2E1150AFE0FA2E0D9D62
:10457000C00111241E9DB00111246D567B4E8C0F7D
:104580009D1F41E050E00E94C10A080F112361F70E
:104590006091C9147091CA140F9DC00111248C0F31
:1045A0009D1F42E050E00E94C10A102F180F609139
:1045B000CB147091CC141F9DC00111248C0F9D1F32
:1045C00042E050E00E94C10A180F1F9DC001112453
:1045D0008C0F9D1F66ED74E144E050E00E94C10A1B
:1045E000180F1F9DC00111248C0F9D1F6FED74E1EA
:1045F00043E050E00E94C10A180FA114B10459F021
:104600008091840090918500A0E0B0E0F501808366
:104610009183A283B3830E94670F812FDF91CF9193
:104620001F910F91FF90EF90DF90BF90AF90089592
:1046300010E0F1CFFC0191E1908322E2229383E329
:104640008293629372931292129280E882931292F2
:104650001292129282E0829383E0829384E08293AA
:1046600085E0829386E0829387E0829388E082935C
:1046700089E0829380E18293929382E1829383E145
:10468000829384E1829385E1829386E1829387E13C
:10469000829388E1829389E1829380E2829381E22E
:1046A0008293229383E282934293529386E282938F
:1046B00087E2829388E2829389E2829380E3829305
:1046C00081E382933197CF01089584EF91E0909335
:1046D000E9148093E8149093EB148093EA1481E03A
:1046E0008093990083EF809398008BE080939100F2
:1046F000E1E7F0E0808182608083A0917E14B09138
:104700007F14CD91CDBFDD91DEBFFF91EF91DF91A1
:10471000CF91BF91AF919F918F917F916F915F9159
:104720004F913F912F911F910F91FF90EF90DF904C
:10473000CF90BF90AF909F908F907F906F905F9041
:104740004F903F902F901F900F900CBE0F900BBE7C
:104750000F900FBE0F90089581E0089508950F9275
:104760000FB6F8940F920BB60F920CB60F921F92E1
:1047700011242F923F924F925F926F927F928F926D
:104780009F92AF92BF92CF92DF92EF92FF920F93E0
:104790001F932F933F934F935F936F937F938F93C9
:1047A0009F93AF93BF93CF93DF93EF93FF93A0912A
:1047B0007E14B0917F140DB60D920EB60D928091BD
:1047C000EA149091EB1401979093EB148093EA1400
:1047D000892B09F435C00E94B00C882311F00E9487
:1047E000B90EA0917E14B0917F14CD91CDBFDD9113
:1047F000DEBFFF91EF91DF91CF91BF91AF919F917C
:104800008F917F916F915F914F913F912F911F9168
:104810000F91FF90EF90DF90CF90BF90AF909F905F
:104820008F907F906F905F904F903F902F901F9050
:104830000F900CBE0F900BBE0F900FBE0F900895FF
:104840000E94AC028091E8149091E9149093EB14CB
:104850008093EA14C0CF0E94AF2318950F920FB631
:10486000F8940F920BB60F920CB60F921F92112470
:104870002F923F924F925F926F927F928F929F9270
:10488000AF92BF92CF92DF92EF92FF920F931F935E
:104890002F933F934F935F936F937F938F939F9348
:1048A000AF93BF93CF93DF93EF93FF93A0917E14C9
:1048B000B0917F140DB60D920EB60D920E94B90EF6
:1048C000A0917E14B0917F14CD91CDBFDD91DEBF5C
:1048D000FF91EF91DF91CF91BF91AF919F918F9118
:1048E0007F916F915F914F913F912F911F910F9108
:1048F000FF90EF90DF90CF90BF90AF909F908F9000
:104900007F906F905F904F903F902F901F900F90EF
:104910000CBE0F900BBE0F900FBE0F900895FC01C0
:104920009C012D5F3F4F328321838FEF9FEF948354
:104930008383368325833087278310820895FC0183
:10494000118610860895AC01FC01A181B281FB01A2
:10495000B383A28314968D919C911597958384833C
:104960001496ED91FC9115977383628315967C9351
:104970006E931497FB0151874087FA0180818F5F06
:1049800080830895CF93DF93AC01EB0128813981B7
:104990008FEF2F3F380701F1DA01139601C0DF01D5
:1049A0001296ED91FC911397808191812817390718
:1049B000B0F7FB83EA83D583C483BD83AC831396AE
:1049C000DC93CE93129759874887FA0180818F5FD5
:1049D0008083DF91CF910895FA01A781B085129667
:1049E000ED91FC911397E5CFCF93DF93DC011896FF
:1049F000CD91DC91199712964D915C911397149675
:104A00008D919C911597FA019583848314962D912D
:104A10003C911597F9015383428389819A818A17C2
:104A20009B0751F019961C921E921897888181500D
:104A30008883DF91CF9108953A832983F3CF109231
:104A40008000E1E8F0E0108210928500109284006E
:104A500084E0808308958093EC140895282F30E03B
:104A6000F901EE0FFF1FEE0FFF1FE20FF31FEE0F16
:104A7000FF1FE05BFD4F0190F081E02D95E803C042
:104A8000892F8A95F1F7808185FFFACFF90193E0AC
:104A9000EE0FFF1F9A95E1F7220F331FE20FF31F6E
:104AA000E25BFD4F0190F081E02D60830895282F97
:104AB00030E0F901EE0FFF1FEE0FFF1FE20FF31FB3
:104AC000EE0FFF1FE05BFD4F0190F081E02D95E8B8
:104AD00003C0892F8A95F1F7808187FFFACF808103
:104AE0008C7111F08FEF0895F90173E0EE0FFF1F45
:104AF0007A95E1F7220F331FE20FF31FE25BFD4FC0
:104B00000190F081E02D80810895CF93DF93282FCD
:104B100030E0F901EE0FFF1FEE0FFF1FE20FF31F52
:104B2000EE0FFF1FE05BFD4FC081D181D901AA0FBD
:104B3000BB1FC90143E0880F991F4A95E1F7A80FF1
:104B4000B91FA25BBD4F04C0ED91FC911197E081AC
:104B5000888187FDF9CF0FB6F8940F928DE190E030
:104B6000289FF001299FF00D389FF00D1124ED5082
:104B7000FB4E118210828681978193838283958375
:104B800084830F900FBEDF91CF91089590E00FB610
:104B9000F8940F922DE130E0829FF001839FF00D99
:104BA000929FF00D1124ED50FB4E208131810F902A
:104BB0000FBEC9010895CF93DF93DB01282F30E0AA
:104BC0000FB6F8940F928DE190E0289FF001299F95
:104BD000F00D389FF00D1124ED50FB4E8081918136
:104BE0000F900FBE892B11F480E027C08DE190E07B
:104BF000AC01249FC001259F900D349F900D11247E
:104C00008D509B4EEC01EC81FD8121910FB6F89403
:104C10000F92FD83EC8388859985E817F90721F4C5
:104C20008E819F819D838C8388819981019799834F
:104C300088830F900FBE2C9381E0DF91CF91089570
:104C4000CF93DF93482F50E00FB6F8940F928DE189
:104C500090E0489FF001499FF00D589FF00D1124FE
:104C6000ED50FB4EA485B5850F900FBE8DE190E011
:104C7000489F9001499F300D589F300D1124F90134
:104C8000ED50FB4E86899789A817B90711F0C90125
:104C90002DC085E8982F9A95F1F7982F9A95F1F7FE
:104CA000982F9A95F1F78A95F1F70FB6F8940F922D
:104CB0008DE190E0489FF001499FF00D589FF00D65
:104CC0001124ED50FB4E848595850F900FBE8A17F9
:104CD0009B0711F490E029C08DE190E09C01429F78
:104CE000C001439F900D529F900D112481509B4E07
:104CF000EC01EA81FB8160830FB6F8940F928A8100
:104D00009B8101969B838A83288539858217930727
:104D100021F48E819F819B838A838881998101966A
:104D2000998388830F900FBE91E0FA01B3E0EE0FF4
:104D3000FF1FBA95E1F7440F551FE40FF51FE25B23
:104D4000FD4F0480F581E02D808180628083892F72
:104D5000DF91CF91089590E0FC01EE0FFF1FEE0F61
:104D6000FF1FE80FF91FEE0FFF1FE05BFD4F0190E3
:104D7000F081E02D808180780895CF93DF93482FD4
:104D800050E0FA01EE0FFF1FEE0FFF1FE40FF51FBB
:104D9000EE0FFF1FE05BFD4F0190F081E02D808161
:104DA0008C7109F04FC0FA01EE0FFF1FCA0133E00A
:104DB000880F991F3A95E1F7E80FF91FE25BFD4F65
:104DC0000190F081E02D60810FB6F8940F928DE193
:104DD00090E0489FF001499FF00D589FF00D11247D
:104DE000ED50FB4E208131810F900FBE8DE190E0A0
:104DF000489FF001499FF00D589FF00D1124ED5090
:104E0000FB4E8285938528173907E1F0EF01EA818F
:104E1000FB8160830FB6F8940F928A819B81019683
:104E20009B838A83288539858217930721F48E8195
:104E30009F819B838A838881998101969983888346
:104E40000F900FBEDF91CF9108951F920F920FB672
:104E50000F920BB60F9211242F933F934F935F93B2
:104E60006F937F938F939F93AF93BF93EF93FF9332
:104E700083E00E94BD26FF91EF91BF91AF919F917A
:104E80008F917F916F915F914F913F912F910F90F3
:104E90000BBE0F900FBE0F901F9018951F920F9290
:104EA0000FB60F920BB60F9211242F933F934F938F
:104EB0005F936F937F938F939F93AF93BF93EF9382
:104EC000FF9382E00E94BD26FF91EF91BF91AF91C9
:104ED0009F918F917F916F915F914F913F912F9112
:104EE0000F900BBE0F900FBE0F901F9018951F9242
:104EF0000F920FB60F920BB60F9211242F933F9380
:104F00004F935F936F937F938F939F93AF93BF93D1
:104F1000EF93FF9381E00E94BD26FF91EF91BF9137
:104F2000AF919F918F917F916F915F914F913F9141
:104F30002F910F900BBE0F900FBE0F901F901895E2
:104F40001F920F920FB60F920BB60F9211242F9350
:104F50003F934F935F936F937F938F939F93AF9301
:104F6000BF93EF93FF9380E00E94BD26FF91EF91E6
:104F7000BF91AF919F918F917F916F915F914F9171
:104F80003F912F910F900BBE0F900FBE0F901F906F
:104F90001895CF93DF93482F50E00FB6F8940F92F7
:104FA0008DE190E0489FF001499FF00D589FF00D72
:104FB0001124ED50FB4E848595850F900FBEFA01AC
:104FC000EE0FFF1F9A01B3E0220F331FBA95E1F7EE
:104FD000892B59F4E20FF31FE25BFD4F0480F5814A
:104FE000E02D80818F7D80832CC0E20FF31FE25B78
:104FF000FD4FA081B1818DE190E09C01429FC001F5
:10500000439F900D529F900D112481509B4EEC01B7
:10501000EC81FD8121910FB6F8940F92FD83EC8312
:1050200088859985E817F90721F48E819F819D83F2
:105030008C83888199810197998388830F900FBE13
:105040002C93DF91CF9108951F920F920FB60F927C
:105050000BB60F9211242F933F934F935F936F934F
:105060007F938F939F93AF93BF93EF93FF9383E0CF
:105070000E94C927FF91EF91BF91AF919F918F91AE
:105080007F916F915F914F913F912F910F900BBE48
:105090000F900FBE0F901F9018951F920F920FB692
:1050A0000F920BB60F9211242F933F934F935F9360
:1050B0006F937F938F939F93AF93BF93EF93FF93E0
:1050C00082E00E94C927FF91EF91BF91AF919F911C
:1050D0008F917F916F915F914F913F912F910F90A1
:1050E0000BBE0F900FBE0F901F9018951F920F923E
:1050F0000FB60F920BB60F9211242F933F934F933D
:105100005F936F937F938F939F93AF93BF93EF932F
:10511000FF9381E00E94C927FF91EF91BF91AF916A
:105120009F918F917F916F915F914F913F912F91BF
:105130000F900BBE0F900FBE0F901F9018951F92EF
:105140000F920FB60F920BB60F9211242F933F932D
:105150004F935F936F937F938F939F93AF93BF937F
:10516000EF93FF9380E00E94C927FF91EF91BF91D9
:10517000AF919F918F917F916F915F914F913F91EF
:105180002F910F900BBE0F900FBE0F901F90189590
:10519000DF92EF92FF920F931F93CF93DF93D82E5E
:1051A0008B01CB010E9429077C01C0E0D0E009C03F
:1051B000F801EC0FFD1F2196E4918D2D6E2F0E94BA
:1051C0002026CE15DF05A0F3DF91CF911F910F911F
:1051D000FF90EF90DF900895BC018091EC140E9445
:1051E000C8280895EF92FF920F931F93CF93DF93F8
:1051F000082F7B01CB010E942907BC0120E030E091
:1052000010E0D801AA0FBB1FAA0FBB1FA00FB11F30
:10521000AA0FBB1FA05BBD4F95E8E80153E0CC0F80
:10522000DD1F5A95E1F7000F111FC00FD11FC25BA0
:10523000DD4F13C0F701E20FF31F4491ED91FC9194
:10524000119703C0892F8A95F1F7808185FFFACFE6
:105250002F5F3F4FE881F98140832617370750F3CE
:10526000DF91CF911F910F91FF90EF900895BC01B6
:105270008091EC140E94F2280895DF92EF92FF9241
:105280000F931F93CF93DF93D82E7B01DB010D90FB
:105290000020E9F78D0101501040061B170BC0E0FC
:1052A000D0E007C02196EE0DFF1D8D2D60810E947C
:1052B0002026FE01C017D107A8F3DF91CF911F91DF
:1052C0000F91FF90EF90DF900895BF92CF92DF9201
:1052D000EF92FF920F931F93CF93DF93B82E7B0132
:1052E0006A01282F30E08DE190E0289FE001299F9E
:1052F000D00D389FD00D1124CD50DB4E8E01045EB1
:105300001F4F02C00E942E24F80180818130D1F30A
:1053100081E08C8F6A8D7B8D888D998DA701960198
:105320000E94C907688D798D8B2D0E943D291C8EA6
:10533000DF91CF911F910F91FF90EF90DF90CF9071
:10534000BF900895BF92CF92DF92EF92FF920F939A
:105350001F93CF93DF93B82E7B016A01282F30E093
:105360008DE190E0289FE001299FD00D389FD00D5E
:105370001124CD50DB4E8E01045E1F4F02C00E94EF
:105380002E24F80180818130D1F381E08C8F6A8DE9
:105390007B8D888D998DA70196010E949F07688D4E
:1053A000798D8B2D0E943D291C8EDF91CF911F910D
:1053B0000F91FF90EF90DF90CF90BF900895BC01C8
:1053C0008091EC140E943D2908951F93CF93DF93A1
:1053D000DB010D900020E9F79D0121503040261B94
:1053E000370B40E050E090E0DC01AA0FBB1FAA0F92
:1053F000BB1FA80FB91FAA0FBB1FA05BBD4F15E8AD
:10540000EC01F3E0CC0FDD1FFA95E1F7880F991F4F
:10541000C80FD91FC25BDD4F13C0FB01E40FF51F9E
:105420009081ED91FC91119703C0812F8A95F1F73E
:10543000808185FFFACF4F5F5F4FE881F9819083CC
:105440004217530750F3DF91CF911F9108951F9397
:10545000CF93DF93182FFB01DA0190E02DE130E0CC
:10546000829FE001839FD00D929FD00D1124CD50DB
:10547000DB4E8C8D813029F495E8892F8A95F1F7E0
:10548000FCCF81E08C8F6A8D7B8D888D998DAF01EB
:105490009D010E94C907688D798D812F0E94E529A1
:1054A0001C8EDF91CF911F910895CF93DF93FB0165
:1054B000DA0190E02DE130E0829FE001839FD00D82
:1054C000929FD00D1124CD50DB4E8C8D813029F46C
:1054D00095E8892F8A95F1F7FCCF81E08C8F6A8D52
:1054E0007B8D888D998DAF019D010E949F07688DEE
:1054F000798D8091EC140E94E5291C8EDF91CF916B
:105500000895BC018091EC140E94E5290895DF9371
:10551000CF93CDB7DEB79E01265F3F4F8E81688562
:105520007985A9010E946529CF91DF910895DF93C4
:10553000CF93CDB7DEB79E01265F3F4F8E81688542
:105540007985A9010E94A229CF91DF910895DF9367
:10555000CF93CDB7DEB7FE01369661917191809100
:10556000EC14AF010E946529CF91DF910895DF937C
:10557000CF93CDB7DEB7FE013696619171918091E0
:10558000EC14AF010E94A229CF91DF910895DF931F
:10559000CF93CDB7DEB79E01265F3F4F8E816885E2
:1055A0007985A9010E94272ACF91DF910895DF9381
:1055B000CF93CDB7DEB79E01265F3F4F8E816885C2
:1055C0007985A9010E94552ACF91DF910895DF9333
:1055D000CF93CDB7DEB7FE01369661917191809180
:1055E000EC14AF010E94272ACF91DF910895DF9339
:1055F000CF93CDB7DEB7FE01369661917191809160
:10560000EC14AF010E94552ACF91DF910895EF92DB
:10561000FF920F931F93E82EFF248DE190E0E89E08
:105620008001E99E100DF89E100D11240D501B4EA7
:10563000F801808D918D0E94DC08F80186819781A8
:105640000E94DC08F801828993890E94DC080FB669
:10565000F8940F92F701B3E0EE0FFF1FBA95E1F750
:10566000EE0CFF1CEE0DFF1DE25BFD4FA481B5812A
:105670008C918F7D8C930480F581E02D80818F77D4
:1056800080830F900FBE1F910F91FF90EF900895B0
:105690007F928F929F92AF92BF92CF92DF92EF92C2
:1056A000FF920F931F93CF93DF93782E4A015B01F4
:1056B000E901C8010E944F099C010097C9F0EDE182
:1056C0007E9EF0011124ED50FB4E0FB6F8940F9220
:1056D0001182108282833383848335839783868308
:1056E000200F311F31872087138702870F900FBE4D
:1056F000CE010E944F099C010097C9F0EDE17E9E0A
:10570000F0011124E150FB4E0FB6F8940F92118274
:1057100010828283338384833583978386832C0F1F
:105720003D1F31872087D387C2870F900FBEE72C9C
:10573000FF24CE010E944F099C018DE190E0E89E7C
:10574000F001E99EF00DF89EF00D1124ED50FB4E96
:10575000208F318FD38FC28F148E0FB6F8940F9293
:105760008701000F111FC70143E0880F991F4A9559
:10577000E1F7080F191F025B1D4FD8011896CD9055
:10578000DC901997C501B4016050774F824C9F4F50
:1057900032E0660F771F881F991F3A95D1F723E0F3
:1057A000880C991CAA1CBB1C2A95D1F7A501940151
:1057B0000E940D2C21503040F60131832083F701E7
:1057C000EE0FFF1FEE0FFF1FEE0DFF1DEE0FFF1F71
:1057D000E05BFD4F0190F081E02D82E08083D801F5
:1057E0001496ED91FC91159788E980831696ED91BA
:1057F000FC91179786E080830F900FBE872DDF9175
:10580000CF911F910F91FF90EF90DF90CF90BF90BD
:10581000AF909F908F907F900895A1E21A2EAA1BBF
:10582000BB1BFD010DC0AA1FBB1FEE1FFF1FA21750
:10583000B307E407F50720F0A21BB30BE40BF50B4D
:10584000661F771F881F991F1A9469F760957095D6
:10585000809590959B01AC01BD01CF0108952F92D9
:105860003F924F925F926F927F928F929F92AF92F0
:10587000BF92CF92DF92EF92FF920F931F93CF933D
:10588000DF93CDB7DEB7CA1BDB0B0FB6F894DEBFD4
:105890000FBECDBF19942A88398848885F846E84EA
:1058A0007D848C849B84AA84B984C884DF80EE8044
:1058B000FD800C811B81AA81B981CE0FD11D0FB64D
:1058C000F894DEBF0FBECDBFED010895F894FFCF71
:1058D00048454C4C4F0048656C6C6F20576F726C9C
:1058E0006421002573090925750909257525250DEC
:1058F0000A0025730909257509093C3125250D0A7A
:10590000002573090925630925750925750925757C
:105910000D0A0049444C4500FF11FF11FFFFC6006E
:10592000C000C100C200C400CE00C800C900CA0047
:10593000CC00D600D000D100D200D4003601300116
:06594000310132013401C7
:00000001FF
