:100000000C9428030C944A030C944A030C944A035E
:100010000C944A030C944A030C944A030C944A032C
:100020000C944A030C944A030C944A030C944A031C
:100030000C944A030C944A030C944A030C944A030C
:100040000C944A030C944A030C944A030C944A03FC
:100050000C944A030C944A030C944A030C944A03EC
:100060000C944A030C9447370C9446380C944A037A
:100070000C944A030C944A030C944A030C944A03CC
:100080000C9400310C944A030C944A030C944A03D8
:100090000C941E370C941D380C944A030C94EE0FEC
:1000A0000C944A030C94810D0C944A030C944A035B
:1000B0000C944A030C94370D0C940C0E0C944A03C8
:1000C0000C944A030C944A030C945C0D0C94F53682
:1000D0000C94F4370C944A030C94CC360C94CB3724
:1000E0000C944A034C10051005100510051005105E
:1000F000051005104C100510051005100510051011
:10010000051005104E1005100510051005100510FE
:1001100005100510861005100510051005100510B6
:10012000051005104E1005100510051005100510DE
:100130000510051086100510051005100510051096
:10014000051005108E10051005100510051005107E
:1001500005100510BE10051005100510051005103E
:1001600005100510051005100510051005100510E7
:1001700005100510341005100510051005100510A8
:100180000510051075100510051005100510051057
:1001900005100510BB100510051005100510051001
:1001A00005100510BB1005100510051005100510F1
:1001B00005100510A61005100510051005100510F6
:1001C00005100510A61005100510051005100510E6
:1001D000051005101F10051005100510051005105D
:1001E0000510051048100510051005100510051024
:1001F000051005101F10051005100510051005103D
:100200000510051048100510051005100510051003
:1002100005100510921005100510051005100510A9
:1002200005100510631005100510051005100510C8
:1002300005100510631005100510051005100510B8
:1002400005100510651005100510051005100510A6
:100250000510051098100510051005100510051063
:100260000510051030106E616E00696E660000406A
:100270007A10F35A00A0724E18090010A5D4E800B5
:1002800000E87648170000E40B54020000CA9A3BCD
:10029000000000E1F5050000809698000000404253
:1002A0000F000000A08601000000102700000000E1
:1002B000E803000000006400000000000A000000E5
:1002C00000000100000000002C76D888DC674F0891
:1002D00023DFC1DFAE59E1B1B796E5E3E453C63A97
:1002E000E651997696E8E6C28426EB898C9B62ED0E
:1002F000407C6FFCEFBC9C9F40F2BAA56FA5F490C8
:10030000055A2AF75C936B6CF9676DC11BFCE0E43E
:100310000D47FEF520E6B500D0ED902E0300943594
:1003200077050080841E080000204E0A000000C8E7
:100330000C333333330F986E12831141EF8D211438
:10034000893BE65516CFFEE6DB18D1844B381BF708
:100350007C1D901DA4BBE424203284725E228100A7
:10036000C9F124ECA1E53D27A0E0B0E0EAEBF1E023
:100370000C940D3CE9E0CE2EAA24A39488248A9400
:10038000982C7724739405C00F900FBEBB2009F002
:100390005FC080911103882309F480C08091060317
:1003A0008F5F80930603B09056030FB6F8940F92B8
:1003B0008091060381508093060380910603882371
:1003C00019F7809100038823F9F280914D03882367
:1003D00071F1E0915203F0915303C681D781CE01B0
:1003E0000C960E9445338E010E5F1F4FC8010E947C
:1003F00045339E8980910103891718F49093010376
:100400009E899C9DC00111248D5E9C4FB8010E9465
:10041000F432E091FE02F091FF029E8986899817DE
:10042000A0F2A092020380914D03882391F680915F
:100430000F03882309F04DC080910203813009F039
:10044000A3CF0E9403310F900FBEBB2009F4A1CFB0
:100450000FB6F8940F92E0915B03F0915C03068174
:100460001781C80102960E94453380910003815094
:1004700080930003809111038150809311030F90AA
:100480000FBEF8018789908D0E946F31C8010E94CC
:100490006F3180911103882309F080CF809113037D
:1004A000823008F476CF0E94033173CF80910F031E
:1004B0008F5F80930F03DD2480910203882309F06E
:1004C00095C0DD2009F092C080910F038150809388
:1004D0000F0380910F03882309F4AECF80910603A8
:1004E000882321F780910303909104030196909350
:1004F000040380930303E0900303F0900403E114EA
:10050000F10409F52091490330914A0380914B038E
:1005100090914C0390934A038093490330934C038A
:1005200020934B03809105038F5F80930503E09137
:100530004903F0914A038081882309F073C09092A7
:100540003D0280923C0280913C0290913D02E8166F
:10055000F90608F44EC0DD24E0914903F0914A0306
:1005600080818823F1F1E0914903F0914A030580ED
:10057000F681E02DC681D7818A819B81E816F90634
:1005800008F461C08E010E5F1F4FC8010E94453301
:100590008C899D89892B21F0CE010C960E944533D0
:1005A0009E8980910103891718F4909301039E8915
:1005B0009C9DC00111248D5E9C4FB8010E94F432B5
:1005C000E091FE02F091FF029E898689981720F241
:1005D000DD24D394E0914903F0914A03808188237C
:1005E00011F690923D0280923C0204C07092020388
:1005F0006BCFDD24E091FE02F091FF02868990E04E
:10060000FC01EE0FFF1FEE0FFF1FEE0FFF1FE80FA5
:10061000F91FED5EFC4F8081823008F44DCFDD2460
:10062000D3944ACFE0914903F0914A030580F681C3
:10063000E02D0680F781E02D8281938190933D0229
:1006400080933C0280CF90933D0280933C02D2CFB6
:1006500011241FBECFEFD1E2DEBFCDBF00E00CBF43
:1006600012E0A0E0B2E0E6EBF8E700E00BBF02C06A
:1006700007900D92A83CB107D9F71BBE16E1A8EC74
:10068000B2E001C01D92A532B107E1F70E948C0BC8
:100690000C94593C0C9400008F938FB78F93F8946F
:1006A0008091AD158F5F8093AD158091AE158F4F02
:1006B0008093AE158091AF158F4F8093AF158091C9
:1006C000B0158F4F8093B0158F918FBF8F91089584
:1006D000A1E1B0E0EEE6F3E00C94083C3C017F873A
:1006E0006E876A01FC0117821682838181FD03C037
:1006F0006FEF7FEF71C39E012F5F3F4F398B288BC8
:10070000F3012381EE85FF8523FD859123FF8191F0
:10071000FF87EE87882309F45CC3853251F4EE85A8
:10072000FF8523FD859123FF8191FF87EE87853229
:1007300029F490E0B3010E94F807E2CF982F10E06F
:10074000882499241032B0F49B3269F09C3228F44A
:10075000903251F0933271F40BC09D3239F09033E6
:1007600049F4116028C01260146025C0186023C0CD
:10077000106121C017FD2AC0892F80538A3078F478
:1007800016FF06C0FAE09F9E902C1124980E13C00D
:100790003AE0839E802C1124880E10620CC09E3299
:1007A00021F416FD16C3106406C09C3611F41068BF
:1007B00002C0983659F4EE85FF8523FD959123FFFD
:1007C0009191FF87EE87992309F0BCCF892F85543B
:1007D000833020F4812F8061905E07C0892F855679
:1007E000833008F0A1C1812F8F7E86FD02C076E0A4
:1007F000972E6FE3F62EF822953619F4F0E4FF2ACF
:1008000007C0963619F420E8F22A02C091109A9493
:10081000F7FE0BC03BE3391520F427E05CE3B52E6F
:100820000EC0B92CB39427E00AC047E0491528F45C
:1008300027E0BB2447E0942E02C0292DBB24C6012B
:1008400004969D878C87F6016081718182819381F6
:10085000AE014F5F5F4F0B2D0E94F1066C010981C5
:10086000202E332400FF04C003FD02C01DE209C096
:10087000F1FE02C01BE205C0F2FC02C010E001C0A4
:1008800010E2C1018C709070892BB9F1112311F421
:1008900083E001C084E0881510F088240AC0881A1B
:1008A000F3FC07C080E290E0B3010E94F8078A944D
:1008B000C9F7112329F0812F90E0B3010E94F807B6
:1008C00023FE03C006E612E00EC00AE612E00BC0EB
:1008D000E114F10409F0805290E0B3010E94F8079E
:1008E0000F5F1F4F05C0EF2CFF24F0E1EF22FF2424
:1008F000F8018491882361F714C1F7FE12C0BC0C83
:1009000024FE04C08A81813309F4BA941B141CF0BC
:10091000BB24B3942DC0F8E0FB1550F538E0B32E9E
:1009200027C0F6FC25C0892D90E08C159D054CF064
:100930002CEFC2162FEFD20624F030E8F32A01C0C4
:100940009A94992049F0E2E0F0E0EC0FFD1FE90DE8
:10095000F11D80818033A1F3F7FE0AC0B92CB39456
:10096000892D90E0C816D90614F0992401C09C186E
:10097000F7FC03C025E030E009C01C141D041CF086
:1009800021E030E003C096012F5F3F4F112311F0AB
:100990002F5F3F4F992029F0892D90E00196280F75
:1009A000391F882D90E02817390714F0882401C0DA
:1009B000821A4F2C5524C20189709070892B39F00E
:1009C00008C080E290E0B3010E94F8078A94882072
:1009D000C1F7112329F0812F90E0B3010E94F8079D
:1009E00043FE07C008C080E390E0B3010E94F8070F
:1009F0008A948820C1F7F7FE46C08601D7FE02C060
:100A000000E010E076010894E11CF11CE01AF10A04
:100A100041E050E04C0F5D1FE40EF51E26014B181F
:100A20005108892D90E0AA24BB24A81AB90A5FEFC7
:100A30000F3F150729F48EE290E0B3010E94F807FA
:100A4000C016D10634F0401651061CF4F70180811F
:100A500001C080E3015010400894E11CF11C0A150C
:100A60001B052CF090E0B3010E94F807E0CF0C15B5
:100A70001D0539F49A81963318F4953311F424FE48
:100A800081E390E04BC08A81813309F00F7E90E0D2
:100A9000B3010E94F8079920A1F08EE290E0B30123
:100AA0000E94F80712E0E1E0F0E0EC0FFD1FE10F1B
:100AB000F11D1F5F808190E0B3010E94F8079A94B6
:100AC00091F744FC03C085E690E002C085E490E025
:100AD000B3010E94F807D7FC05C0C114D10441F44A
:100AE00004FF06C0D094C194D108D3948DE201C014
:100AF0008BE290E0B3010E94F80780E305C08F5FAE
:100B000026EF3FEFC20ED31E3AE0C316D104BCF766
:100B100090E0B3010E94F807C601C096B3010E949D
:100B2000F807CC84DD8452C1933631F0933799F0C5
:100B3000933509F059C023C0F601808189835E0195
:100B40000894A11CB11C22E030E0C20ED31E21E0AB
:100B5000E22EF12C12C0F601A080B18016FD03C078
:100B60006FEF7FEF02C0692D70E022E030E0C20E2F
:100B7000D31EC5010E94ED077C011F7713C0F6014B
:100B8000A080B18016FD03C06FEF7FEF02C0692D1A
:100B900070E022E030E0C20ED31EC5010E94D207F1
:100BA0007C01106813FF07C01BC080E290E0B30116
:100BB0000E94F8078A94882D90E0E816F906A8F3B9
:100BC0000FC0F50117FD859117FF81915F0190E03E
:100BD000B3010E94F80781108A940894E108F10893
:100BE000E114F10471F7F2C0943611F0993689F5E9
:100BF00017FF08C0F601208131814281538184E0D2
:100C000090E00AC0F601808191819C01442737FD64
:100C10004095542F82E090E0C80ED91E9FE6F92E31
:100C2000F12257FF09C050954095309521953F4FCF
:100C30004F4F5F4F90E8F92ACA01B901AE014F5FEB
:100C40005F4F2AE030E00E949C08E82EE889EE1A07
:100C500041C0953721F41F7E2AE030E01CC0197F87
:100C60009F3661F0903720F4983509F0B2C00FC07C
:100C7000903739F0983709F0ACC004C028E030E074
:100C80000AC0106114FD146020E130E004C014FDBE
:100C9000166020E132E017FF08C0F6016081718123
:100CA0008281938144E050E008C0F6018081918107
:100CB000BC0180E090E042E050E0C40ED51EAE01E1
:100CC0004F5F5F4F0E949C08E82E5889E51A8FE716
:100CD000F82EF122F6FE0BC08EEFF822E91438F45C
:100CE000F4FE07C0F2FC05C09FEEF92202C01E2DE3
:100CF00001C0192DF4FE0DC0FE01EE0DF11D808125
:100D0000803319F4E9EEFE2208C01F5FF2FE05C031
:100D100003C08F2D867809F01F5F0F2DF3FC14C0E0
:100D2000F0FE0FC0181510F09E2C0BC09E2C980CD6
:100D3000911A182D06C080E290E0B3010E94F807D6
:100D40001F5F1815C0F304C0181510F4811A01C0F4
:100D5000882404FF0FC080E390E0B3010E94F807ED
:100D600002FF1DC001FD03C088E790E00EC088E5CA
:100D700090E00BC0802F867891F001FF02C08BE2DB
:100D800001C080E2F7FC8DE290E0B3010E94F80719
:100D900006C080E390E0B3010E94F8079A94E9143A
:100DA000C0F3EA94E1E0F0E0EC0FFD1FEE0DF11D61
:100DB000808190E0B3010E94F807EE2091F706C011
:100DC00080E290E0B3010E94F8078A948820C1F77E
:100DD00097CCF30166817781CB016196E2E10C94B7
:100DE000243C283008F027E03327DA01990F311D21
:100DF00087FD916000966105710539F432602E5FC0
:100E00003D9330E32A95E1F708959F3F30F0803815
:100E10007105610509F03C5F3C5F3D93913008F03E
:100E20008068911DDF93CF931F930F93FF92EF92F2
:100E3000192F987F9695E92F96959695E90FFF279C
:100E4000E853FD4F99273327EE24FF24A701E7013C
:100E500005900894079428F4360FE71EF81E491FE2
:100E6000511D660F771F881F991F0694A1F70590E3
:100E7000079428F4E70EF81E491F561FC11D770F6F
:100E8000881F991F661F0694A1F70590079428F400
:100E9000F80E491F561FC71FD11D880F991F661FC7
:100EA000771F0694A1F70590079420F4490F561F69
:100EB000C71FD81F990F661F771F881F0694A9F7B1
:100EC00084911095177041F0D695C7955795479521
:100ED000F794E7941A95C1F7EEE6F2E0689415905E
:100EE000159135916591959105907FE27395E11883
:100EF000F10A430B560BC90BD009C0F7E10CF11EE8
:100F0000431F561FC91FD01D7EF4703311F48A95FC
:100F1000E6CFE894015030F0080F0AF400270217DA
:100F200008F4202F2395022F7A3328F079E37D935C
:100F30002A95E9F710C07D932A9589F6069497952E
:100F40006795379517951794E118F10A430B560BDF
:100F5000C90BD00998F023957E9173957A3308F0E8
:100F600070E37C932013B8F77E9170617D9330F02D
:100F7000839571E37D9370E32A95E1F71124EF9057
:100F8000FF900F911F91CF91DF91992787FD909549
:100F90000895FC0105900020E9F7809590958E0F4B
:100FA0009F1F0895FC010590615070400110D8F713
:100FB000809590958E0F9F1F0895FB01DC0102C064
:100FC00001900D9241505040D8F70895DC0101C0C6
:100FD0006D9341505040E0F70895FC01615070401E
:100FE00001900110D8F7809590958E0F9F1F08955E
:100FF0000F931F93CF93DF938C01EB018B8181FFC4
:101000001BC082FF0DC02E813F818C819D812817DE
:10101000390764F4E881F9810193F983E88306C014
:10102000E885F985802F1995892B31F48E819F8170
:1010300001969F838E8302C00FEF1FEFC801DF91DF
:10104000CF911F910F910895AEE0B0E0EAE2F8E091
:101050000C94163C0E891F8986E08C831A830983C1
:101060008FEF9FE79E838D839E01265E3F4FCE01CB
:101070000196688D798DA9010E9468032F813885BA
:10108000020F131FF80110822E96E4E00C94323CFC
:10109000AEE0B0E0EEE4F8E00C94163C8C0177FF93
:1010A00002C060E070E8615070407E836D831A83F7
:1010B000098386E08C83CE010196BA01A9010E94C2
:1010C00068032D813E8137FD09C0EF81F8852E1719
:1010D0003F070CF4F901E00FF11F10822E96E4E0B7
:1010E0000C94323CAEE0B0E0E8E7F8E00C94163C3B
:1010F0008C0177FF02C060E070E8615070407E8331
:101100006D831A8309838EE08C83CE010196BA0128
:10111000A9010E9468032D813E8137FD09C0EF813E
:10112000F8852E173F070CF4F901E00FF11F10822C
:101130002E96E4E00C94323CFA01AA27283051F1B3
:10114000203181F1E8946F936E7F6E5F7F4F8F4FF8
:101150009F4FAF4FB1E03ED0B4E03CD0670F781F57
:10116000891F9A1FA11D680F791F8A1F911DA11D3C
:101170006A0F711D811D911DA11D20D009F4689475
:101180003F912AE0269F11243019305D3193DEF61D
:10119000CF010895462F4770405D4193B3E00FD0D3
:1011A000C9F7F6CF462F4F70405D4A3318F0495DBE
:1011B00031FD4052419302D0A9F7EACFB4E0A695A1
:1011C0009795879577956795BA95C9F700976105C3
:1011D000710508959B01AC010A2E06945795479519
:1011E00037952795BA95C9F7620F731F841F951F0E
:1011F000A01D0895A2E0B0E0E0E0F9E00C94083C06
:1012000081E090E040E855E260E070E02FEF30E0F0
:1012100000E410E00E94EF3A81E090E06EEF0E945F
:10122000D53481E090E061E00E94D5342E0108942D
:10123000411C511CD201E0E0F2E083E001900D92EC
:101240008150E1F7D2010D900020E9F7CD0100D0E7
:1012500000D0ADB7BEB711960197EDB7FEB7928338
:10126000818323E0222E22E0322E13963C922E928E
:10127000129780919A1514968C93149715961C9238
:101280000E942408F20101900020E9F7319780E2E2
:1012900090E0918380838DB79EB706960FB6F89441
:1012A0009EBF0FBE8DBF81E090E0B2010E948C39DD
:1012B0009CE9E92E95E1F92E03E010E01AC0D70170
:1012C0006C9170E0882777FD8095982F0E94E3331A
:1012D0009B01AC01C601B5010E947D335B016C012D
:1012E0000E5F1F4F82E090E0E80EF91E03311105FA
:1012F000A9F00A3011051CF3F701608170E088271E
:1013000077FD8095982F0E94E3339B01AC01C401C7
:10131000B3010E947D333B014C01E2CF81E492E5B1
:10132000AAE3B0E089839A83AB83BC83F201019086
:101330000020E9F7ADB7BEB718970FB6F894BEBF57
:101340000FBEADBF0DB71EB70F5F1F4F319712967F
:10135000FC93EE931197F80133822282C601B50106
:1013600020E030E040E85EE30E946F34D80114963C
:101370006D937D938D939C9317970E942408F2019F
:1013800001900020E9F7319780E2E82EF12CF182FC
:10139000E082EDB7FEB738960FB6F894FEBF0FBEE9
:1013A000EDBF81E090E0B2010E948C3981E49CE4C1
:1013B000AAE3B0E089839A83AB83BC83F2010190F6
:1013C0000020E9F78DB79EB708970FB6F8949EBF37
:1013D0000FBE8DBF0DB71EB70F5F1F4F3197ADB753
:1013E000BEB71296FC93EE931197F80133822282D6
:1013F000C401B30120E030E040E85EE30E946F34B6
:10140000D80114966D937D938D939C9317970E94AA
:101410002408F20101900020E9F73197F182E0827F
:10142000EDB7FEB738960FB6F894FEBF0FBEEDBF0E
:1014300081E090E0B2010E948C392296E2E10C94A6
:10144000243C813099F08230F9F0833059F16D9A63
:101450006B9A809101018860809301018091020163
:10146000877F809302017598739808958091010198
:10147000877F809301016D9A739A80910201886041
:10148000809302017598089580910101877F809370
:1014900001016B9A759A8091020188608093020124
:1014A000739808956D986B9880910101886080937E
:1014B0000101739A759A80910201877F80930201DE
:1014C000089580E00E94210A81E090E00E948B0C48
:1014D00081E090E061EE7AE00E94DA0C80E090E03A
:1014E0000E948B0C80E090E061EE7AE00E94DA0CC2
:1014F000089581E00E94210A81E090E00E94290C79
:1015000081E090E068EB7BE00E94DA0C80E090E004
:101510000E94290C80E090E068EB7BE00E94DA0CEE
:10152000089581E00E94210A81E090E00E94290C48
:1015300081E090E060ED77E00E94DA0C80E090E0DE
:101540000E94290C80E090E060ED77E00E94DA0CC8
:10155000089583E00E94210A81E090E00E94290C16
:1015600081E090E060ED77E00E94DA0C80E090E0AE
:101570000E94290C80E090E068EB7BE00E94DA0C8E
:10158000089582E00E94210A81E090E00E94290CE7
:1015900081E090E068EB7BE00E94DA0C80E090E074
:1015A0000E94290C80E090E060ED77E00E94DA0C68
:1015B0000895A4E1B0E0EFEDFAE00C94123C83E072
:1015C000C82ED12CCC0EDD1ED601EAE6F2E082E177
:1015D00001900D928150E1F781ED898381E08A834A
:1015E00000E010E07E010894E11CF11CC601800FB0
:1015F000911F62E070E00E94730FC70162E070E02B
:101600000E94730FC80187569A4E62E070E00E94F4
:10161000BE0F20919C1580919A1590E0820F911D2C
:1016200020919E15820F911D2091A015820F911D72
:101630002091A215820F911D2091A415820F911D5A
:101640002091A615820F911D2091A815820F911D42
:101650002091AA15820F911D69E070E00E94D33B92
:1016600070937815609377150E5F1F4F0231110547
:1016700009F0BCCF6496E8E00C942E3CA2E0B0E008
:10168000E4E4FBE00C94123C0E949A0E0E9428179E
:101690009A83898382E090E00E94290C01EE1AE08F
:1016A00022E0E22EF12C6E010894C11CD11C11C065
:1016B0009EEFE92E9FEFF92E8701060F171F82E09C
:1016C00090E0B8010E94DA0CC60161E070E00E946F
:1016D000782B82E090E00E94290C82E090E0B80133
:1016E0000E94DA0C8AE0013E180779F0B701600F1A
:1016F000711F82E1613C7807D8F684E06C3478078A
:10170000D8F682E0E82EF12CD7CFC6016CE070E06D
:101710000E94782BEBCFFFCFAF92BF92CF92DF9298
:10172000EF92FF920F931F9380E090E040E855E224
:1017300060E070E02FEF30E000E410E00E94EF3A4C
:101740009093AC158093AB158BE09CE060E070E06B
:1017500040E051E020E030E003E0EE24FF24CC2420
:10176000DD24AA24BB240E94832D8EE39BE060E04D
:1017700070E040E051E020E030E00E94832D8AEDEF
:101780009BE060E070E040E051E020E030E00E944B
:10179000832D80EC90E00E94C7100E94882E80E08C
:1017A00090E01F910F91FF90EF90DF90CF90BF904E
:1017B000AF900895A2E0B0E0E0EEFBE00C94163CA0
:1017C0000E9428179A8389838E010F5F1F4F0E9402
:1017D000C10AC80164EF71E00E94782B0E94910A4F
:1017E000C80164EF71E00E94782B0E94A90AC80129
:1017F00064EF71E00E94782B0E94790AC80164EFBF
:1018000071E00E94782B0E94610AC80164EF71E0C8
:101810000E94782BDCCFA2E0B0E0E1E1FCE00C9488
:10182000163C0E9428179A8389838E010F5F1F4FF1
:1018300080E00E94D90AC80162E370E00E94782B20
:1018400080E00E94FA08C80162E370E00E94782BF1
:10185000EFCF9C01DC01AA0FBB1FAC01440F551F49
:10186000440F551F440F551FFD01E40FF51FE655AA
:10187000FD4F0190F081E02D808191818C54944046
:1018800085579E4020F080E59AE091838083F9019E
:10189000EE0FFF1FEE0FFF1FE20FF31FEE0FFF1FF4
:1018A000E455FD4F0190F081E02DA40FB51FA65522
:1018B000BD4F14964D915C911597208181E090E089
:1018C00016960C90169702C0880F991F0A94E2F79B
:1018D000282B2083FA01208180958223808318960B
:1018E000ED91FC9119970084F185E02D20811796E8
:1018F000AC91A13069F0A13030F480E89FEB822BED
:10190000892380830895A230E9F788E09BEFF7CF21
:1019100080E29FEEF4CFCF93DF93FC01EE0FFF1F29
:10192000EE0FFF1FE80FF91FEE0FFF1FE455FD4FED
:1019300040815181DC01AA0FBB1FAA0FBB1FAA0F58
:10194000BB1F880F991FA80FB91FA655BD4F14962E
:10195000ED91FC911597EA01288181E090E01696BF
:101960000C90169702C0880F991F0A94E2F7282B53
:10197000288320818095822380831896ED91FC91A5
:1019800019970084F185E02D908117968C91813014
:1019900069F0813030F48FE389238083DF91CF9128
:1019A0000895823029F0DF91CF9108958FECF4CF24
:1019B00083EFF2CF9C01CB018C54944085579E401D
:1019C00098F4C901F901EE0FFF1FEE0FFF1FEE0F94
:1019D000FF1F880F991FE80FF91FE655FD4F019073
:1019E000F081E02D7183608308959C01FC01EE0F6E
:1019F000FF1FEE0FFF1FEE0FFF1F220F331FE20F1F
:101A0000F31FE655FD4F0190F081E02D20813181DB
:101A1000C9010895CF93DF93DC01EB01F894FC0139
:101A2000EE0FFF1FE452FD4F80819181019739F045
:101A300020E030E07894C901DF91CF910895AA0F9A
:101A4000BB1FAA0FBB1FAC52BD4F8D919D910D9036
:101A5000BC91A02D88839983AA83BB8311821082B5
:101A600021E030E07894C901DF91CF9108951F9271
:101A70000F920FB60F9211248F939F93AF93BF9342
:101A80008091C8029091C902A091CA02B091CB0284
:101A90000196A11DB11D8093C8029093C902A09325
:101AA000CA02B093CB02BF91AF919F918F910F90DB
:101AB0000FBE0F901F9018951F920F920FB60F92A6
:101AC00011248F939F93AF93BF938091CC029091F9
:101AD000CD02A091CE02B091CF020196A11DB11D01
:101AE0008093CC029093CD02A093CE02B093CF020C
:101AF000BF91AF919F918F910F900FBE0F901F904C
:101B000018951F920F920FB60F920BB60F921124D9
:101B1000EF92FF920F931F932F933F934F935F93F7
:101B20006F937F938F939F93AF93BF93CF93DF93E5
:101B3000EF93FF93E0918A02F0918B0280818062A3
:101B40008083E0919002F0919102C081D181209137
:101B5000C8023091C9024091CA025091CB02109242
:101B6000C8021092C9021092CA021092CB0221152B
:101B700031054105510509F444C08091D00290918E
:101B8000D1027E0100E010E0A0E0B0E0E81AF90A1E
:101B90000A0B1B0BCA01B9012FE33CE940E050E0FE
:101BA0000E94B43BE60EF71E081F191FE092D402F4
:101BB000F092D5020093D6021093D70281E090E014
:101BC0009093DD028093DC02D093D102C093D002C7
:101BD000FF91EF91DF91CF91BF91AF919F918F9145
:101BE0007F916F915F914F913F912F911F910F9135
:101BF000FF90EF900F900BBE0F900FBE0F901F90B5
:101C000018958091D0029091D1029E01281B390B2A
:101C1000790100E010E0CACF1F920F920FB60F9229
:101C20000BB60F921124EF92FF920F931F932F93F5
:101C30003F934F935F936F937F938F939F93AF9354
:101C4000BF93CF93DF93EF93FF93A0918802B0915E
:101C50008902ED91FC9111978081806280831696B4
:101C6000ED91FC911797C081D1812091CC023091E8
:101C7000CD024091CE025091CF021092CC02109230
:101C8000CD021092CE021092CF02211531054105EE
:101C9000510509F444C08091D2029091D3027E0193
:101CA00000E010E0A0E0B0E0E81AF90A0A0B1B0B14
:101CB000CA01B9012FE33CE940E050E00E94B43B87
:101CC000E60EF71E081F191FE092D802F092D90203
:101CD0000093DA021093DB0281E090E09093DF0240
:101CE0008093DE02D093D302C093D202FF91EF9192
:101CF000DF91CF91BF91AF919F918F917F916F9124
:101D00005F914F913F912F911F910F91FF90EF9015
:101D10000F900BBE0F900FBE0F901F9018958091E3
:101D2000D2029091D3029E01281B390B790100E069
:101D300010E0CACF8091A0008F738093A0008091A3
:101D4000A0008F7C8093A0008091A000837F80936F
:101D5000A0008091A0009091A10083609861809381
:101D6000A0009093A1008091A10082608A7F80935F
:101D7000A1002EE33CE93093A9002093A8008091B4
:101D800020018F7380932001809120018F7C8093AC
:101D9000200180912001837F809320018091200188
:101DA000909121018360986180932001909321019B
:101DB0008091210182608A7F8093210130932901E3
:101DC000209328011092D1021092D0021092C802E2
:101DD0001092C9021092CA021092CB0280910A019D
:101DE0008E7F80930A0180910B018E7F80930B017F
:101DF000E0918C02F0918D028081806280838081ED
:101E000081608083E0919402F091950280818064EA
:101E100080831092D3021092D2021092CC021092C0
:101E2000CD021092CE021092CF0280910A018D7FD6
:101E300080930A0180910B018D7F80930B01A0910B
:101E40008802B09189021296ED91FC9113978081DE
:101E5000806280831296ED91FC911397808181605E
:101E600080831A96ED91FC911B978081806480831A
:101E700008958091BC0080FDFCCF1092E20288EFB3
:101E800080933B0285EC8093BC0008958091BC0058
:101E900080FDFCCF1092E20288EF80933B0285EE3A
:101EA0008093BC000895AC018091BC0080FDFCCF04
:101EB0006093FD02662371F020E030E0F901EB5100
:101EC000FD4FDA01A20FB31F8C9180832F5F3F4F2C
:101ED0002617A0F31092E20288EF80933B0285EC74
:101EE0008093BC000895FC018091BC0080FDFCCF74
:101EF0006093FD0280818093E502808180FD11C0A6
:101F0000623078F0DF01E6EEF2E0625070E0695195
:101F10007D4F11968C91119781931196E617F707D3
:101F2000C1F71092E20288EF80933B0285EA80932A
:101F3000BC000895AC018091BC0080FDFCCF2091D5
:101F4000E20220FF19C0662381F020E030E0FA01B0
:101F5000E20FF31FD901AB51BD4F8C9180832F5FEE
:101F60003F4F2617A0F32091E202822F8D7F8093AE
:101F7000E202822F8170089580E00895AC01809183
:101F8000BC0080FDFCCF8091E202282F217080FFF1
:101F900013C0662389F020E030E0FA01E20FF31F5E
:101FA000D901AB51BD4F8C9180832F5F3F4F2617D6
:101FB000A0F32091E2022170822F08958091E30224
:101FC000882319F089B189B1FDCF81E0089580910E
:101FD000BC0080FDFCCF80913B0208951F920F92C0
:101FE0000FB60F920BB60F9211242F933F938F933E
:101FF0009F93AF93BF93EF93FF938091B90090E0CD
:10200000FC013897E13CF105B0F08091B900809374
:102010003B0285ED8093BC00FF91EF91BF91AF91A2
:102020009F918F913F912F910F900BBE0F900FBEFC
:102030000F901F901895EE58FF4F0C943F3C8091E5
:10204000E4029091BB00E82FF0E0EB51FD4F90834C
:102050008F5F8093E4028091E20281608093E202CC
:1020600085EC8093BC00D8CF2091E4028091BB0026
:10207000E22FF0E0EB51FD4F80832F5F2093E402CD
:1020800030E08091FD0290E001972817390744F372
:1020900085E88093BC00C0CF1092E4029091E402E6
:1020A0008091FD02981708F05DC0E92FF0E0EB5138
:1020B000FD4F80818093BB009F5F9093E40285E891
:1020C0008093BC00A9CF1092E4029091E402E92F22
:1020D000F0E0EB51FD4F80818093BB009F5F9093B8
:1020E000E40285EC8093BC0097CF8091BB00E09127
:1020F000E402F0E0EB51FD4F80838091E2028160C9
:102100008093E20284ED8093BC0086CF8091B90079
:1021100080933B0285EE8093BC007ECF85EE80935A
:10212000BC007ACF84E08093E3028093BC0074CF3C
:102130009091E4028091FD02981719F18091B90005
:1021400080933B0284E08093BC0066CF8091E202E2
:10215000846082608093E2021092E40285EC8093B6
:10216000BC005ACF8091E20281608093E20284E950
:102170008093BC0051CF8091E202EBCF2091E4022A
:102180007FCF8091E20281608093E202DBCF1F93D8
:10219000182F8091E0029091E102892BA9F08AB179
:1021A0008C7F8AB98BB183608BB91092B9008CE2B5
:1021B0008093B8001093BA008FEF8093BB0084E047
:1021C0008093BC001F91089581E060E043E00E948D
:1021D000B4169093E1028093E002009701F360E06F
:1021E00070E040E050E020E00E942114D8CF1F931F
:1021F000182F8091E0029091E102892B69F08AB159
:102200008C7F8AB91093BA008FEF8093BB0084E073
:102210008093BC001F91089581E060E043E00E943C
:10222000B4169093E1028093E002009741F360E0DE
:1022300070E040E050E020E00E942114E0CF0FB6B3
:10224000F8940F92FC01828D0F900FBE0895FC014F
:102250000FB6F8940F92928D0F900FBE838D891B4D
:102260000895FC01828D0895FC01878D0895FC017D
:10227000678F0895FC0180A10895FC01828D90E094
:10228000882309F491E0892F0895FC01928D20E0C4
:10229000838D981711F0822F089521E0822F0895E1
:1022A000CF93DF93EC0188819981009711F00E9410
:1022B0006F31CE010E946F31DF91CF9108950F935E
:1022C0001F93CF93DF93562FE72FEC018A8D88233E
:1022D000F1F00E811F816881798161157105A1F08E
:1022E0004C8D9801240F311D3F832E838A819B8161
:1022F0002817390710F07F836E836E817F81852FC9
:102300009E2F50E00E94DD071F830E8381E0DF9146
:10231000CF911F910F9108950F931F93CF93DF9348
:10232000FB018A01EC018A8D882319F1688179818A
:1023300061157105A1F04C8D8E819F81840F911DD7
:102340009F838E832A813B818217930710F07F83BE
:102350006E836E817F81CF0150E00E94DD078A8D00
:1023600081508A8F8D8D8F3F49F08D8D8F5F8D8F3E
:1023700081E0DF91CF911F910F9108958885882387
:1023800031F481E0DF91CF911F910F910895CE013B
:1023900008960E943C198823A1F30115110589F3C1
:1023A00081E0F8018083E5CFA5E0B0E0EAEDF1E15E
:1023B0000C940A3C562E472E5D834C83A22E8C0132
:1023C00028E0C22ED12CC80ED91E91E1E92EF12CA5
:1023D000E00EF11E20E04E010894811C911C84E067
:1023E000682E712C6C0E7D1EBB24BA940FB6F89427
:1023F0000F92F801828D882309F0ECC08C819D81B9
:10240000892B09F41CC1222309F4D5C00F900FBEFB
:102410000E9422170FB6F8940F92F801858D8F3F16
:1024200009F4C7C0F801868D8F3F09F4C0C00F9032
:102430000FBEC401B3010E944717882309F007C1EA
:102440000FB6F8940F92F801828D0F900FBE88237B
:1024500009F05FC0F80180819181892B09F4AFC038
:102460006C817D81C7010E94261B0FB6F8940F92E4
:10247000F801868D18164CF019C0F801868D815030
:10248000868F868D181694F4F8018189882371F05F
:10249000C7010E943C19882381F30E948617F80126
:1024A000868D8150868F868D181674F3F801B68E4E
:1024B0000F900FBE0FB6F8940F92F801858D181685
:1024C0004CF019C0F801858D8150858F858D1816C7
:1024D00094F4F8018085882371F0C6010E943C19AC
:1024E000882381F30E948617F801858D8150858F9E
:1024F000858D181674F3F801B58E0F900FBE0E94EB
:102500003C1C882311F021E071CF0E94033121E0AF
:102510006DCF0FB6F8940F92F801868D18164CF017
:1025200019C0F801868D8150868F868D181694F417
:10253000F8018189882371F0C7010E943C19882322
:1025400081F30E948617F801868D8150868F868DD3
:10255000181674F3F801B68E0F900FBE0FB6F894EC
:102560000F92F801858D18164CF019C0F801858D71
:102570008150858F858D181694F4F8018085882305
:1025800071F0C6010E943C19882381F30E948617CE
:10259000F801858D8150858F858D181674F3F801AB
:1025A000B58E0F900FBE0E943C1C21E01FCF168EEF
:1025B0003ECF158E37CFC4010E943C1727CF0FB6F0
:1025C000F8940F92F801828193810E94B4180F90C1
:1025D0000FBE46CF8680978060817181611571053D
:1025E000A1F0448D9401240F311D3783268382810D
:1025F00093812817390708F08CC0F801668177812C
:10260000852D942D50E00E94DD07AA2009F073C0AB
:10261000F801828D8150828F80819181892B09F40C
:1026200081C0F8018085882309F46BC0C6010E942F
:102630003C19813009F065C00E94033162C00F90DF
:102640000FBE80E02596E0E10C94263C71C00FB6E9
:10265000F8940F92F801868D18164CF019C0F80105
:10266000868D8150868F868D181694F4F8018189A5
:10267000882371F0C7010E943C19882381F30E94CE
:102680008617F801868D8150868F868D181674F313
:102690008FEFF801868F0F900FBE0FB6F8940F9250
:1026A000F801858D18164CF019C0F801858D815000
:1026B000858F858D181694F4F8018085882371F034
:1026C000C6010E943C19882381F30E948617F801F5
:1026D000858D8150858F858D181674F38FEFF801E5
:1026E000858F0F900FBE0E943C1C80E02596E0E194
:1026F0000C94263C1DC0F80197828682818988232C
:1027000059F40F900FBE81E02596E0E10C94263C31
:102710000FC07783668371CFC7010E943C1988235D
:1027200081F38ACF0E946418F8019383828379CF62
:10273000EF92FF921F93CF93DF937A01122FEC0158
:102740009A8D8B8D981748F0223039F080E0DF9118
:10275000CF911F91FF90EF9008954C8D4423A9F4E1
:1027600088819981892B09F465C08A8D8F5F8A8F52
:102770008E8D8F3F89F18E8D8F5F8E8F81E0DF91FF
:10278000CF911F91FF90EF900895112379F18E81E1
:102790009F8150E00E94DD078C8D90E044275527F3
:1027A000481B590B8E819F81840F951F9F838E83B9
:1027B000288139818217930730F48A819B81840FA5
:1027C000951F9F838E83123081F68A8D882369F24C
:1027D0008A8D81508A8FC9CF89898823F1F481E05D
:1027E000DF91CF911F91FF90EF9008958C819D8193
:1027F00050E00E94DD078C8D2C813D81280F311D1A
:102800003D832C838A819B812817390708F4ADCF3B
:10281000888199819D838C83A8CFCE0141960E94A7
:102820003C198823E1F2E114F104C9F281E0F701D7
:102830008083A5CF8A819B810E9482181B821A8285
:1028400094CFA5E0B0E0E7E2F4E10C940A3C562E08
:10285000472E5D834C83B22E8C0158E0E52EF12C7F
:10286000E80EF91E41E1C42ED12CC80ED91E20E07D
:102870004E010894811C911C34E0632E712C6C0E67
:102880007D1EAA24AA940FB6F8940F92F801928D97
:10289000838D981708F4E0C0F2E0BF1609F4DCC09D
:1028A0008C819D81892B09F41EC1222309F478C0F3
:1028B0000F900FBE0E9422170FB6F8940F92F801E6
:1028C000858D8F3F09F46AC0F801868D8F3F09F42A
:1028D00063C00F900FBEC401B3010E944717882345
:1028E00009F009C10FB6F8940F92F801928D0F907C
:1028F0000FBEF801838D981709F456C00FB6F894EF
:102900000F92F801868D18164CF019C0F801868DCB
:102910008150868F868D181694F4F801818988235A
:1029200071F0C6010E943C19882381F30E9486172A
:10293000F801868D8150868F868D181674F3F80104
:10294000A68E0F900FBE0FB6F8940F92F801858DEA
:1029500018164CF019C0F801858D8150858F858D32
:10296000181694F4F8018085882371F0C7010E943D
:102970003C19882381F30E948617F801858D8150C8
:10298000858F858D181674F3F801A58E0F900FBEF4
:102990000E943C1C21E077CF168E9BCF158E94CFE2
:1029A000C4010E943C1784CF6C817D81C7010E94C5
:1029B000261B0FB6F8940F92F801868D18164CF06E
:1029C00019C0F801868D8150868F868D181694F473
:1029D000F8018189882371F0C6010E943C1988237F
:1029E00081F30E948617F801868D8150868F868D2F
:1029F000181674F3F801A68E0F900FBE0FB6F89458
:102A00000F92F801858D18164CF019C0F801858DCC
:102A10008150858F858D181694F4F8018085882360
:102A200071F0C7010E943C19882381F30E94861728
:102A3000F801858D8150858F858D181674F3F80106
:102A4000A58E0F900FBE0E943C1C882309F0A2CFD8
:102A50000E94033121E017CFF801448D4423A9F4EB
:102A600080819181892B09F4BEC0F801828D8F5F2E
:102A7000828F8189882309F0ADC00F900FBE81E05D
:102A80002596E0E10C94263CB6C0BB2009F487C033
:102A9000F80186819781652D742D50E00E94DD0735
:102AA000F801848D90E044275527481B590B8681F7
:102AB0009781840F951F97838683208131818217A8
:102AC000930730F482819381840F951F97838683C7
:102AD000F2E0BF1651F6F801828D882331F2828D23
:102AE0008150828FC2CF0F900FBE80E02596E0E12B
:102AF0000C94263C80C00FB6F8940F92F801868D96
:102B000018164CF019C0F801868D8150868F868D7D
:102B1000181694F4F8018189882371F0C6010E9487
:102B20003C19882381F30E948617F801868D815015
:102B3000868F868D181674F38FEFF801868F0F90AD
:102B40000FBE0FB6F8940F92F801858D18164CF051
:102B500019C0F801858D8150858F858D181694F4E4
:102B6000F8018085882371F0C7010E943C198823F1
:102B700081F30E948617F801858D8150858F858DA0
:102B8000181674F38FEFF801858F0F900FBE0E9417
:102B90003C1C80E02596E0E10C94263C2CC0F8011A
:102BA00084819581652D742D50E00E94DD07F80128
:102BB000848D24813581280F311D358324838281C2
:102BC00093812817390708F450CF8081918195832C
:102BD00084834BCFC6010E943C19813009F04DCF50
:102BE0000E9403314ACF828193810E948218F801AA
:102BF000138212823ACF0F931F93CF93DF93182F34
:102C000081E290E00E94E231EC01009719F11B8211
:102C10001A82198218821D821C821F821E821A8EBD
:102C200081E08B8F1C8E8FEF8D8F8E8F18A3CE013E
:102C300008960E94E0328E010F5E1F4FC8010E946D
:102C4000E0320FB6F8940F929A8D8B8D981740F062
:102C50000F900FBECE01DF91CF911F910F9108957C
:102C60004C8D442391F488819981892B71F18A8D4F
:102C70008F5F8A8F8989882301F50F900FBECE015F
:102C8000DF91CF911F910F9108958C819D8160E01C
:102C900070E050E00E94DD078C8D2C813D81280F73
:102CA000311D3D832C838A819B8128173907F8F2D7
:102CB000888199819D838C83DACFC8010E943C1959
:102CC0008130D9F60E940331D8CF8A819B810E943E
:102CD00082181B821A82CBCFCF93DF93EC010FB601
:102CE000F8940F92EC8D2B8DE29FC0011124488146
:102CF0005981840F951F9B838A831A8E5D834C8331
:102D000030E021503040F0E02E9FC0012F9F900D09
:102D10003E9F900D1124480F591F5F834E838FEF04
:102D20008D8F8E8F662391F48885882331F40F90E0
:102D30000FBE81E0DF91CF910895CE0108960E94E9
:102D40003C198130A1F70E940331F1CFCE010896E2
:102D50000E94E032CE0141960E94E0320F900FBEF9
:102D600081E0DF91CF910895CF92DF92FF920F9390
:102D70001F93CF93DF93182F062FF42E882359F437
:102D800040E050E0CA01DF91CF911F910F91FF9079
:102D9000DF90CF90089581E290E00E94E231EC0153
:102DA000009771F3C02EDD24812F90E09C01C29E1C
:102DB000C001C39E900DD29E900D112401960E94D9
:102DC000E231998388830097B9F11B8F0C8F0FB67E
:102DD000F8940F922B8D30E0C29EC001C39E900DDF
:102DE000D29E900D112448815981840F951F9B8399
:102DF0008A831A8E5D834C83215030408C8D90E005
:102E0000BC01269FC001279F900D369F900D112475
:102E1000480F591F5F834E838FEF8D8F8E8FCE01AA
:102E200008960E94E032CE0141960E94E0320F9057
:102E30000FBEF8A2AE01A6CFCE010E946F3140E0D6
:102E400050E0A0CF809106038F5F80930603089522
:102E50000FB6F8940F9220910303309104030F9062
:102E60000FBEC90108952091030330910403C901E5
:102E70000895809100030895FC01809105038083EB
:102E80008091030390910403928381830895FC0150
:102E9000DB010FB6F8940F92609103037091040365
:102EA0002D913C9111978FEF2F3F3807F9F09091BA
:102EB000050380818917F1F04181528164177507FC
:102EC00008F5CB01841B950B82179307D8F4261BBA
:102ED000370B240F351F2D933C938091050380837E
:102EE00080910303909104039283818380E00F908B
:102EF0000FBE089541815281CB01841B950B82172F
:102F0000930728F381E00F900FBE089581E080932E
:102F100002030895FC01009711F082A1089580E05A
:102F20000895FC01009709F062A30895A0E0B0E0C5
:102F3000ECE9F7E10C940A3C3C018B015A01DB01FE
:102F40008C91882309F48DC01196ED91FC91129714
:102F50000280F381E02D1296FC93EE93119723E00B
:102F6000C22ED12CC60ED71EEC15FD0509F483C068
:102F700086809780FF249FE0E92E82E0482E512C26
:102F800082819381F80192838183C816D90609F45E
:102F900055C0D8011196ED91FC911297C681D78149
:102FA000FE9CB0011124660D771DFB01D183C08307
:102FB0006996D383C283699789A18483B682A582E7
:102FC0008E898783F3E0AF16B10409F43FC08BA16B
:102FD000FB0180878CA19DA1AEA1BFA181879287B3
:102FE000A387B487AF89B88D8C91853A09F040C02A
:102FF00020E030E040E050E02F5F3F4F4F4F5F4F09
:10300000FD01E20FF31F8081853AB1F3C901DB01B5
:103010001E969C938E931D97F394C815D90511F1B4
:10302000D8011196ED91FC91129782819381F8015C
:1030300092838183C816D90609F0ABCFD6011296C8
:103040008D919C91139792838183A3CF8C899D89C5
:10305000892B09F4BCCFDB0116965C924E92159732
:10306000B6CFFF248F2DCDB7DEB7E0E10C94263C20
:1030700080E090E0CCCF8281938111968C93119760
:1030800012969C939C01F90173CF0097B1F0FC015B
:10309000A789B08D8C91853AA9F420E030E040E01A
:1030A00050E02F5F3F4F4F4F5F4FFD01E20FF31F87
:1030B0008081853AB1F3822F0895E091FE02F0916C
:1030C000FF02E6CF80E008952091FE023091FF02DA
:1030D000C9010895E091FE02F091FF028485958573
:1030E000A091FE02B091FF02E091FE02F091FF027A
:1030F000468924E030E0241B31091D963C932E9331
:103100001C9708950F931F93CF93DF93EC010097C3
:1031100031F19E898BA1981711F18E010E5F1F4F1F
:10312000C8010E9445332BA12E8B8C859D8597FD70
:1031300006C084E090E0821B91099D878C879E8960
:1031400080910103891710F49093010389E0989FFF
:10315000C00111248D5E9C4FB8010E94F432DF91B2
:10316000CF911F910F9108950F931F93CF93DF93EA
:10317000EC01009741F13E89E091FE02F091FF02DF
:103180008689381700F58C859D8597FD0BC0E091E9
:10319000FE02F091FF02268984E090E0821B9109F3
:1031A0009D878C8789E0389FC00111248D5E9C4FDC
:1031B0002A853B852817390759F0E091FE02F091E6
:1031C000FF0286898E8BDF91CF911F910F91089519
:1031D0008E010E5F1F4FC8010E944533E091FE0231
:1031E000F091FF0296899E8B80910103891710F45C
:1031F0009093010389E0989FC00111248D5E9C4F3C
:10320000B8010E94F432DFCF0F931F93CF93DF9367
:10321000FC01706871836083C681D7810E94453349
:103220008E010E5F1F4FC8010E9445339E89809119
:103230000103891710F49093010389E0989FC0015E
:1032400011248D5E9C4FB8010E94F432E091FE0281
:10325000F091FF029E898689891740F481E080936E
:103260000203DF91CF911F910F91089580E0DF91CC
:10327000CF911F910F9108950F931F93CF93DF93D9
:10328000DC011596ED91FC91169706811781E801F6
:103290002C96CE010E94453380910603882331F598
:1032A000E8012296CE010E944533F801968980916B
:1032B0000103891708F189E0989FC00111248D5EF0
:1032C0009C4FBE010E94F432E091FE02F091FF0299
:1032D000D80156969C918689891788F481E080935D
:1032E0000203DF91CF911F910F9108958DE493E038
:1032F000BE010E94F432E8CF90930103DCCF80E05E
:10330000DF91CF911F910F910895A0E0B0E0EBE81D
:10331000F9E10C94123C80910603882309F089C0DE
:10332000809103039091040301969093040380938A
:103330000303E0900303F0900403E114F10419F592
:103340002091490330914A0380914B0390914C03A3
:1033500090934A038093490330934C0320934B038B
:10336000809105038F5F80930503E0914903F091FD
:103370004A038081882309F086C08FEF9FEF9093E6
:103380003D0280933C0280913C0290913D02E81600
:10339000F90608F460C0DD2449E0C42EE091490339
:1033A000F0914A0380818823E9F1E0914903F0918B
:1033B0004A030580F681E02DC681D7818A819B81F1
:1033C000E816F90608F477C08E010E5F1F4FC8019A
:1033D0000E9445338C899D89892B21F0CE010C9662
:1033E0000E9445339E8980910103891710F49093C0
:1033F00001039C9DC00111248D5E9C4FB8010E9469
:10340000F432E091FE02F091FF029E8986899817BE
:1034100028F2DD24D394E0914903F0914A0380819E
:10342000882319F68FEF9FEF90933D0280933C0223
:1034300013C080910F038F5F80930F03DD24809171
:103440000203882311F0DD24D3948D2DCDB7DEB790
:10345000E8E00C942E3CDD24E091FE02F091FF02A6
:10346000868990E0FC01EE0FFF1FEE0FFF1FEE0FAD
:10347000FF1FE80FF91FED5EFC4F80818230F8F2EC
:10348000DD24D394DCCFE0914903F0914A03058019
:10349000F681E02D0680F781E02D82819381909363
:1034A0003D0280933C0280913C0290913D02E816DF
:1034B000F90688F270CF90933D0280933C02CCCF06
:1034C000DF92EF92FF920F931F93CF93DF93EC0164
:1034D0008A859B858F55934041F010E0812FCDB7B1
:1034E000DEB7E7E00C942F3C42C08C899D8923E035
:1034F0008D34920791F3892B81F7809106038823FD
:1035000049F5DE88E091FE02F091FF02068952E063
:10351000E52EF12CEC0EFD1EC7010E9445336E898D
:1035200080910103861710F46093010310E0D01618
:1035300008F011E089E0689FC00111248D5E9C4F66
:10354000B7010E94F432812FCDB7DEB7E7E00C94CB
:103550002F3C0DC02C968DE493E0BE010E94F43206
:1035600010E0812FCDB7DEB7E7E00C942F3C0F932E
:103570001F93CF93DF938A01E091FE02F091FF0247
:103580007068758764876091FE027091FF02645FC6
:103590007F4F0E94F4328091FE029091FF020296CA
:1035A0000E9445338FEF0F3F180709F440C0C091C8
:1035B0000303D0910403C00FD11FE091FE02F091EC
:1035C000FF02D383C2838091030390910403C81741
:1035D000D907E0F08091490390914A036091FE027F
:1035E0007091FF026E5F7F4F0E94133380913C0207
:1035F00090913D02C817D90720F4D0933D02C093A3
:103600003C02DF91CF911F910F91089580914B0360
:1036100090914C036091FE027091FF026E5F7F4FAC
:103620000E941333DF91CF911F910F910895609104
:10363000FE027091FF026E5F7F4F8FE593E00E9464
:10364000F432DF91CF911F910F9108950F931F9343
:10365000CF93DF938B016091FE027091FF02645F54
:103660007F4F0E9413338091FE029091FF020296D9
:103670000E9445338FEF0F3F180709F440C0C091F7
:103680000303D0910403C00FD11FE091FE02F0911B
:10369000FF02D383C2838091030390910403C81770
:1036A000D907E0F08091490390914A036091FE02AE
:1036B0007091FF026E5F7F4F0E94133380913C0236
:1036C00090913D02C817D90720F4D0933D02C093D2
:1036D0003C02DF91CF911F910F91089580914B0390
:1036E00090914C036091FE027091FF026E5F7F4FDC
:1036F0000E941333DF91CF911F910F910895609134
:10370000FE027091FF026E5F7F4F8FE593E00E9493
:10371000F432DF91CF911F910F910895EF92FF92B4
:103720000F931F9380910603882309F093C0109292
:10373000020380918400909185007C0100E010E0FC
:10374000E0920703F09208030093090310930A0321
:1037500080910B0390910C03A0910D03B0910E0387
:103760008E159F05A007B107B0F4E091FE02F0911D
:10377000FF02A8019701281B390B4A0B5B0B84A1A0
:1037800095A1A6A1B7A1820F931FA41FB51F84A363
:1037900095A3A6A3B7A3E0920B03F0920C030093AA
:1037A0000D0310930E03E091FE02F091FF02A09131
:1037B000FE02B091FF022081318157968D919C913C
:1037C00058978217930790F08091FE029091FF0224
:1037D0006091FE027091FF02675E7F4F0E948B0B2B
:1037E00005C0809101038150809301038091010302
:1037F00090E0FC01EE0FFF1FEE0FFF1FEE0FFF1F0B
:10380000E80FF91FED5EFC4F8081882351F3909102
:10381000010389E0989FD0011124AD5EBC4F119641
:10382000ED91FC9112970280F381E02D1296FC93AA
:10383000EE931197CD010396E817F90799F0868169
:1038400097819093FF028093FE021F910F91FF904A
:10385000EF90089581E0809302031F910F91FF90F4
:10386000EF9008958281938111968C93119712960F
:103870009C939C01F901E3CFA0E0B0E0E2E4FCE11D
:103880000C940F3C0FB6F8940F9280910603815070
:103890008093060380910603882309F0EDC0809190
:1038A0000003882309F4E8C0F9E0FF2EEE24E39436
:1038B00080914D03882369F1E0915203F091530305
:1038C000C681D781CE010C960E9445338E010E5FD2
:1038D0001F4FC8010E9445339E89809101038917BB
:1038E00010F4909301039F9DC00111248D5E9C4FA5
:1038F000B8010E94F432E091FE02F091FF029E892D
:1039000086899817A8F2E092020380914D038823DC
:1039100099F680910F03882309F4AAC080910F03C0
:10392000882309F4A5C0E9E0CE2EAA24AA94BA2CD3
:103930009924939480910603882309F083C0809191
:10394000030390910403019690930403809303036F
:10395000E0900303F0900403E114F10409F52091D1
:10396000490330914A0380914B0390914C0390930B
:103970004A038093490330934C0320934B03809177
:1039800005038F5F80930503E0914903F0914A039B
:103990008081882309F097C0B0923D02A0923C023A
:1039A00080913C0290913D02E816F90608F473C03C
:1039B000DD24E0914903F0914A0380818823E9F1F5
:1039C000E0914903F0914A030580F681E02DC6811C
:1039D000D7818A819B81E816F90608F485C08E019B
:1039E0000E5F1F4FC8010E9445338C899D89892B2A
:1039F00021F0CE010C960E9445339E8980910103EF
:103A0000891710F4909301039C9DC00111248D5ED1
:103A10009C4FB8010E94F432E091FE02F091FF0247
:103A20009E898689981728F2DD24D394E091490372
:103A3000F0914A038081882319F6B0923D02A0924A
:103A40003C022AC080910F038F5F80930F03DD2417
:103A5000809102038823E1F4DD20D1F480910F03EB
:103A6000815080930F0380910F03882309F062CF68
:103A700080910203813041F080E00F900FBECDB7FE
:103A8000DEB7EBE00C942B3C0E94033181E0F5CFD4
:103A900090920203E3CFDD24E091FE02F091FF0259
:103AA000868990E0FC01EE0FFF1FEE0FFF1FEE0F67
:103AB000FF1FE80FF91FED5EFC4F8081823040F25E
:103AC000DD24D394C5CFE0914903F0914A030580EA
:103AD000F681E02D0680F781E02D8281938190931D
:103AE0003D0280933C025CCF90933D0280933C0268
:103AF000D3CFA4E0B0E0EFE7FDE10C94083C1C015B
:103B0000DC011C92809100038983909100038FE077
:103B1000989FC00111240E94E2312C01009709F402
:103B2000ADC08981909106039F5F909306039091A9
:103B30000003891708F4A6C084E0C82E1C82CA942A
:103B4000BC81EFE0BE9F50011124A40CB51CF9E02C
:103B5000CF9E7001112443E153E0E40EF51ED7011E
:103B60008C91882309F484C11196ED91FC911297F0
:103B70000280F381E02D1296FC93EE93119703E0FF
:103B8000802E912C8E0C9F1CE815F90509F42CC58C
:103B900066807780DD2482819381F701928381831F
:103BA0008816990609F45FC0D7011196ED91FC9132
:103BB000129766817781BFE0DB9E800111240A0D98
:103BC0001B1DF80171836083675E7F4F738362837F
:103BD00069517040DB0191968C919197848341E00B
:103BE00050E05683458356968C91569787839396DB
:103BF0008C919397808794968D919D910D90BC9117
:103C0000A02D81879287A387B487FB01A789B08DF8
:103C10008C91853A09F0D4C220E030E040E050E0D9
:103C20002F5F3F4F4F4F5F4FFD01E20FF31F80812A
:103C3000853AB1F3C901D8011E969C938E931D97C6
:103C4000D3946616770609F414C1D7011196ED9145
:103C5000FC91129782819381F70192838183881668
:103C6000990609F0A1CFD40112968D919C911397DA
:103C70009283818399CFC2010E946F312496E2E141
:103C80000C94243C1B820FB6F8940F92809106038B
:103C900081508093060380910603882309F0A4C114
:103CA00080910003882309F49FC199E0D92ECC2488
:103CB000C39480914D03882399F1E0915203F091D0
:103CC000530306811781C8010C960E94453322E0F8
:103CD000E22EF12CE00EF11EC7010E944533F801DF
:103CE000968980910103891718F4909301039689AE
:103CF0009D9DC00111248D5E9C4FB7010E94F4323E
:103D0000E091FE02F091FF02D80156969C918689BF
:103D1000981778F2C092020380914D03882369F6C8
:103D200080910F03882309F459C180910F038823E0
:103D300009F454C189E0A82E80910603882309F074
:103D400035C180910303909104030196909304037D
:103D500080930303C0900303D0900403C114D104E3
:103D600019F52091490330914A0380914B039091BA
:103D70004C0390934A038093490330934C03209360
:103D80004B03809105038F5F80930503E091490306
:103D9000F0914A038081882309F004C4EFEFFFEF1C
:103DA000F0933D02E0933C0280913C0290913D02F1
:103DB000C816D90608F4DDC3BB24E0914903F0918D
:103DC0004A038081882309F44CC0E0914903F091B3
:103DD0004A030580F681E02D06811781D8011296ED
:103DE0008D919C911397C816D90608F4F5C3B2E0DB
:103DF000EB2EF12CE00EF11EC7010E944533F801B5
:103E000084899589892B21F0C8010C960E9445333D
:103E1000D80156969C91569780910103891720F4FA
:103E20009093010356969C919A9DC00111248D5E3A
:103E30009C4FB7010E94F432E091FE02F091FF0224
:103E4000D80156969C918689981708F4B6CFBB2462
:103E5000B394E0914903F0914A038081882309F0EB
:103E6000B4CF4FEF5FEF50933D0240933C0282C3CB
:103E7000DD24BC81BD0DBC83CC2009F060CE8FE079
:103E8000B89F50011124A40CB51CE0904903F09098
:103E90004A03F7018081882309F495C10180F281EA
:103EA000E02D0280F381E02DD7011296FC93EE9372
:103EB000119713E0812E912C8E0C9F1CE815F905AB
:103EC00009F4A3C366807780DD24AFE0CA2E828127
:103ED0009381F701928381838816990609F45EC065
:103EE000D7011196ED91FC91129766817781DC9C48
:103EF000800111240A0D1B1DF80171836083675E28
:103F00007F4F7383628369517040DB0191968C917E
:103F10009197848342E050E05683458356968C9176
:103F20005697878393968C919397808794968D91DB
:103F30009D910D90BC91A02D81879287A387B48716
:103F4000FB01A789B08D8C91853A09F042C320E02E
:103F500030E040E050E02F5F3F4F4F4F5F4FFD019B
:103F6000E20FF31F8081853AB1F3C901D8011E9693
:103F70009C938E931D97D3946616770609F424C1FB
:103F8000D7011196ED91FC91129782819381F701EF
:103F9000928381838816990609F0A2CFD4011296E4
:103FA0008D919C911397928381839ACF80910F0377
:103FB0008F5F80930F03BB2480910203882309F055
:103FC000D4C2BB2009F0D1C280910F0381508093ED
:103FD0000F0380910F03882309F0AECE8091020376
:103FE000813011F40E9403310F900FBEEB81E98301
:103FF000C401B30124E630E040E050E00E94E63B1B
:1040000059016A01A114B104C104D10409F433CEE9
:104010001A829A818981981708F02DCEE6E08E2EBB
:10402000E2E09E2E75E1672E72E0772E60C08A81F5
:104030002A814DB75EB74A5050400FB6F8945EBF24
:104040000FBE4DBFADB7BEB71196EDB7FEB732820A
:10405000218213969C928E92129790E0FC01EE0FB3
:10406000FF1FE80FF91FCF01880F991F880F991FB5
:10407000E80FF91FE40DF51D8281938115969C933D
:104080008E93149730E0F901EE0FFF1FE20FF31F3C
:10409000CF01880F991F880F991FE80FF91FE40DB2
:1040A000F51D8185928517969C938E931697199688
:1040B000FC92EE9218970E9424084DB75EB7465FB7
:1040C0005F4F0FB6F8945EBF0FBE4DBFD1010D908C
:1040D0000020E9F71197A219B3098A818F5F8A83BB
:1040E0009A818981981708F0C6CD2A0E3B1E8A81D5
:1040F00090E0FC01EE0FFF1FE80FF91FCF01880FC2
:10410000991F880F991FE80FF91FE40DF51D6185B0
:10411000728583859485A60195010E94E63B79010D
:104120008A01E114F1040105110509F080CF8A81AB
:104130002A81ADB7BEB718970FB6F894BEBF0FBEB1
:10414000ADBF1196EDB7FEB73282218213967C92F5
:104150006E92129790E0FC01EE0FFF1FE80FF91F1F
:10416000CF01880F991F880F991FE80FF91FE40DE1
:10417000F51D8281938115969C938E93149730E060
:10418000F901EE0FFF1FE20FF31FCF01880F991FF8
:10419000880F991FE80FF91FE40DF51D81859285A1
:1041A00017969C938E9316970E9424084DB75EB77E
:1041B000485F5F4F0FB6F8945EBF0FBE4DBF86CF0E
:1041C00080E090E038CDDD24CC80CD0C8FE0C89E1F
:1041D00050011124A40CB51CE0904B03F0904C034B
:1041E000F7018081882309F486C00180F281E02DE7
:1041F0000280F381E02DD7011296FC93EE93119784
:1042000073E0872E912C8E0C9F1CE815F90509F49C
:1042100006C266807780DD2482819381F7019283D4
:1042200081838816990609F45EC0D7011196ED9135
:10423000FC91129766817781BFE0DB9E800111249B
:104240000A0D1B1DF80171836083675E7F4F7383C6
:10425000628369517040DB0191968C9191978483C0
:1042600042E050E05683458356968C91569787835B
:1042700093968C919397808794968D919D910D90B4
:10428000BC91A02D81879287A387B487FB01A78962
:10429000B08D8C91853A09F099C120E030E040E082
:1042A00050E02F5F3F4F4F4F5F4FFD01E20FF31F75
:1042B0008081853AB1F3C901D8011E969C938E93F3
:1042C0001D97D39466167706B9F0D7011196ED9134
:1042D000FC91129782819381F701928381838816E2
:1042E000990609F0A2CFD40112968D919C91139753
:1042F000928381839ACFDD24ED2CEC0C8FE0E89E35
:1043000060011124C40CD51C80915603882309F444
:104310007CC0E0915703F09158030280F381E02DB7
:10432000F0935803E0935703B3E0E935FB0709F432
:1043300080C1E0915703F0915803A680B780FF2415
:104340006FE0762E54E0852E912C0280F381E02DD3
:10435000F0935803E093570343E0E935F40709F479
:10436000FDC0E0915703F091580366817781F79C77
:10437000800111240C0D1D1DD80111967C936E93A4
:10438000675E7F4F13967C936E93129769517040CE
:10439000FB0181A114968C93149716969C928E9291
:1043A0001597868917968C93179783A118968C93E7
:1043B00084A195A1A6A1B7A1F80181879287A387BF
:1043C000B487FB01A789B08D8C91853A09F0FBC0B9
:1043D00020E030E040E050E02F5F3F4F4F4F5F4F15
:1043E000FD01E20FF31F8081853AB1F3C901D801C5
:1043F0001E969C938E931D97F394A616B70631F0E4
:10440000E0915703F0915803A0CFFF24EF0C8FE009
:10441000E89E60011124C40CD51C80915F038823A1
:1044200009F48AC0E0916003F09161030280F38196
:10443000E02DF0936103E0936003B3E0E236FB0705
:1044400009F4DCC0E0916003F0916103A680B780BD
:10445000FF2443E0842E912C32E0632E712C0280E5
:10446000F381E02DF0936103E093600343E0E236D3
:10447000F40709F46CC0E0916003F0916103668178
:1044800077815FE0F59E800111240C0D1D1DD80180
:1044900011967C936E93675E7F4F13967C936E9319
:1044A000129769517040FB0181A114968C93149767
:1044B00016969C928E921597868917968C931797CD
:1044C00084899589892B21F016967C926E92159796
:1044D000DB0193968C919397F801808794968D9148
:1044E0009D910D90BC91A02D81879287A387B48761
:1044F000FB01A789B08D8C91853A09F072C020E04C
:1045000030E040E050E02F5F3F4F4F4F5F4FFD01E5
:10451000E20FF31F8081853AB1F3C901D8011E96DD
:104520009C938E931D97F394A616B70631F0E091F5
:104530006003F091610393CFFF24FE0CFB82809116
:104540008400909185003C01882499249CCB828131
:10455000938190936103809360038DCF82819381D7
:104560009093580380935703FCCEB1E0B0930203BD
:104570002BCDBB24E091FE02F091FF02868990E0F2
:10458000FC01EE0FFF1FEE0FFF1FEE0FFF1FE80FE6
:10459000F91FED5EFC4F8081823008F40DCDBB2405
:1045A000B3940ACDE0914903F0914A030580F68166
:1045B000E02D0680F781E02D8281938190933D026A
:1045C00080933C02F1CB80E090E011CF80E090E05E
:1045D00073CE80E090E0CACC90933D0280933C0281
:1045E000C9CF80E090E09ACF8281938111968C931D
:1045F000119712969C939C01F901CACA82819381FA
:1046000090936103809360031DCF82819381119603
:104610008C93119712969C939C01F90153CC828143
:10462000938111968C93119712969C939C01F9019A
:10463000F0CD82819381909358038093570379CE74
:10464000A3E0B0E0E6E2F3E20C94083C1C01DC01DC
:104650001C92809100038983909100038FE0989FC2
:10466000C00111240E94E2315C01009709F4ADC041
:104670008981909106039F5F9093060390910003B8
:10468000891708F4A6C064E0C62E1B82CA94BB81B9
:10469000EFE0BE9F400111248A0C9B1CF9E0CF9EE5
:1046A0007001112423E133E0E20EF31ED7018C9157
:1046B000882309F482C11196ED91FC911297028032
:1046C000F381E02D1296FC93EE93119753E0652E43
:1046D000712C6E0C7F1CE615F70509F4FEC44680AC
:1046E0005780DD2482819381F7019283818368164C
:1046F000790609F45FC0D7011196ED91FC911297EC
:1047000066817781BFE0DB9E80011124080D191DB1
:10471000F80171836083675E7F4F738362836951A1
:104720007040DB0191968C919197848321E030E079
:104730003683258356968C915697878393968C91D2
:104740009397808794968D919D910D90BC91A02D0B
:1047500081879287A387B487FB01A789B08D8C914D
:10476000853A09F0AEC220E030E040E050E02F5F33
:104770003F4F4F4F5F4FFD01E20FF31F8081853A9E
:10478000B1F3C901D8011E969C938E931D97D394C3
:104790004616570609F412C1D7011196ED91FC9106
:1047A000129782819381F70192838183681679063B
:1047B00009F0A1CFD30112968D919C91139792830A
:1047C000818399CFC5010E946F312396E2E10C9459
:1047D000243C77240FB6F8940F9280910603815001
:1047E0008093060380910603882309F0A2C180917B
:1047F0000003882309F49DC1A9E0DA2ECC24C394D8
:1048000080914D03882399F1E0915203F091530375
:1048100006811781C8010C960E944533B2E0EB2E49
:10482000F12CE00EF11EC7010E944533F801968974
:1048300080910103891718F49093010396899D9D37
:10484000C00111248D5E9C4FB7010E94F432E091AB
:10485000FE02F091FF02D80156969C918689981726
:1048600078F2C092020380914D03882369F680910B
:104870000F03882309F457C180910F03882309F49B
:1048800052C1F9E0CF2E44244A94542C66246394F8
:1048900080910603882309F02EC180910303909133
:1048A0000403019690930403809303038090030311
:1048B000909004038114910409F5209149033091EB
:1048C0004A0380914B0390914C0390934A03809349
:1048D000490330934C0320934B03809105038F5F72
:1048E00080930503E0914903F0914A038081882376
:1048F00009F0D1C350923D0240923C0280913C02AB
:1049000090913D028816990608F4ACC3DD24E0912D
:104910004903F0914A038081882309F449C0E0915A
:104920004903F0914A030580F681E02D0681178145
:10493000F801828193818816990608F4C6C3E2E0E3
:10494000EE2EF12CE00EF11EC7010E944533D80176
:1049500054968D919C915597892B21F0C8010C9606
:104960000E944533F801968980910103891718F454
:104970009093010396899C9DC00111248D5E9C4FEC
:10498000B7010E94F432E091FE02F091FF02D801DB
:1049900056969C918689981708F4B9CFDD24D39454
:1049A000E0914903F0914A038081882309F0B7CF51
:1049B00050923D0240923C0256C3DD24BB81BD0DA6
:1049C000BB83CC2009F062CE8FE0B89F4001112458
:1049D0008A0C9B1CE0904903F0904A03F701808108
:1049E000882309F471C10180F281E02D0280F381F6
:1049F000E02DD7011296FC93EE93119743E0642EBD
:104A0000712C6E0C7F1CE615F70509F477C3468000
:104A10005780DD243FE0C32E82819381F70192838A
:104A200081836816790609F45EC0D7011196ED916D
:104A3000FC91129766817781DC9C80011124080D1E
:104A4000191DF80171836083675E7F4F73836283F2
:104A500069517040DB0191968C919197848322E09B
:104A600030E03683258356968C91569787839396AC
:104A70008C919397808794968D919D910D90BC9188
:104A8000A02D81879287A387B487FB01A789B08D6A
:104A90008C91853A09F016C320E030E040E050E008
:104AA0002F5F3F4F4F4F5F4FFD01E20FF31F80819C
:104AB000853AB1F3C901D8011E969C938E931D9738
:104AC000D3944616570609F400C1D7011196ED910B
:104AD000FC91129782819381F701928381836816FA
:104AE000790609F0A2CFD30112968D919C9113976C
:104AF000928381839ACF80910F038F5F80930F03FE
:104B0000DD2480910203882309F0A9C2DD2009F089
:104B1000A6C280910F03815080930F0380910F03F1
:104B2000882309F0B5CE80910203813011F40E94F0
:104B300003310F900FBE79821A829A81898198176A
:104B400008F040CE64E2E62E62E0F62E8FC00197B8
:104B500009F4B4C000E010E08A812A814A816A81A8
:104B6000EDB7FEB73E970FB6F894FEBF0FBEEDBF90
:104B7000ADB7BEB71196328221821396FC92EE92A7
:104B8000129790E0FC01EE0FFF1FE80FF91FCF0115
:104B9000880F991F880F991FE80FF91FEA0DFB1D59
:104BA0008281938115969C938E93149717961C93EC
:104BB0000E93169730E0F901EE0FFF1FE20FF31F7F
:104BC000CF01880F991F880F991FE80FF91FEA0D71
:104BD000FB1D878118968C93189719961C9219972C
:104BE00050E0FA01EE0FFF1FE40FF51FCF01880F11
:104BF000991F880F991FE80FF91FEA0DFB1D858586
:104C000096851B969C938E931A9770E0FB01EE0F8E
:104C1000FF1FE60FF71FCF01880F991F880F991FFD
:104C2000E80FF91FEA0DFB1D84811C968C931C97DD
:104C30001D961C920E942408D1010D900020E9F7D6
:104C40001197A219B3098A818F5F8A839A8189811A
:104C50002DB73EB7225F3F4F0FB6F8943EBF0FBE51
:104C60002DBF981708F0AECD2A0E3B1E8A8190E02A
:104C7000FC01EE0FFF1FE80FF91FCF01880F991FEE
:104C8000880F991FE80FF91FEA0DFB1D858196819A
:104C90008230910569F08330910508F458CF833054
:104CA000910549F0049709F055CF04E410E054CF82
:104CB00002E410E051CF03E510E04ECF02E510E032
:104CC0004BCF80E090E05ECDDD24CB80CD0C8FE03B
:104CD000C89E400111248A0C9B1CE0904B03F0906D
:104CE0004C03F7018081882309F486C00180F2819A
:104CF000E02D0280F381E02DD7011296FC93EE9314
:104D0000119723E0622E712C6E0C7F1CE615F705BF
:104D100009F4FEC146805780DD2482819381F7012A
:104D2000928381836816790609F45EC0D7011196D3
:104D3000ED91FC91129766817781BFE0DB9E800147
:104D40001124080D191DF80171836083675E7F4F80
:104D50007383628369517040DB0191968C919197C6
:104D6000848322E030E03683258356968C915697D3
:104D7000878393968C919397808794968D919D913C
:104D80000D90BC91A02D81879287A387B487FB01EA
:104D9000A789B08D8C91853A09F091C120E030E06F
:104DA00040E050E02F5F3F4F4F4F5F4FFD01E20F5C
:104DB000F31F8081853AB1F3C901D8011E969C93F7
:104DC0008E931D97D39446165706B9F0D7011196C6
:104DD000ED91FC91129782819381F70192838183F7
:104DE0006816790609F0A2CFD30112968D919C9195
:104DF0001397928381839ACFDD24ED2CEC0C8FE006
:104E0000E89E60011124CA0CDB1C809156038823A4
:104E100009F47CC0E0915703F09158030280F381BC
:104E2000E02DF0935803E0935703B3E0E935FB0717
:104E300009F478C1E0915703F09158038680978078
:104E4000FF249FE0592E84E0682E712C0280F381AC
:104E5000E02DF0935803E093570323E0E935F20780
:104E600009F4F6C0E0915703F09158036681778109
:104E7000F59C800111240C0D1D1DD80111967C9309
:104E80006E93675E7F4F13967C936E931297695172
:104E90007040FB0181A114968C93149716967C9216
:104EA0006E921597868917968C93179783A11896FB
:104EB0008C9384A195A1A6A1B7A1F80181879287BF
:104EC000A387B487FB01A789B08D8C91853A09F03F
:104ED000F3C020E030E040E050E02F5F3F4F4F4F05
:104EE0005F4FFD01E20FF31F8081853AB1F3C901E5
:104EF000D8011E969C938E931D97F3948616970661
:104F000031F0E0915703F0915803A0CFFF24EF0C4C
:104F10008FE0E89E60011124CA0CDB1C80915F03C6
:104F2000882309F48AC0E0916003F0916103028054
:104F3000F381E02DF0936103E0936003B3E0E23688
:104F4000FB0709F4D4C0E0916003F091610386800F
:104F50009780FF2403E0602E712C12E0412E512C2B
:104F60000280F381E02DF0936103E093600323E07E
:104F7000E236F20709F465C0E0916003F091610345
:104F8000668177813FE0F39E800111240C0D1D1D89
:104F9000D80111967C936E93675E7F4F13967C9336
:104FA0006E93129769517040FB0181A114968C9306
:104FB000149716967C926E921597868917968C9305
:104FC000179784899589892B21F016965C924E92C9
:104FD0001597DB0193968C919397F80180879496AF
:104FE0008D919D910D90BC91A02D81879287A38773
:104FF000B487FB01A789B08D8C91853A09F06AC00E
:1050000020E030E040E050E02F5F3F4F4F4F5F4FD8
:10501000FD01E20FF31F8081853AB1F3C901D80188
:105020001E969C938E931D97F3948616970631F0E7
:10503000E0916003F091610393CFFF247F2C7E0CFD
:10504000C9CB82819381909361038093600394CF55
:1050500082819381909358038093570303CF60928A
:10506000020357CDDD24E091FE02F091FF02868914
:1050700090E0FC01EE0FFF1FEE0FFF1FEE0FFF1F72
:10508000E80FF91FED5EFC4F8081823008F439CDC6
:10509000DD24D39436CDE0914903F0914A03058095
:1050A000F681E02D0680F781E02D82819381909337
:1050B0003D0280933C0222CC80E090E019CF80E05A
:1050C00090E07BCE80E090E0F6CC90933D02809320
:1050D0003C02C9CF80E090E0A2CF828193811196FB
:1050E0008C93119712969C939C01F901F8CA8281C6
:1050F0009381909361038093600325CF8281938194
:1051000011968C93119712969C939C01F9017FCC78
:105110008281938111968C93119712969C939C0196
:10512000F901F8CD828193819093580380935703BE
:1051300081CE0F931F93CF93DF93EC01009789F0FB
:105140008091FE029091FF02C817D90751F00FB667
:10515000F8940F928A859B858F55934039F00F9074
:105160000FBEDF91CF911F910F9108958C899D897A
:1051700023E08D34920799F3892B89F78E010E5F16
:105180001F4FC8010E9445339E89809101038917F2
:1051900010F49093010389E0989FC00111248D5E63
:1051A0009C4FB8010E94F432E091FE02F091FF02A0
:1051B0009E898689981798F20E940331D0CFEF928A
:1051C000FF920F931F93CF93DF930FB6F8940F9234
:1051D000009709F4DDC0EC018E010E5F1F4FC8017E
:1051E0000E9445338C899D89892B21F0CE010C9634
:1051F0000E9445338FE593E0B8010E94F4320F908E
:105200000FBE8091FE029091FF02C817D90761F18D
:1052100080911003882391F00FB6F8940F92E091DB
:105220004903F0914A038081882369F48FEF9FEF4F
:1052300090933D0280933C020F900FBECDB7DEB736
:10524000E6E00C94303CE0914903F0914A0305807C
:10525000F681E02D0680F781E02D82819381909385
:105260003D0280933C02E8CF80911003882309F02F
:1052700098C09091000380915F03891709F494C04E
:1052800080910603882309F088C010920203809160
:105290008400909185007C0100E010E0E09207031B
:1052A000F09208030093090310930A0380910B0303
:1052B00090910C03A0910D03B0910E038E159F05E4
:1052C000A007B107B0F4E091FE02F091FF02A8013F
:1052D0009701281B390B4A0B5B0B84A195A1A6A152
:1052E000B7A1820F931FA41FB51F84A395A3A6A3E4
:1052F000B7A3E0920B03F0920C0300930D031093FD
:105300000E03E091FE02F091FF02A091FE02B09127
:10531000FF022081318157968D919C915897821779
:10532000930730F046C080910103815080930103C0
:105330008091010390E0FC01EE0FFF1FEE0FFF1FB5
:10534000EE0FFF1FE80FF91FED5EFC4F80818823F1
:1053500051F39091010389E0989FD0011124AD5E33
:10536000BC4F1196ED91FC9112970280F381E02DD4
:105370001296FC93EE931197CD010396E817F90767
:1053800029F1868197819093FF028093FE0256CF88
:10539000C091FE02D091FF021FCF81E080930203F3
:1053A0004DCF0E9403314ACF1092FF021092FE02AD
:1053B00045CF8091FE029091FF026091FE027091B4
:1053C000FF02675E7F4F0E948B0BB2CF8281938179
:1053D00011968C93119712969C939C01F901D1CF51
:1053E000A0E0B0E0E6EFF9E20C940F3C9C010097DE
:1053F00041F40E940331CDB7DEB7EBE00C942B3CB7
:1054000077C1809106038F5F80930603C0910303E9
:10541000D0910403C20FD31F8091FE029091FF022E
:1054200002960E944533E091FE02F091FF02D38381
:10543000C2838091030390910403C817D90708F42D
:105440005BC08091490390914A036091FE02709184
:10545000FF026E5F7F4F0E94133380913C02909158
:105460003D02C817D90720F4D0933D02C0933C02F7
:105470000FB6F8940F928091060381508093060333
:1054800080910603882309F04DC080910003882392
:1054900009F448C099E0F92EEE24E39480914D037D
:1054A0008823B9F1E0915203F0915303C681D7816B
:1054B000CE010C960E9445338E010E5F1F4FC8012E
:1054C0000E9445339E8980910103891710F49093BF
:1054D00001039F9DC00111248D5E9C4FB8010E9465
:1054E000F432E091FE02F091FF029E8986899817BE
:1054F000A8F2E0920203D2CF80914B0390914C032B
:105500006091FE027091FF026E5F7F4F0E94133325
:10551000AFCF80910F03882389F4809102038130FB
:1055200009F495C080E00F900FBE882309F461CF85
:10553000CDB7DEB7EBE00C942B3CDAC080910F03C3
:10554000882359F389E0C82EAA24AA94BA2C992456
:10555000939480910603882309F07DC08091030312
:105560009091040301969093040380930303E090C9
:105570000303F0900403E114F10409F520914903B9
:1055800030914A0380914B0390914C0390934A03CE
:105590008093490330934C0320934B038091050380
:1055A0008F5F80930503E0914903F0914A03808166
:1055B000882309F087C0B0923D02A0923C028091FE
:1055C0003C0290913D02E816F90608F45EC0DD2425
:1055D000E0914903F0914A038081882309F46DC06A
:1055E000E0914903F0914A030580F681E02DC681E0
:1055F000D7818A819B81E816F90608F474C08E0170
:105600000E5F1F4FC8010E9445338C899D89892BED
:1056100021F0CE010C960E9445339E8980910103B2
:10562000891710F4909301039C9DC00111248D5E95
:105630009C4FB8010E94F432E091FE02F091FF020B
:105640009E898689981720F2DD24D394C1CF0E94C9
:10565000033181E068CF80910F038F5F80930F0348
:10566000DD2480910203882369F4DD2059F48091C0
:105670000F03815080930F0380910F03882309F05B
:1056800068CF4BCF90920203F2CFDD24E091FE026F
:10569000F091FF02868990E0FC01EE0FFF1FEE0FF4
:1056A000FF1FEE0FFF1FE80FF91FED5EFC4F80811B
:1056B0008230B8F2DD24D394D4CFB0923D02A092D0
:1056C0003C02E4CFE0914903F0914A030580F68162
:1056D000E02D0680F781E02D8281938190933D0239
:1056E00080933C026CCF90933D0280933C02CECFDE
:1056F000A0E0B0E0EEE7FBE20C940F3CFC01EB0114
:10570000809106038F5F80930603209103033091FD
:10571000040380819181C80FD91F2817390708F029
:1057200016C1C817D90708F024C12C173D0708F087
:1057300020C1D183C0838091FE029091FF02029626
:105740000E944533E091FE02F091FF02D383C283B1
:105750008091030390910403C817D90708F4FCC093
:105760008091490390914A036091FE027091FF027B
:105770006E5F7F4F0E94133380913C0290913D02F7
:10578000C817D90720F4D0933D02C0933C020FB64E
:10579000F8940F92809106038150809306038091C4
:1057A0000603882309F003C180910003882309F4CC
:1057B000FEC049E0F42EEE24E39480914D0388234B
:1057C00069F1E0915203F0915303C681D781CE0174
:1057D0000C960E9445338E010E5F1F4FC8010E9438
:1057E00045339E8980910103891710F4909301033A
:1057F0009F9DC00111248D5E9C4FB8010E94F43220
:10580000E091FE02F091FF029E8986899817A8F226
:10581000E092020380914D03882399F680910F0353
:10582000882309F4BFC080910F03882309F4BAC00C
:1058300039E0C32EAA24AA94BA2C99249394809177
:105840000603882309F098C0809103039091040314
:1058500001969093040380930303E0900303F09078
:105860000403E114F10409F52091490330914A033E
:1058700080914B0390914C0390934A03809349038A
:1058800030934C0320934B03809105038F5F8093EB
:105890000503E0914903F0914A038081882309F0D0
:1058A000ADC0B0923D02A0923C0280913C0290912A
:1058B0003D02E816F90608F489C0DD24E0914903A9
:1058C000F0914A0380818823E9F1E0914903F09146
:1058D0004A030580F681E02DC681D7818A819B81AC
:1058E000E816F90608F49BC08E010E5F1F4FC80131
:1058F0000E9445338C899D89892B21F0CE010C961D
:105900000E9445339E8980910103891710F490937A
:1059100001039C9DC00111248D5E9C4FB8010E9423
:10592000F432E091FE02F091FF029E898689981779
:1059300028F2DD24D394E0914903F0914A03808159
:10594000882319F6B0923D02A0923C0240C0C817CD
:10595000D90708F4EECEE9CE80914B0390914C0329
:105960006091FE027091FF026E5F7F4F0E941333C1
:105970000ECFD183C0830BCF80910F038F5F8093B5
:105980000F03DD24809102038823E9F4DD20D9F49C
:1059900080910F03815080930F0380910F03882320
:1059A00009F04DCF80910203813009F43DC080E0C1
:1059B0000F900FBE882311F40E940331CDB7DEB7DC
:1059C000EBE00C942B3C90920203E2CFDD24E091BB
:1059D000FE02F091FF02868990E0FC01EE0FFF1FAE
:1059E000EE0FFF1FEE0FFF1FE80FF91FED5EFC4FDC
:1059F0008081823038F2DD24D394C4CFE091490312
:105A0000F0914A030580F681E02D0680F781E02DB4
:105A10008281938190933D0280933C0246CF909384
:105A20003D0280933C02D3CF0E94033181E0C0CF7E
:105A30000F931F93CF93DF930FB6F8940F920097B5
:105A400009F453C0EC018E010E5F1F4FC8010E9484
:105A500045338C899D89892B21F0CE010C960E94BB
:105A6000453386E593E0B8010E94F432809111033A
:105A70008F5F80931103809112038F5F80931203D5
:105A80000F900FBE80911003882319F18091FE02C0
:105A90009091FF02C817D90769F10FB6F8940F92D9
:105AA000E0914903F0914A0380818823B9F0E091A5
:105AB0004903F0914A030580F681E02D0680F781C5
:105AC000E02D8281938190933D0280933C020F9060
:105AD0000FBEDF91CF911F910F9108958FEF9FEF30
