:100000000C9428030C944A030C944A030C944A035E
:100010000C944A030C944A030C944A030C944A032C
:100020000C944A030C944A030C944A030C944A031C
:100030000C944A030C944A030C944A030C944A030C
:100040000C944A030C944A030C944A030C944A03FC
:100050000C944A030C944A030C944A030C944A03EC
:100060000C944A030C946A320C9469330C944A033E
:100070000C944A030C944A030C944A030C944A03CC
:100080000C94792D0C944A030C944A030C944A0363
:100090000C9441320C9440330C944A030C94670C3A
:1000A0000C944A030C944A030C944A030C944A039C
:1000B0000C944A030C944A030C944A030C944A038C
:1000C0000C944A030C944A030C944A030C9418327F
:1000D0000C9417330C944A030C94EF310C94EE32C9
:1000E0000C944A03C50C7E0C7E0C7E0C7E0C7E0CA0
:1000F0007E0C7E0CC50C7E0C7E0C7E0C7E0C7E0C69
:100100007E0C7E0CC70C7E0C7E0C7E0C7E0C7E0C56
:100110007E0C7E0CFF0C7E0C7E0C7E0C7E0C7E0C0E
:100120007E0C7E0CC70C7E0C7E0C7E0C7E0C7E0C36
:100130007E0C7E0CFF0C7E0C7E0C7E0C7E0C7E0CEE
:100140007E0C7E0C070D7E0C7E0C7E0C7E0C7E0CD5
:100150007E0C7E0C370D7E0C7E0C7E0C7E0C7E0C95
:100160007E0C7E0C7E0C7E0C7E0C7E0C7E0C7E0C3F
:100170007E0C7E0CAD0C7E0C7E0C7E0C7E0C7E0C00
:100180007E0C7E0CEE0C7E0C7E0C7E0C7E0C7E0CAF
:100190007E0C7E0C340D7E0C7E0C7E0C7E0C7E0C58
:1001A0007E0C7E0C340D7E0C7E0C7E0C7E0C7E0C48
:1001B0007E0C7E0C1F0D7E0C7E0C7E0C7E0C7E0C4D
:1001C0007E0C7E0C1F0D7E0C7E0C7E0C7E0C7E0C3D
:1001D0007E0C7E0C980C7E0C7E0C7E0C7E0C7E0CB5
:1001E0007E0C7E0CC10C7E0C7E0C7E0C7E0C7E0C7C
:1001F0007E0C7E0C980C7E0C7E0C7E0C7E0C7E0C95
:100200007E0C7E0CC10C7E0C7E0C7E0C7E0C7E0C5B
:100210007E0C7E0C0B0D7E0C7E0C7E0C7E0C7E0C00
:100220007E0C7E0CDC0C7E0C7E0C7E0C7E0C7E0C20
:100230007E0C7E0CDC0C7E0C7E0C7E0C7E0C7E0C10
:100240007E0C7E0CDE0C7E0C7E0C7E0C7E0C7E0CFE
:100250007E0C7E0C110D7E0C7E0C7E0C7E0C7E0CBA
:100260007E0C7E0CA90C6E616E00696E660000400B
:100270007A10F35A00A0724E18090010A5D4E800B5
:1002800000E87648170000E40B54020000CA9A3BCD
:10029000000000E1F5050000809698000000404253
:1002A0000F000000A08601000000102700000000E1
:1002B000E803000000006400000000000A000000E5
:1002C00000000100000000002C76D888DC674F0891
:1002D00023DFC1DFAE59E1B1B796E5E3E453C63A97
:1002E000E651997696E8E6C28426EB898C9B62ED0E
:1002F000407C6FFCEFBC9C9F40F2BAA56FA5F490C8
:10030000055A2AF75C936B6CF9676DC11BFCE0E43E
:100310000D47FEF520E6B500D0ED902E0300943594
:1003200077050080841E080000204E0A000000C8E7
:100330000C333333330F986E12831141EF8D211438
:10034000893BE65516CFFEE6DB18D1844B381BF708
:100350007C1D901DA4BBE424203284725E228100A7
:10036000C9F124ECA1E53D27A0E0B0E0EAEBF1E023
:100370000C94FE36E9E0CE2EAA24A39488248A9415
:10038000982C7724739405C00F900FBEBB2009F002
:100390005FC08091BB02882309F480C08091B002C5
:1003A0008F5F8093B002B09000030FB6F8940F9265
:1003B0008091B00281508093B0028091B002882376
:1003C00019F78091AA028823F9F28091F702882315
:1003D00071F1E091FC02F091FD02C681D781CE015E
:1003E0000C960E94BE2F8E010E5F1F4FC8010E9407
:1003F000BE2F9E898091AB02891718F49093AB02AF
:100400009E899C9DC001112483549D4FB8010E9478
:100410006D2FE091A802F091A9029E898689981714
:10042000A0F2A092AC028091F702882391F680910D
:10043000B902882309F04DC08091AC02813009F0E7
:10044000A3CF0E947C2D0F900FBEBB2009F4A1CF3B
:100450000FB6F8940F92E0910503F0910603068120
:100460001781C80102960E94BE2F8091AA02815076
:100470008093AA028091BB0281508093BB020F90AF
:100480000FBEF8018789908D0E94E82DC8010E9457
:10049000E82D8091BB02882309F080CF8091BD02B6
:1004A000823008F476CF0E947C2D73CF8091B90200
:1004B0008F5F8093B902DD248091AC02882309F01C
:1004C00095C0DD2009F092C08091B90281508093DF
:1004D000B9028091B902882309F4AECF8091B002AD
:1004E000882321F78091AD029091AE0201969093FE
:1004F000AE028093AD02E090AD02F090AE02E11446
:10050000F10409F52091F3023091F4028091F50293
:100510009091F6029093F4028093F3023093F602E6
:100520002093F5028091AF028F5F8093AF02E0913C
:10053000F302F091F4028081882309F073C0909255
:100540004A02809249028091490290914A02E8163B
:10055000F90608F44EC0DD24E091F302F091F402B4
:1005600080818823F1F1E091F302F091F40205809B
:10057000F681E02DC681D7818A819B81E816F90634
:1005800008F461C08E010E5F1F4FC8010E94BE2F8C
:100590008C899D89892B21F0CE010C960E94BE2F5B
:1005A0009E898091AB02891718F49093AB029E89C3
:1005B0009C9DC001112483549D4FB8010E946D2F52
:1005C000E091A802F091A9029E898689981720F2ED
:1005D000DD24D394E091F302F091F402808188232A
:1005E00011F690924A028092490204C07092AC02C5
:1005F0006BCFDD24E091A802F091A902868990E0FA
:10060000FC01EE0FFF1FEE0FFF1FEE0FFF1FE80FA5
:10061000F91FE354FD4F8081823008F44DCFDD2473
:10062000D3944ACFE091F302F091F4020580F68171
:10063000E02D0680F781E02D8281938190934A021C
:100640008093490280CF90934A0280934902D2CF8F
:1006500011241FBECFEFD1E2DEBFCDBF00E00CBF43
:1006600012E0A0E0B2E0E0E7FEE600E00BBF02C06F
:1006700007900D92AA38B107D9F71BBE15E1AAE879
:10068000B2E001C01D92A63DB107E1F70E945F0BE9
:100690000C9436370C9400008F938FB78F93F89497
:1006A000809154158F5F80935415809155158F4F0D
:1006B00080935515809156158F4F809356158091D4
:1006C00057158F4F809357158F918FBF8F91089536
:1006D000A1E1B0E0EEE6F3E00C94F9363C017F874F
:1006E0006E876A01FC0117821682838181FD03C037
:1006F0006FEF7FEF71C39E012F5F3F4F398B288BC8
:10070000F3012381EE85FF8523FD859123FF8191F0
:10071000FF87EE87882309F45CC3853251F4EE85A8
:10072000FF8523FD859123FF8191FF87EE87853229
:1007300029F490E0B3010E94FA08E2CF982F10E06C
:10074000882499241032B0F49B3269F09C3228F44A
:10075000903251F0933271F40BC09D3239F09033E6
:1007600049F4116028C01260146025C0186023C0CD
:10077000106121C017FD2AC0892F80538A3078F478
:1007800016FF06C0FAE09F9E902C1124980E13C00D
:100790003AE0839E802C1124880E10620CC09E3299
:1007A00021F416FD16C3106406C09C3611F41068BF
:1007B00002C0983659F4EE85FF8523FD959123FFFD
:1007C0009191FF87EE87992309F0BCCF892F85543B
:1007D000833020F4812F8061905E07C0892F855679
:1007E000833008F0A1C1812F8F7E86FD02C076E0A4
:1007F000972E6FE3F62EF822953619F4F0E4FF2ACF
:1008000007C0963619F420E8F22A02C091109A9493
:10081000F7FE0BC03BE3391520F427E05CE3B52E6F
:100820000EC0B92CB39427E00AC047E0491528F45C
:1008300027E0BB2447E0942E02C0292DBB24C6012B
:1008400004969D878C87F6016081718182819381F6
:10085000AE014F5F5F4F0B2D0E94F3076C010981C2
:10086000202E332400FF04C003FD02C01DE209C096
:10087000F1FE02C01BE205C0F2FC02C010E001C0A4
:1008800010E2C1018C709070892BB9F1112311F421
:1008900083E001C084E0881510F088240AC0881A1B
:1008A000F3FC07C080E290E0B3010E94FA088A944A
:1008B000C9F7112329F0812F90E0B3010E94FA08B3
:1008C00023FE03C006E612E00EC00AE612E00BC0EB
:1008D000E114F10409F0805290E0B3010E94FA089B
:1008E0000F5F1F4F05C0EF2CFF24F0E1EF22FF2424
:1008F000F8018491882361F714C1F7FE12C0BC0C83
:1009000024FE04C08A81813309F4BA941B141CF0BC
:10091000BB24B3942DC0F8E0FB1550F538E0B32E9E
:1009200027C0F6FC25C0892D90E08C159D054CF064
:100930002CEFC2162FEFD20624F030E8F32A01C0C4
:100940009A94992049F0E2E0F0E0EC0FFD1FE90DE8
:10095000F11D80818033A1F3F7FE0AC0B92CB39456
:10096000892D90E0C816D90614F0992401C09C186E
:10097000F7FC03C025E030E009C01C141D041CF086
:1009800021E030E003C096012F5F3F4F112311F0AB
:100990002F5F3F4F992029F0892D90E00196280F75
:1009A000391F882D90E02817390714F0882401C0DA
:1009B000821A4F2C5524C20189709070892B39F00E
:1009C00008C080E290E0B3010E94FA088A9488206F
:1009D000C1F7112329F0812F90E0B3010E94FA089A
:1009E00043FE07C008C080E390E0B3010E94FA080C
:1009F0008A948820C1F7F7FE46C08601D7FE02C060
:100A000000E010E076010894E11CF11CE01AF10A04
:100A100041E050E04C0F5D1FE40EF51E26014B181F
:100A20005108892D90E0AA24BB24A81AB90A5FEFC7
:100A30000F3F150729F48EE290E0B3010E94FA08F7
:100A4000C016D10634F0401651061CF4F70180811F
:100A500001C080E3015010400894E11CF11C0A150C
:100A60001B052CF090E0B3010E94FA08E0CF0C15B2
:100A70001D0539F49A81963318F4953311F424FE48
:100A800081E390E04BC08A81813309F00F7E90E0D2
:100A9000B3010E94FA089920A1F08EE290E0B30120
:100AA0000E94FA0812E0E1E0F0E0EC0FFD1FE10F18
:100AB000F11D1F5F808190E0B3010E94FA089A94B3
:100AC00091F744FC03C085E690E002C085E490E025
:100AD000B3010E94FA08D7FC05C0C114D10441F447
:100AE00004FF06C0D094C194D108D3948DE201C014
:100AF0008BE290E0B3010E94FA0880E305C08F5FAB
:100B000026EF3FEFC20ED31E3AE0C316D104BCF766
:100B100090E0B3010E94FA08C601C096B3010E949A
:100B2000FA08CC84DD8452C1933631F0933799F0C2
:100B3000933509F059C023C0F601808189835E0195
:100B40000894A11CB11C22E030E0C20ED31E21E0AB
:100B5000E22EF12C12C0F601A080B18016FD03C078
:100B60006FEF7FEF02C0692D70E022E030E0C20E2F
:100B7000D31EC5010E94EF087C011F7713C0F60148
:100B8000A080B18016FD03C06FEF7FEF02C0692D1A
:100B900070E022E030E0C20ED31EC5010E94D408EE
:100BA0007C01106813FF07C01BC080E290E0B30116
:100BB0000E94FA088A94882D90E0E816F906A8F3B6
:100BC0000FC0F50117FD859117FF81915F0190E03E
:100BD000B3010E94FA0881108A940894E108F10890
:100BE000E114F10471F7F2C0943611F0993689F5E9
:100BF00017FF08C0F601208131814281538184E0D2
:100C000090E00AC0F601808191819C01442737FD64
:100C10004095542F82E090E0C80ED91E9FE6F92E31
:100C2000F12257FF09C050954095309521953F4FCF
:100C30004F4F5F4F90E8F92ACA01B901AE014F5FEB
:100C40005F4F2AE030E00E94D309E82EE889EE1ACF
:100C500041C0953721F41F7E2AE030E01CC0197F87
:100C60009F3661F0903720F4983509F0B2C00FC07C
:100C7000903739F0983709F0ACC004C028E030E074
:100C80000AC0106114FD146020E130E004C014FDBE
:100C9000166020E132E017FF08C0F6016081718123
:100CA0008281938144E050E008C0F6018081918107
:100CB000BC0180E090E042E050E0C40ED51EAE01E1
:100CC0004F5F5F4F0E94D309E82E5889E51A8FE7DE
:100CD000F82EF122F6FE0BC08EEFF822E91438F45C
:100CE000F4FE07C0F2FC05C09FEEF92202C01E2DE3
:100CF00001C0192DF4FE0DC0FE01EE0DF11D808125
:100D0000803319F4E9EEFE2208C01F5FF2FE05C031
:100D100003C08F2D867809F01F5F0F2DF3FC14C0E0
:100D2000F0FE0FC0181510F09E2C0BC09E2C980CD6
:100D3000911A182D06C080E290E0B3010E94FA08D3
:100D40001F5F1815C0F304C0181510F4811A01C0F4
:100D5000882404FF0FC080E390E0B3010E94FA08EA
:100D600002FF1DC001FD03C088E790E00EC088E5CA
:100D700090E00BC0802F867891F001FF02C08BE2DB
:100D800001C080E2F7FC8DE290E0B3010E94FA0816
:100D900006C080E390E0B3010E94FA089A94E91437
:100DA000C0F3EA94E1E0F0E0EC0FFD1FEE0DF11D61
:100DB000808190E0B3010E94FA08EE2091F706C00E
:100DC00080E290E0B3010E94FA088A948820C1F77B
:100DD00097CCF30166817781CB016196E2E10C94B7
:100DE0001537CF93DF93BC018230910510F462E098
:100DF00070E0A091CE15B091CF15ED01E0E0F0E0EC
:100E000040E050E021C0888199818617970769F4F6
:100E10008A819B81309719F09383828304C09093D9
:100E2000CF158093CE15FE0134C06817790738F4CA
:100E30004115510519F08417950708F4AC01FE011E
:100E40008A819B819C01E9012097E9F641155105B2
:100E5000A9F1CA01861B970B049708F4BA01E0E0D8
:100E6000F0E02AC08D919C91119784179507F9F4B1
:100E70006417750781F412968D919C9113973097A2
:100E800019F09383828304C09093CF158093CE157D
:100E9000FD0132964CC0CA01861B970BFD01E80F7D
:100EA000F91F6193719302978D939C9340C0FD014C
:100EB000828193819C01D9011097A1F68091CC1574
:100EC0009091CD15892B41F4809144029091450277
:100ED0009093CD158093CC154091460250914702D6
:100EE0004115510541F44DB75EB780914202909192
:100EF0004302481B590B2091CC153091CD15CA01E6
:100F0000821B930B8617970780F0AB014E5F5F4FF4
:100F10008417950750F0420F531F5093CD154093FF
:100F2000CC15F9016193719302C0E0E0F0E0CF01CC
:100F3000DF91CF910895CF93DF93009709F450C0CC
:100F4000EC0122971B821A82A091CE15B091CF1589
:100F5000109709F140E050E0AC17BD0708F1BB83E2
:100F6000AA83FE0121913191E20FF31FAE17BF0753
:100F700079F48D919C911197280F391F2E5F3F4F67
:100F80003983288312968D919C9113979B838A8332
:100F90004115510571F4D093CF15C093CE1520C0E3
:100FA00012968D919C911397AD01009711F0DC0181
:100FB000D3CFFA01D383C28321913191E20FF31F82
:100FC000CE17DF0769F488819981280F391F2E5FBA
:100FD0003F4FFA01318320838A819B8193838283EF
:100FE000DF91CF910895283008F027E03327DA0108
:100FF000990F311D87FD916000966105710539F4E7
:1010000032602E5F3D9330E32A95E1F708959F3FCC
:1010100030F080387105610509F03C5F3C5F3D931D
:10102000913008F08068911DDF93CF931F930F9349
:10103000FF92EF92192F987F9695E92F96959695A6
:10104000E90FFF27E853FD4F99273327EE24FF24AC
:10105000A701E70105900894079428F4360FE71ECE
:10106000F81E491F511D660F771F881F991F069490
:10107000A1F70590079428F4E70EF81E491F561FA4
:10108000C11D770F881F991F661F0694A1F7059051
:10109000079428F4F80E491F561FC71FD11D880F4B
:1010A000991F661F771F0694A1F70590079420F4F7
:1010B000490F561FC71FD81F990F661F771F881F1C
:1010C0000694A9F784911095177041F0D695C795AD
:1010D00057954795F794E7941A95C1F7EEE6F2E035
:1010E00068941590159135916591959105907FE2E1
:1010F0007395E118F10A430B560BC90BD009C0F7E1
:10110000E10CF11E431F561FC91FD01D7EF4703322
:1011100011F48A95E6CFE894015030F0080F0AF4F4
:101120000027021708F4202F2395022F7A3328F086
:1011300079E37D932A95E9F710C07D932A9589F686
:10114000069497956795379517951794E118F10AC6
:10115000430B560BC90BD00998F023957E917395DC
:101160007A3308F070E37C932013B8F77E917061B6
:101170007D9330F0839571E37D9370E32A95E1F7D9
:101180001124EF90FF900F911F91CF91DF9199273C
:1011900087FD90950895FC0105900020E9F7809562
:1011A00090958E0F9F1F0895FC010590615070402F
:1011B0000110D8F7809590958E0F9F1F0895FB0121
:1011C000DC0102C001900D9241505040D8F70895C3
:1011D000DC0101C06D9341505040E0F70895FC01DF
:1011E0006150704001900110D8F7809590958E0F56
:1011F0009F1F08950F931F93CF93DF938C01EB01F3
:101200008B8181FF1BC082FF0DC02E813F818C81AD
:101210009D812817390764F4E881F9810193F983E6
:10122000E88306C0E885F985802F1995892B31F46C
:101230008E819F8101969F838E8302C00FEF1FEFE7
:10124000C801DF91CF911F910F9108950F931F93C4
:10125000CF93DF938C01E091D215F091D315838168
:1012600081FF21C0C0E0D0E00DC0E091D215F09127
:10127000D31520853185BF01F9011995892B11F00E
:10128000CFEFDFEFF80181918F01882371F7E091B3
:10129000D215F091D315208531858AE0BF01F9017F
:1012A0001995892B11F0CFEFDFEFCE01DF91CF91B0
:1012B0001F910F910895AEE0B0E0E1E6F9E00C94E3
:1012C00007370E891F8986E08C831A8309838FEF85
:1012D0009FE79E838D839E01265E3F4FCE01019640
:1012E000688D798DA9010E9468032F813885020FCE
:1012F000131FF80110822E96E4E00C942337AEE021
:10130000B0E0E5E8F9E00C9407378C0177FF02C004
:1013100060E070E8615070407E836D831A830983BA
:1013200086E08C83CE010196BA01A9010E94680370
:101330002D813E8137FD09C0EF81F8852E173F07CB
:101340000CF4F901E00FF11F10822E96E4E00C94EA
:101350002337AEE0B0E0EFEAF9E00C9407378C01F8
:1013600077FF02C060E070E8615070407E836D835B
:101370001A8309838EE08C83CE010196BA01A901FC
:101380000E9468032D813E8137FD09C0EF81F885F9
:101390002E173F070CF4F901E00FF11F10822E9673
:1013A000E4E00C942337FA01AA27283051F12031C8
:1013B00081F1E8946F936E7F6E5F7F4F8F4F9F4FE9
:1013C000AF4FB1E03ED0B4E03CD0670F781F891F2B
:1013D0009A1FA11D680F791F8A1F911DA11D6A0FF9
:1013E000711D811D911DA11D20D009F468943F91AC
:1013F0002AE0269F11243019305D3193DEF6CF01AB
:101400000895462F4770405D4193B3E00FD0C9F770
:10141000F6CF462F4F70405D4A3318F0495D31FDDD
:101420004052419302D0A9F7EACFB4E0A695979530
:10143000879577956795BA95C9F700976105710506
:1014400008959B01AC010A2E069457954795379550
:101450002795BA95C9F7620F731F841F951FA01DAA
:1014600008950F931F93CF93DF938C0189E090E051
:101470000E94F106EC010097C9F01886FC0120E0FB
:1014800030E0D8018C9190E0022E02C095958795AE
:101490000A94E2F78170805D87832F5F3F4F319719
:1014A0002830310571F7CE010E942609CE01DF9167
:1014B000CF911F910F910895A2E0B0E0E2E6FAE02B
:1014C0000C94013781E090E040E855E260E070E084
:1014D0002FEF30E000E410E00E94123681E090E04F
:1014E0006EEF0E94F82F81E090E061E00E94F82FFB
:1014F0007E010894E11CF11CD701E0E0F2E083E0FA
:1015000001900D928150E1F7F70101900020E9F779
:10151000CF0100D000D0ADB7BEB711960197EDB79F
:10152000FEB79283818393E0A92E92E0B92E1396A1
:10153000BC92AE9212978091401514968C9314979A
:1015400015961C920E945B09F70101900020E9F7B3
:10155000319780E290E0918380838DB79EB70696A5
:101560000FB6F8949EBF0FBE8DBF81E090E0B7012B
:101570000E94AF34D701E6E0F2E083E001900D92E3
:101580008150E1F705E010E089E0C82E82E0D82E16
:101590002BC0F70101900020E9F7CF0100D000D067
:1015A000ADB7BEB711960197EDB7FEB792838183B1
:1015B0001396DC92CE921297F801E35CFA4E80818A
:1015C00014968C93149715961C920E945B098DB704
:1015D0009EB706960FB6F8949EBF0FBE8DBF023120
:1015E000110554F50E5F1F4F0530110591F6F701F7
:1015F00001900020E9F7CF0100D000D0ADB7BEB711
:1016000011960197EDB7FEB7928381831396BC9232
:10161000AE9212978091421514968C93149715965A
:101620001C920E945B098DB79EB706960FB6F89480
:101630009EBF0FBE8DBFD6CF81E090E0B7010E9464
:10164000AF342296EAE00C941D37A4E1B0E0EBE25F
:10165000FBE00C94033783E0C82ED12CCC0EDD1EAA
:10166000D601E7E7F2E082E101900D928150E1F7C7
:1016700081ED898381E08A8300E010E07E01089497
:10168000E11CF11CC601800F911F62E070E00E9416
:10169000EC0BC70162E070E00E94EC0BC801815CBA
:1016A0009A4E62E070E00E94370C0E5F1F4F0231CD
:1016B000110541F76496E8E00C941F370895AF9246
:1016C000BF92CF92DF92EF92FF920F931F9380E031
:1016D00090E040E855E260E070E02FEF30E000E499
:1016E00010E00E941236909352158093511589E9AB
:1016F0009BE060E070E040E051E020E030E003E09B
:10170000EE24FF24CC24DD24AA24BB240E94FC293F
:1017100080EC90E00E94400D0E94012B80E090E060
:101720001F910F91FF90EF90DF90CF90BF90AF90FF
:101730000895A2E0B0E0EFE9FBE00C9407370E94C7
:10174000A1139A8389838E010F5F1F4F80E00E944F
:10175000250BC80162E370E00E94F12780E00E943F
:101760005C0AF4CF8091BC0080FDFCCF10928C020B
:1017700088EF8093480285EC8093BC0008958091A7
:10178000BC0080FDFCCF10928C0288EF8093480251
:1017900085EE8093BC000895AC018091BC0080FD73
:1017A000FCCF6093A702662371F020E030E0F901DE
:1017B000E157FD4FDA01A20FB31F8C9180832F5F99
:1017C0003F4F2617A0F310928C0288EF80934802B7
:1017D00085EC8093BC000895FC018091BC0080FDE5
:1017E000FCCF6093A702808180938F02808180FD6F
:1017F00011C0623078F0DF01E0E9F2E0625070E0A1
:101800006F567D4F11968C91119781931196E61723
:10181000F707C1F710928C0288EF8093480285EA9F
:101820008093BC000895AC018091BC0080FDFCCF8A
:1018300020918C0220FF19C0662381F020E030E067
:10184000FA01E20FF31FD901A157BD4F8C9180839C
:101850002F5F3F4F2617A0F320918C02822F8D7FA0
:1018600080938C02822F8170089580E00895AC01EE
:101870008091BC0080FDFCCF80918C02282F2170CC
:1018800080FF13C0662389F020E030E0FA01E20F08
:10189000F31FD901A157BD4F8C9180832F5F3F4F1C
:1018A0002617A0F320918C022170822F0895809139
:1018B0008D02882319F089B189B1FDCF81E00895A7
:1018C0008091BC0080FDFCCF8091480208951F925A
:1018D0000F920FB60F920BB60F9211242F933F93D6
:1018E0008F939F93AF93BF93EF93FF938091B90032
:1018F00090E0FC013897E13CF105B0F08091B9002F
:101900008093480285ED8093BC00FF91EF91BF91D9
:10191000AF919F918F913F912F910F900BBE0F90A0
:101920000FBE0F901F901895EE58FF4F0C94303754
:1019300080918E029091BB00E82FF0E0E157FD4FBF
:1019400090838F5F80938E0280918C028160809360
:101950008C0285EC8093BC00D8CF20918E028091C0
:10196000BB00E22FF0E0E157FD4F80832F5F209313
:101970008E0230E08091A70290E001972817390786
:1019800044F385E88093BC00C0CF10928E02909102
:101990008E028091A702981708F05DC0E92FF0E051
:1019A000E157FD4F80818093BB009F5F90938E0233
:1019B00085E88093BC00A9CF10928E0290918E0290
:1019C000E92FF0E0E157FD4F80818093BB009F5FDE
:1019D00090938E0285EC8093BC0097CF8091BB00E2
:1019E000E0918E02F0E0E157FD4F808380918C0200
:1019F000816080938C0284ED8093BC0086CF8091BF
:101A0000B9008093480285EE8093BC007ECF85EEBE
:101A10008093BC007ACF84E080938D028093BC00D9
:101A200074CF90918E028091A702981719F180913E
:101A3000B9008093480284E08093BC0066CF809117
:101A40008C028460826080938C0210928E0285ECFE
:101A50008093BC005ACF80918C02816080938C026D
:101A600084E98093BC0051CF80918C02EBCF209110
:101A70008E027FCF80918C02816080938C02DBCFBD
:101A80001F93182F80918A0290918B02892BA9F0C5
:101A90008AB18C7F8AB98BB183608BB91092B900FF
:101AA0008CE28093B8001093BA008FEF8093BB0054
:101AB00084E08093BC001F91089581E060E043E0E2
:101AC0000E942D1390938B0280938A02009701F35A
:101AD00060E070E040E050E020E00E949A10D8CF33
:101AE0001F93182F80918A0290918B02892B69F0A5
:101AF0008AB18C7F8AB91093BA008FEF8093BB00B4
:101B000084E08093BC001F91089581E060E043E091
:101B10000E942D1390938B0280938A02009741F3C9
:101B200060E070E040E050E020E00E949A10E0CFDA
:101B30000FB6F8940F92FC01828D0F900FBE08959E
:101B4000FC010FB6F8940F92928D0F900FBE838D0B
:101B5000891B0895FC01828D0895FC01878D0895ED
:101B6000FC01678F0895FC0180A10895FC01828D1E
:101B700090E0882309F491E0892F0895FC01928D6B
:101B800020E0838D981711F0822F089521E0822F95
:101B90000895CF93DF93EC0188819981009711F02C
:101BA0000E94E82DCE010E94E82DDF91CF9108958B
:101BB0000F931F93CF93DF93562FE72FEC018A8D5E
:101BC0008823F1F00E811F8168817981611571058B
:101BD000A1F04C8D9801240F311D3F832E838A8103
:101BE0009B812817390710F07F836E836E817F8178
:101BF000852F9E2F50E00E94DF081F830E8381E017
:101C0000DF91CF911F910F9108950F931F93CF9361
:101C1000DF93FB018A01EC018A8D882319F1688129
:101C2000798161157105A1F04C8D8E819F81840FA2
:101C3000911D9F838E832A813B818217930710F029
:101C40007F836E836E817F81CF0150E00E94DF0829
:101C50008A8D81508A8F8D8D8F3F49F08D8D8F5F5A
:101C60008D8F81E0DF91CF911F910F91089588852D
:101C7000882331F481E0DF91CF911F910F91089576
:101C8000CE0108960E94B5158823A1F30115110510
:101C900089F381E0F8018083E5CFA5E0B0E0E3E5DA
:101CA000FEE00C94FB36562E472E5D834C83A22E0D
:101CB0008C0128E0C22ED12CC80ED91E91E1E92E4C
:101CC000F12CE00EF11E20E04E010894811C911CC5
:101CD00084E0682E712C6C0E7D1EBB24BA940FB666
:101CE000F8940F92F801828D882309F0ECC08C8162
:101CF0009D81892B09F41CC1222309F4D5C00F90C2
:101D00000FBE0E949B130FB6F8940F92F801858DB9
:101D10008F3F09F4C7C0F801868D8F3F09F4C0C01A
:101D20000F900FBEC401B3010E94C013882309F0B5
:101D300007C10FB6F8940F92F801828D0F900FBE75
:101D4000882309F05FC0F80180819181892B09F413
:101D5000AFC06C817D81C7010E949F170FB6F894B8
:101D60000F92F801868D18164CF019C0F801868D77
:101D70008150868F868D181694F4F8018189882306
:101D800071F0C7010E94B515882381F30E94FF13EB
:101D9000F801868D8150868F868D181674F3F801B0
:101DA000B68E0F900FBE0FB6F8940F92F801858D86
:101DB00018164CF019C0F801858D8150858F858DDE
:101DC000181694F4F8018085882371F0C6010E94EA
:101DD000B515882381F30E94FF13F801858D81508A
:101DE000858F858D181674F3F801B58E0F900FBE90
:101DF0000E94B518882311F021E071CF0E947C2D3C
:101E000021E06DCF0FB6F8940F92F801868D181669
:101E10004CF019C0F801868D8150868F868D18167A
:101E200094F4F8018189882371F0C7010E94B515E7
:101E3000882381F30E94FF13F801868D8150868FDD
:101E4000868D181674F3F801B68E0F900FBE0FB67C
:101E5000F8940F92F801858D18164CF019C0F8010E
:101E6000858D8150858F858D181694F4F8018085B5
:101E7000882371F0C6010E94B515882381F30E9462
:101E8000FF13F801858D8150858F858D181674F3A9
:101E9000F801B58E0F900FBE0E94B51821E01FCF3C
:101EA000168E3ECF158E37CFC4010E94B51327CFB3
:101EB0000FB6F8940F92F801828193810E942D153C
:101EC0000F900FBE46CF868097806081718161152B
:101ED0007105A1F0448D9401240F311D37832683B1
:101EE000828193812817390708F08CC0F801668138
:101EF0007781852D942D50E00E94DF08AA2009F0FB
:101F000073C0F801828D8150828F80819181892BED
:101F100009F481C0F8018085882309F46BC0C601EB
:101F20000E94B515813009F065C00E947C2D62C009
:101F30000F900FBE80E02596E0E10C94173771C03A
:101F40000FB6F8940F92F801868D18164CF019C050
:101F5000F801868D8150868F868D181694F4F801CD
:101F60008189882371F0C7010E94B515882381F308
:101F70000E94FF13F801868D8150868F868D18167A
:101F800074F38FEFF801868F0F900FBE0FB6F894A1
:101F90000F92F801858D18164CF019C0F801858D47
:101FA0008150858F858D181694F4F80180858823DB
:101FB00071F0C6010E94B515882381F30E94FF13BA
:101FC000F801858D8150858F858D181674F38FEFFC
:101FD000F801858F0F900FBE0E94B51880E02596FE
:101FE000E0E10C9417371DC0F80197828682818941
:101FF000882359F40F900FBE81E02596E0E10C9400
:1020000017370FC07783668371CFC7010E94B5155C
:10201000882381F38ACF0E94DD14F80193838283A1
:1020200079CFEF92FF921F93CF93DF937A01122F14
:10203000EC019A8D8B8D981748F0223039F080E0B2
:10204000DF91CF911F91FF90EF9008954C8D442325
:10205000A9F488819981892B09F465C08A8D8F5FE5
:102060008A8F8E8D8F3F89F18E8D8F5F8E8F81E06D
:10207000DF91CF911F91FF90EF900895112379F197
:102080008E819F8150E00E94DF088C8D90E0442774
:102090005527481B590B8E819F81840F951F9F8365
:1020A0008E83288139818217930730F48A819B813E
:1020B000840F951F9F838E83123081F68A8D88232B
:1020C00069F28A8D81508A8FC9CF89898823F1F47A
:1020D00081E0DF91CF911F91FF90EF9008958C8167
:1020E0009D8150E00E94DF088C8D2C813D81280F5E
:1020F000311D3D832C838A819B812817390708F481
:10210000ADCF888199819D838C83A8CFCE014196E4
:102110000E94B5158823E1F2E114F104C9F281E0CF
:10212000F7018083A5CF8A819B810E94FB141B82CB
:102130001A8294CFA5E0B0E0E0EAF0E10C94FB361F
:10214000562E472E5D834C83B22E8C0158E0E52E2F
:10215000F12CE80EF91E41E1C42ED12CC80ED91E77
:1021600020E04E010894811C911C34E0632E712CF8
:102170006C0E7D1EAA24AA940FB6F8940F92F80153
:10218000928D838D981708F4E0C0F2E0BF1609F431
:10219000DCC08C819D81892B09F41EC1222309F4A6
:1021A00078C00F900FBE0E949B130FB6F8940F9249
:1021B000F801858D8F3F09F46AC0F801868D8F3F45
:1021C00009F463C00F900FBEC401B3010E94C01395
:1021D000882309F009C10FB6F8940F92F801928D87
:1021E0000F900FBEF801838D981709F456C00FB6F3
:1021F000F8940F92F801868D18164CF019C0F8016A
:10220000868D8150868F868D181694F4F801818909
:10221000882371F0C6010E94B515882381F30E94BE
:10222000FF13F801868D8150868F868D181674F302
:10223000F801A68E0F900FBE0FB6F8940F92F8011A
:10224000858D18164CF019C0F801858D8150858F49
:10225000858D181694F4F8018085882371F0C701E4
:102260000E94B515882381F30E94FF13F801858D24
:102270008150858F858D181674F3F801A58E0F9007
:102280000FBE0E94B51821E077CF168E9BCF158E1A
:1022900094CFC4010E94B51384CF6C817D81C701A6
:1022A0000E949F170FB6F8940F92F801868D1816AA
:1022B0004CF019C0F801868D8150868F868D1816D6
:1022C00094F4F8018189882371F0C6010E94B51544
:1022D000882381F30E94FF13F801868D8150868F39
:1022E000868D181674F3F801A68E0F900FBE0FB6E8
:1022F000F8940F92F801858D18164CF019C0F8016A
:10230000858D8150858F858D181694F4F801808510
:10231000882371F0C7010E94B515882381F30E94BC
:10232000FF13F801858D8150858F858D181674F304
:10233000F801A58E0F900FBE0E94B518882309F0F2
:10234000A2CF0E947C2D21E017CFF801448D4423B9
:10235000A9F480819181892B09F4BEC0F801828D96
:102360008F5F828F8189882309F0ADC00F900FBEE7
:1023700081E02596E0E10C941737B6C0BB2009F444
:1023800087C0F80186819781652D742D50E00E94E9
:10239000DF08F801848D90E044275527481B590B2E
:1023A00086819781840F951F978386832081318151
:1023B0008217930730F482819381840F951F97834E
:1023C0008683F2E0BF1651F6F801828D882331F240
:1023D000828D8150828FC2CF0F900FBE80E02596F4
:1023E000E0E10C94173780C00FB6F8940F92F80113
:1023F000868D18164CF019C0F801868D8150868F95
:10240000868D181694F4F8018189882371F0C6012D
:102410000E94B515882381F30E94FF13F801868D71
:102420008150868F868D181674F38FEFF801868F92
:102430000F900FBE0FB6F8940F92F801858D181605
:102440004CF019C0F801858D8150858F858D181647
:1024500094F4F8018085882371F0C7010E94B515B6
:10246000882381F30E94FF13F801858D8150858FA9
:10247000858D181674F38FEFF801858F0F900FBEBE
:102480000E94B51880E02596E0E10C9417372CC027
:10249000F80184819581652D742D50E00E94DF083C
:1024A000F801848D24813581280F311D35832483E3
:1024B000828193812817390708F450CF8081918158
:1024C000958384834BCFC6010E94B515813009F0F6
:1024D0004DCF0E947C2D4ACF828193810E94FB14B4
:1024E000F801138212823ACF0F931F93CF93DF9399
:1024F000182F81E290E00E945B2EEC01009719F109
:102500001B821A82198218821D821C821F821E82DF
:102510001A8E81E08B8F1C8E8FEF8D8F8E8F18A37C
:10252000CE0108960E94592F8E010F5E1F4FC801E1
:102530000E94592F0FB6F8940F929A8D8B8D981791
:1025400040F00F900FBECE01DF91CF911F910F9100
:1025500008954C8D442391F488819981892B71F1E0
:102560008A8D8F5F8A8F8989882301F50F900FBE2E
:10257000CE01DF91CF911F910F9108958C819D81A4
:1025800060E070E050E00E94DF088C8D2C813D817E
:10259000280F311D3D832C838A819B8128173907A1
:1025A000F8F2888199819D838C83DACFC8010E94DB
:1025B000B5158130D9F60E947C2DD8CF8A819B81B8
:1025C0000E94FB141B821A82CBCFCF93DF93EC01C6
:1025D0000FB6F8940F92EC8D2B8DE29FC001112461
:1025E00048815981840F951F9B838A831A8E5D834E
:1025F0004C8330E021503040F0E02E9FC0012F9FEF
:10260000900D3E9F900D1124480F591F5F834E83FC
:102610008FEF8D8F8E8F662391F48885882331F418
:102620000F900FBE81E0DF91CF910895CE01089603
:102630000E94B5158130A1F70E947C2DF1CFCE010B
:1026400008960E94592FCE0141960E94592F0F9053
:102650000FBE81E0DF91CF910895CF92DF92FF927C
:102660000F931F93CF93DF93182F062FF42E8823F9
:1026700059F440E050E0CA01DF91CF911F910F91D2
:10268000FF90DF90CF90089581E290E00E945B2E52
:10269000EC01009771F3C02EDD24812F90E09C01A6
:1026A000C29EC001C39E900DD29E900D1124019632
:1026B0000E945B2E998388830097B9F11B8F0C8F42
:1026C0000FB6F8940F922B8D30E0C29EC001C39ECE
:1026D000900DD29E900D112448815981840F951F31
:1026E0009B838A831A8E5D834C83215030408C8D6E
:1026F00090E0BC01269FC001279F900D369F900D52
:102700001124480F591F5F834E838FEF8D8F8E8F5B
:10271000CE0108960E94592FCE0141960E94592F52
:102720000F900FBEF8A2AE01A6CFCE010E94E82DF9
:1027300040E050E0A0CF8091B0028F5F8093B00264
:1027400008950FB6F8940F922091AD023091AE0229
:102750000F900FBEC90108952091AD023091AE02D5
:10276000C90108958091AA020895FC018091AF02E9
:1027700080838091AD029091AE029283818308950F
:10278000FC01DB010FB6F8940F926091AD027091DD
:10279000AE022D913C9111978FEF2F3F3807F9F042
:1027A0009091AF0280818917F1F0418152816417C5
:1027B000750708F5CB01841B950B82179307D8F496
:1027C000261B370B240F351F2D933C938091AF02AE
:1027D00080838091AD029091AE029283818380E0EC
:1027E0000F900FBE089541815281CB01841B950B40
:1027F0008217930728F381E00F900FBE089581E0C0
:102800008093AC020895FC01009711F082A1089515
:1028100080E00895FC01009709F062A30895A0E00C
:10282000B0E0E5E1F4E10C94FB363C018B015A0188
:10283000DB018C91882309F48DC01196ED91FC91F8
:1028400012970280F381E02D1296FC93EE9311977C
:1028500023E0C22ED12CC60ED71EEC15FD0509F4BF
:1028600083C086809780FF249FE0E92E82E0482E77
:10287000512C82819381F80192838183C816D906F5
:1028800009F455C0D8011196ED91FC911297C681BB
:10289000D781FE9CB0011124660D771DFB01D18309
:1028A000C0836996D383C283699789A18483B682E2
:1028B000A5828E898783F3E0AF16B10409F43FC087
:1028C0008BA1FB0180878CA19DA1AEA1BFA18187B7
:1028D0009287A387B487AF89B88D8C91853A09F028
:1028E00040C020E030E040E050E02F5F3F4F4F4FCE
:1028F0005F4FFD01E20FF31F8081853AB1F3C901FB
:10290000DB011E969C938E931D97F394C815D905F1
:1029100011F1D8011196ED91FC911297828193816A
:10292000F80192838183C816D90609F0ABCFD6018E
:1029300012968D919C91139792838183A3CF8C895A
:102940009D89892B09F4BCCFDB0116965C924E92CF
:102950001597B6CFFF248F2DCDB7DEB7E0E10C94ED
:10296000173780E090E0CCCF8281938111968C93D1
:10297000119712969C939C01F90173CF0097B1F0C7
:10298000FC01A789B08D8C91853AA9F420E030E054
:1029900040E050E02F5F3F4F4F4F5F4FFD01E20F90
:1029A000F31F8081853AB1F3822F0895E091A80248
:1029B000F091A902E6CF80E008952091A80230911D
:1029C000A902C9010895E091A802F091A9028485A5
:1029D0009585A091A802B091A902E091A802F0917A
:1029E000A902468924E030E0241B31091D963C935E
:1029F0002E931C9708950F931F93CF93DF93EC01B1
:102A0000009731F19E898BA1981711F18E010E5F0D
:102A10001F4FC8010E94BE2F2BA12E8B8C859D8538
:102A200097FD06C084E090E0821B91099D878C870A
:102A30009E898091AB02891710F49093AB0289E0D4
:102A4000989FC001112483549D4FB8010E946D2F9F
:102A5000DF91CF911F910F9108950F931F93CF9303
:102A6000DF93EC01009741F13E89E091A802F091DB
:102A7000A9028689381700F58C859D8597FD0BC0C6
:102A8000E091A802F091A902268984E090E0821BDF
:102A900091099D878C8789E0389FC0011124835458
:102AA0009D4F2A853B852817390759F0E091A802E8
:102AB000F091A90286898E8BDF91CF911F910F91A2
:102AC00008958E010E5F1F4FC8010E94BE2FE09136
:102AD000A802F091A90296899E8B8091AB0289177A
:102AE00010F49093AB0289E0989FC00111248354A5
:102AF0009D4FB8010E946D2FDFCF0F931F93CF938F
:102B0000DF93FC01706871836083C681D7810E9466
:102B1000BE2F8E010E5F1F4FC8010E94BE2F9E89DF
:102B20008091AB02891710F49093AB0289E0989FD3
:102B3000C001112483549D4FB8010E946D2FE09174
:102B4000A802F091A9029E898689891740F481E044
:102B50008093AC02DF91CF911F910F91089580E097
:102B6000DF91CF911F910F9108950F931F93CF93F2
:102B7000DF93DC011596ED91FC9116970681178184
:102B8000E8012C96CE010E94BE2F8091B0028823CE
:102B900031F5E8012296CE010E94BE2FF8019689F8
:102BA0008091AB02891708F189E0989FC001112438
:102BB00083549D4FBE010E946D2FE091A802F091B9
:102BC000A902D80156969C918689891788F481E0DC
:102BD0008093AC02DF91CF911F910F91089587EF01
:102BE00092E0BE010E946D2FE8CF9093AB02DCCF44
:102BF00080E0DF91CF911F910F910895A0E0B0E0A8
:102C0000E4E0F6E10C9403378091B002882309F0E8
:102C100089C08091AD029091AE0201969093AE0270
:102C20008093AD02E090AD02F090AE02E114F104A9
:102C300019F52091F3023091F4028091F502909100
:102C4000F6029093F4028093F3023093F6022093FD
:102C5000F5028091AF028F5F8093AF02E091F302A3
:102C6000F091F4028081882309F086C08FEF9FEFF6
:102C700090934A02809349028091490290914A02BE
:102C8000E816F90608F460C0DD2449E0C42EE0919E
:102C9000F302F091F40280818823E9F1E091F302DC
:102CA000F091F4020580F681E02DC681D7818A81FA
:102CB0009B81E816F90608F477C08E010E5F1F4F5E
:102CC000C8010E94BE2F8C899D89892B21F0CE01DD
:102CD0000C960E94BE2F9E898091AB02891710F43A
:102CE0009093AB029C9DC001112483549D4FB80169
:102CF0000E946D2FE091A802F091A9029E89868919
:102D0000981728F2DD24D394E091F302F091F402B5
:102D10008081882319F68FEF9FEF90934A0280936A
:102D2000490213C08091B9028F5F8093B902DD24FC
:102D30008091AC02882311F0DD24D3948D2DCDB782
:102D4000DEB7E8E00C941F37DD24E091A802F09193
:102D5000A902868990E0FC01EE0FFF1FEE0FFF1F16
:102D6000EE0FFF1FE80FF91FE354FD4F8081823003
:102D7000F8F2DD24D394DCCFE091F302F091F40279
:102D80000580F681E02D0680F781E02D8281938118
:102D900090934A02809349028091490290914A029D
:102DA000E816F90688F270CF90934A0280934902A0
:102DB000CCCFDF92EF92FF920F931F93CF93DF93CD
:102DC000EC018A859B858950934041F010E0812F6A
:102DD000CDB7DEB7E7E00C94203742C08C899D89DF
:102DE00022E0873F920791F3892B81F78091B0020F
:102DF000882349F5DE88E091A802F091A9020689AE
:102E000052E0E52EF12CEC0EFD1EC7010E94BE2FF4
:102E10006E898091AB02861710F46093AB0210E0CC
:102E2000D01608F011E089E0689FC0011124835496
:102E30009D4FB7010E946D2F812FCDB7DEB7E7E020
:102E40000C9420370DC02C9687EF92E0BE010E94B3
:102E50006D2F10E0812FCDB7DEB7E7E00C9420375F
:102E60000F931F93CF93DF938A01E091A802F09113
:102E7000A9027068758764876091A8027091A902A1
:102E8000645F7F4F0E946D2F8091A8029091A902EC
:102E900002960E94BE2F8FEF0F3F180709F440C023
:102EA000C091AD02D091AE02C00FD11FE091A80237
:102EB000F091A902D383C2838091AD029091AE02BA
:102EC000C817D907E0F08091F3029091F402609165
:102ED000A8027091A9026E5F7F4F0E948C2F809193
:102EE000490290914A02C817D90720F4D0934A02A8
:102EF000C0934902DF91CF911F910F910895809166
:102F0000F5029091F6026091A8027091A9026E5F9D
:102F10007F4F0E948C2FDF91CF911F910F910895C9
:102F20006091A8027091A9026E5F7F4F89E093E0E3
:102F30000E946D2FDF91CF911F910F9108950F93F4
:102F40001F93CF93DF938B016091A8027091A90228
:102F5000645F7F4F0E948C2F8091A8029091A902FC
:102F600002960E94BE2F8FEF0F3F180709F440C052
:102F7000C091AD02D091AE02C00FD11FE091A80266
:102F8000F091A902D383C2838091AD029091AE02E9
:102F9000C817D907E0F08091F3029091F402609194
:102FA000A8027091A9026E5F7F4F0E948C2F8091C2
:102FB000490290914A02C817D90720F4D0934A02D7
:102FC000C0934902DF91CF911F910F910895809195
:102FD000F5029091F6026091A8027091A9026E5FCD
:102FE0007F4F0E948C2FDF91CF911F910F910895F9
:102FF0006091A8027091A9026E5F7F4F89E093E013
:103000000E946D2FDF91CF911F910F910895EF9244
:10301000FF920F931F938091B002882309F093C011
:103020001092AC0280918400909185007C0100E0B8
:1030300010E0E092B102F092B2020093B30210935A
:10304000B4028091B5029091B602A091B702B091FE
:10305000B8028E159F05A007B107B0F4E091A80251
:10306000F091A902A8019701281B390B4A0B5B0BB1
:1030700084A195A1A6A1B7A1820F931FA41FB51F7C
:1030800084A395A3A6A3B7A3E092B502F092B602DB
:103090000093B7021093B802E091A802F091A90240
:1030A000A091A802B091A9022081318157968D91FB
:1030B0009C9158978217930790F08091A802909165
:1030C000A9026091A8027091A902675E7F4F0E94D9
:1030D0005E0B05C08091AB0281508093AB02809162
:1030E000AB0290E0FC01EE0FFF1FEE0FFF1FEE0F93
:1030F000FF1FE80FF91FE354FD4F8081882351F330
:103100009091AB0289E0989FD0011124A354BD4F48
:103110001196ED91FC9112970280F381E02D1296A9
:10312000FC93EE931197CD010396E817F90799F0F8
:10313000868197819093A9028093A8021F910F9195
:10314000FF90EF90089581E08093AC021F910F9162
:10315000FF90EF9008958281938111968C9311973F
:1031600012969C939C01F901E3CFA0E0B0E0EBEB59
:10317000F8E10C9400370FB6F8940F928091B002EA
:1031800081508093B0028091B002882309F0EDC095
:103190008091AA02882309F4E8C0F9E0FF2EEE240A
:1031A000E3948091F702882369F1E091FC02F091A9
:1031B000FD02C681D781CE010C960E94BE2F8E01E2
:1031C0000E5F1F4FC8010E94BE2F9E898091AB02E7
:1031D000891710F49093AB029F9DC0011124835472
:1031E0009D4FB8010E946D2FE091A802F091A902B5
:1031F0009E8986899817A8F2E092AC028091F70226
:10320000882399F68091B902882309F4AAC0809195
:10321000B902882309F4A5C0E9E0CE2EAA24AA9415
:10322000BA2C992493948091B002882309F083C02A
:103230008091AD029091AE0201969093AE02809380
:10324000AD02E090AD02F090AE02E114F10409F598
:103250002091F3023091F4028091F5029091F602F0
:103260009093F4028093F3023093F6022093F502D8
:103270008091AF028F5F8093AF02E091F302F091F3
:10328000F4028081882309F097C0B0924A02A0928C
:1032900049028091490290914A02E816F90608F421
:1032A00073C0DD24E091F302F091F4028081882361
:1032B000E9F1E091F302F091F4020580F681E02D4E
:1032C000C681D7818A819B81E816F90608F485C0FA
:1032D0008E010E5F1F4FC8010E94BE2F8C899D89F1
:1032E000892B21F0CE010C960E94BE2F9E898091E1
:1032F000AB02891710F49093AB029C9DC00111247E
:1033000083549D4FB8010E946D2FE091A802F09167
:10331000A9029E898689981728F2DD24D394E0912A
:10332000F302F091F4028081882319F6B0924A02E8
:10333000A09249022AC08091B9028F5F8093B9029E
:10334000DD248091AC028823E1F4DD20D1F480916A
:10335000B90281508093B9028091B902882309F0A3
:1033600062CF8091AC02813041F080E00F900FBEBF
:10337000CDB7DEB7EBE00C941C370E947C2D81E0CA
:10338000F5CF9092AC02E3CFDD24E091A802F0915A
:10339000A902868990E0FC01EE0FFF1FEE0FFF1FD0
:1033A000EE0FFF1FE80FF91FE354FD4F80818230BD
:1033B00040F2DD24D394C5CFE091F302F091F40202
:1033C0000580F681E02D0680F781E02D82819381D2
:1033D00090934A02809349025CCF90934A02809373
:1033E0004902D3CFA4E0B0E0E8EFF9E10C94F9365C
:1033F0001C01DC011C928091AA0289839091AA028F
:103400008FE0989FC00111240E945B2E2C01009731
:1034100009F4ADC089819091B0029F5F9093B00292
:103420009091AA02891708F4A6C084E0C82E1C82D5
:10343000CA94BC81EFE0BE9F50011124A40CB51CBE
:10344000F9E0CF9E700111244DEB52E0E40EF51E21
:10345000D7018C91882309F484C11196ED91FC91D8
:1034600012970280F381E02D1296FC93EE93119750
:1034700003E0802E912C8E0C9F1CE815F90509F4B1
:103480002CC566807780DD2482819381F701928349
:1034900081838816990609F45FC0D7011196ED91D2
:1034A000FC91129766817781BFE0DB9E8001112439
:1034B0000A0D1B1DF80171836083675E7F4F738364
:1034C000628369517040DB0191968C91919784835E
:1034D00041E050E05683458356968C9156978783FA
:1034E00093968C919397808794968D919D910D9052
:1034F000BC91A02D81879287A387B487FB01A78900
:10350000B08D8C91853A09F0D4C220E030E040E0E3
:1035100050E02F5F3F4F4F4F5F4FFD01E20FF31F12
:103520008081853AB1F3C901D8011E969C938E9390
:103530001D97D3946616770609F414C1D701119626
:10354000ED91FC91129782819381F701928381839F
:103550008816990609F0A1CFD40112968D919C91FD
:1035600013979283818399CFC2010E94E82D2496FC
:10357000E2E10C9415371B820FB6F8940F928091FC
:10358000B00281508093B0028091B002882309F08C
:10359000A4C18091AA02882309F49FC199E0D92E81
:1035A000CC24C3948091F702882399F1E091FC0226
:1035B000F091FD0206811781C8010C960E94BE2F72
:1035C00022E0E22EF12CE00EF11EC7010E94BE2F78
:1035D000F80196898091AB02891718F49093AB0299
:1035E00096899D9DC001112483549D4FB7010E946F
:1035F0006D2FE091A802F091A902D80156969C91F6
:103600008689981778F2C092AC028091F7028823DD
:1036100069F68091B902882309F459C18091B902F1
:10362000882309F454C189E0A82E8091B002882330
:1036300009F035C18091AD029091AE020196909350
:10364000AE028093AD02C090AD02D090AE02C11424
:10365000D10419F52091F3023091F4028091F50222
:103660009091F6029093F4028093F3023093F60265
:103670002093F5028091AF028F5F8093AF02E091BB
:10368000F302F091F4028081882309F004C4EFEF83
:10369000FFEFF0934A02E093490280914902909132
:1036A0004A02C816D90608F4DDC3BB24E091F30230
:1036B000F091F4028081882309F44CC0E091F30278
:1036C000F091F4020580F681E02D06811781D80182
:1036D00012968D919C911397C816D90608F4F5C3DC
:1036E000B2E0EB2EF12CE00EF11EC7010E94BE2FBE
:1036F000F80184899589892B21F0C8010C960E94D4
:10370000BE2FD80156969C9156978091AB0289178F
:1037100020F49093AB0256969C919A9DC00111247F
:1037200083549D4FB7010E946D2FE091A802F09144
:10373000A902D80156969C918689981708F4B6CFAD
:10374000BB24B394E091F302F091F40280818823CA
:1037500009F0B4CF4FEF5FEF50934A024093490214
:1037600082C3DD24BC81BD0DBC83CC2009F060CEBA
:103770008FE0B89F50011124A40CB51CE090F30217
:10378000F090F402F7018081882309F495C101804B
:10379000F281E02D0280F381E02DD7011296FC9397
:1037A000EE93119713E0812E912C8E0C9F1CE8153F
:1037B000F90509F4A3C366807780DD24AFE0CA2E43
:1037C00082819381F701928381838816990609F497
:1037D0005EC0D7011196ED91FC91129766817781B9
:1037E000DC9C800111240A0D1B1DF801718360838C
:1037F000675E7F4F7383628369517040DB019196EE
:103800008C919197848342E050E05683458356968D
:103810008C915697878393968C91939780879496F3
:103820008D919D910D90BC91A02D81879287A3874A
:10383000B487FB01A789B08D8C91853A09F042C30A
:1038400020E030E040E050E02F5F3F4F4F4F5F4FB0
:10385000FD01E20FF31F8081853AB1F3C901D80160
:103860001E969C938E931D97D3946616770609F443
:1038700024C1D7011196ED91FC9112978281938119
:10388000F701928381838816990609F0A2CFD401AB
:1038900012968D919C911397928381839ACF8091F8
:1038A000B9028F5F8093B902BB248091AC02882358
:1038B00009F0D4C2BB2009F0D1C28091B902815075
:1038C0008093B9028091B902882309F0AECE80912D
:1038D000AC02813011F40E947C2D0F900FBEEB8161
:1038E000E983C401B30124E630E040E050E00E94E7
:1038F000D73659016A01A114B104C104D10409F4F5
:1039000033CE1A829A818981981708F02DCEEDE086
:103910008E2EE2E09E2E7CE1672E72E0772E60C054
:103920008A812A814DB75EB74A5050400FB6F8944D
:103930005EBF0FBE4DBFADB7BEB71196EDB7FEB7B8
:103940003282218213969C928E92129790E0FC0113
:10395000EE0FFF1FE80FF91FCF01880F991F880F87
:10396000991FE80FF91FE40DF51D828193811596CB
:103970009C938E93149730E0F901EE0FFF1FE20F36
:10398000F31FCF01880F991F880F991FE80FF91FA8
:10399000E40DF51D8185928517969C938E9316975D
:1039A0001996FC92EE9218970E945B094DB75EB78C
:1039B000465F5F4F0FB6F8945EBF0FBE4DBFD1019B
:1039C0000D900020E9F71197A219B3098A818F5F42
:1039D0008A839A818981981708F0C6CD2A0E3B1EEA
:1039E0008A8190E0FC01EE0FFF1FE80FF91FCF0165
:1039F000880F991F880F991FE80FF91FE40DF51D17
:103A00006185728583859485A60195010E94D736CC
:103A100079018A01E114F1040105110509F080CF53
:103A20008A812A81ADB7BEB718970FB6F894BEBF8A
:103A30000FBEADBF1196EDB7FEB73282218213964D
:103A40007C926E92129790E0FC01EE0FFF1FE80F40
:103A5000F91FCF01880F991F880F991FE80FF91FD1
:103A6000E40DF51D8281938115969C938E93149796
:103A700030E0F901EE0FFF1FE20FF31FCF01880FB7
:103A8000991F880F991FE80FF91FE40DF51D818517
:103A9000928517969C938E9316970E945B094DB75B
:103AA0005EB7485F5F4F0FB6F8945EBF0FBE4DBF65
:103AB00086CF80E090E038CDDD24CC80CD0C8FE047
:103AC000C89E50011124A40CB51CE090F502F090A2
:103AD000F602F7018081882309F486C00180F28113
:103AE000E02D0280F381E02DD7011296FC93EE9336
:103AF000119773E0872E912C8E0C9F1CE815F90509
:103B000009F406C266807780DD2482819381F70103
:103B1000928381838816990609F45EC0D7011196B5
:103B2000ED91FC91129766817781BFE0DB9E800169
:103B300011240A0D1B1DF80171836083675E7F4F9E
:103B40007383628369517040DB0191968C919197E8
:103B5000848342E050E05683458356968C91569775
:103B6000878393968C919397808794968D919D915E
:103B70000D90BC91A02D81879287A387B487FB010C
:103B8000A789B08D8C91853A09F099C120E030E089
:103B900040E050E02F5F3F4F4F4F5F4FFD01E20F7E
:103BA000F31F8081853AB1F3C901D8011E969C9319
:103BB0008E931D97D39466167706B9F0D7011196A8
:103BC000ED91FC91129782819381F7019283818319
:103BD0008816990609F0A2CFD40112968D919C9176
:103BE0001397928381839ACFDD24ED2CEC0C8FE028
:103BF000E89E60011124C40CD51C80910003882329
:103C000009F47CC0E0910103F09102030280F3818A
:103C1000E02DF0930203E0930103B3E0E330FB07F0
:103C200009F480C1E0910103F0910203A680B780FE
:103C3000FF246FE0762E54E0852E912C0280F381D4
:103C4000E02DF0930203E093010343E0E330F40737
:103C500009F4FDC0E0910103F091020366817781D0
:103C6000F79C800111240C0D1D1DD80111967C9329
:103C70006E93675E7F4F13967C936E931297695194
:103C80007040FB0181A114968C93149716969C9218
:103C90008E921597868917968C93179783A11896FD
:103CA0008C9384A195A1A6A1B7A1F80181879287E1
:103CB000A387B487FB01A789B08D8C91853A09F061
:103CC000FBC020E030E040E050E02F5F3F4F4F4F1F
:103CD0005F4FFD01E20FF31F8081853AB1F3C90107
:103CE000D8011E969C938E931D97F394A616B70643
:103CF00031F0E0910103F0910203A0CFFF24EF0C1B
:103D00008FE0E89E60011124C40CD51C809109034A
:103D1000882309F48AC0E0910A03F0910B03028022
:103D2000F381E02DF0930B03E0930A03B3E0EC3052
:103D3000FB0709F4DCC0E0910A03F0910B03A680B5
:103D4000B780FF2443E0842E912C32E0632E712C47
:103D50000280F381E02DF0930B03E0930A0343E02C
:103D6000EC30F40709F46CC0E0910A03F0910B0306
:103D7000668177815FE0F59E800111240C0D1D1D89
:103D8000D80111967C936E93675E7F4F13967C9358
:103D90006E93129769517040FB0181A114968C9328
:103DA000149716969C928E921597868917968C93E7
:103DB000179784899589892B21F016967C926E92AB
:103DC0001597DB0193968C919397F80180879496D1
:103DD0008D919D910D90BC91A02D81879287A38795
:103DE000B487FB01A789B08D8C91853A09F072C028
:103DF00020E030E040E050E02F5F3F4F4F4F5F4FFB
:103E0000FD01E20FF31F8081853AB1F3C901D801AA
:103E10001E969C938E931D97F394A616B70631F0C9
:103E2000E0910A03F0910B0393CFFF24FE0CFB8279
:103E300080918400909185003C01882499249CCB3A
:103E40008281938190930B0380930A038DCF8281AB
:103E500093819093020380930103FCCEB1E0B09371
:103E6000AC022BCDBB24E091A802F091A902868977
:103E700090E0FC01EE0FFF1FEE0FFF1FEE0FFF1F84
:103E8000E80FF91FE354FD4F8081823008F40DCD17
:103E9000BB24B3940ACDE091F302F091F4020580C3
:103EA000F681E02D0680F781E02D82819381909349
:103EB0004A0280934902F1CB80E090E011CF80E08C
:103EC00090E073CE80E090E0CACC90934A02809359
:103ED0004902C9CF80E090E09ACF82819381119608
:103EE0008C93119712969C939C01F901CACA828106
:103EF000938190930B0380930A031DCF828193815A
:103F000011968C93119712969C939C01F90153CCB6
:103F10008281938111968C93119712969C939C01A8
:103F2000F901F0CD82819381909302038093010384
:103F300079CEA3E0B0E0EFE9FFE10C94F9361C0183
:103F4000DC011C928091AA0289839091AA028FE0E1
:103F5000989FC00111240E945B2E5C01009709F418
:103F6000ADC089819091B0029F5F9093B002909113
:103F7000AA02891708F4A6C064E0C62E1B82CA9460
:103F8000BB81EFE0BE9F400111248A0C9B1CF9E02D
:103F9000CF9E700111242DEB32E0E20EF31ED7010B
:103FA0008C91882309F482C11196ED91FC911297AE
:103FB0000280F381E02D1296FC93EE93119753E06B
:103FC000652E712C6E0C7F1CE615F70509F4FEC4F6
:103FD00046805780DD2482819381F701928381831B
:103FE0006816790609F45FC0D7011196ED91FC912E
:103FF000129766817781BFE0DB9E80011124080D56
:10400000191DF80171836083675E7F4F738362833C
:1040100069517040DB0191968C919197848321E0E6
:1040200030E03683258356968C91569787839396F6
:104030008C919397808794968D919D910D90BC91D2
:10404000A02D81879287A387B487FB01A789B08DB4
:104050008C91853A09F0AEC220E030E040E050E0BB
:104060002F5F3F4F4F4F5F4FFD01E20FF31F8081E6
:10407000853AB1F3C901D8011E969C938E931D9782
:10408000D3944616570609F412C1D7011196ED9143
:10409000FC91129782819381F70192838183681644
:1040A000790609F0A1CFD30112968D919C911397B7
:1040B0009283818399CFC5010E94E82D2396E2E186
:1040C0000C94153777240FB6F8940F928091B002B4
:1040D00081508093B0028091B002882309F0A2C180
:1040E0008091AA02882309F49DC1A9E0DA2ECC248C
:1040F000C3948091F702882399F1E091FC02F0913A
:10410000FD0206811781C8010C960E94BE2FB2E005
:10411000EB2EF12CE00EF11EC7010E94BE2FF8011C
:1041200096898091AB02891718F49093AB02968917
:104130009D9DC001112483549D4FB7010E946D2F96
:10414000E091A802F091A902D80156969C91868927
:10415000981778F2C092AC028091F702882369F632
:104160008091B902882309F457C18091B90288234C
:1041700009F452C1F9E0CF2E44244A94542C662409
:1041800063948091B002882309F02EC18091AD0222
:104190009091AE0201969093AE028093AD02809012
:1041A000AD029090AE028114910409F52091F302C2
:1041B0003091F4028091F5029091F6029093F4020E
:1041C0008093F3023093F6022093F5028091AF02C0
:1041D0008F5F8093AF02E091F302F091F40280814F
:1041E000882309F0D1C350924A024092490280913B
:1041F000490290914A028816990608F4ACC3DD245E
:10420000E091F302F091F4028081882309F449C01F
:10421000E091F302F091F4020580F681E02D068131
:104220001781F801828193818816990608F4C6C324
:10423000E2E0EE2EF12CE00EF11EC7010E94BE2F2F
:10424000D80154968D919C915597892B21F0C801E6
:104250000C960E94BE2FF80196898091AB028917B7
:1042600018F49093AB0296899C9DC001112483544D
:104270009D4FB7010E946D2FE091A802F091A90215
:10428000D80156969C918689981708F4B9CFDD24F9
:10429000D394E091F302F091F4028081882309F035
:1042A000B7CF50924A024092490256C3DD24BB81E7
:1042B000BD0DBB83CC2009F062CE8FE0B89F4001DA
:1042C00011248A0C9B1CE090F302F090F402F70199
:1042D0008081882309F471C10180F281E02D028080
:1042E000F381E02DD7011296FC93EE93119743E0F2
:1042F000642E712C6E0C7F1CE615F70509F477C34C
:1043000046805780DD243FE0C32E82819381F701F0
:10431000928381836816790609F45EC0D7011196ED
:10432000ED91FC91129766817781DC9C80011124CC
:10433000080D191DF80171836083675E7F4F7383D9
:10434000628369517040DB0191968C9191978483CF
:1043500022E030E03683258356968C9156978783EA
:1043600093968C919397808794968D919D910D90C3
:10437000BC91A02D81879287A387B487FB01A78971
:10438000B08D8C91853A09F016C320E030E040E012
:1043900050E02F5F3F4F4F4F5F4FFD01E20FF31F84
:1043A0008081853AB1F3C901D8011E969C938E9302
:1043B0001D97D3944616570609F400C1D7011196EC
:1043C000ED91FC91129782819381F7019283818311
:1043D0006816790609F0A2CFD30112968D919C91AF
:1043E0001397928381839ACF8091B9028F5F8093D4
:1043F000B902DD248091AC02882309F0A9C2DD2036
:1044000009F0A6C28091B90281508093B9028091CF
:10441000B902882309F0B5CE8091AC02813011F445
:104420000E947C2D0F900FBE79821A829A81898119
:10443000981708F040CE6BE2E62E62E0F62E8FC0B1
:10444000019709F4B4C000E010E08A812A814A8112
:104450006A81EDB7FEB73E970FB6F894FEBF0FBE68
:10446000EDBFADB7BEB71196328221821396FC9292
:10447000EE92129790E0FC01EE0FFF1FE80FF91F7C
:10448000CF01880F991F880F991FE80FF91FEA0DB8
:10449000FB1D8281938115969C938E93149717969A
:1044A0001C930E93169730E0F901EE0FFF1FE20FF9
:1044B000F31FCF01880F991F880F991FE80FF91F6D
:1044C000EA0DFB1D878118968C93189719961C92FC
:1044D000199750E0FA01EE0FFF1FE40FF51FCF010F
:1044E000880F991F880F991FE80FF91FEA0DFB1D10
:1044F000858596851B969C938E931A9770E0FB0199
:10450000EE0FFF1FE60FF71FCF01880F991F880FCF
:10451000991FE80FF91FEA0DFB1D84811C968C93EF
:104520001C971D961C920E945B09D1010D900020E2
:10453000E9F71197A219B3098A818F5F8A839A815B
:1045400089812DB73EB7225F3F4F0FB6F8943EBF2B
:104550000FBE2DBF981708F0AECD2A0E3B1E8A81E4
:1045600090E0FC01EE0FFF1FE80FF91FCF01880F4D
:10457000991F880F991FE80FF91FEA0DFB1D858110
:1045800096818230910569F08330910508F458CF07
:104590008330910549F0049709F055CF04E410E009
:1045A00054CF02E410E051CF03E510E04ECF02E516
:1045B00010E04BCF80E090E05ECDDD24CB80CD0CD1
:1045C0008FE0C89E400111248A0C9B1CE090F502EC
:1045D000F090F602F7018081882309F486C00180FB
:1045E000F281E02D0280F381E02DD7011296FC9339
:1045F000EE93119723E0622E712C6E0C7F1CE61552
:10460000F70509F4FEC146805780DD24828193813D
:10461000F701928381836816790609F45EC0D70199
:104620001196ED91FC91129766817781BFE0DB9E38
:1046300080011124080D191DF80171836083675EE4
:104640007F4F7383628369517040DB0191968C9137
:104650009197848322E030E03683258356968C91AF
:104660005697878393968C919397808794968D9194
:104670009D910D90BC91A02D81879287A387B487CF
:10468000FB01A789B08D8C91853A09F091C120E09A
:1046900030E040E050E02F5F3F4F4F4F5F4FFD0154
:1046A000E20FF31F8081853AB1F3C901D8011E964C
:1046B0009C938E931D97D39446165706B9F0D70155
:1046C0001196ED91FC91129782819381F70192836B
:1046D00081836816790609F0A2CFD30112968D91D5
:1046E0009C911397928381839ACFDD24ED2CEC0C5F
:1046F0008FE0E89E60011124CA0CDB1C809100034E
:10470000882309F47CC0E0910103F0910203028048
:10471000F381E02DF0930203E0930103B3E0E33073
:10472000FB0709F478C1E0910103F0910203868050
:104730009780FF249FE0592E84E0682E712C028020
:10474000F381E02DF0930203E093010323E0E330D3
:10475000F20709F4F6C0E0910103F09102036681CB
:104760007781F59C800111240C0D1D1DD801119637
:104770007C936E93675E7F4F13967C936E93129734
:1047800069517040FB0181A114968C931497169681
:104790007C926E921597868917968C93179783A1B2
:1047A00018968C9384A195A1A6A1B7A1F801818741
:1047B0009287A387B487FB01A789B08D8C91853A36
:1047C00009F0F3C020E030E040E050E02F5F3F4FC1
:1047D0004F4F5F4FFD01E20FF31F8081853AB1F328
:1047E000C901D8011E969C938E931D97F39486164B
:1047F000970631F0E0910103F0910203A0CFFF246E
:10480000EF0C8FE0E89E60011124CA0CDB1C809144
:104810000903882309F48AC0E0910A03F0910B038D
:104820000280F381E02DF0930B03E0930A03B3E0E1
:10483000EC30FB0709F4D4C0E0910A03F0910B03BC
:1048400086809780FF2403E0602E712C12E0412EB9
:10485000512C0280F381E02DF0930B03E0930A03C7
:1048600023E0EC30F20709F465C0E0910A03F0910F
:104870000B03668177813FE0F39E800111240C0DCC
:104880001D1DD80111967C936E93675E7F4F139622
:104890007C936E93129769517040FB0181A114962D
:1048A0008C93149716967C926E921597868917961C
:1048B0008C93179784899589892B21F016965C92A1
:1048C0004E921597DB0193968C919397F801808710
:1048D00094968D919D910D90BC91A02D818792878A
:1048E000A387B487FB01A789B08D8C91853A09F025
:1048F0006AC020E030E040E050E02F5F3F4F4F4F74
:104900005F4FFD01E20FF31F8081853AB1F3C901CA
:10491000D8011E969C938E931D97F3948616970646
:1049200031F0E0910A03F0910B0393CFFF247F2C29
:104930007E0CC9CB8281938190930B0380930A03F1
:1049400094CF82819381909302038093010303CFDC
:104950006092AC0257CDDD24E091A802F091A9024B
:10496000868990E0FC01EE0FFF1FEE0FFF1FEE0F98
:10497000FF1FE80FF91FE354FD4F8081823008F4D8
:1049800039CDDD24D39436CDE091F302F091F402D9
:104990000580F681E02D0680F781E02D82819381EC
:1049A00090934A028093490222CC80E090E019CF94
:1049B00080E090E07BCE80E090E0F6CC90934A02DD
:1049C00080934902C9CF80E090E0A2CF8281938199
:1049D00011968C93119712969C939C01F901F8CA39
:1049E0008281938190930B0380930A0325CF828168
:1049F000938111968C93119712969C939C01F901C7
:104A00007FCC8281938111968C93119712969C93FF
:104A10009C01F901F8CD82819381909302038093E8
:104A2000010381CE0F931F93CF93DF93EC01009787
:104A300089F08091A8029091A902C817D90751F076
:104A40000FB6F8940F928A859B858950934039F070
:104A50000F900FBEDF91CF911F910F9108958C8918
:104A60009D8922E0873F920799F3892B89F78E0170
:104A70000E5F1F4FC8010E94BE2F9E898091AB021E
:104A8000891710F49093AB0289E0989FC00111241C
:104A900083549D4FB8010E946D2FE091A802F091C0
:104AA000A9029E898689981798F20E947C2DD0CF02
:104AB000EF92FF920F931F93CF93DF930FB6F8946B
:104AC0000F92009709F4DDC0EC018E010E5F1F4FBD
:104AD000C8010E94BE2F8C899D89892B21F0CE01AF
:104AE0000C960E94BE2F89E093E0B8010E946D2FC2
:104AF0000F900FBE8091A8029091A902C817D90704
:104B000061F18091BA02882391F00FB6F8940F9268
:104B1000E091F302F091F4028081882369F48FEF31
:104B20009FEF90934A02809349020F900FBECDB73A
:104B3000DEB7E6E00C942137E091F302F091F40245
:104B40000580F681E02D0680F781E02D828193813A
:104B500090934A0280934902E8CF8091BA02882359
:104B600009F098C09091AA0280910903891709F46D
:104B700094C08091B002882309F088C01092AC02E2
:104B800080918400909185007C0100E010E0E0922B
:104B9000B102F092B2020093B3021093B40280917A
:104BA000B5029091B602A091B702B091B8028E15ED
:104BB0009F05A007B107B0F4E091A802F091A90207
:104BC000A8019701281B390B4A0B5B0B84A195A107
:104BD000A6A1B7A1820F931FA41FB51F84A395A3FD
:104BE000A6A3B7A3E092B502F092B6020093B70273
:104BF0001093B802E091A802F091A902A091A80236
:104C0000B091A9022081318157968D919C9158973E
:104C10008217930730F046C08091AB028150809399
:104C2000AB028091AB0290E0FC01EE0FFF1FEE0F94
:104C3000FF1FEE0FFF1FE80FF91FE354FD4F8081A8
:104C4000882351F39091AB0289E0989FD001112401
:104C5000A354BD4F1196ED91FC9112970280F38100
:104C6000E02D1296FC93EE931197CD010396E81771
:104C7000F90729F1868197819093A9028093A80270
:104C800056CFC091A802D091A9021FCF81E0809396
:104C9000AC024DCF0E947C2D4ACF1092A9021092F7
:104CA000A80245CF8091A8029091A9026091A80224
:104CB0007091A902675E7F4F0E945E0BB2CF828126
:104CC000938111968C93119712969C939C01F901F4
:104CD000D1CFA0E0B0E0EFE6F6E20C9400379C0103
:104CE000009741F40E947C2DCDB7DEB7EBE00C9429
:104CF0001C3777C18091B0028F5F8093B002C09162
:104D0000AD02D091AE02C20FD31F8091A802909144
:104D1000A90202960E94BE2FE091A802F091A9027A
:104D2000D383C2838091AD029091AE02C817D90798
:104D300008F45BC08091F3029091F4026091A802A4
:104D40007091A9026E5F7F4F0E948C2F8091490263
:104D500090914A02C817D90720F4D0934A02C09311
:104D600049020FB6F8940F928091B002815080935F
:104D7000B0028091B002882309F04DC08091AA0250
:104D8000882309F448C099E0F92EEE24E394809139
:104D9000F7028823B9F1E091FC02F091FD02C6818F
:104DA000D781CE010C960E94BE2F8E010E5F1F4F41
:104DB000C8010E94BE2F9E898091AB02891710F412
:104DC0009093AB029F9DC001112483549D4FB80165
:104DD0000E946D2FE091A802F091A9029E89868918
:104DE0009817A8F2E092AC02D2CF8091F502909190
:104DF000F6026091A8027091A9026E5F7F4F0E9437
:104E00008C2FAFCF8091B902882389F48091AC02B6
:104E1000813009F495C080E00F900FBE882309F41B
:104E200061CFCDB7DEB7EBE00C941C37DAC08091D0
:104E3000B902882359F389E0C82EAA24AA94BA2C6F
:104E4000992493948091B002882309F07DC08091C9
:104E5000AD029091AE0201969093AE028093AD02A6
:104E6000E090AD02F090AE02E114F10409F520915A
:104E7000F3023091F4028091F5029091F602909342
:104E8000F4028093F3023093F6022093F5028091AE
:104E9000AF028F5F8093AF02E091F302F091F402D2
:104EA0008081882309F087C0B0924A02A09249020B
:104EB0008091490290914A02E816F90608F45EC012
:104EC000DD24E091F302F091F4028081882309F45B
:104ED0006DC0E091F302F091F4020580F681E02DBF
:104EE000C681D7818A819B81E816F90608F474C0CF
:104EF0008E010E5F1F4FC8010E94BE2F8C899D89B5
:104F0000892B21F0CE010C960E94BE2F9E898091A4
:104F1000AB02891710F49093AB029C9DC001112441
:104F200083549D4FB8010E946D2FE091A802F0912B
:104F3000A9029E898689981720F2DD24D394C1CFD7
:104F40000E947C2D81E068CF8091B9028F5F8093B1
:104F5000B902DD248091AC02882369F4DD2059F484
:104F60008091B90281508093B9028091B90288235F
:104F700009F068CF4BCF9092AC02F2CFDD24E091E4
:104F8000A802F091A902868990E0FC01EE0FFF1FB4
:104F9000EE0FFF1FEE0FFF1FE80FF91FE354FD4F49
:104FA00080818230B8F2DD24D394D4CFB0924A020B
:104FB000A0924902E4CFE091F302F091F40205805F
:104FC000F681E02D0680F781E02D82819381909318
:104FD0004A02809349026CCF90934A02809349021F
:104FE000CECFA0E0B0E0E7EFF7E20C940037FC0191
:104FF000EB018091B0028F5F8093B0022091AD02EF
:105000003091AE0280819181C80FD91F28173907CE
:1050100008F016C1C817D90708F024C12C173D079E
:1050200008F020C1D183C0838091A8029091A90289
:1050300002960E94BE2FE091A802F091A902D383AC
:10504000C2838091AD029091AE02C817D90708F4CF
:10505000FCC08091F3029091F4026091A8027091DB
:10506000A9026E5F7F4F0E948C2F80914902909120
:105070004A02C817D90720F4D0934A02C0934902C4
:105080000FB6F8940F928091B00281508093B002D5
:105090008091B002882309F003C18091AA0288237D
:1050A00009F4FEC049E0F42EEE24E3948091F70267
:1050B000882369F1E091FC02F091FD02C681D7815D
:1050C000CE010C960E94BE2F8E010E5F1F4FC801AD
:1050D0000E94BE2F9E898091AB02891710F4909395
:1050E000AB029F9DC001112483549D4FB8010E94C3
:1050F0006D2FE091A802F091A9029E8986899817E8
:10510000A8F2E092AC028091F702882399F6809190
:10511000B902882309F4BFC08091B902882309F439
:10512000BAC039E0C32EAA24AA94BA2C9924939425
:105130008091B002882309F098C08091AD029091CF
:10514000AE0201969093AE028093AD02E090AD0264
:10515000F090AE02E114F10409F52091F3023091D0
:10516000F4028091F5029091F6029093F4028093FC
:10517000F3023093F6022093F5028091AF028F5F25
:105180008093AF02E091F302F091F40280818823D2
:1051900009F0ADC0B0924A02A09249028091490242
:1051A00090914A02E816F90608F489C0DD24E091DE
:1051B000F302F091F40280818823E9F1E091F30297
:1051C000F091F4020580F681E02DC681D7818A81B5
:1051D0009B81E816F90608F49BC08E010E5F1F4FF5
:1051E000C8010E94BE2F8C899D89892B21F0CE0198
:1051F0000C960E94BE2F9E898091AB02891710F4F5
:105200009093AB029C9DC001112483549D4FB80123
:105210000E946D2FE091A802F091A9029E898689D3
:10522000981728F2DD24D394E091F302F091F40270
:105230008081882319F6B0924A02A092490240C0A8
:10524000C817D90708F4EECEE9CE8091F502909107
:10525000F6026091A8027091A9026E5F7F4F0E94D2
:105260008C2F0ECFD183C0830BCF8091B9028F5F7B
:105270008093B902DD248091AC028823E9F4DD201B
:10528000D9F48091B90281508093B9028091B9021A
:10529000882309F04DCF8091AC02813009F43DC0E4
:1052A00080E00F900FBE882311F40E947C2DCDB7B3
:1052B000DEB7EBE00C941C379092AC02E2CFDD2419
:1052C000E091A802F091A902868990E0FC01EE0F1E
:1052D000FF1FEE0FFF1FEE0FFF1FE80FF91FE35434
:1052E000FD4F8081823038F2DD24D394C4CFE09129
:1052F000F302F091F4020580F681E02D0680F7813B
:10530000E02D8281938190934A028093490246CF97
:1053100090934A0280934902D3CF0E947C2D81E072
:10532000C0CF0F931F93CF93DF930FB6F8940F92D4
:10533000009709F453C0EC018E010E5F1F4FC801A6
:105340000E94BE2F8C899D89892B21F0CE010C965D
:105350000E94BE2F80E093E0B8010E946D2F8091E3
:10536000BB028F5F8093BB028091BC028F5F8093F2
:10537000BC020F900FBE8091BA02882319F1809170
:10538000A8029091A902C817D90769F10FB6F8943D
:105390000F92E091F302F091F40280818823B9F03A
:1053A000E091F302F091F4020580F681E02D068091
:1053B000F781E02D8281938190934A028093490284
:1053C0000F900FBEDF91CF911F910F9108958FEF36
:1053D0009FEF90934A0280934902F2CFC091A802B6
:1053E000D091A902A9CF0E947C2DECCFF894109205
:1053F000BA020E94FC2C0895A0E0B0E0E2E0FAE2DC
:105400000C94F9362C01362E272E5A013901102F13
:10541000470188E290E00E945B2EEC01009709F4BE
:10542000ADC0C114D10409F49DC0D88ECF8AC60185
:1054300065EA70E0A5010E94E808EF88F88C832DEA
:10544000922D9C01F901DE0190E0808159968C93A8
:1054500059978081882329F09F5F31961196983063
:10546000A1F718A2012F143008F07AC00E8B0BA3FD
:1054700072E0C72ED12CCC0EDD1EC6010E94692F12
:10548000CE010C960E94692FD987C88784E090E0EE
:10549000801B91099D878C87DB8BCA8B1CA21DA268
:1054A0001EA21FA20894A108B108C7018A0D9B1D66
:1054B000B201A3010E94682C99838883811491040E
:1054C00019F0F401D183C0830FB6F8940F92809144
:1054D000AA028F5F8093AA028091A8029091A902EC
:1054E000892B09F452C08091BA02882359F4E091C3
:1054F000A802F091A9028689181720F0D093A9027A
:10550000C093A8028091BC028F5F8093BC0289A3E4
:105510009E898091AB02891710F49093AB0289E0C9
:10552000989FC001112483549D4FB6010E946D2F96
:105530000F900FBE8091BA02882359F0E091A80223
:10554000F091A9028689811720F40E947C2D81E0C8
:1055500001C081E0CDB7DEB7E2E10C94153751C050
:1055600003E084CFC5010E945B2E6C01988F8F8B66
:10557000009709F05CCFCE010E94E82D8FEFCDB7E8
:10558000DEB7E2E10C9415373CC0D093A902C0937A
:10559000A8028091AA02813009F0B4CF8DEB92E08D
:1055A0000E94592F86EC92E00E94592F8FEC92E0D6
:1055B0000E94592F88ED92E00E94592F61EEE62E4D
:1055C00062E0F62EC7010E94592F5AEEA52E52E036
:1055D000B52EC5010E94592F87EF92E00E94592FE6
:1055E00080E093E00E94592F89E093E00E94592FB8
:1055F000F092F402E092F302B092F602A092F50269
:1056000081CFA0E0B0E0E7E0FBE20C94033788E252
:1056100090E00E945B2EEC01009709F491C085E5B3
:1056200090E00E945B2E988F8F8B009709F4C7C083
:1056300065EA70E045E550E00E94E8080F89188DA2
:10564000EDE3F2E0DE01808159968C9359978081D9
:10565000882331F03196119682E0E534F80799F706
:1056600018A21E8A1BA2F2E0CF2ED12CCC0EDD1E7A
:10567000C6010E94692FCE010C960E94692FD9871E
:10568000C88784E090E09D878C87DB8BCA8B1CA247
:105690001DA21EA21FA2C8018C5A9F4F64EB71E08D
:1056A00040E050E00E94682C998388830FB6F894FC
:1056B0000F928091AA028F5F8093AA028091A80224
:1056C0009091A902892B09F441C08091BA028823E4
:1056D00059F4E091A802F091A9028689882321F467
:1056E000D093A902C093A8028091BC028F5F8093DF
:1056F000BC0289A39E898091AB02891710F4909314
:10570000AB0289E0989FC001112483549D4FB601DC
:105710000E946D2F0F900FBE8091BA02882321F056
:105720008091A8029091A902F89481E08093BA0236
:105730001092AE021092AD020E94E92F0E94B32C8B
:10574000CDB7DEB7E8E00C941F3741C0D093A90273
:10575000C093A8028091AA02813031F68DEB92E0CD
:105760000E94592F86EC92E00E94592F8FEC92E014
:105770000E94592F88ED92E00E94592FE1EEEE2E03
:10578000E2E0FE2EC7010E94592F0AEE12E0C80186
:105790000E94592F87EF92E00E94592F80E093E0FA
:1057A0000E94592F89E093E00E94592FF092F40251
:1057B000E092F3021093F6020093F50295CFCE012A
:1057C0000E94E82DCDB7DEB7E8E00C941F37AF920A
:1057D000BF92DF92EF92FF920F931F93CF93DF93CD
:1057E000EC015A018091B0028F5F8093B0028091EA
:1057F000AA02681708F46AC000E014E08FE0D82E0F
:10580000B9E0EB2E1150AFE0FA2E0D9DC00111242E
:105810001E9DB001112463547D4F8C0F9D1F41E0EC
:1058200050E00E940F14080F112361F76091F302FA
:105830007091F4020F9DC00111248C0F9D1F42E056
:1058400050E00E940F14102F180F6091F502709114
:10585000F6021F9DC00111248C0F9D1F42E050E0F5
:105860000E940F14180F1F9DC00111248C0F9D1F43
:1058700060E073E044E050E00E940F14180F1F9D99
:10588000C00111248C0F9D1F69E073E043E050E0DC
:105890000E940F14180FA114B10459F080918400D4
:1058A00090918500A0E0B0E0F50180839183A28310
:1058B000B3830E94B518812FDF91CF911F910F9173
:1058C000FF90EF90DF90BF90AF90089510E0F1CF80
:1058D000FC0191E1908322E2229383E3829362931D
:1058E00072931292129280E8829312921292129202
:1058F00082E0829383E0829384E0829385E08293C6
:1059000086E0829387E0829388E0829389E08293A5
:1059100080E18293929382E1829383E1829384E196
:10592000829385E1829386E1829387E1829388E185
:10593000829389E1829380E2829381E2829322932F
:1059400083E282934293529386E2829387E2829328
:1059500088E2829389E2829380E3829381E3829357
:105960003197CF01089584EF91E0909313038093D2
:105970001203909315038093140381E080939900A0
:1059800083EF809398008BE080939100E1E7F0E053
:10599000808182608083A091A802B091A902CD91FC
:1059A000CDBFDD91DEBFFF91EF91DF91CF91BF9130
:1059B000AF919F918F917F916F915F914F913F91A7
:1059C0002F911F910F91FF90EF90DF90CF90BF909C
:1059D000AF909F908F907F906F905F904F903F908F
:1059E0002F901F900F900CBE0F900BBE0F900FBE0C
:1059F0000F90089581E0089508950F920FB6F894DE
:105A00000F920BB60F920CB60F921F9211242F9289
:105A10003F924F925F926F927F928F929F92AF923E
:105A2000BF92CF92DF92EF92FF920F931F932F932B
:105A30003F934F935F936F937F938F939F93AF9316
:105A4000BF93CF93DF93EF93FF93A091A802B09100
:105A5000A9020DB60D920EB60D928091140390918D
:105A6000150301979093150380931403892B09F470
:105A700035C00E94FE15882311F00E940718A091DE
:105A8000A802B091A902CD91CDBFDD91DEBFFF91FB
:105A9000EF91DF91CF91BF91AF919F918F917F91C6
:105AA0006F915F914F913F912F911F910F91FF90B7
:105AB000EF90DF90CF90BF90AF909F908F907F90AE
:105AC0006F905F904F903F902F901F900F900CBE63
:105AD0000F900BBE0F900FBE0F9008950E944C03C5
